{
  "_format": "hh-sol-artifact-1",
  "contractName": "TicketMarket",
  "sourceName": "contracts/TicketMarket.sol",
  "abi": [
    {
      "inputs": [],
      "stateMutability": "nonpayable",
      "type": "constructor"
    },
    {
      "anonymous": false,
      "inputs": [
        {
          "indexed": true,
          "internalType": "uint256",
          "name": "tokenID",
          "type": "uint256"
        },
        {
          "indexed": false,
          "internalType": "address",
          "name": "ticketOwner",
          "type": "address"
        },
        {
          "indexed": false,
          "internalType": "uint256",
          "name": "price",
          "type": "uint256"
        }
      ],
      "name": "MarketItemAfterSale",
      "type": "event"
    },
    {
      "anonymous": false,
      "inputs": [
        {
          "indexed": false,
          "internalType": "uint256",
          "name": "eventID",
          "type": "uint256"
        },
        {
          "indexed": false,
          "internalType": "address",
          "name": "seller",
          "type": "address"
        },
        {
          "indexed": false,
          "internalType": "uint128",
          "name": "price",
          "type": "uint128"
        },
        {
          "indexed": false,
          "internalType": "uint128",
          "name": "supply",
          "type": "uint128"
        },
        {
          "indexed": false,
          "internalType": "string",
          "name": "ticketType",
          "type": "string"
        }
      ],
      "name": "MarketItemCreation",
      "type": "event"
    },
    {
      "anonymous": false,
      "inputs": [
        {
          "indexed": false,
          "internalType": "uint256[]",
          "name": "tokenID",
          "type": "uint256[]"
        },
        {
          "indexed": false,
          "internalType": "address",
          "name": "ticketOwner",
          "type": "address"
        },
        {
          "indexed": false,
          "internalType": "address",
          "name": "seller",
          "type": "address"
        },
        {
          "indexed": false,
          "internalType": "uint256",
          "name": "price",
          "type": "uint256"
        }
      ],
      "name": "MarketItemResell",
      "type": "event"
    },
    {
      "anonymous": false,
      "inputs": [
        {
          "indexed": true,
          "internalType": "uint256",
          "name": "tokenID",
          "type": "uint256"
        },
        {
          "indexed": false,
          "internalType": "address",
          "name": "seller",
          "type": "address"
        },
        {
          "indexed": false,
          "internalType": "uint256",
          "name": "price",
          "type": "uint256"
        }
      ],
      "name": "MarketItemStopSale",
      "type": "event"
    },
    {
      "anonymous": false,
      "inputs": [
        {
          "indexed": false,
          "internalType": "uint256[]",
          "name": "tokenID",
          "type": "uint256[]"
        },
        {
          "indexed": false,
          "internalType": "address",
          "name": "seller",
          "type": "address"
        },
        {
          "indexed": false,
          "internalType": "uint256",
          "name": "price",
          "type": "uint256"
        }
      ],
      "name": "StopBatchTicketSale",
      "type": "event"
    },
    {
      "anonymous": false,
      "inputs": [
        {
          "indexed": false,
          "internalType": "uint256",
          "name": "tokenId",
          "type": "uint256"
        },
        {
          "indexed": false,
          "internalType": "address",
          "name": "toUser",
          "type": "address"
        }
      ],
      "name": "transferTicket",
      "type": "event"
    },
    {
      "inputs": [
        {
          "internalType": "uint256",
          "name": "eventId",
          "type": "uint256"
        }
      ],
      "name": "ListEventTicketAll",
      "outputs": [
        {
          "components": [
            {
              "internalType": "address",
              "name": "nftContract",
              "type": "address"
            },
            {
              "internalType": "uint256",
              "name": "tokenID",
              "type": "uint256"
            },
            {
              "internalType": "uint256",
              "name": "eventID",
              "type": "uint256"
            },
            {
              "internalType": "address payable",
              "name": "ticketOwner",
              "type": "address"
            },
            {
              "internalType": "address payable",
              "name": "eventOwner",
              "type": "address"
            },
            {
              "internalType": "address payable",
              "name": "seller",
              "type": "address"
            },
            {
              "internalType": "uint128",
              "name": "price",
              "type": "uint128"
            },
            {
              "internalType": "string",
              "name": "ticketType",
              "type": "string"
            },
            {
              "internalType": "bool",
              "name": "sold",
              "type": "bool"
            },
            {
              "internalType": "bool",
              "name": "soldBefore",
              "type": "bool"
            },
            {
              "internalType": "bool",
              "name": "used",
              "type": "bool"
            },
            {
              "internalType": "uint128",
              "name": "seat",
              "type": "uint128"
            },
            {
              "internalType": "uint128",
              "name": "transferRight",
              "type": "uint128"
            }
          ],
          "internalType": "struct TicketMarket.MarketItem[]",
          "name": "",
          "type": "tuple[]"
        }
      ],
      "stateMutability": "view",
      "type": "function"
    },
    {
      "inputs": [
        {
          "internalType": "address",
          "name": "user",
          "type": "address"
        }
      ],
      "name": "ListEventTicketByPublicAddress",
      "outputs": [
        {
          "components": [
            {
              "internalType": "address",
              "name": "nftContract",
              "type": "address"
            },
            {
              "internalType": "uint256",
              "name": "tokenID",
              "type": "uint256"
            },
            {
              "internalType": "uint256",
              "name": "eventID",
              "type": "uint256"
            },
            {
              "internalType": "address payable",
              "name": "ticketOwner",
              "type": "address"
            },
            {
              "internalType": "address payable",
              "name": "eventOwner",
              "type": "address"
            },
            {
              "internalType": "address payable",
              "name": "seller",
              "type": "address"
            },
            {
              "internalType": "uint128",
              "name": "price",
              "type": "uint128"
            },
            {
              "internalType": "string",
              "name": "ticketType",
              "type": "string"
            },
            {
              "internalType": "bool",
              "name": "sold",
              "type": "bool"
            },
            {
              "internalType": "bool",
              "name": "soldBefore",
              "type": "bool"
            },
            {
              "internalType": "bool",
              "name": "used",
              "type": "bool"
            },
            {
              "internalType": "uint128",
              "name": "seat",
              "type": "uint128"
            },
            {
              "internalType": "uint128",
              "name": "transferRight",
              "type": "uint128"
            }
          ],
          "internalType": "struct TicketMarket.MarketItem[]",
          "name": "",
          "type": "tuple[]"
        }
      ],
      "stateMutability": "view",
      "type": "function"
    },
    {
      "inputs": [
        {
          "internalType": "uint256",
          "name": "eventId",
          "type": "uint256"
        }
      ],
      "name": "ListEventTicketOnSale",
      "outputs": [
        {
          "components": [
            {
              "internalType": "address",
              "name": "nftContract",
              "type": "address"
            },
            {
              "internalType": "uint256",
              "name": "tokenID",
              "type": "uint256"
            },
            {
              "internalType": "uint256",
              "name": "eventID",
              "type": "uint256"
            },
            {
              "internalType": "address payable",
              "name": "ticketOwner",
              "type": "address"
            },
            {
              "internalType": "address payable",
              "name": "eventOwner",
              "type": "address"
            },
            {
              "internalType": "address payable",
              "name": "seller",
              "type": "address"
            },
            {
              "internalType": "uint128",
              "name": "price",
              "type": "uint128"
            },
            {
              "internalType": "string",
              "name": "ticketType",
              "type": "string"
            },
            {
              "internalType": "bool",
              "name": "sold",
              "type": "bool"
            },
            {
              "internalType": "bool",
              "name": "soldBefore",
              "type": "bool"
            },
            {
              "internalType": "bool",
              "name": "used",
              "type": "bool"
            },
            {
              "internalType": "uint128",
              "name": "seat",
              "type": "uint128"
            },
            {
              "internalType": "uint128",
              "name": "transferRight",
              "type": "uint128"
            }
          ],
          "internalType": "struct TicketMarket.MarketItem[]",
          "name": "",
          "type": "tuple[]"
        }
      ],
      "stateMutability": "view",
      "type": "function"
    },
    {
      "inputs": [],
      "name": "ListUserOwnItems",
      "outputs": [
        {
          "components": [
            {
              "internalType": "address",
              "name": "nftContract",
              "type": "address"
            },
            {
              "internalType": "uint256",
              "name": "tokenID",
              "type": "uint256"
            },
            {
              "internalType": "uint256",
              "name": "eventID",
              "type": "uint256"
            },
            {
              "internalType": "address payable",
              "name": "ticketOwner",
              "type": "address"
            },
            {
              "internalType": "address payable",
              "name": "eventOwner",
              "type": "address"
            },
            {
              "internalType": "address payable",
              "name": "seller",
              "type": "address"
            },
            {
              "internalType": "uint128",
              "name": "price",
              "type": "uint128"
            },
            {
              "internalType": "string",
              "name": "ticketType",
              "type": "string"
            },
            {
              "internalType": "bool",
              "name": "sold",
              "type": "bool"
            },
            {
              "internalType": "bool",
              "name": "soldBefore",
              "type": "bool"
            },
            {
              "internalType": "bool",
              "name": "used",
              "type": "bool"
            },
            {
              "internalType": "uint128",
              "name": "seat",
              "type": "uint128"
            },
            {
              "internalType": "uint128",
              "name": "transferRight",
              "type": "uint128"
            }
          ],
          "internalType": "struct TicketMarket.MarketItem[]",
          "name": "",
          "type": "tuple[]"
        }
      ],
      "stateMutability": "view",
      "type": "function"
    },
    {
      "inputs": [
        {
          "internalType": "uint256",
          "name": "tokenId",
          "type": "uint256"
        }
      ],
      "name": "NFTItem",
      "outputs": [
        {
          "components": [
            {
              "internalType": "address",
              "name": "nftContract",
              "type": "address"
            },
            {
              "internalType": "uint256",
              "name": "tokenID",
              "type": "uint256"
            },
            {
              "internalType": "uint256",
              "name": "eventID",
              "type": "uint256"
            },
            {
              "internalType": "address payable",
              "name": "ticketOwner",
              "type": "address"
            },
            {
              "internalType": "address payable",
              "name": "eventOwner",
              "type": "address"
            },
            {
              "internalType": "address payable",
              "name": "seller",
              "type": "address"
            },
            {
              "internalType": "uint128",
              "name": "price",
              "type": "uint128"
            },
            {
              "internalType": "string",
              "name": "ticketType",
              "type": "string"
            },
            {
              "internalType": "bool",
              "name": "sold",
              "type": "bool"
            },
            {
              "internalType": "bool",
              "name": "soldBefore",
              "type": "bool"
            },
            {
              "internalType": "bool",
              "name": "used",
              "type": "bool"
            },
            {
              "internalType": "uint128",
              "name": "seat",
              "type": "uint128"
            },
            {
              "internalType": "uint128",
              "name": "transferRight",
              "type": "uint128"
            }
          ],
          "internalType": "struct TicketMarket.MarketItem",
          "name": "",
          "type": "tuple"
        }
      ],
      "stateMutability": "view",
      "type": "function"
    },
    {
      "inputs": [
        {
          "internalType": "uint128",
          "name": "price",
          "type": "uint128"
        },
        {
          "internalType": "address",
          "name": "NftCont",
          "type": "address"
        },
        {
          "internalType": "uint256[]",
          "name": "tokenIds",
          "type": "uint256[]"
        }
      ],
      "name": "ResellTicket",
      "outputs": [],
      "stateMutability": "payable",
      "type": "function"
    },
    {
      "inputs": [
        {
          "internalType": "uint128",
          "name": "price",
          "type": "uint128"
        },
        {
          "internalType": "address",
          "name": "NftCont",
          "type": "address"
        },
        {
          "internalType": "uint256[]",
          "name": "tokenIds",
          "type": "uint256[]"
        },
        {
          "internalType": "uint256",
          "name": "eventid",
          "type": "uint256"
        }
      ],
      "name": "StopBatchSale",
      "outputs": [],
      "stateMutability": "payable",
      "type": "function"
    },
    {
      "inputs": [
        {
          "internalType": "uint128",
          "name": "price",
          "type": "uint128"
        },
        {
          "internalType": "address",
          "name": "NftCont",
          "type": "address"
        },
        {
          "internalType": "uint256",
          "name": "tokenId",
          "type": "uint256"
        }
      ],
      "name": "StopTicketSale",
      "outputs": [],
      "stateMutability": "payable",
      "type": "function"
    },
    {
      "inputs": [
        {
          "internalType": "address",
          "name": "NftCont",
          "type": "address"
        },
        {
          "internalType": "uint256",
          "name": "tokenId",
          "type": "uint256"
        },
        {
          "internalType": "address",
          "name": "toAddr",
          "type": "address"
        }
      ],
      "name": "TransferTicket",
      "outputs": [],
      "stateMutability": "payable",
      "type": "function"
    },
    {
      "inputs": [
        {
          "internalType": "uint256",
          "name": "eventId",
          "type": "uint256"
        },
        {
          "internalType": "address",
          "name": "user",
          "type": "address"
        }
      ],
      "name": "TransferableIds",
      "outputs": [
        {
          "internalType": "uint256[]",
          "name": "",
          "type": "uint256[]"
        }
      ],
      "stateMutability": "view",
      "type": "function"
    },
    {
      "inputs": [
        {
          "internalType": "uint128",
          "name": "price",
          "type": "uint128"
        },
        {
          "internalType": "address",
          "name": "NftCont",
          "type": "address"
        },
        {
          "internalType": "string",
          "name": "ticketType",
          "type": "string"
        },
        {
          "internalType": "uint256",
          "name": "eventID",
          "type": "uint256"
        },
        {
          "internalType": "uint128",
          "name": "supply",
          "type": "uint128"
        },
        {
          "internalType": "uint128",
          "name": "transNum",
          "type": "uint128"
        }
      ],
      "name": "createMarketItem",
      "outputs": [],
      "stateMutability": "payable",
      "type": "function"
    },
    {
      "inputs": [
        {
          "internalType": "uint256",
          "name": "tokenid",
          "type": "uint256"
        }
      ],
      "name": "isInMarket",
      "outputs": [
        {
          "internalType": "bool",
          "name": "",
          "type": "bool"
        }
      ],
      "stateMutability": "view",
      "type": "function"
    },
    {
      "inputs": [
        {
          "internalType": "uint256",
          "name": "tokenId",
          "type": "uint256"
        }
      ],
      "name": "isSoldBefore",
      "outputs": [
        {
          "internalType": "bool",
          "name": "",
          "type": "bool"
        }
      ],
      "stateMutability": "view",
      "type": "function"
    },
    {
      "inputs": [
        {
          "internalType": "address",
          "name": "NftCont",
          "type": "address"
        },
        {
          "internalType": "uint256",
          "name": "tokenId",
          "type": "uint256"
        }
      ],
      "name": "ticketSale",
      "outputs": [],
      "stateMutability": "payable",
      "type": "function"
    },
    {
      "inputs": [
        {
          "internalType": "uint256[]",
          "name": "tokenIds",
          "type": "uint256[]"
        },
        {
          "internalType": "uint256",
          "name": "eventId",
          "type": "uint256"
        },
        {
          "internalType": "address",
          "name": "NftCont",
          "type": "address"
        }
      ],
      "name": "useTickets",
      "outputs": [],
      "stateMutability": "nonpayable",
      "type": "function"
    }
  ],
  "bytecode": "0x608060405234801561001057600080fd5b50600160008190555033600360006101000a81548173ffffffffffffffffffffffffffffffffffffffff021916908373ffffffffffffffffffffffffffffffffffffffff160217905550615435806100696000396000f3fe6080604052600436106100e85760003560e01c80636cbd493b1161008a578063bd3114b611610059578063bd3114b6146102f6578063c2301b691461031f578063cf0db05b1461035c578063e701679b14610378576100e8565b80636cbd493b14610244578063827884a81461026057806385c15fed1461027c578063b19d4e08146102b9576100e8565b8063396f7d15116100c6578063396f7d151461017157806349cdcc98146101ae5780636aaf93d2146101ca5780636b282dd814610207576100e8565b806308aaac95146100ed5780630a29d9491461012a578063112b358414610146575b600080fd5b3480156100f957600080fd5b50610114600480360381019061010f9190613aec565b610394565b6040516101219190613b34565b60405180910390f35b610144600480360381019061013f9190613bad565b6103f1565b005b34801561015257600080fd5b5061015b6107fb565b6040516101689190613ed1565b60405180910390f35b34801561017d57600080fd5b5061019860048036038101906101939190613aec565b610d3a565b6040516101a59190613b34565b60405180910390f35b6101c860048036038101906101c39190614067565b610d6a565b005b3480156101d657600080fd5b506101f160048036038101906101ec9190613aec565b6110d6565b6040516101fe9190613ed1565b60405180910390f35b34801561021357600080fd5b5061022e600480360381019061022991906140ea565b6115ff565b60405161023b91906141d9565b60405180910390f35b61025e600480360381019061025991906141fb565b611910565b005b61027a6004803603810190610275919061424e565b611c57565b005b34801561028857600080fd5b506102a3600480360381019061029e9190613aec565b6120b5565b6040516102b09190613ed1565b60405180910390f35b3480156102c557600080fd5b506102e060048036038101906102db9190613aec565b61255e565b6040516102ed91906143d6565b60405180910390f35b34801561030257600080fd5b5061031d600480360381019061031891906143f8565b6128d2565b005b34801561032b57600080fd5b5061034660048036038101906103419190614467565b612a4b565b6040516103539190613ed1565b60405180910390f35b61037660048036038101906103719190614549565b61307e565b005b610392600480360381019061038d91906145f2565b61366d565b005b60008060056000848152602001908152602001600020549050600115156004600083815260200190815260200160002060080160019054906101000a900460ff161515036103e65760019150506103ec565b60009150505b919050565b6103f96138cd565b60006005600083815260200190815260200160002054905060006004600083815260200190815260200160002060060160009054906101000a90046fffffffffffffffffffffffffffffffff16905060006004600084815260200190815260200160002060010154905060006004600085815260200190815260200160002060050160009054906101000a900473ffffffffffffffffffffffffffffffffffffffff169050826fffffffffffffffffffffffffffffffff163410156104f3576040517f08c379a00000000000000000000000000000000000000000000000000000000081526004016104ea906146a2565b60405180910390fd5b600015156004600086815260200190815260200160002060080160009054906101000a900460ff1615151461055d576040517f08c379a00000000000000000000000000000000000000000000000000000000081526004016105549061470e565b60405180910390fd5b336004600086815260200190815260200160002060030160006101000a81548173ffffffffffffffffffffffffffffffffffffffff021916908373ffffffffffffffffffffffffffffffffffffffff16021790555060016004600086815260200190815260200160002060080160006101000a81548160ff02191690831515021790555060006004600086815260200190815260200160002060050160006101000a81548173ffffffffffffffffffffffffffffffffffffffff021916908373ffffffffffffffffffffffffffffffffffffffff16021790555060016004600086815260200190815260200160002060080160016101000a81548160ff02191690831515021790555060016004600086815260200190815260200160002060090160009054906101000a90046fffffffffffffffffffffffffffffffff166106a5919061475d565b6004600086815260200190815260200160002060090160006101000a8154816fffffffffffffffffffffffffffffffff02191690836fffffffffffffffffffffffffffffffff1602179055506106fb600261391c565b8573ffffffffffffffffffffffffffffffffffffffff166323b872dd3033856040518463ffffffff1660e01b8152600401610738939291906147bf565b600060405180830381600087803b15801561075257600080fd5b505af1158015610766573d6000803e3d6000fd5b505050508073ffffffffffffffffffffffffffffffffffffffff166108fc349081150290604051600060405180830381858888f193505050501580156107b0573d6000803e3d6000fd5b50847f5352ac602b276106b740de31546b729325b98e18c87e86cde3dd97f9726a734b33856040516107e3929190614831565b60405180910390a2505050506107f7613932565b5050565b60606000610809600161393c565b905060008060005b838110156108b1573373ffffffffffffffffffffffffffffffffffffffff1660046000600184610841919061485a565b815260200190815260200160002060030160009054906101000a900473ffffffffffffffffffffffffffffffffffffffff1673ffffffffffffffffffffffffffffffffffffffff160361089e5760018361089b919061485a565b92505b80806108a99061488e565b915050610811565b5060008267ffffffffffffffff8111156108ce576108cd613f24565b5b60405190808252806020026020018201604052801561090757816020015b6108f46139a6565b8152602001906001900390816108ec5790505b50905060005b84811015610d2f573373ffffffffffffffffffffffffffffffffffffffff166004600060018461093d919061485a565b815260200190815260200160002060030160009054906101000a900473ffffffffffffffffffffffffffffffffffffffff1673ffffffffffffffffffffffffffffffffffffffff1603610d1c576000600182610999919061485a565b9050600060046000838152602001908152602001600020905080604051806101a00160405290816000820160009054906101000a900473ffffffffffffffffffffffffffffffffffffffff1673ffffffffffffffffffffffffffffffffffffffff1673ffffffffffffffffffffffffffffffffffffffff16815260200160018201548152602001600282015481526020016003820160009054906101000a900473ffffffffffffffffffffffffffffffffffffffff1673ffffffffffffffffffffffffffffffffffffffff1673ffffffffffffffffffffffffffffffffffffffff1681526020016004820160009054906101000a900473ffffffffffffffffffffffffffffffffffffffff1673ffffffffffffffffffffffffffffffffffffffff1673ffffffffffffffffffffffffffffffffffffffff1681526020016005820160009054906101000a900473ffffffffffffffffffffffffffffffffffffffff1673ffffffffffffffffffffffffffffffffffffffff1673ffffffffffffffffffffffffffffffffffffffff1681526020016006820160009054906101000a90046fffffffffffffffffffffffffffffffff166fffffffffffffffffffffffffffffffff166fffffffffffffffffffffffffffffffff168152602001600782018054610b8590614905565b80601f0160208091040260200160405190810160405280929190818152602001828054610bb190614905565b8015610bfe5780601f10610bd357610100808354040283529160200191610bfe565b820191906000526020600020905b815481529060010190602001808311610be157829003601f168201915b505050505081526020016008820160009054906101000a900460ff161515151581526020016008820160019054906101000a900460ff161515151581526020016008820160029054906101000a900460ff161515151581526020016008820160039054906101000a90046fffffffffffffffffffffffffffffffff166fffffffffffffffffffffffffffffffff166fffffffffffffffffffffffffffffffff1681526020016009820160009054906101000a90046fffffffffffffffffffffffffffffffff166fffffffffffffffffffffffffffffffff166fffffffffffffffffffffffffffffffff1681525050848681518110610cff57610cfe614936565b5b6020026020010181905250600185610d17919061485a565b945050505b8080610d279061488e565b91505061090d565b508094505050505090565b60008060056000848152602001908152602001600020541115610d605760019050610d65565b600090505b919050565b610d726138cd565b600083905060008173ffffffffffffffffffffffffffffffffffffffff16631e90b293846040518263ffffffff1660e01b8152600401610db29190614965565b602060405180830381865afa158015610dcf573d6000803e3d6000fd5b505050506040513d601f19601f82011682018060405250810190610df39190614995565b90508073ffffffffffffffffffffffffffffffffffffffff163373ffffffffffffffffffffffffffffffffffffffff1614610e63576040517f08c379a0000000000000000000000000000000000000000000000000000000008152600401610e5a90614a34565b60405180910390fd5b60005b845181101561108a576000858281518110610e8457610e83614936565b5b6020026020010151905060006005600083815260200190815260200160002054905060016004600083815260200190815260200160002060080160006101000a81548160ff021916908315150217905550886004600083815260200190815260200160002060060160006101000a8154816fffffffffffffffffffffffffffffffff02191690836fffffffffffffffffffffffffffffffff16021790555060006004600083815260200190815260200160002060050160006101000a81548173ffffffffffffffffffffffffffffffffffffffff021916908373ffffffffffffffffffffffffffffffffffffffff160217905550336004600083815260200190815260200160002060030160006101000a81548173ffffffffffffffffffffffffffffffffffffffff021916908373ffffffffffffffffffffffffffffffffffffffff16021790555060016004600083815260200190815260200160002060080160016101000a81548160ff021916908315150217905550611006600261391c565b8773ffffffffffffffffffffffffffffffffffffffff166323b872dd3033856040518463ffffffff1660e01b8152600401611043939291906147bf565b600060405180830381600087803b15801561105d57600080fd5b505af1158015611071573d6000803e3d6000fd5b50505050505080806110829061488e565b915050610e66565b507fdfafe2e7643356941ce9f45cd6df80c12d2513261b6d7ba4b1239e29de4363008433886040516110be93929190614a54565b60405180910390a150506110d0613932565b50505050565b606060006110e4600161393c565b905060008060005b83811015611180578560046000600184611106919061485a565b81526020019081526020016000206002015414801561115857506000151560046000600184611135919061485a565b815260200190815260200160002060080160009054906101000a900460ff161515145b1561116d5760018361116a919061485a565b92505b80806111789061488e565b9150506110ec565b5060008267ffffffffffffffff81111561119d5761119c613f24565b5b6040519080825280602002602001820160405280156111d657816020015b6111c36139a6565b8152602001906001900390816111bb5790505b50905060005b848110156115f25786600460006001846111f6919061485a565b81526020019081526020016000206002015414801561124857506000151560046000600184611225919061485a565b815260200190815260200160002060080160009054906101000a900460ff161515145b156115df57600060018261125c919061485a565b9050600060046000838152602001908152602001600020905080604051806101a00160405290816000820160009054906101000a900473ffffffffffffffffffffffffffffffffffffffff1673ffffffffffffffffffffffffffffffffffffffff1673ffffffffffffffffffffffffffffffffffffffff16815260200160018201548152602001600282015481526020016003820160009054906101000a900473ffffffffffffffffffffffffffffffffffffffff1673ffffffffffffffffffffffffffffffffffffffff1673ffffffffffffffffffffffffffffffffffffffff1681526020016004820160009054906101000a900473ffffffffffffffffffffffffffffffffffffffff1673ffffffffffffffffffffffffffffffffffffffff1673ffffffffffffffffffffffffffffffffffffffff1681526020016005820160009054906101000a900473ffffffffffffffffffffffffffffffffffffffff1673ffffffffffffffffffffffffffffffffffffffff1673ffffffffffffffffffffffffffffffffffffffff1681526020016006820160009054906101000a90046fffffffffffffffffffffffffffffffff166fffffffffffffffffffffffffffffffff166fffffffffffffffffffffffffffffffff16815260200160078201805461144890614905565b80601f016020809104026020016040519081016040528092919081815260200182805461147490614905565b80156114c15780601f10611496576101008083540402835291602001916114c1565b820191906000526020600020905b8154815290600101906020018083116114a457829003601f168201915b505050505081526020016008820160009054906101000a900460ff161515151581526020016008820160019054906101000a900460ff161515151581526020016008820160029054906101000a900460ff161515151581526020016008820160039054906101000a90046fffffffffffffffffffffffffffffffff166fffffffffffffffffffffffffffffffff166fffffffffffffffffffffffffffffffff1681526020016009820160009054906101000a90046fffffffffffffffffffffffffffffffff166fffffffffffffffffffffffffffffffff166fffffffffffffffffffffffffffffffff16815250508486815181106115c2576115c1614936565b5b60200260200101819052506001856115da919061485a565b945050505b80806115ea9061488e565b9150506111dc565b5080945050505050919050565b6060600061160d600161393c565b905060008060005b8381101561173f578573ffffffffffffffffffffffffffffffffffffffff1660046000600184611645919061485a565b815260200190815260200160002060030160009054906101000a900473ffffffffffffffffffffffffffffffffffffffff1673ffffffffffffffffffffffffffffffffffffffff161480156116ea57506000600460006001846116a8919061485a565b815260200190815260200160002060090160009054906101000a90046fffffffffffffffffffffffffffffffff166fffffffffffffffffffffffffffffffff16115b801561171757508660046000600184611703919061485a565b815260200190815260200160002060020154145b1561172c57600183611729919061485a565b92505b80806117379061488e565b915050611615565b5060008267ffffffffffffffff81111561175c5761175b613f24565b5b60405190808252806020026020018201604052801561178a5781602001602082028036833780820191505090505b50905060005b84811015611902578673ffffffffffffffffffffffffffffffffffffffff16600460006001846117c0919061485a565b815260200190815260200160002060030160009054906101000a900473ffffffffffffffffffffffffffffffffffffffff1673ffffffffffffffffffffffffffffffffffffffff161480156118655750600060046000600184611823919061485a565b815260200190815260200160002060090160009054906101000a90046fffffffffffffffffffffffffffffffff166fffffffffffffffffffffffffffffffff16115b80156118925750876004600060018461187e919061485a565b815260200190815260200160002060020154145b156118ef576000600460006001846118aa919061485a565b8152602001908152602001600020600101549050808385815181106118d2576118d1614936565b5b6020026020010181815250506001846118eb919061485a565b9350505b80806118fa9061488e565b915050611790565b508094505050505092915050565b6119186138cd565b6000600560008381526020019081526020016000205490506004600082815260200190815260200160002060050160009054906101000a900473ffffffffffffffffffffffffffffffffffffffff1673ffffffffffffffffffffffffffffffffffffffff163373ffffffffffffffffffffffffffffffffffffffff161480611a0157506004600082815260200190815260200160002060040160009054906101000a900473ffffffffffffffffffffffffffffffffffffffff1673ffffffffffffffffffffffffffffffffffffffff163373ffffffffffffffffffffffffffffffffffffffff16145b611a40576040517f08c379a0000000000000000000000000000000000000000000000000000000008152600401611a3790614b04565b60405180910390fd5b60016004600083815260200190815260200160002060080160006101000a81548160ff021916908315150217905550836004600083815260200190815260200160002060060160006101000a8154816fffffffffffffffffffffffffffffffff02191690836fffffffffffffffffffffffffffffffff16021790555060006004600083815260200190815260200160002060050160006101000a81548173ffffffffffffffffffffffffffffffffffffffff021916908373ffffffffffffffffffffffffffffffffffffffff160217905550336004600083815260200190815260200160002060030160006101000a81548173ffffffffffffffffffffffffffffffffffffffff021916908373ffffffffffffffffffffffffffffffffffffffff16021790555060016004600083815260200190815260200160002060080160016101000a81548160ff021916908315150217905550611ba0600261391c565b8273ffffffffffffffffffffffffffffffffffffffff166323b872dd3033856040518463ffffffff1660e01b8152600401611bdd939291906147bf565b600060405180830381600087803b158015611bf757600080fd5b505af1158015611c0b573d6000803e3d6000fd5b50505050817fdbe18d9dd8643fa7e3222cffee0423f082934c039103e454dd8791854b442e913386604051611c41929190614831565b60405180910390a250611c52613932565b505050565b611c5f6138cd565b6000836fffffffffffffffffffffffffffffffff1611611cb4576040517f08c379a0000000000000000000000000000000000000000000000000000000008152600401611cab90614b70565b60405180910390fd5b60005b8151816fffffffffffffffffffffffffffffffff16101561206a57600082826fffffffffffffffffffffffffffffffff1681518110611cf957611cf8614936565b5b602002602001015190506000600560008381526020019081526020016000205490503373ffffffffffffffffffffffffffffffffffffffff166004600083815260200190815260200160002060030160009054906101000a900473ffffffffffffffffffffffffffffffffffffffff1673ffffffffffffffffffffffffffffffffffffffff1614611dbf576040517f08c379a0000000000000000000000000000000000000000000000000000000008152600401611db690614c02565b60405180910390fd5b600115156004600083815260200190815260200160002060080160009054906101000a900460ff16151514611e29576040517f08c379a0000000000000000000000000000000000000000000000000000000008152600401611e2090614c6e565b60405180910390fd5b60006004600083815260200190815260200160002060090160009054906101000a90046fffffffffffffffffffffffffffffffff166fffffffffffffffffffffffffffffffff1611611eb0576040517f08c379a0000000000000000000000000000000000000000000000000000000008152600401611ea790614cda565b60405180910390fd5b60008590508073ffffffffffffffffffffffffffffffffffffffff1663f5537ede3330866040518463ffffffff1660e01b8152600401611ef2939291906147bf565b600060405180830381600087803b158015611f0c57600080fd5b505af1158015611f20573d6000803e3d6000fd5b5050505060006004600084815260200190815260200160002060080160006101000a81548160ff021916908315150217905550866004600084815260200190815260200160002060060160006101000a8154816fffffffffffffffffffffffffffffffff02191690836fffffffffffffffffffffffffffffffff160217905550336004600084815260200190815260200160002060050160006101000a81548173ffffffffffffffffffffffffffffffffffffffff021916908373ffffffffffffffffffffffffffffffffffffffff160217905550306004600084815260200190815260200160002060030160006101000a81548173ffffffffffffffffffffffffffffffffffffffff021916908373ffffffffffffffffffffffffffffffffffffffff160217905550612054600261394a565b505050808061206290614cfa565b915050611cb7565b507f59a4c9a93f26aad2a724b873f5ad10297dad1edb62ba7b042699f0dd821d9f2b813033866040516120a09493929190614d32565b60405180910390a16120b0613932565b505050565b606060006120c3600161393c565b905060008060005b8381101561211f5785600460006001846120e5919061485a565b8152602001908152602001600020600201540361210c57600183612109919061485a565b92505b80806121179061488e565b9150506120cb565b5060008267ffffffffffffffff81111561213c5761213b613f24565b5b60405190808252806020026020018201604052801561217557816020015b6121626139a6565b81526020019060019003908161215a5790505b50905060005b84811015612551578660046000600184612195919061485a565b8152602001908152602001600020600201540361253e5760006001826121bb919061485a565b9050600060046000838152602001908152602001600020905080604051806101a00160405290816000820160009054906101000a900473ffffffffffffffffffffffffffffffffffffffff1673ffffffffffffffffffffffffffffffffffffffff1673ffffffffffffffffffffffffffffffffffffffff16815260200160018201548152602001600282015481526020016003820160009054906101000a900473ffffffffffffffffffffffffffffffffffffffff1673ffffffffffffffffffffffffffffffffffffffff1673ffffffffffffffffffffffffffffffffffffffff1681526020016004820160009054906101000a900473ffffffffffffffffffffffffffffffffffffffff1673ffffffffffffffffffffffffffffffffffffffff1673ffffffffffffffffffffffffffffffffffffffff1681526020016005820160009054906101000a900473ffffffffffffffffffffffffffffffffffffffff1673ffffffffffffffffffffffffffffffffffffffff1673ffffffffffffffffffffffffffffffffffffffff1681526020016006820160009054906101000a90046fffffffffffffffffffffffffffffffff166fffffffffffffffffffffffffffffffff166fffffffffffffffffffffffffffffffff1681526020016007820180546123a790614905565b80601f01602080910402602001604051908101604052809291908181526020018280546123d390614905565b80156124205780601f106123f557610100808354040283529160200191612420565b820191906000526020600020905b81548152906001019060200180831161240357829003601f168201915b505050505081526020016008820160009054906101000a900460ff161515151581526020016008820160019054906101000a900460ff161515151581526020016008820160029054906101000a900460ff161515151581526020016008820160039054906101000a90046fffffffffffffffffffffffffffffffff166fffffffffffffffffffffffffffffffff166fffffffffffffffffffffffffffffffff1681526020016009820160009054906101000a90046fffffffffffffffffffffffffffffffff166fffffffffffffffffffffffffffffffff166fffffffffffffffffffffffffffffffff168152505084868151811061252157612520614936565b5b6020026020010181905250600185612539919061485a565b945050505b80806125499061488e565b91505061217b565b5080945050505050919050565b6125666139a6565b60006005600084815260200190815260200160002054905060046000828152602001908152602001600020604051806101a00160405290816000820160009054906101000a900473ffffffffffffffffffffffffffffffffffffffff1673ffffffffffffffffffffffffffffffffffffffff1673ffffffffffffffffffffffffffffffffffffffff16815260200160018201548152602001600282015481526020016003820160009054906101000a900473ffffffffffffffffffffffffffffffffffffffff1673ffffffffffffffffffffffffffffffffffffffff1673ffffffffffffffffffffffffffffffffffffffff1681526020016004820160009054906101000a900473ffffffffffffffffffffffffffffffffffffffff1673ffffffffffffffffffffffffffffffffffffffff1673ffffffffffffffffffffffffffffffffffffffff1681526020016005820160009054906101000a900473ffffffffffffffffffffffffffffffffffffffff1673ffffffffffffffffffffffffffffffffffffffff1673ffffffffffffffffffffffffffffffffffffffff1681526020016006820160009054906101000a90046fffffffffffffffffffffffffffffffff166fffffffffffffffffffffffffffffffff166fffffffffffffffffffffffffffffffff16815260200160078201805461276390614905565b80601f016020809104026020016040519081016040528092919081815260200182805461278f90614905565b80156127dc5780601f106127b1576101008083540402835291602001916127dc565b820191906000526020600020905b8154815290600101906020018083116127bf57829003601f168201915b505050505081526020016008820160009054906101000a900460ff161515151581526020016008820160019054906101000a900460ff161515151581526020016008820160029054906101000a900460ff161515151581526020016008820160039054906101000a90046fffffffffffffffffffffffffffffffff166fffffffffffffffffffffffffffffffff166fffffffffffffffffffffffffffffffff1681526020016009820160009054906101000a90046fffffffffffffffffffffffffffffffff166fffffffffffffffffffffffffffffffff166fffffffffffffffffffffffffffffffff1681525050915050919050565b6000819050600115158173ffffffffffffffffffffffffffffffffffffffff16633bd65a6085336040518363ffffffff1660e01b8152600401612916929190614d7e565b602060405180830381865afa158015612933573d6000803e3d6000fd5b505050506040513d601f19601f820116820180604052508101906129579190614dd3565b151514612999576040517f08c379a000000000000000000000000000000000000000000000000000000000815260040161299090614e4c565b60405180910390fd5b60005b8451816fffffffffffffffffffffffffffffffff161015612a4457600085826fffffffffffffffffffffffffffffffff16815181106129de576129dd614936565b5b6020026020010151905060006005600083815260200190815260200160002054905060016004600083815260200190815260200160002060080160026101000a81548160ff02191690831515021790555050508080612a3c90614cfa565b91505061299c565b5050505050565b60606000612a59600161393c565b905060008060005b83811015612b7a578573ffffffffffffffffffffffffffffffffffffffff1660046000600184612a91919061485a565b815260200190815260200160002060050160009054906101000a900473ffffffffffffffffffffffffffffffffffffffff1673ffffffffffffffffffffffffffffffffffffffff161480612b5257508573ffffffffffffffffffffffffffffffffffffffff1660046000600184612b08919061485a565b815260200190815260200160002060030160009054906101000a900473ffffffffffffffffffffffffffffffffffffffff1673ffffffffffffffffffffffffffffffffffffffff16145b15612b6757600183612b64919061485a565b92505b8080612b729061488e565b915050612a61565b5060008267ffffffffffffffff811115612b9757612b96613f24565b5b604051908082528060200260200182016040528015612bd057816020015b612bbd6139a6565b815260200190600190039081612bb55790505b50905060005b84811015613071578673ffffffffffffffffffffffffffffffffffffffff1660046000600184612c06919061485a565b815260200190815260200160002060050160009054906101000a900473ffffffffffffffffffffffffffffffffffffffff1673ffffffffffffffffffffffffffffffffffffffff161480612cc757508673ffffffffffffffffffffffffffffffffffffffff1660046000600184612c7d919061485a565b815260200190815260200160002060030160009054906101000a900473ffffffffffffffffffffffffffffffffffffffff1673ffffffffffffffffffffffffffffffffffffffff16145b1561305e576000600182612cdb919061485a565b9050600060046000838152602001908152602001600020905080604051806101a00160405290816000820160009054906101000a900473ffffffffffffffffffffffffffffffffffffffff1673ffffffffffffffffffffffffffffffffffffffff1673ffffffffffffffffffffffffffffffffffffffff16815260200160018201548152602001600282015481526020016003820160009054906101000a900473ffffffffffffffffffffffffffffffffffffffff1673ffffffffffffffffffffffffffffffffffffffff1673ffffffffffffffffffffffffffffffffffffffff1681526020016004820160009054906101000a900473ffffffffffffffffffffffffffffffffffffffff1673ffffffffffffffffffffffffffffffffffffffff1673ffffffffffffffffffffffffffffffffffffffff1681526020016005820160009054906101000a900473ffffffffffffffffffffffffffffffffffffffff1673ffffffffffffffffffffffffffffffffffffffff1673ffffffffffffffffffffffffffffffffffffffff1681526020016006820160009054906101000a90046fffffffffffffffffffffffffffffffff166fffffffffffffffffffffffffffffffff166fffffffffffffffffffffffffffffffff168152602001600782018054612ec790614905565b80601f0160208091040260200160405190810160405280929190818152602001828054612ef390614905565b8015612f405780601f10612f1557610100808354040283529160200191612f40565b820191906000526020600020905b815481529060010190602001808311612f2357829003601f168201915b505050505081526020016008820160009054906101000a900460ff161515151581526020016008820160019054906101000a900460ff161515151581526020016008820160029054906101000a900460ff161515151581526020016008820160039054906101000a90046fffffffffffffffffffffffffffffffff166fffffffffffffffffffffffffffffffff166fffffffffffffffffffffffffffffffff1681526020016009820160009054906101000a90046fffffffffffffffffffffffffffffffff166fffffffffffffffffffffffffffffffff166fffffffffffffffffffffffffffffffff168152505084868151811061304157613040614936565b5b6020026020010181905250600185613059919061485a565b945050505b80806130699061488e565b915050612bd6565b5080945050505050919050565b6130866138cd565b6000866fffffffffffffffffffffffffffffffff16116130db576040517f08c379a00000000000000000000000000000000000000000000000000000000081526004016130d290614b70565b60405180910390fd5b606060008690508073ffffffffffffffffffffffffffffffffffffffff16637c428edb866040518263ffffffff1660e01b815260040161311b9190614965565b600060405180830381865afa158015613138573d6000803e3d6000fd5b505050506040513d6000823e3d601f19601f820116820180604052508101906131619190614f18565b91506000805b8351816fffffffffffffffffffffffffffffffff1610801561319a5750856fffffffffffffffffffffffffffffffff1682105b1561361a576131a9600161391c565b60006131b5600161393c565b9050600085836fffffffffffffffffffffffffffffffff16815181106131de576131dd614936565b5b602002602001015190506131f181610d3a565b61360557600184613202919061485a565b9350816005600083815260200190815260200160002081905550604051806101a001604052808c73ffffffffffffffffffffffffffffffffffffffff1681526020018281526020018a81526020013073ffffffffffffffffffffffffffffffffffffffff1681526020013373ffffffffffffffffffffffffffffffffffffffff1681526020013373ffffffffffffffffffffffffffffffffffffffff1681526020018d6fffffffffffffffffffffffffffffffff1681526020018b8152602001600015158152602001600015158152602001600015158152602001846fffffffffffffffffffffffffffffffff1681526020016001896133029190614f61565b6fffffffffffffffffffffffffffffffff168152506004600084815260200190815260200160002060008201518160000160006101000a81548173ffffffffffffffffffffffffffffffffffffffff021916908373ffffffffffffffffffffffffffffffffffffffff160217905550602082015181600101556040820151816002015560608201518160030160006101000a81548173ffffffffffffffffffffffffffffffffffffffff021916908373ffffffffffffffffffffffffffffffffffffffff16021790555060808201518160040160006101000a81548173ffffffffffffffffffffffffffffffffffffffff021916908373ffffffffffffffffffffffffffffffffffffffff16021790555060a08201518160050160006101000a81548173ffffffffffffffffffffffffffffffffffffffff021916908373ffffffffffffffffffffffffffffffffffffffff16021790555060c08201518160060160006101000a8154816fffffffffffffffffffffffffffffffff02191690836fffffffffffffffffffffffffffffffff16021790555060e08201518160070190816134ae9190615147565b506101008201518160080160006101000a81548160ff0219169083151502179055506101208201518160080160016101000a81548160ff0219169083151502179055506101408201518160080160026101000a81548160ff0219169083151502179055506101608201518160080160036101000a8154816fffffffffffffffffffffffffffffffff02191690836fffffffffffffffffffffffffffffffff1602179055506101808201518160090160006101000a8154816fffffffffffffffffffffffffffffffff02191690836fffffffffffffffffffffffffffffffff1602179055509050508a73ffffffffffffffffffffffffffffffffffffffff166323b872dd3330846040518463ffffffff1660e01b81526004016135d2939291906147bf565b600060405180830381600087803b1580156135ec57600080fd5b505af1158015613600573d6000803e3d6000fd5b505050505b5050808061361290614cfa565b915050613167565b507f3f86671f43fc8df2398a80d3b5ac31fb810f93e2cfa1724aed76f7042d836b7e86338b888b604051613652959493929190615261565b60405180910390a1505050613665613932565b505050505050565b6136756138cd565b6000600560008481526020019081526020016000205490503373ffffffffffffffffffffffffffffffffffffffff166004600083815260200190815260200160002060030160009054906101000a900473ffffffffffffffffffffffffffffffffffffffff1673ffffffffffffffffffffffffffffffffffffffff1614613731576040517f08c379a000000000000000000000000000000000000000000000000000000000815260040161372890615307565b60405180910390fd5b816004600083815260200190815260200160002060030160006101000a81548173ffffffffffffffffffffffffffffffffffffffff021916908373ffffffffffffffffffffffffffffffffffffffff16021790555060016004600083815260200190815260200160002060090160009054906101000a90046fffffffffffffffffffffffffffffffff166137c5919061475d565b6004600083815260200190815260200160002060090160006101000a8154816fffffffffffffffffffffffffffffffff02191690836fffffffffffffffffffffffffffffffff16021790555060008490508073ffffffffffffffffffffffffffffffffffffffff1663f5537ede3385876040518463ffffffff1660e01b8152600401613853939291906147bf565b600060405180830381600087803b15801561386d57600080fd5b505af1158015613881573d6000803e3d6000fd5b505050507f679ebf1af59403ccbbf38261fcf3ed9f7618934b037cd0baafb3441282332b6284846040516138b6929190614d7e565b60405180910390a150506138c8613932565b505050565b600260005403613912576040517f08c379a000000000000000000000000000000000000000000000000000000000815260040161390990615373565b60405180910390fd5b6002600081905550565b6001816000016000828254019250508190555050565b6001600081905550565b600081600001549050919050565b60008160000154905060008111613996576040517f08c379a000000000000000000000000000000000000000000000000000000000815260040161398d906153df565b60405180910390fd5b6001810382600001819055505050565b604051806101a00160405280600073ffffffffffffffffffffffffffffffffffffffff1681526020016000815260200160008152602001600073ffffffffffffffffffffffffffffffffffffffff168152602001600073ffffffffffffffffffffffffffffffffffffffff168152602001600073ffffffffffffffffffffffffffffffffffffffff16815260200160006fffffffffffffffffffffffffffffffff1681526020016060815260200160001515815260200160001515815260200160001515815260200160006fffffffffffffffffffffffffffffffff16815260200160006fffffffffffffffffffffffffffffffff1681525090565b6000604051905090565b600080fd5b600080fd5b6000819050919050565b613ac981613ab6565b8114613ad457600080fd5b50565b600081359050613ae681613ac0565b92915050565b600060208284031215613b0257613b01613aac565b5b6000613b1084828501613ad7565b91505092915050565b60008115159050919050565b613b2e81613b19565b82525050565b6000602082019050613b496000830184613b25565b92915050565b600073ffffffffffffffffffffffffffffffffffffffff82169050919050565b6000613b7a82613b4f565b9050919050565b613b8a81613b6f565b8114613b9557600080fd5b50565b600081359050613ba781613b81565b92915050565b60008060408385031215613bc457613bc3613aac565b5b6000613bd285828601613b98565b9250506020613be385828601613ad7565b9150509250929050565b600081519050919050565b600082825260208201905092915050565b6000819050602082019050919050565b613c2281613b6f565b82525050565b613c3181613ab6565b82525050565b6000613c4282613b4f565b9050919050565b613c5281613c37565b82525050565b60006fffffffffffffffffffffffffffffffff82169050919050565b613c7d81613c58565b82525050565b600081519050919050565b600082825260208201905092915050565b60005b83811015613cbd578082015181840152602081019050613ca2565b60008484015250505050565b6000601f19601f8301169050919050565b6000613ce582613c83565b613cef8185613c8e565b9350613cff818560208601613c9f565b613d0881613cc9565b840191505092915050565b613d1c81613b19565b82525050565b60006101a083016000830151613d3b6000860182613c19565b506020830151613d4e6020860182613c28565b506040830151613d616040860182613c28565b506060830151613d746060860182613c49565b506080830151613d876080860182613c49565b5060a0830151613d9a60a0860182613c49565b5060c0830151613dad60c0860182613c74565b5060e083015184820360e0860152613dc58282613cda565b915050610100830151613ddc610100860182613d13565b50610120830151613df1610120860182613d13565b50610140830151613e06610140860182613d13565b50610160830151613e1b610160860182613c74565b50610180830151613e30610180860182613c74565b508091505092915050565b6000613e478383613d22565b905092915050565b6000602082019050919050565b6000613e6782613bed565b613e718185613bf8565b935083602082028501613e8385613c09565b8060005b85811015613ebf5784840389528151613ea08582613e3b565b9450613eab83613e4f565b925060208a01995050600181019050613e87565b50829750879550505050505092915050565b60006020820190508181036000830152613eeb8184613e5c565b905092915050565b613efc81613c58565b8114613f0757600080fd5b50565b600081359050613f1981613ef3565b92915050565b600080fd5b7f4e487b7100000000000000000000000000000000000000000000000000000000600052604160045260246000fd5b613f5c82613cc9565b810181811067ffffffffffffffff82111715613f7b57613f7a613f24565b5b80604052505050565b6000613f8e613aa2565b9050613f9a8282613f53565b919050565b600067ffffffffffffffff821115613fba57613fb9613f24565b5b602082029050602081019050919050565b600080fd5b6000613fe3613fde84613f9f565b613f84565b9050808382526020820190506020840283018581111561400657614005613fcb565b5b835b8181101561402f578061401b8882613ad7565b845260208401935050602081019050614008565b5050509392505050565b600082601f83011261404e5761404d613f1f565b5b813561405e848260208601613fd0565b91505092915050565b6000806000806080858703121561408157614080613aac565b5b600061408f87828801613f0a565b94505060206140a087828801613b98565b935050604085013567ffffffffffffffff8111156140c1576140c0613ab1565b5b6140cd87828801614039565b92505060606140de87828801613ad7565b91505092959194509250565b6000806040838503121561410157614100613aac565b5b600061410f85828601613ad7565b925050602061412085828601613b98565b9150509250929050565b600081519050919050565b600082825260208201905092915050565b6000819050602082019050919050565b60006141628383613c28565b60208301905092915050565b6000602082019050919050565b60006141868261412a565b6141908185614135565b935061419b83614146565b8060005b838110156141cc5781516141b38882614156565b97506141be8361416e565b92505060018101905061419f565b5085935050505092915050565b600060208201905081810360008301526141f3818461417b565b905092915050565b60008060006060848603121561421457614213613aac565b5b600061422286828701613f0a565b935050602061423386828701613b98565b925050604061424486828701613ad7565b9150509250925092565b60008060006060848603121561426757614266613aac565b5b600061427586828701613f0a565b935050602061428686828701613b98565b925050604084013567ffffffffffffffff8111156142a7576142a6613ab1565b5b6142b386828701614039565b9150509250925092565b60006101a0830160008301516142d66000860182613c19565b5060208301516142e96020860182613c28565b5060408301516142fc6040860182613c28565b50606083015161430f6060860182613c49565b5060808301516143226080860182613c49565b5060a083015161433560a0860182613c49565b5060c083015161434860c0860182613c74565b5060e083015184820360e08601526143608282613cda565b915050610100830151614377610100860182613d13565b5061012083015161438c610120860182613d13565b506101408301516143a1610140860182613d13565b506101608301516143b6610160860182613c74565b506101808301516143cb610180860182613c74565b508091505092915050565b600060208201905081810360008301526143f081846142bd565b905092915050565b60008060006060848603121561441157614410613aac565b5b600084013567ffffffffffffffff81111561442f5761442e613ab1565b5b61443b86828701614039565b935050602061444c86828701613ad7565b925050604061445d86828701613b98565b9150509250925092565b60006020828403121561447d5761447c613aac565b5b600061448b84828501613b98565b91505092915050565b600080fd5b600067ffffffffffffffff8211156144b4576144b3613f24565b5b6144bd82613cc9565b9050602081019050919050565b82818337600083830152505050565b60006144ec6144e784614499565b613f84565b90508281526020810184848401111561450857614507614494565b5b6145138482856144ca565b509392505050565b600082601f8301126145305761452f613f1f565b5b81356145408482602086016144d9565b91505092915050565b60008060008060008060c0878903121561456657614565613aac565b5b600061457489828a01613f0a565b965050602061458589828a01613b98565b955050604087013567ffffffffffffffff8111156145a6576145a5613ab1565b5b6145b289828a0161451b565b94505060606145c389828a01613ad7565b93505060806145d489828a01613f0a565b92505060a06145e589828a01613f0a565b9150509295509295509295565b60008060006060848603121561460b5761460a613aac565b5b600061461986828701613b98565b935050602061462a86828701613ad7565b925050604061463b86828701613b98565b9150509250925092565b600082825260208201905092915050565b7f506c6561736520706179207468652061736b696e672070726963650000000000600082015250565b600061468c601b83614645565b915061469782614656565b602082019050919050565b600060208201905081810360008301526146bb8161467f565b9050919050565b7f4974656d20686173206265656e20616c726561647920736f6c64000000000000600082015250565b60006146f8601a83614645565b9150614703826146c2565b602082019050919050565b60006020820190508181036000830152614727816146eb565b9050919050565b7f4e487b7100000000000000000000000000000000000000000000000000000000600052601160045260246000fd5b600061476882613c58565b915061477383613c58565b925082820390506fffffffffffffffffffffffffffffffff81111561479b5761479a61472e565b5b92915050565b6147aa81613b6f565b82525050565b6147b981613ab6565b82525050565b60006060820190506147d460008301866147a1565b6147e160208301856147a1565b6147ee60408301846147b0565b949350505050565b6000819050919050565b600061481b61481661481184613c58565b6147f6565b613ab6565b9050919050565b61482b81614800565b82525050565b600060408201905061484660008301856147a1565b6148536020830184614822565b9392505050565b600061486582613ab6565b915061487083613ab6565b92508282019050808211156148885761488761472e565b5b92915050565b600061489982613ab6565b91507fffffffffffffffffffffffffffffffffffffffffffffffffffffffffffffffff82036148cb576148ca61472e565b5b600182019050919050565b7f4e487b7100000000000000000000000000000000000000000000000000000000600052602260045260246000fd5b6000600282049050600182168061491d57607f821691505b6020821081036149305761492f6148d6565b5b50919050565b7f4e487b7100000000000000000000000000000000000000000000000000000000600052603260045260246000fd5b600060208201905061497a60008301846147b0565b92915050565b60008151905061498f81613b81565b92915050565b6000602082840312156149ab576149aa613aac565b5b60006149b984828501614980565b91505092915050565b7f4f6e6c79206576656e74206f776e65722063616e20706572666f726d2074686960008201527f7300000000000000000000000000000000000000000000000000000000000000602082015250565b6000614a1e602183614645565b9150614a29826149c2565b604082019050919050565b60006020820190508181036000830152614a4d81614a11565b9050919050565b60006060820190508181036000830152614a6e818661417b565b9050614a7d60208301856147a1565b614a8a6040830184614822565b949350505050565b7f4f6e6c79206576656e74206f776e6572206f722073656c6c65722063616e207060008201527f6572666f726d2074686973000000000000000000000000000000000000000000602082015250565b6000614aee602b83614645565b9150614af982614a92565b604082019050919050565b60006020820190508181036000830152614b1d81614ae1565b9050919050565b7f546f6f206c6f7700000000000000000000000000000000000000000000000000600082015250565b6000614b5a600783614645565b9150614b6582614b24565b602082019050919050565b60006020820190508181036000830152614b8981614b4d565b9050919050565b7f4f6e6c79207469636b6574206f776e65722063616e20706572666f726d20746860008201527f6973206f7065726174696f6e0000000000000000000000000000000000000000602082015250565b6000614bec602c83614645565b9150614bf782614b90565b604082019050919050565b60006020820190508181036000830152614c1b81614bdf565b9050919050565b7f5469636b657420697320616c7265616479206c69737465642100000000000000600082015250565b6000614c58601983614645565b9150614c6382614c22565b602082019050919050565b60006020820190508181036000830152614c8781614c4b565b9050919050565b7f4e756d626572206f66207472616e736665722072696768742069732030000000600082015250565b6000614cc4601d83614645565b9150614ccf82614c8e565b602082019050919050565b60006020820190508181036000830152614cf381614cb7565b9050919050565b6000614d0582613c58565b91506fffffffffffffffffffffffffffffffff8203614d2757614d2661472e565b5b600182019050919050565b60006080820190508181036000830152614d4c818761417b565b9050614d5b60208301866147a1565b614d6860408301856147a1565b614d756060830184614822565b95945050505050565b6000604082019050614d9360008301856147b0565b614da060208301846147a1565b9392505050565b614db081613b19565b8114614dbb57600080fd5b50565b600081519050614dcd81614da7565b92915050565b600060208284031215614de957614de8613aac565b5b6000614df784828501614dbe565b91505092915050565b7f4f6e6c79207469636b657420636f6e74726f6c6c657200000000000000000000600082015250565b6000614e36601683614645565b9150614e4182614e00565b602082019050919050565b60006020820190508181036000830152614e6581614e29565b9050919050565b600081519050614e7b81613ac0565b92915050565b6000614e94614e8f84613f9f565b613f84565b90508083825260208201905060208402830185811115614eb757614eb6613fcb565b5b835b81811015614ee05780614ecc8882614e6c565b845260208401935050602081019050614eb9565b5050509392505050565b600082601f830112614eff57614efe613f1f565b5b8151614f0f848260208601614e81565b91505092915050565b600060208284031215614f2e57614f2d613aac565b5b600082015167ffffffffffffffff811115614f4c57614f4b613ab1565b5b614f5884828501614eea565b91505092915050565b6000614f6c82613c58565b9150614f7783613c58565b925082820190506fffffffffffffffffffffffffffffffff811115614f9f57614f9e61472e565b5b92915050565b60008190508160005260206000209050919050565b60006020601f8301049050919050565b600082821b905092915050565b6000600883026150077fffffffffffffffffffffffffffffffffffffffffffffffffffffffffffffffff82614fca565b6150118683614fca565b95508019841693508086168417925050509392505050565b600061504461503f61503a84613ab6565b6147f6565b613ab6565b9050919050565b6000819050919050565b61505e83615029565b61507261506a8261504b565b848454614fd7565b825550505050565b600090565b61508761507a565b615092818484615055565b505050565b5b818110156150b6576150ab60008261507f565b600181019050615098565b5050565b601f8211156150fb576150cc81614fa5565b6150d584614fba565b810160208510156150e4578190505b6150f86150f085614fba565b830182615097565b50505b505050565b600082821c905092915050565b600061511e60001984600802615100565b1980831691505092915050565b6000615137838361510d565b9150826002028217905092915050565b61515082613c83565b67ffffffffffffffff81111561516957615168613f24565b5b6151738254614905565b61517e8282856150ba565b600060209050601f8311600181146151b1576000841561519f578287015190505b6151a9858261512b565b865550615211565b601f1984166151bf86614fa5565b60005b828110156151e7578489015182556001820191506020850194506020810190506151c2565b868310156152045784890151615200601f89168261510d565b8355505b6001600288020188555050505b505050505050565b61522281613c58565b82525050565b600061523382613c83565b61523d8185614645565b935061524d818560208601613c9f565b61525681613cc9565b840191505092915050565b600060a08201905061527660008301886147b0565b61528360208301876147a1565b6152906040830186615219565b61529d6060830185615219565b81810360808301526152af8184615228565b90509695505050505050565b7f4f6e6c79207469636b6574206f776e6572000000000000000000000000000000600082015250565b60006152f1601183614645565b91506152fc826152bb565b602082019050919050565b60006020820190508181036000830152615320816152e4565b9050919050565b7f5265656e7472616e637947756172643a207265656e7472616e742063616c6c00600082015250565b600061535d601f83614645565b915061536882615327565b602082019050919050565b6000602082019050818103600083015261538c81615350565b9050919050565b7f436f756e7465723a2064656372656d656e74206f766572666c6f770000000000600082015250565b60006153c9601b83614645565b91506153d482615393565b602082019050919050565b600060208201905081810360008301526153f8816153bc565b905091905056fea264697066735822122011dbd1f3e7a61719bc59d7ba85aec6eef9c5e9706d95e2cec444644952e4c20f64736f6c63430008110033",
  "linkReferences": {},
  "deployedLinkReferences": {}
}