{
  "_format": "hh-sol-artifact-1",
  "contractName": "TicketMint",
  "sourceName": "contracts/TicketMint.sol",
  "abi": [
    {
      "inputs": [
        {
          "internalType": "address",
          "name": "marketAddress",
          "type": "address"
        }
      ],
      "stateMutability": "nonpayable",
      "type": "constructor"
    },
    {
      "anonymous": false,
      "inputs": [
        {
          "indexed": true,
          "internalType": "address",
          "name": "owner",
          "type": "address"
        },
        {
          "indexed": true,
          "internalType": "address",
          "name": "approved",
          "type": "address"
        },
        {
          "indexed": true,
          "internalType": "uint256",
          "name": "tokenId",
          "type": "uint256"
        }
      ],
      "name": "Approval",
      "type": "event"
    },
    {
      "anonymous": false,
      "inputs": [
        {
          "indexed": true,
          "internalType": "address",
          "name": "owner",
          "type": "address"
        },
        {
          "indexed": true,
          "internalType": "address",
          "name": "operator",
          "type": "address"
        },
        {
          "indexed": false,
          "internalType": "bool",
          "name": "approved",
          "type": "bool"
        }
      ],
      "name": "ApprovalForAll",
      "type": "event"
    },
    {
      "anonymous": false,
      "inputs": [
        {
          "indexed": true,
          "internalType": "uint256",
          "name": "eventID",
          "type": "uint256"
        },
        {
          "indexed": false,
          "internalType": "uint256",
          "name": "supply",
          "type": "uint256"
        },
        {
          "indexed": false,
          "internalType": "address",
          "name": "ticketOwner",
          "type": "address"
        }
      ],
      "name": "Mint",
      "type": "event"
    },
    {
      "anonymous": false,
      "inputs": [
        {
          "indexed": true,
          "internalType": "address",
          "name": "from",
          "type": "address"
        },
        {
          "indexed": true,
          "internalType": "address",
          "name": "to",
          "type": "address"
        },
        {
          "indexed": true,
          "internalType": "uint256",
          "name": "tokenId",
          "type": "uint256"
        }
      ],
      "name": "Transfer",
      "type": "event"
    },
    {
      "inputs": [
        {
          "internalType": "address",
          "name": "_address",
          "type": "address"
        }
      ],
      "name": "addEventOwner",
      "outputs": [],
      "stateMutability": "nonpayable",
      "type": "function"
    },
    {
      "inputs": [
        {
          "internalType": "address",
          "name": "_addressToOwners",
          "type": "address"
        }
      ],
      "name": "addOwner",
      "outputs": [],
      "stateMutability": "nonpayable",
      "type": "function"
    },
    {
      "inputs": [
        {
          "internalType": "address",
          "name": "to",
          "type": "address"
        },
        {
          "internalType": "uint256",
          "name": "tokenId",
          "type": "uint256"
        }
      ],
      "name": "approve",
      "outputs": [],
      "stateMutability": "nonpayable",
      "type": "function"
    },
    {
      "inputs": [
        {
          "internalType": "address",
          "name": "owner",
          "type": "address"
        }
      ],
      "name": "balanceOf",
      "outputs": [
        {
          "internalType": "uint256",
          "name": "",
          "type": "uint256"
        }
      ],
      "stateMutability": "view",
      "type": "function"
    },
    {
      "inputs": [
        {
          "internalType": "uint256",
          "name": "tokenId",
          "type": "uint256"
        }
      ],
      "name": "burn",
      "outputs": [],
      "stateMutability": "nonpayable",
      "type": "function"
    },
    {
      "inputs": [
        {
          "internalType": "uint256",
          "name": "tokenId",
          "type": "uint256"
        }
      ],
      "name": "burnNFT",
      "outputs": [],
      "stateMutability": "nonpayable",
      "type": "function"
    },
    {
      "inputs": [
        {
          "internalType": "uint256",
          "name": "",
          "type": "uint256"
        },
        {
          "internalType": "address",
          "name": "",
          "type": "address"
        }
      ],
      "name": "eventIDtoTicketControllers",
      "outputs": [
        {
          "internalType": "bool",
          "name": "",
          "type": "bool"
        }
      ],
      "stateMutability": "view",
      "type": "function"
    },
    {
      "inputs": [
        {
          "internalType": "uint256",
          "name": "",
          "type": "uint256"
        }
      ],
      "name": "eventIDtoeventOwner",
      "outputs": [
        {
          "internalType": "address",
          "name": "",
          "type": "address"
        }
      ],
      "stateMutability": "view",
      "type": "function"
    },
    {
      "inputs": [
        {
          "internalType": "uint256",
          "name": "eventid",
          "type": "uint256"
        }
      ],
      "name": "eventOwnerOfEventID",
      "outputs": [
        {
          "internalType": "address",
          "name": "",
          "type": "address"
        }
      ],
      "stateMutability": "view",
      "type": "function"
    },
    {
      "inputs": [
        {
          "internalType": "uint256",
          "name": "tokenId",
          "type": "uint256"
        }
      ],
      "name": "getApproved",
      "outputs": [
        {
          "internalType": "address",
          "name": "",
          "type": "address"
        }
      ],
      "stateMutability": "view",
      "type": "function"
    },
    {
      "inputs": [
        {
          "internalType": "uint256",
          "name": "tokenid",
          "type": "uint256"
        }
      ],
      "name": "getEventID",
      "outputs": [
        {
          "internalType": "uint256",
          "name": "",
          "type": "uint256"
        }
      ],
      "stateMutability": "view",
      "type": "function"
    },
    {
      "inputs": [
        {
          "internalType": "uint256",
          "name": "eventid",
          "type": "uint256"
        }
      ],
      "name": "getEventTicketList",
      "outputs": [
        {
          "internalType": "uint256[]",
          "name": "",
          "type": "uint256[]"
        }
      ],
      "stateMutability": "view",
      "type": "function"
    },
    {
      "inputs": [
        {
          "internalType": "address",
          "name": "owner",
          "type": "address"
        },
        {
          "internalType": "address",
          "name": "operator",
          "type": "address"
        }
      ],
      "name": "isApprovedForAll",
      "outputs": [
        {
          "internalType": "bool",
          "name": "",
          "type": "bool"
        }
      ],
      "stateMutability": "view",
      "type": "function"
    },
    {
      "inputs": [
        {
          "internalType": "string",
          "name": "tokenUri",
          "type": "string"
        },
        {
          "internalType": "uint256",
          "name": "eventId",
          "type": "uint256"
        },
        {
          "internalType": "uint256",
          "name": "supply",
          "type": "uint256"
        }
      ],
      "name": "mintNFT",
      "outputs": [],
      "stateMutability": "nonpayable",
      "type": "function"
    },
    {
      "inputs": [],
      "name": "name",
      "outputs": [
        {
          "internalType": "string",
          "name": "",
          "type": "string"
        }
      ],
      "stateMutability": "view",
      "type": "function"
    },
    {
      "inputs": [
        {
          "internalType": "uint256",
          "name": "tokenId",
          "type": "uint256"
        }
      ],
      "name": "ownerOf",
      "outputs": [
        {
          "internalType": "address",
          "name": "",
          "type": "address"
        }
      ],
      "stateMutability": "view",
      "type": "function"
    },
    {
      "inputs": [
        {
          "internalType": "address",
          "name": "from",
          "type": "address"
        },
        {
          "internalType": "address",
          "name": "to",
          "type": "address"
        },
        {
          "internalType": "uint256",
          "name": "tokenId",
          "type": "uint256"
        }
      ],
      "name": "safeTransferFrom",
      "outputs": [],
      "stateMutability": "nonpayable",
      "type": "function"
    },
    {
      "inputs": [
        {
          "internalType": "address",
          "name": "from",
          "type": "address"
        },
        {
          "internalType": "address",
          "name": "to",
          "type": "address"
        },
        {
          "internalType": "uint256",
          "name": "tokenId",
          "type": "uint256"
        },
        {
          "internalType": "bytes",
          "name": "data",
          "type": "bytes"
        }
      ],
      "name": "safeTransferFrom",
      "outputs": [],
      "stateMutability": "nonpayable",
      "type": "function"
    },
    {
      "inputs": [
        {
          "internalType": "address",
          "name": "operator",
          "type": "address"
        },
        {
          "internalType": "bool",
          "name": "approved",
          "type": "bool"
        }
      ],
      "name": "setApprovalForAll",
      "outputs": [],
      "stateMutability": "nonpayable",
      "type": "function"
    },
    {
      "inputs": [
        {
          "internalType": "address",
          "name": "_address",
          "type": "address"
        },
        {
          "internalType": "uint256",
          "name": "eventId",
          "type": "uint256"
        }
      ],
      "name": "setTicketController",
      "outputs": [],
      "stateMutability": "nonpayable",
      "type": "function"
    },
    {
      "inputs": [
        {
          "internalType": "bytes4",
          "name": "interfaceId",
          "type": "bytes4"
        }
      ],
      "name": "supportsInterface",
      "outputs": [
        {
          "internalType": "bool",
          "name": "",
          "type": "bool"
        }
      ],
      "stateMutability": "view",
      "type": "function"
    },
    {
      "inputs": [],
      "name": "symbol",
      "outputs": [
        {
          "internalType": "string",
          "name": "",
          "type": "string"
        }
      ],
      "stateMutability": "view",
      "type": "function"
    },
    {
      "inputs": [],
      "name": "tokenID",
      "outputs": [
        {
          "internalType": "uint256",
          "name": "",
          "type": "uint256"
        }
      ],
      "stateMutability": "view",
      "type": "function"
    },
    {
      "inputs": [
        {
          "internalType": "uint256",
          "name": "tokenId",
          "type": "uint256"
        }
      ],
      "name": "tokenURI",
      "outputs": [
        {
          "internalType": "string",
          "name": "",
          "type": "string"
        }
      ],
      "stateMutability": "view",
      "type": "function"
    },
    {
      "inputs": [
        {
          "internalType": "address",
          "name": "from",
          "type": "address"
        },
        {
          "internalType": "address",
          "name": "to",
          "type": "address"
        },
        {
          "internalType": "uint256",
          "name": "tokenId",
          "type": "uint256"
        }
      ],
      "name": "transferFrom",
      "outputs": [],
      "stateMutability": "nonpayable",
      "type": "function"
    },
    {
      "inputs": [
        {
          "internalType": "address",
          "name": "from",
          "type": "address"
        },
        {
          "internalType": "address",
          "name": "to",
          "type": "address"
        },
        {
          "internalType": "uint256",
          "name": "tokenId",
          "type": "uint256"
        }
      ],
      "name": "transferToken",
      "outputs": [],
      "stateMutability": "nonpayable",
      "type": "function"
    },
    {
      "inputs": [
        {
          "internalType": "address",
          "name": "_address",
          "type": "address"
        }
      ],
      "name": "verifyEventOwner",
      "outputs": [
        {
          "internalType": "bool",
          "name": "",
          "type": "bool"
        }
      ],
      "stateMutability": "view",
      "type": "function"
    },
    {
      "inputs": [
        {
          "internalType": "address",
          "name": "_address",
          "type": "address"
        },
        {
          "internalType": "uint256",
          "name": "eventId",
          "type": "uint256"
        }
      ],
      "name": "verifyTicketController",
      "outputs": [
        {
          "internalType": "bool",
          "name": "",
          "type": "bool"
        }
      ],
      "stateMutability": "view",
      "type": "function"
    }
  ],
  "bytecode": "0x60806040523480156200001157600080fd5b506040516200422c3803806200422c8339818101604052810190620000379190620001d3565b6040518060400160405280600881526020017f5469636b726970740000000000000000000000000000000000000000000000008152506040518060400160405280600381526020017f54696300000000000000000000000000000000000000000000000000000000008152508160009081620000b491906200047f565b508060019081620000c691906200047f565b50505080600860006101000a81548173ffffffffffffffffffffffffffffffffffffffff021916908373ffffffffffffffffffffffffffffffffffffffff1602179055506001600960003373ffffffffffffffffffffffffffffffffffffffff1673ffffffffffffffffffffffffffffffffffffffff16815260200190815260200160002060006101000a81548160ff0219169083151502179055505062000566565b600080fd5b600073ffffffffffffffffffffffffffffffffffffffff82169050919050565b60006200019b826200016e565b9050919050565b620001ad816200018e565b8114620001b957600080fd5b50565b600081519050620001cd81620001a2565b92915050565b600060208284031215620001ec57620001eb62000169565b5b6000620001fc84828501620001bc565b91505092915050565b600081519050919050565b7f4e487b7100000000000000000000000000000000000000000000000000000000600052604160045260246000fd5b7f4e487b7100000000000000000000000000000000000000000000000000000000600052602260045260246000fd5b600060028204905060018216806200028757607f821691505b6020821081036200029d576200029c6200023f565b5b50919050565b60008190508160005260206000209050919050565b60006020601f8301049050919050565b600082821b905092915050565b600060088302620003077fffffffffffffffffffffffffffffffffffffffffffffffffffffffffffffffff82620002c8565b620003138683620002c8565b95508019841693508086168417925050509392505050565b6000819050919050565b6000819050919050565b6000620003606200035a62000354846200032b565b62000335565b6200032b565b9050919050565b6000819050919050565b6200037c836200033f565b620003946200038b8262000367565b848454620002d5565b825550505050565b600090565b620003ab6200039c565b620003b881848462000371565b505050565b5b81811015620003e057620003d4600082620003a1565b600181019050620003be565b5050565b601f8211156200042f57620003f981620002a3565b6200040484620002b8565b8101602085101562000414578190505b6200042c6200042385620002b8565b830182620003bd565b50505b505050565b600082821c905092915050565b6000620004546000198460080262000434565b1980831691505092915050565b60006200046f838362000441565b9150826002028217905092915050565b6200048a8262000205565b67ffffffffffffffff811115620004a657620004a562000210565b5b620004b282546200026e565b620004bf828285620003e4565b600060209050601f831160018114620004f75760008415620004e2578287015190505b620004ee858262000461565b8655506200055e565b601f1984166200050786620002a3565b60005b8281101562000531578489015182556001820191506020850194506020810190506200050a565b868310156200055157848901516200054d601f89168262000441565b8355505b6001600288020188555050505b505050505050565b613cb680620005766000396000f3fe608060405234801561001057600080fd5b50600436106101c45760003560e01c80637065cb48116100f9578063a22cb46511610097578063ba79964211610071578063ba7996421461054b578063c87b56dd14610567578063e985e9c514610597578063f5537ede146105c7576101c4565b8063a22cb465146104f5578063a5c42ef114610511578063b88d4fde1461052f576101c4565b8063827cc153116100d3578063827cc1531461045b5780638966d3a21461048b57806395d89b41146104bb578063977922d2146104d9576101c4565b80637065cb48146103df57806370a08231146103fb5780637c428edb1461042b576101c4565b80632890e0d71161016657806342842e0e1161014057806342842e0e1461034757806342966c68146103635780635c05868e1461037f5780636352211e146103af576101c4565b80632890e0d7146102cb5780632b43ecf6146102e75780633bd65a6014610317576101c4565b8063095ea7b3116101a2578063095ea7b3146102475780631e90b2931461026357806323b872dd1461029357806327848eae146102af576101c4565b806301ffc9a7146101c957806306fdde03146101f9578063081812fc14610217575b600080fd5b6101e360048036038101906101de9190612794565b6105e3565b6040516101f091906127dc565b60405180910390f35b6102016106c5565b60405161020e9190612887565b60405180910390f35b610231600480360381019061022c91906128df565b610757565b60405161023e919061294d565b60405180910390f35b610261600480360381019061025c9190612994565b61079d565b005b61027d600480360381019061027891906128df565b6108b4565b60405161028a919061294d565b60405180910390f35b6102ad60048036038101906102a891906129d4565b6108f1565b005b6102c960048036038101906102c49190612a27565b610951565b005b6102e560048036038101906102e091906128df565b610a38565b005b61030160048036038101906102fc91906128df565b610a94565b60405161030e9190612a63565b60405180910390f35b610331600480360381019061032c9190612a7e565b610ab1565b60405161033e91906127dc565b60405180910390f35b610361600480360381019061035c91906129d4565b610ae0565b005b61037d600480360381019061037891906128df565b610b00565b005b61039960048036038101906103949190612994565b610b5c565b6040516103a691906127dc565b60405180910390f35b6103c960048036038101906103c491906128df565b610bc4565b6040516103d6919061294d565b60405180910390f35b6103f960048036038101906103f49190612a27565b610c4a565b005b61041560048036038101906104109190612a27565b610d31565b6040516104229190612a63565b60405180910390f35b610445600480360381019061044091906128df565b610de8565b6040516104529190612b7c565b60405180910390f35b610475600480360381019061047091906128df565b610e53565b604051610482919061294d565b60405180910390f35b6104a560048036038101906104a09190612a27565b610e86565b6040516104b291906127dc565b60405180910390f35b6104c3610ee1565b6040516104d09190612887565b60405180910390f35b6104f360048036038101906104ee9190612cd3565b610f73565b005b61050f600480360381019061050a9190612d6e565b611160565b005b610519611176565b6040516105269190612a63565b60405180910390f35b61054960048036038101906105449190612e4f565b611187565b005b61056560048036038101906105609190612994565b6111e9565b005b610581600480360381019061057c91906128df565b6112f9565b60405161058e9190612887565b60405180910390f35b6105b160048036038101906105ac9190612ed2565b61130b565b6040516105be91906127dc565b60405180910390f35b6105e160048036038101906105dc91906129d4565b61139f565b005b60007f80ac58cd000000000000000000000000000000000000000000000000000000007bffffffffffffffffffffffffffffffffffffffffffffffffffffffff1916827bffffffffffffffffffffffffffffffffffffffffffffffffffffffff191614806106ae57507f5b5e139f000000000000000000000000000000000000000000000000000000007bffffffffffffffffffffffffffffffffffffffffffffffffffffffff1916827bffffffffffffffffffffffffffffffffffffffffffffffffffffffff1916145b806106be57506106bd82611425565b5b9050919050565b6060600080546106d490612f41565b80601f016020809104026020016040519081016040528092919081815260200182805461070090612f41565b801561074d5780601f106107225761010080835404028352916020019161074d565b820191906000526020600020905b81548152906001019060200180831161073057829003601f168201915b5050505050905090565b60006107628261148f565b6004600083815260200190815260200160002060009054906101000a900473ffffffffffffffffffffffffffffffffffffffff169050919050565b60006107a882610bc4565b90508073ffffffffffffffffffffffffffffffffffffffff168373ffffffffffffffffffffffffffffffffffffffff1603610818576040517f08c379a000000000000000000000000000000000000000000000000000000000815260040161080f90612fe4565b60405180910390fd5b8073ffffffffffffffffffffffffffffffffffffffff166108376114da565b73ffffffffffffffffffffffffffffffffffffffff1614806108665750610865816108606114da565b61130b565b5b6108a5576040517f08c379a000000000000000000000000000000000000000000000000000000000815260040161089c90613076565b60405180910390fd5b6108af83836114e2565b505050565b6000600d600083815260200190815260200160002060009054906101000a900473ffffffffffffffffffffffffffffffffffffffff169050919050565b6109026108fc6114da565b8261159b565b610941576040517f08c379a000000000000000000000000000000000000000000000000000000000815260040161093890613108565b60405180910390fd5b61094c838383611630565b505050565b600960003373ffffffffffffffffffffffffffffffffffffffff1673ffffffffffffffffffffffffffffffffffffffff16815260200190815260200160002060009054906101000a900460ff166109dd576040517f08c379a00000000000000000000000000000000000000000000000000000000081526004016109d490613174565b60405180910390fd5b6001600a60008373ffffffffffffffffffffffffffffffffffffffff1673ffffffffffffffffffffffffffffffffffffffff16815260200190815260200160002060006101000a81548160ff02191690831515021790555050565b610a49610a436114da565b8261159b565b610a88576040517f08c379a0000000000000000000000000000000000000000000000000000000008152600401610a7f90613206565b60405180910390fd5b610a9181611929565b50565b6000600c6000838152602001908152602001600020549050919050565b600e6020528160005260406000206020528060005260406000206000915091509054906101000a900460ff1681565b610afb83838360405180602001604052806000815250611187565b505050565b610b11610b0b6114da565b8261159b565b610b50576040517f08c379a0000000000000000000000000000000000000000000000000000000008152600401610b4790613108565b60405180910390fd5b610b5981611929565b50565b6000600e600083815260200190815260200160002060008473ffffffffffffffffffffffffffffffffffffffff1673ffffffffffffffffffffffffffffffffffffffff16815260200190815260200160002060009054906101000a900460ff16905092915050565b600080610bd083611935565b9050600073ffffffffffffffffffffffffffffffffffffffff168173ffffffffffffffffffffffffffffffffffffffff1603610c41576040517f08c379a0000000000000000000000000000000000000000000000000000000008152600401610c3890613272565b60405180910390fd5b80915050919050565b600960003373ffffffffffffffffffffffffffffffffffffffff1673ffffffffffffffffffffffffffffffffffffffff16815260200190815260200160002060009054906101000a900460ff16610cd6576040517f08c379a0000000000000000000000000000000000000000000000000000000008152600401610ccd90613174565b60405180910390fd5b6001600960008373ffffffffffffffffffffffffffffffffffffffff1673ffffffffffffffffffffffffffffffffffffffff16815260200190815260200160002060006101000a81548160ff02191690831515021790555050565b60008073ffffffffffffffffffffffffffffffffffffffff168273ffffffffffffffffffffffffffffffffffffffff1603610da1576040517f08c379a0000000000000000000000000000000000000000000000000000000008152600401610d9890613304565b60405180910390fd5b600360008373ffffffffffffffffffffffffffffffffffffffff1673ffffffffffffffffffffffffffffffffffffffff168152602001908152602001600020549050919050565b6060600b6000838152602001908152602001600020805480602002602001604051908101604052809291908181526020018280548015610e4757602002820191906000526020600020905b815481526020019060010190808311610e33575b50505050509050919050565b600d6020528060005260406000206000915054906101000a900473ffffffffffffffffffffffffffffffffffffffff1681565b600080600a60008473ffffffffffffffffffffffffffffffffffffffff1673ffffffffffffffffffffffffffffffffffffffff16815260200190815260200160002060009054906101000a900460ff16905080915050919050565b606060018054610ef090612f41565b80601f0160208091040260200160405190810160405280929190818152602001828054610f1c90612f41565b8015610f695780601f10610f3e57610100808354040283529160200191610f69565b820191906000526020600020905b815481529060010190602001808311610f4c57829003601f168201915b5050505050905090565b33600a60008273ffffffffffffffffffffffffffffffffffffffff1673ffffffffffffffffffffffffffffffffffffffff16815260200190815260200160002060009054906101000a900460ff16611000576040517f08c379a0000000000000000000000000000000000000000000000000000000008152600401610ff790613370565b60405180910390fd5b600080600090505b838110156110cc5761101a6007611972565b6110246007611988565b91506110303383611996565b61103a82876119b4565b611067600860009054906101000a900473ffffffffffffffffffffffffffffffffffffffff166001611160565b600b600086815260200190815260200160002082908060018154018082558091505060019003906000526020600020016000909190919091505584600c60008481526020019081526020016000208190555080806110c4906133bf565b915050611008565b5033600d600086815260200190815260200160002060006101000a81548173ffffffffffffffffffffffffffffffffffffffff021916908373ffffffffffffffffffffffffffffffffffffffff160217905550837f8334f87aeaf76e52b061d93ee968e51fdd3ad53ca04e80271249227997aab3a08433604051611151929190613407565b60405180910390a25050505050565b61117261116b6114da565b8383611a21565b5050565b60006111826007611988565b905090565b6111986111926114da565b8361159b565b6111d7576040517f08c379a00000000000000000000000000000000000000000000000000000000081526004016111ce90613108565b60405180910390fd5b6111e384848484611b8d565b50505050565b803373ffffffffffffffffffffffffffffffffffffffff16600d600083815260200190815260200160002060009054906101000a900473ffffffffffffffffffffffffffffffffffffffff1673ffffffffffffffffffffffffffffffffffffffff161461128b576040517f08c379a000000000000000000000000000000000000000000000000000000000815260040161128290613174565b60405180910390fd5b6001600e600084815260200190815260200160002060008573ffffffffffffffffffffffffffffffffffffffff1673ffffffffffffffffffffffffffffffffffffffff16815260200190815260200160002060006101000a81548160ff021916908315150217905550505050565b606061130482611be9565b9050919050565b6000600560008473ffffffffffffffffffffffffffffffffffffffff1673ffffffffffffffffffffffffffffffffffffffff16815260200190815260200160002060008373ffffffffffffffffffffffffffffffffffffffff1673ffffffffffffffffffffffffffffffffffffffff16815260200190815260200160002060009054906101000a900460ff16905092915050565b8273ffffffffffffffffffffffffffffffffffffffff166113bf82610bc4565b73ffffffffffffffffffffffffffffffffffffffff1614611415576040517f08c379a000000000000000000000000000000000000000000000000000000000815260040161140c9061347c565b60405180910390fd5b611420838383611630565b505050565b60007f01ffc9a7000000000000000000000000000000000000000000000000000000007bffffffffffffffffffffffffffffffffffffffffffffffffffffffff1916827bffffffffffffffffffffffffffffffffffffffffffffffffffffffff1916149050919050565b61149881611cfb565b6114d7576040517f08c379a00000000000000000000000000000000000000000000000000000000081526004016114ce90613272565b60405180910390fd5b50565b600033905090565b816004600083815260200190815260200160002060006101000a81548173ffffffffffffffffffffffffffffffffffffffff021916908373ffffffffffffffffffffffffffffffffffffffff160217905550808273ffffffffffffffffffffffffffffffffffffffff1661155583610bc4565b73ffffffffffffffffffffffffffffffffffffffff167f8c5be1e5ebec7d5bd14f71427d1e84f3dd0314c0f7b2291e5b200ac8c7c3b92560405160405180910390a45050565b6000806115a783610bc4565b90508073ffffffffffffffffffffffffffffffffffffffff168473ffffffffffffffffffffffffffffffffffffffff1614806115e957506115e8818561130b565b5b8061162757508373ffffffffffffffffffffffffffffffffffffffff1661160f84610757565b73ffffffffffffffffffffffffffffffffffffffff16145b91505092915050565b8273ffffffffffffffffffffffffffffffffffffffff1661165082610bc4565b73ffffffffffffffffffffffffffffffffffffffff16146116a6576040517f08c379a000000000000000000000000000000000000000000000000000000000815260040161169d9061350e565b60405180910390fd5b600073ffffffffffffffffffffffffffffffffffffffff168273ffffffffffffffffffffffffffffffffffffffff1603611715576040517f08c379a000000000000000000000000000000000000000000000000000000000815260040161170c906135a0565b60405180910390fd5b6117228383836001611d3c565b8273ffffffffffffffffffffffffffffffffffffffff1661174282610bc4565b73ffffffffffffffffffffffffffffffffffffffff1614611798576040517f08c379a000000000000000000000000000000000000000000000000000000000815260040161178f9061350e565b60405180910390fd5b6004600082815260200190815260200160002060006101000a81549073ffffffffffffffffffffffffffffffffffffffff02191690556001600360008573ffffffffffffffffffffffffffffffffffffffff1673ffffffffffffffffffffffffffffffffffffffff168152602001908152602001600020600082825403925050819055506001600360008473ffffffffffffffffffffffffffffffffffffffff1673ffffffffffffffffffffffffffffffffffffffff16815260200190815260200160002060008282540192505081905550816002600083815260200190815260200160002060006101000a81548173ffffffffffffffffffffffffffffffffffffffff021916908373ffffffffffffffffffffffffffffffffffffffff160217905550808273ffffffffffffffffffffffffffffffffffffffff168473ffffffffffffffffffffffffffffffffffffffff167fddf252ad1be2c89b69c2b068fc378daa952ba7f163c4a11628f55a4df523b3ef60405160405180910390a46119248383836001611e62565b505050565b61193281611e68565b50565b60006002600083815260200190815260200160002060009054906101000a900473ffffffffffffffffffffffffffffffffffffffff169050919050565b6001816000016000828254019250508190555050565b600081600001549050919050565b6119b0828260405180602001604052806000815250611ebb565b5050565b6119bd82611cfb565b6119fc576040517f08c379a00000000000000000000000000000000000000000000000000000000081526004016119f390613632565b60405180910390fd5b80600660008481526020019081526020016000209081611a1c91906137fe565b505050565b8173ffffffffffffffffffffffffffffffffffffffff168373ffffffffffffffffffffffffffffffffffffffff1603611a8f576040517f08c379a0000000000000000000000000000000000000000000000000000000008152600401611a869061391c565b60405180910390fd5b80600560008573ffffffffffffffffffffffffffffffffffffffff1673ffffffffffffffffffffffffffffffffffffffff16815260200190815260200160002060008473ffffffffffffffffffffffffffffffffffffffff1673ffffffffffffffffffffffffffffffffffffffff16815260200190815260200160002060006101000a81548160ff0219169083151502179055508173ffffffffffffffffffffffffffffffffffffffff168373ffffffffffffffffffffffffffffffffffffffff167f17307eab39ab6107e8899845ad3d59bd9653f200f220920489ca2b5937696c3183604051611b8091906127dc565b60405180910390a3505050565b611b98848484611630565b611ba484848484611f16565b611be3576040517f08c379a0000000000000000000000000000000000000000000000000000000008152600401611bda906139ae565b60405180910390fd5b50505050565b6060611bf48261148f565b6000600660008481526020019081526020016000208054611c1490612f41565b80601f0160208091040260200160405190810160405280929190818152602001828054611c4090612f41565b8015611c8d5780601f10611c6257610100808354040283529160200191611c8d565b820191906000526020600020905b815481529060010190602001808311611c7057829003601f168201915b505050505090506000611c9e61209d565b90506000815103611cb3578192505050611cf6565b600082511115611ce8578082604051602001611cd0929190613a0a565b60405160208183030381529060405292505050611cf6565b611cf1846120b4565b925050505b919050565b60008073ffffffffffffffffffffffffffffffffffffffff16611d1d83611935565b73ffffffffffffffffffffffffffffffffffffffff1614159050919050565b6001811115611e5c57600073ffffffffffffffffffffffffffffffffffffffff168473ffffffffffffffffffffffffffffffffffffffff1614611dd05780600360008673ffffffffffffffffffffffffffffffffffffffff1673ffffffffffffffffffffffffffffffffffffffff1681526020019081526020016000206000828254611dc89190613a2e565b925050819055505b600073ffffffffffffffffffffffffffffffffffffffff168373ffffffffffffffffffffffffffffffffffffffff1614611e5b5780600360008573ffffffffffffffffffffffffffffffffffffffff1673ffffffffffffffffffffffffffffffffffffffff1681526020019081526020016000206000828254611e539190613a62565b925050819055505b5b50505050565b50505050565b611e718161211c565b6000600660008381526020019081526020016000208054611e9190612f41565b905014611eb857600660008281526020019081526020016000206000611eb791906126cb565b5b50565b611ec5838361226a565b611ed26000848484611f16565b611f11576040517f08c379a0000000000000000000000000000000000000000000000000000000008152600401611f08906139ae565b60405180910390fd5b505050565b6000611f378473ffffffffffffffffffffffffffffffffffffffff16612487565b15612090578373ffffffffffffffffffffffffffffffffffffffff1663150b7a02611f606114da565b8786866040518563ffffffff1660e01b8152600401611f829493929190613aeb565b6020604051808303816000875af1925050508015611fbe57506040513d601f19601f82011682018060405250810190611fbb9190613b4c565b60015b612040573d8060008114611fee576040519150601f19603f3d011682016040523d82523d6000602084013e611ff3565b606091505b506000815103612038576040517f08c379a000000000000000000000000000000000000000000000000000000000815260040161202f906139ae565b60405180910390fd5b805181602001fd5b63150b7a0260e01b7bffffffffffffffffffffffffffffffffffffffffffffffffffffffff1916817bffffffffffffffffffffffffffffffffffffffffffffffffffffffff191614915050612095565b600190505b949350505050565b606060405180602001604052806000815250905090565b60606120bf8261148f565b60006120c961209d565b905060008151116120e95760405180602001604052806000815250612114565b806120f3846124aa565b604051602001612104929190613a0a565b6040516020818303038152906040525b915050919050565b600061212782610bc4565b9050612137816000846001611d3c565b61214082610bc4565b90506004600083815260200190815260200160002060006101000a81549073ffffffffffffffffffffffffffffffffffffffff02191690556001600360008373ffffffffffffffffffffffffffffffffffffffff1673ffffffffffffffffffffffffffffffffffffffff168152602001908152602001600020600082825403925050819055506002600083815260200190815260200160002060006101000a81549073ffffffffffffffffffffffffffffffffffffffff021916905581600073ffffffffffffffffffffffffffffffffffffffff168273ffffffffffffffffffffffffffffffffffffffff167fddf252ad1be2c89b69c2b068fc378daa952ba7f163c4a11628f55a4df523b3ef60405160405180910390a4612266816000846001611e62565b5050565b600073ffffffffffffffffffffffffffffffffffffffff168273ffffffffffffffffffffffffffffffffffffffff16036122d9576040517f08c379a00000000000000000000000000000000000000000000000000000000081526004016122d090613bc5565b60405180910390fd5b6122e281611cfb565b15612322576040517f08c379a000000000000000000000000000000000000000000000000000000000815260040161231990613c31565b60405180910390fd5b612330600083836001611d3c565b61233981611cfb565b15612379576040517f08c379a000000000000000000000000000000000000000000000000000000000815260040161237090613c31565b60405180910390fd5b6001600360008473ffffffffffffffffffffffffffffffffffffffff1673ffffffffffffffffffffffffffffffffffffffff16815260200190815260200160002060008282540192505081905550816002600083815260200190815260200160002060006101000a81548173ffffffffffffffffffffffffffffffffffffffff021916908373ffffffffffffffffffffffffffffffffffffffff160217905550808273ffffffffffffffffffffffffffffffffffffffff16600073ffffffffffffffffffffffffffffffffffffffff167fddf252ad1be2c89b69c2b068fc378daa952ba7f163c4a11628f55a4df523b3ef60405160405180910390a4612483600083836001611e62565b5050565b6000808273ffffffffffffffffffffffffffffffffffffffff163b119050919050565b6060600060016124b984612578565b01905060008167ffffffffffffffff8111156124d8576124d7612ba8565b5b6040519080825280601f01601f19166020018201604052801561250a5781602001600182028036833780820191505090505b509050600082602001820190505b60011561256d578080600190039150507f3031323334353637383961626364656600000000000000000000000000000000600a86061a8153600a858161256157612560613c51565b5b04945060008503612518575b819350505050919050565b600080600090507a184f03e93ff9f4daa797ed6e38ed64bf6a1f01000000000000000083106125d6577a184f03e93ff9f4daa797ed6e38ed64bf6a1f01000000000000000083816125cc576125cb613c51565b5b0492506040810190505b6d04ee2d6d415b85acef81000000008310612613576d04ee2d6d415b85acef8100000000838161260957612608613c51565b5b0492506020810190505b662386f26fc10000831061264257662386f26fc10000838161263857612637613c51565b5b0492506010810190505b6305f5e100831061266b576305f5e100838161266157612660613c51565b5b0492506008810190505b612710831061269057612710838161268657612685613c51565b5b0492506004810190505b606483106126b357606483816126a9576126a8613c51565b5b0492506002810190505b600a83106126c2576001810190505b80915050919050565b5080546126d790612f41565b6000825580601f106126e95750612708565b601f016020900490600052602060002090810190612707919061270b565b5b50565b5b8082111561272457600081600090555060010161270c565b5090565b6000604051905090565b600080fd5b600080fd5b60007fffffffff0000000000000000000000000000000000000000000000000000000082169050919050565b6127718161273c565b811461277c57600080fd5b50565b60008135905061278e81612768565b92915050565b6000602082840312156127aa576127a9612732565b5b60006127b88482850161277f565b91505092915050565b60008115159050919050565b6127d6816127c1565b82525050565b60006020820190506127f160008301846127cd565b92915050565b600081519050919050565b600082825260208201905092915050565b60005b83811015612831578082015181840152602081019050612816565b60008484015250505050565b6000601f19601f8301169050919050565b6000612859826127f7565b6128638185612802565b9350612873818560208601612813565b61287c8161283d565b840191505092915050565b600060208201905081810360008301526128a1818461284e565b905092915050565b6000819050919050565b6128bc816128a9565b81146128c757600080fd5b50565b6000813590506128d9816128b3565b92915050565b6000602082840312156128f5576128f4612732565b5b6000612903848285016128ca565b91505092915050565b600073ffffffffffffffffffffffffffffffffffffffff82169050919050565b60006129378261290c565b9050919050565b6129478161292c565b82525050565b6000602082019050612962600083018461293e565b92915050565b6129718161292c565b811461297c57600080fd5b50565b60008135905061298e81612968565b92915050565b600080604083850312156129ab576129aa612732565b5b60006129b98582860161297f565b92505060206129ca858286016128ca565b9150509250929050565b6000806000606084860312156129ed576129ec612732565b5b60006129fb8682870161297f565b9350506020612a0c8682870161297f565b9250506040612a1d868287016128ca565b9150509250925092565b600060208284031215612a3d57612a3c612732565b5b6000612a4b8482850161297f565b91505092915050565b612a5d816128a9565b82525050565b6000602082019050612a786000830184612a54565b92915050565b60008060408385031215612a9557612a94612732565b5b6000612aa3858286016128ca565b9250506020612ab48582860161297f565b9150509250929050565b600081519050919050565b600082825260208201905092915050565b6000819050602082019050919050565b612af3816128a9565b82525050565b6000612b058383612aea565b60208301905092915050565b6000602082019050919050565b6000612b2982612abe565b612b338185612ac9565b9350612b3e83612ada565b8060005b83811015612b6f578151612b568882612af9565b9750612b6183612b11565b925050600181019050612b42565b5085935050505092915050565b60006020820190508181036000830152612b968184612b1e565b905092915050565b600080fd5b600080fd5b7f4e487b7100000000000000000000000000000000000000000000000000000000600052604160045260246000fd5b612be08261283d565b810181811067ffffffffffffffff82111715612bff57612bfe612ba8565b5b80604052505050565b6000612c12612728565b9050612c1e8282612bd7565b919050565b600067ffffffffffffffff821115612c3e57612c3d612ba8565b5b612c478261283d565b9050602081019050919050565b82818337600083830152505050565b6000612c76612c7184612c23565b612c08565b905082815260208101848484011115612c9257612c91612ba3565b5b612c9d848285612c54565b509392505050565b600082601f830112612cba57612cb9612b9e565b5b8135612cca848260208601612c63565b91505092915050565b600080600060608486031215612cec57612ceb612732565b5b600084013567ffffffffffffffff811115612d0a57612d09612737565b5b612d1686828701612ca5565b9350506020612d27868287016128ca565b9250506040612d38868287016128ca565b9150509250925092565b612d4b816127c1565b8114612d5657600080fd5b50565b600081359050612d6881612d42565b92915050565b60008060408385031215612d8557612d84612732565b5b6000612d938582860161297f565b9250506020612da485828601612d59565b9150509250929050565b600067ffffffffffffffff821115612dc957612dc8612ba8565b5b612dd28261283d565b9050602081019050919050565b6000612df2612ded84612dae565b612c08565b905082815260208101848484011115612e0e57612e0d612ba3565b5b612e19848285612c54565b509392505050565b600082601f830112612e3657612e35612b9e565b5b8135612e46848260208601612ddf565b91505092915050565b60008060008060808587031215612e6957612e68612732565b5b6000612e778782880161297f565b9450506020612e888782880161297f565b9350506040612e99878288016128ca565b925050606085013567ffffffffffffffff811115612eba57612eb9612737565b5b612ec687828801612e21565b91505092959194509250565b60008060408385031215612ee957612ee8612732565b5b6000612ef78582860161297f565b9250506020612f088582860161297f565b9150509250929050565b7f4e487b7100000000000000000000000000000000000000000000000000000000600052602260045260246000fd5b60006002820490506001821680612f5957607f821691505b602082108103612f6c57612f6b612f12565b5b50919050565b7f4552433732313a20617070726f76616c20746f2063757272656e74206f776e6560008201527f7200000000000000000000000000000000000000000000000000000000000000602082015250565b6000612fce602183612802565b9150612fd982612f72565b604082019050919050565b60006020820190508181036000830152612ffd81612fc1565b9050919050565b7f4552433732313a20617070726f76652063616c6c6572206973206e6f7420746f60008201527f6b656e206f776e6572206f7220617070726f76656420666f7220616c6c000000602082015250565b6000613060603d83612802565b915061306b82613004565b604082019050919050565b6000602082019050818103600083015261308f81613053565b9050919050565b7f4552433732313a2063616c6c6572206973206e6f7420746f6b656e206f776e6560008201527f72206f7220617070726f76656400000000000000000000000000000000000000602082015250565b60006130f2602d83612802565b91506130fd82613096565b604082019050919050565b60006020820190508181036000830152613121816130e5565b9050919050565b7f4f6e6c7920636f6e7472616374206f776e657273210000000000000000000000600082015250565b600061315e601583612802565b915061316982613128565b602082019050919050565b6000602082019050818103600083015261318d81613151565b9050919050565b7f4552433732314275726e61626c653a2063616c6c6572206973206e6f74206f7760008201527f6e6572206e6f7220617070726f76656400000000000000000000000000000000602082015250565b60006131f0603083612802565b91506131fb82613194565b604082019050919050565b6000602082019050818103600083015261321f816131e3565b9050919050565b7f4552433732313a20696e76616c696420746f6b656e2049440000000000000000600082015250565b600061325c601883612802565b915061326782613226565b602082019050919050565b6000602082019050818103600083015261328b8161324f565b9050919050565b7f4552433732313a2061646472657373207a65726f206973206e6f74206120766160008201527f6c6964206f776e65720000000000000000000000000000000000000000000000602082015250565b60006132ee602983612802565b91506132f982613292565b604082019050919050565b6000602082019050818103600083015261331d816132e1565b9050919050565b7f596f75206e65656420746f2062652077686974656c6973746564000000000000600082015250565b600061335a601a83612802565b915061336582613324565b602082019050919050565b600060208201905081810360008301526133898161334d565b9050919050565b7f4e487b7100000000000000000000000000000000000000000000000000000000600052601160045260246000fd5b60006133ca826128a9565b91507fffffffffffffffffffffffffffffffffffffffffffffffffffffffffffffffff82036133fc576133fb613390565b5b600182019050919050565b600060408201905061341c6000830185612a54565b613429602083018461293e565b9392505050565b7f46726f6d2061646472657373206d75737420626520746f6b656e206f776e6572600082015250565b6000613466602083612802565b915061347182613430565b602082019050919050565b6000602082019050818103600083015261349581613459565b9050919050565b7f4552433732313a207472616e736665722066726f6d20696e636f72726563742060008201527f6f776e6572000000000000000000000000000000000000000000000000000000602082015250565b60006134f8602583612802565b91506135038261349c565b604082019050919050565b60006020820190508181036000830152613527816134eb565b9050919050565b7f4552433732313a207472616e7366657220746f20746865207a65726f2061646460008201527f7265737300000000000000000000000000000000000000000000000000000000602082015250565b600061358a602483612802565b91506135958261352e565b604082019050919050565b600060208201905081810360008301526135b98161357d565b9050919050565b7f45524337323155524953746f726167653a2055524920736574206f66206e6f6e60008201527f6578697374656e7420746f6b656e000000000000000000000000000000000000602082015250565b600061361c602e83612802565b9150613627826135c0565b604082019050919050565b6000602082019050818103600083015261364b8161360f565b9050919050565b60008190508160005260206000209050919050565b60006020601f8301049050919050565b600082821b905092915050565b6000600883026136b47fffffffffffffffffffffffffffffffffffffffffffffffffffffffffffffffff82613677565b6136be8683613677565b95508019841693508086168417925050509392505050565b6000819050919050565b60006136fb6136f66136f1846128a9565b6136d6565b6128a9565b9050919050565b6000819050919050565b613715836136e0565b61372961372182613702565b848454613684565b825550505050565b600090565b61373e613731565b61374981848461370c565b505050565b5b8181101561376d57613762600082613736565b60018101905061374f565b5050565b601f8211156137b25761378381613652565b61378c84613667565b8101602085101561379b578190505b6137af6137a785613667565b83018261374e565b50505b505050565b600082821c905092915050565b60006137d5600019846008026137b7565b1980831691505092915050565b60006137ee83836137c4565b9150826002028217905092915050565b613807826127f7565b67ffffffffffffffff8111156138205761381f612ba8565b5b61382a8254612f41565b613835828285613771565b600060209050601f8311600181146138685760008415613856578287015190505b61386085826137e2565b8655506138c8565b601f19841661387686613652565b60005b8281101561389e57848901518255600182019150602085019450602081019050613879565b868310156138bb57848901516138b7601f8916826137c4565b8355505b6001600288020188555050505b505050505050565b7f4552433732313a20617070726f766520746f2063616c6c657200000000000000600082015250565b6000613906601983612802565b9150613911826138d0565b602082019050919050565b60006020820190508181036000830152613935816138f9565b9050919050565b7f4552433732313a207472616e7366657220746f206e6f6e20455243373231526560008201527f63656976657220696d706c656d656e7465720000000000000000000000000000602082015250565b6000613998603283612802565b91506139a38261393c565b604082019050919050565b600060208201905081810360008301526139c78161398b565b9050919050565b600081905092915050565b60006139e4826127f7565b6139ee81856139ce565b93506139fe818560208601612813565b80840191505092915050565b6000613a1682856139d9565b9150613a2282846139d9565b91508190509392505050565b6000613a39826128a9565b9150613a44836128a9565b9250828203905081811115613a5c57613a5b613390565b5b92915050565b6000613a6d826128a9565b9150613a78836128a9565b9250828201905080821115613a9057613a8f613390565b5b92915050565b600081519050919050565b600082825260208201905092915050565b6000613abd82613a96565b613ac78185613aa1565b9350613ad7818560208601612813565b613ae08161283d565b840191505092915050565b6000608082019050613b00600083018761293e565b613b0d602083018661293e565b613b1a6040830185612a54565b8181036060830152613b2c8184613ab2565b905095945050505050565b600081519050613b4681612768565b92915050565b600060208284031215613b6257613b61612732565b5b6000613b7084828501613b37565b91505092915050565b7f4552433732313a206d696e7420746f20746865207a65726f2061646472657373600082015250565b6000613baf602083612802565b9150613bba82613b79565b602082019050919050565b60006020820190508181036000830152613bde81613ba2565b9050919050565b7f4552433732313a20746f6b656e20616c7265616479206d696e74656400000000600082015250565b6000613c1b601c83612802565b9150613c2682613be5565b602082019050919050565b60006020820190508181036000830152613c4a81613c0e565b9050919050565b7f4e487b7100000000000000000000000000000000000000000000000000000000600052601260045260246000fdfea2646970667358221220bc54fc86d623ee184774eff31939b27770ab0c021440510041078dd867f2b46b64736f6c63430008110033",
  "linkReferences": {},
  "deployedLinkReferences": {}
}