{
  "_format": "hh-sol-artifact-1",
  "contractName": "TicketMint",
  "sourceName": "contracts/TicketMint.sol",
  "abi": [
    {
      "inputs": [
        {
          "internalType": "address",
          "name": "marketAddress",
          "type": "address"
        }
      ],
      "stateMutability": "nonpayable",
      "type": "constructor"
    },
    {
      "anonymous": false,
      "inputs": [
        {
          "indexed": true,
          "internalType": "address",
          "name": "owner",
          "type": "address"
        },
        {
          "indexed": true,
          "internalType": "address",
          "name": "approved",
          "type": "address"
        },
        {
          "indexed": true,
          "internalType": "uint256",
          "name": "tokenId",
          "type": "uint256"
        }
      ],
      "name": "Approval",
      "type": "event"
    },
    {
      "anonymous": false,
      "inputs": [
        {
          "indexed": true,
          "internalType": "address",
          "name": "owner",
          "type": "address"
        },
        {
          "indexed": true,
          "internalType": "address",
          "name": "operator",
          "type": "address"
        },
        {
          "indexed": false,
          "internalType": "bool",
          "name": "approved",
          "type": "bool"
        }
      ],
      "name": "ApprovalForAll",
      "type": "event"
    },
    {
      "anonymous": false,
      "inputs": [
        {
          "indexed": true,
          "internalType": "uint256",
          "name": "eventID",
          "type": "uint256"
        },
        {
          "indexed": false,
          "internalType": "uint256",
          "name": "supply",
          "type": "uint256"
        },
        {
          "indexed": false,
          "internalType": "address",
          "name": "ticketOwner",
          "type": "address"
        }
      ],
      "name": "Mint",
      "type": "event"
    },
    {
      "anonymous": false,
      "inputs": [
        {
          "indexed": true,
          "internalType": "address",
          "name": "from",
          "type": "address"
        },
        {
          "indexed": true,
          "internalType": "address",
          "name": "to",
          "type": "address"
        },
        {
          "indexed": true,
          "internalType": "uint256",
          "name": "tokenId",
          "type": "uint256"
        }
      ],
      "name": "Transfer",
      "type": "event"
    },
    {
      "inputs": [
        {
          "internalType": "address",
          "name": "_address",
          "type": "address"
        }
      ],
      "name": "addEventOwner",
      "outputs": [],
      "stateMutability": "nonpayable",
      "type": "function"
    },
    {
      "inputs": [
        {
          "internalType": "address",
          "name": "_addressToOwners",
          "type": "address"
        }
      ],
      "name": "addOwner",
      "outputs": [],
      "stateMutability": "nonpayable",
      "type": "function"
    },
    {
      "inputs": [
        {
          "internalType": "address",
          "name": "to",
          "type": "address"
        },
        {
          "internalType": "uint256",
          "name": "tokenId",
          "type": "uint256"
        }
      ],
      "name": "approve",
      "outputs": [],
      "stateMutability": "nonpayable",
      "type": "function"
    },
    {
      "inputs": [
        {
          "internalType": "address",
          "name": "owner",
          "type": "address"
        }
      ],
      "name": "balanceOf",
      "outputs": [
        {
          "internalType": "uint256",
          "name": "",
          "type": "uint256"
        }
      ],
      "stateMutability": "view",
      "type": "function"
    },
    {
      "inputs": [
        {
          "internalType": "uint256",
          "name": "tokenId",
          "type": "uint256"
        }
      ],
      "name": "burn",
      "outputs": [],
      "stateMutability": "nonpayable",
      "type": "function"
    },
    {
      "inputs": [
        {
          "internalType": "uint256",
          "name": "tokenId",
          "type": "uint256"
        }
      ],
      "name": "burnNFT",
      "outputs": [],
      "stateMutability": "nonpayable",
      "type": "function"
    },
    {
      "inputs": [
        {
          "internalType": "uint256",
          "name": "tokenId",
          "type": "uint256"
        }
      ],
      "name": "getApproved",
      "outputs": [
        {
          "internalType": "address",
          "name": "",
          "type": "address"
        }
      ],
      "stateMutability": "view",
      "type": "function"
    },
    {
      "inputs": [
        {
          "internalType": "uint256",
          "name": "tokenid",
          "type": "uint256"
        }
      ],
      "name": "getEventID",
      "outputs": [
        {
          "internalType": "uint256",
          "name": "",
          "type": "uint256"
        }
      ],
      "stateMutability": "view",
      "type": "function"
    },
    {
      "inputs": [
        {
          "internalType": "uint256",
          "name": "eventid",
          "type": "uint256"
        }
      ],
      "name": "getEventTicketList",
      "outputs": [
        {
          "internalType": "uint256[]",
          "name": "",
          "type": "uint256[]"
        }
      ],
      "stateMutability": "view",
      "type": "function"
    },
    {
      "inputs": [
        {
          "internalType": "address",
          "name": "owner",
          "type": "address"
        },
        {
          "internalType": "address",
          "name": "operator",
          "type": "address"
        }
      ],
      "name": "isApprovedForAll",
      "outputs": [
        {
          "internalType": "bool",
          "name": "",
          "type": "bool"
        }
      ],
      "stateMutability": "view",
      "type": "function"
    },
    {
      "inputs": [
        {
          "internalType": "string",
          "name": "tokenUri",
          "type": "string"
        },
        {
          "internalType": "uint256",
          "name": "eventId",
          "type": "uint256"
        },
        {
          "internalType": "uint256",
          "name": "supply",
          "type": "uint256"
        }
      ],
      "name": "mintNFT",
      "outputs": [],
      "stateMutability": "nonpayable",
      "type": "function"
    },
    {
      "inputs": [],
      "name": "name",
      "outputs": [
        {
          "internalType": "string",
          "name": "",
          "type": "string"
        }
      ],
      "stateMutability": "view",
      "type": "function"
    },
    {
      "inputs": [
        {
          "internalType": "uint256",
          "name": "tokenId",
          "type": "uint256"
        }
      ],
      "name": "ownerOf",
      "outputs": [
        {
          "internalType": "address",
          "name": "",
          "type": "address"
        }
      ],
      "stateMutability": "view",
      "type": "function"
    },
    {
      "inputs": [
        {
          "internalType": "address",
          "name": "from",
          "type": "address"
        },
        {
          "internalType": "address",
          "name": "to",
          "type": "address"
        },
        {
          "internalType": "uint256",
          "name": "tokenId",
          "type": "uint256"
        }
      ],
      "name": "safeTransferFrom",
      "outputs": [],
      "stateMutability": "nonpayable",
      "type": "function"
    },
    {
      "inputs": [
        {
          "internalType": "address",
          "name": "from",
          "type": "address"
        },
        {
          "internalType": "address",
          "name": "to",
          "type": "address"
        },
        {
          "internalType": "uint256",
          "name": "tokenId",
          "type": "uint256"
        },
        {
          "internalType": "bytes",
          "name": "data",
          "type": "bytes"
        }
      ],
      "name": "safeTransferFrom",
      "outputs": [],
      "stateMutability": "nonpayable",
      "type": "function"
    },
    {
      "inputs": [
        {
          "internalType": "address",
          "name": "operator",
          "type": "address"
        },
        {
          "internalType": "bool",
          "name": "approved",
          "type": "bool"
        }
      ],
      "name": "setApprovalForAll",
      "outputs": [],
      "stateMutability": "nonpayable",
      "type": "function"
    },
    {
      "inputs": [
        {
          "internalType": "bytes4",
          "name": "interfaceId",
          "type": "bytes4"
        }
      ],
      "name": "supportsInterface",
      "outputs": [
        {
          "internalType": "bool",
          "name": "",
          "type": "bool"
        }
      ],
      "stateMutability": "view",
      "type": "function"
    },
    {
      "inputs": [],
      "name": "symbol",
      "outputs": [
        {
          "internalType": "string",
          "name": "",
          "type": "string"
        }
      ],
      "stateMutability": "view",
      "type": "function"
    },
    {
      "inputs": [],
      "name": "tokenID",
      "outputs": [
        {
          "internalType": "uint256",
          "name": "",
          "type": "uint256"
        }
      ],
      "stateMutability": "view",
      "type": "function"
    },
    {
      "inputs": [
        {
          "internalType": "uint256",
          "name": "tokenId",
          "type": "uint256"
        }
      ],
      "name": "tokenURI",
      "outputs": [
        {
          "internalType": "string",
          "name": "",
          "type": "string"
        }
      ],
      "stateMutability": "view",
      "type": "function"
    },
    {
      "inputs": [
        {
          "internalType": "address",
          "name": "from",
          "type": "address"
        },
        {
          "internalType": "address",
          "name": "to",
          "type": "address"
        },
        {
          "internalType": "uint256",
          "name": "tokenId",
          "type": "uint256"
        }
      ],
      "name": "transferFrom",
      "outputs": [],
      "stateMutability": "nonpayable",
      "type": "function"
    },
    {
      "inputs": [
        {
          "internalType": "address",
          "name": "from",
          "type": "address"
        },
        {
          "internalType": "address",
          "name": "to",
          "type": "address"
        },
        {
          "internalType": "uint256",
          "name": "tokenId",
          "type": "uint256"
        }
      ],
      "name": "transferToken",
      "outputs": [],
      "stateMutability": "nonpayable",
      "type": "function"
    },
    {
      "inputs": [
        {
          "internalType": "address",
          "name": "_address",
          "type": "address"
        }
      ],
      "name": "verifyEventOwner",
      "outputs": [
        {
          "internalType": "bool",
          "name": "",
          "type": "bool"
        }
      ],
      "stateMutability": "view",
      "type": "function"
    }
  ],
  "bytecode": "0x60806040523480156200001157600080fd5b5060405162003e3038038062003e308339818101604052810190620000379190620001d3565b6040518060400160405280600881526020017f5469636b726970740000000000000000000000000000000000000000000000008152506040518060400160405280600381526020017f54696300000000000000000000000000000000000000000000000000000000008152508160009081620000b491906200047f565b508060019081620000c691906200047f565b50505080600860006101000a81548173ffffffffffffffffffffffffffffffffffffffff021916908373ffffffffffffffffffffffffffffffffffffffff1602179055506001600960003373ffffffffffffffffffffffffffffffffffffffff1673ffffffffffffffffffffffffffffffffffffffff16815260200190815260200160002060006101000a81548160ff0219169083151502179055505062000566565b600080fd5b600073ffffffffffffffffffffffffffffffffffffffff82169050919050565b60006200019b826200016e565b9050919050565b620001ad816200018e565b8114620001b957600080fd5b50565b600081519050620001cd81620001a2565b92915050565b600060208284031215620001ec57620001eb62000169565b5b6000620001fc84828501620001bc565b91505092915050565b600081519050919050565b7f4e487b7100000000000000000000000000000000000000000000000000000000600052604160045260246000fd5b7f4e487b7100000000000000000000000000000000000000000000000000000000600052602260045260246000fd5b600060028204905060018216806200028757607f821691505b6020821081036200029d576200029c6200023f565b5b50919050565b60008190508160005260206000209050919050565b60006020601f8301049050919050565b600082821b905092915050565b600060088302620003077fffffffffffffffffffffffffffffffffffffffffffffffffffffffffffffffff82620002c8565b620003138683620002c8565b95508019841693508086168417925050509392505050565b6000819050919050565b6000819050919050565b6000620003606200035a62000354846200032b565b62000335565b6200032b565b9050919050565b6000819050919050565b6200037c836200033f565b620003946200038b8262000367565b848454620002d5565b825550505050565b600090565b620003ab6200039c565b620003b881848462000371565b505050565b5b81811015620003e057620003d4600082620003a1565b600181019050620003be565b5050565b601f8211156200042f57620003f981620002a3565b6200040484620002b8565b8101602085101562000414578190505b6200042c6200042385620002b8565b830182620003bd565b50505b505050565b600082821c905092915050565b6000620004546000198460080262000434565b1980831691505092915050565b60006200046f838362000441565b9150826002028217905092915050565b6200048a8262000205565b67ffffffffffffffff811115620004a657620004a562000210565b5b620004b282546200026e565b620004bf828285620003e4565b600060209050601f831160018114620004f75760008415620004e2578287015190505b620004ee858262000461565b8655506200055e565b601f1984166200050786620002a3565b60005b8281101562000531578489015182556001820191506020850194506020810190506200050a565b868310156200055157848901516200054d601f89168262000441565b8355505b6001600288020188555050505b505050505050565b6138ba80620005766000396000f3fe608060405234801561001057600080fd5b506004361061014d5760003560e01c80637065cb48116100c3578063a22cb4651161007c578063a22cb465146103be578063a5c42ef1146103da578063b88d4fde146103f8578063c87b56dd14610414578063e985e9c514610444578063f5537ede146104745761014d565b80637065cb48146102d857806370a08231146102f45780637c428edb146103245780638966d3a21461035457806395d89b4114610384578063977922d2146103a25761014d565b806327848eae1161011557806327848eae146102085780632890e0d7146102245780632b43ecf61461024057806342842e0e1461027057806342966c681461028c5780636352211e146102a85761014d565b806301ffc9a71461015257806306fdde0314610182578063081812fc146101a0578063095ea7b3146101d057806323b872dd146101ec575b600080fd5b61016c600480360381019061016791906123d8565b610490565b6040516101799190612420565b60405180910390f35b61018a610572565b60405161019791906124cb565b60405180910390f35b6101ba60048036038101906101b59190612523565b610604565b6040516101c79190612591565b60405180910390f35b6101ea60048036038101906101e591906125d8565b61064a565b005b61020660048036038101906102019190612618565b610761565b005b610222600480360381019061021d919061266b565b6107c1565b005b61023e60048036038101906102399190612523565b6108a8565b005b61025a60048036038101906102559190612523565b610904565b60405161026791906126a7565b60405180910390f35b61028a60048036038101906102859190612618565b610921565b005b6102a660048036038101906102a19190612523565b610941565b005b6102c260048036038101906102bd9190612523565b61099d565b6040516102cf9190612591565b60405180910390f35b6102f260048036038101906102ed919061266b565b610a23565b005b61030e6004803603810190610309919061266b565b610b0a565b60405161031b91906126a7565b60405180910390f35b61033e60048036038101906103399190612523565b610bc1565b60405161034b9190612780565b60405180910390f35b61036e6004803603810190610369919061266b565b610c2c565b60405161037b9190612420565b60405180910390f35b61038c610c87565b60405161039991906124cb565b60405180910390f35b6103bc60048036038101906103b791906128d7565b610d19565b005b6103d860048036038101906103d39190612972565b610eb4565b005b6103e2610eca565b6040516103ef91906126a7565b60405180910390f35b610412600480360381019061040d9190612a53565b610edb565b005b61042e60048036038101906104299190612523565b610f3d565b60405161043b91906124cb565b60405180910390f35b61045e60048036038101906104599190612ad6565b610f4f565b60405161046b9190612420565b60405180910390f35b61048e60048036038101906104899190612618565b610fe3565b005b60007f80ac58cd000000000000000000000000000000000000000000000000000000007bffffffffffffffffffffffffffffffffffffffffffffffffffffffff1916827bffffffffffffffffffffffffffffffffffffffffffffffffffffffff1916148061055b57507f5b5e139f000000000000000000000000000000000000000000000000000000007bffffffffffffffffffffffffffffffffffffffffffffffffffffffff1916827bffffffffffffffffffffffffffffffffffffffffffffffffffffffff1916145b8061056b575061056a82611069565b5b9050919050565b60606000805461058190612b45565b80601f01602080910402602001604051908101604052809291908181526020018280546105ad90612b45565b80156105fa5780601f106105cf576101008083540402835291602001916105fa565b820191906000526020600020905b8154815290600101906020018083116105dd57829003601f168201915b5050505050905090565b600061060f826110d3565b6004600083815260200190815260200160002060009054906101000a900473ffffffffffffffffffffffffffffffffffffffff169050919050565b60006106558261099d565b90508073ffffffffffffffffffffffffffffffffffffffff168373ffffffffffffffffffffffffffffffffffffffff16036106c5576040517f08c379a00000000000000000000000000000000000000000000000000000000081526004016106bc90612be8565b60405180910390fd5b8073ffffffffffffffffffffffffffffffffffffffff166106e461111e565b73ffffffffffffffffffffffffffffffffffffffff16148061071357506107128161070d61111e565b610f4f565b5b610752576040517f08c379a000000000000000000000000000000000000000000000000000000000815260040161074990612c7a565b60405180910390fd5b61075c8383611126565b505050565b61077261076c61111e565b826111df565b6107b1576040517f08c379a00000000000000000000000000000000000000000000000000000000081526004016107a890612d0c565b60405180910390fd5b6107bc838383611274565b505050565b600960003373ffffffffffffffffffffffffffffffffffffffff1673ffffffffffffffffffffffffffffffffffffffff16815260200190815260200160002060009054906101000a900460ff1661084d576040517f08c379a000000000000000000000000000000000000000000000000000000000815260040161084490612d78565b60405180910390fd5b6001600a60008373ffffffffffffffffffffffffffffffffffffffff1673ffffffffffffffffffffffffffffffffffffffff16815260200190815260200160002060006101000a81548160ff02191690831515021790555050565b6108b96108b361111e565b826111df565b6108f8576040517f08c379a00000000000000000000000000000000000000000000000000000000081526004016108ef90612e0a565b60405180910390fd5b6109018161156d565b50565b6000600c6000838152602001908152602001600020549050919050565b61093c83838360405180602001604052806000815250610edb565b505050565b61095261094c61111e565b826111df565b610991576040517f08c379a000000000000000000000000000000000000000000000000000000000815260040161098890612d0c565b60405180910390fd5b61099a8161156d565b50565b6000806109a983611579565b9050600073ffffffffffffffffffffffffffffffffffffffff168173ffffffffffffffffffffffffffffffffffffffff1603610a1a576040517f08c379a0000000000000000000000000000000000000000000000000000000008152600401610a1190612e76565b60405180910390fd5b80915050919050565b600960003373ffffffffffffffffffffffffffffffffffffffff1673ffffffffffffffffffffffffffffffffffffffff16815260200190815260200160002060009054906101000a900460ff16610aaf576040517f08c379a0000000000000000000000000000000000000000000000000000000008152600401610aa690612d78565b60405180910390fd5b6001600960008373ffffffffffffffffffffffffffffffffffffffff1673ffffffffffffffffffffffffffffffffffffffff16815260200190815260200160002060006101000a81548160ff02191690831515021790555050565b60008073ffffffffffffffffffffffffffffffffffffffff168273ffffffffffffffffffffffffffffffffffffffff1603610b7a576040517f08c379a0000000000000000000000000000000000000000000000000000000008152600401610b7190612f08565b60405180910390fd5b600360008373ffffffffffffffffffffffffffffffffffffffff1673ffffffffffffffffffffffffffffffffffffffff168152602001908152602001600020549050919050565b6060600b6000838152602001908152602001600020805480602002602001604051908101604052809291908181526020018280548015610c2057602002820191906000526020600020905b815481526020019060010190808311610c0c575b50505050509050919050565b600080600a60008473ffffffffffffffffffffffffffffffffffffffff1673ffffffffffffffffffffffffffffffffffffffff16815260200190815260200160002060009054906101000a900460ff16905080915050919050565b606060018054610c9690612b45565b80601f0160208091040260200160405190810160405280929190818152602001828054610cc290612b45565b8015610d0f5780601f10610ce457610100808354040283529160200191610d0f565b820191906000526020600020905b815481529060010190602001808311610cf257829003601f168201915b5050505050905090565b33600a60008273ffffffffffffffffffffffffffffffffffffffff1673ffffffffffffffffffffffffffffffffffffffff16815260200190815260200160002060009054906101000a900460ff16610da6576040517f08c379a0000000000000000000000000000000000000000000000000000000008152600401610d9d90612f74565b60405180910390fd5b600080600090505b83811015610e7257610dc060076115b6565b610dca60076115cc565b9150610dd633836115da565b610de082876115f8565b610e0d600860009054906101000a900473ffffffffffffffffffffffffffffffffffffffff166001610eb4565b600b600086815260200190815260200160002082908060018154018082558091505060019003906000526020600020016000909190919091505584600c6000848152602001908152602001600020819055508080610e6a90612fc3565b915050610dae565b50837f8334f87aeaf76e52b061d93ee968e51fdd3ad53ca04e80271249227997aab3a08433604051610ea592919061300b565b60405180910390a25050505050565b610ec6610ebf61111e565b8383611665565b5050565b6000610ed660076115cc565b905090565b610eec610ee661111e565b836111df565b610f2b576040517f08c379a0000000000000000000000000000000000000000000000000000000008152600401610f2290612d0c565b60405180910390fd5b610f37848484846117d1565b50505050565b6060610f488261182d565b9050919050565b6000600560008473ffffffffffffffffffffffffffffffffffffffff1673ffffffffffffffffffffffffffffffffffffffff16815260200190815260200160002060008373ffffffffffffffffffffffffffffffffffffffff1673ffffffffffffffffffffffffffffffffffffffff16815260200190815260200160002060009054906101000a900460ff16905092915050565b8273ffffffffffffffffffffffffffffffffffffffff166110038261099d565b73ffffffffffffffffffffffffffffffffffffffff1614611059576040517f08c379a000000000000000000000000000000000000000000000000000000000815260040161105090613080565b60405180910390fd5b611064838383611274565b505050565b60007f01ffc9a7000000000000000000000000000000000000000000000000000000007bffffffffffffffffffffffffffffffffffffffffffffffffffffffff1916827bffffffffffffffffffffffffffffffffffffffffffffffffffffffff1916149050919050565b6110dc8161193f565b61111b576040517f08c379a000000000000000000000000000000000000000000000000000000000815260040161111290612e76565b60405180910390fd5b50565b600033905090565b816004600083815260200190815260200160002060006101000a81548173ffffffffffffffffffffffffffffffffffffffff021916908373ffffffffffffffffffffffffffffffffffffffff160217905550808273ffffffffffffffffffffffffffffffffffffffff166111998361099d565b73ffffffffffffffffffffffffffffffffffffffff167f8c5be1e5ebec7d5bd14f71427d1e84f3dd0314c0f7b2291e5b200ac8c7c3b92560405160405180910390a45050565b6000806111eb8361099d565b90508073ffffffffffffffffffffffffffffffffffffffff168473ffffffffffffffffffffffffffffffffffffffff16148061122d575061122c8185610f4f565b5b8061126b57508373ffffffffffffffffffffffffffffffffffffffff1661125384610604565b73ffffffffffffffffffffffffffffffffffffffff16145b91505092915050565b8273ffffffffffffffffffffffffffffffffffffffff166112948261099d565b73ffffffffffffffffffffffffffffffffffffffff16146112ea576040517f08c379a00000000000000000000000000000000000000000000000000000000081526004016112e190613112565b60405180910390fd5b600073ffffffffffffffffffffffffffffffffffffffff168273ffffffffffffffffffffffffffffffffffffffff1603611359576040517f08c379a0000000000000000000000000000000000000000000000000000000008152600401611350906131a4565b60405180910390fd5b6113668383836001611980565b8273ffffffffffffffffffffffffffffffffffffffff166113868261099d565b73ffffffffffffffffffffffffffffffffffffffff16146113dc576040517f08c379a00000000000000000000000000000000000000000000000000000000081526004016113d390613112565b60405180910390fd5b6004600082815260200190815260200160002060006101000a81549073ffffffffffffffffffffffffffffffffffffffff02191690556001600360008573ffffffffffffffffffffffffffffffffffffffff1673ffffffffffffffffffffffffffffffffffffffff168152602001908152602001600020600082825403925050819055506001600360008473ffffffffffffffffffffffffffffffffffffffff1673ffffffffffffffffffffffffffffffffffffffff16815260200190815260200160002060008282540192505081905550816002600083815260200190815260200160002060006101000a81548173ffffffffffffffffffffffffffffffffffffffff021916908373ffffffffffffffffffffffffffffffffffffffff160217905550808273ffffffffffffffffffffffffffffffffffffffff168473ffffffffffffffffffffffffffffffffffffffff167fddf252ad1be2c89b69c2b068fc378daa952ba7f163c4a11628f55a4df523b3ef60405160405180910390a46115688383836001611aa6565b505050565b61157681611aac565b50565b60006002600083815260200190815260200160002060009054906101000a900473ffffffffffffffffffffffffffffffffffffffff169050919050565b6001816000016000828254019250508190555050565b600081600001549050919050565b6115f4828260405180602001604052806000815250611aff565b5050565b6116018261193f565b611640576040517f08c379a000000000000000000000000000000000000000000000000000000000815260040161163790613236565b60405180910390fd5b806006600084815260200190815260200160002090816116609190613402565b505050565b8173ffffffffffffffffffffffffffffffffffffffff168373ffffffffffffffffffffffffffffffffffffffff16036116d3576040517f08c379a00000000000000000000000000000000000000000000000000000000081526004016116ca90613520565b60405180910390fd5b80600560008573ffffffffffffffffffffffffffffffffffffffff1673ffffffffffffffffffffffffffffffffffffffff16815260200190815260200160002060008473ffffffffffffffffffffffffffffffffffffffff1673ffffffffffffffffffffffffffffffffffffffff16815260200190815260200160002060006101000a81548160ff0219169083151502179055508173ffffffffffffffffffffffffffffffffffffffff168373ffffffffffffffffffffffffffffffffffffffff167f17307eab39ab6107e8899845ad3d59bd9653f200f220920489ca2b5937696c31836040516117c49190612420565b60405180910390a3505050565b6117dc848484611274565b6117e884848484611b5a565b611827576040517f08c379a000000000000000000000000000000000000000000000000000000000815260040161181e906135b2565b60405180910390fd5b50505050565b6060611838826110d3565b600060066000848152602001908152602001600020805461185890612b45565b80601f016020809104026020016040519081016040528092919081815260200182805461188490612b45565b80156118d15780601f106118a6576101008083540402835291602001916118d1565b820191906000526020600020905b8154815290600101906020018083116118b457829003601f168201915b5050505050905060006118e2611ce1565b905060008151036118f757819250505061193a565b60008251111561192c57808260405160200161191492919061360e565b6040516020818303038152906040529250505061193a565b61193584611cf8565b925050505b919050565b60008073ffffffffffffffffffffffffffffffffffffffff1661196183611579565b73ffffffffffffffffffffffffffffffffffffffff1614159050919050565b6001811115611aa057600073ffffffffffffffffffffffffffffffffffffffff168473ffffffffffffffffffffffffffffffffffffffff1614611a145780600360008673ffffffffffffffffffffffffffffffffffffffff1673ffffffffffffffffffffffffffffffffffffffff1681526020019081526020016000206000828254611a0c9190613632565b925050819055505b600073ffffffffffffffffffffffffffffffffffffffff168373ffffffffffffffffffffffffffffffffffffffff1614611a9f5780600360008573ffffffffffffffffffffffffffffffffffffffff1673ffffffffffffffffffffffffffffffffffffffff1681526020019081526020016000206000828254611a979190613666565b925050819055505b5b50505050565b50505050565b611ab581611d60565b6000600660008381526020019081526020016000208054611ad590612b45565b905014611afc57600660008281526020019081526020016000206000611afb919061230f565b5b50565b611b098383611eae565b611b166000848484611b5a565b611b55576040517f08c379a0000000000000000000000000000000000000000000000000000000008152600401611b4c906135b2565b60405180910390fd5b505050565b6000611b7b8473ffffffffffffffffffffffffffffffffffffffff166120cb565b15611cd4578373ffffffffffffffffffffffffffffffffffffffff1663150b7a02611ba461111e565b8786866040518563ffffffff1660e01b8152600401611bc694939291906136ef565b6020604051808303816000875af1925050508015611c0257506040513d601f19601f82011682018060405250810190611bff9190613750565b60015b611c84573d8060008114611c32576040519150601f19603f3d011682016040523d82523d6000602084013e611c37565b606091505b506000815103611c7c576040517f08c379a0000000000000000000000000000000000000000000000000000000008152600401611c73906135b2565b60405180910390fd5b805181602001fd5b63150b7a0260e01b7bffffffffffffffffffffffffffffffffffffffffffffffffffffffff1916817bffffffffffffffffffffffffffffffffffffffffffffffffffffffff191614915050611cd9565b600190505b949350505050565b606060405180602001604052806000815250905090565b6060611d03826110d3565b6000611d0d611ce1565b90506000815111611d2d5760405180602001604052806000815250611d58565b80611d37846120ee565b604051602001611d4892919061360e565b6040516020818303038152906040525b915050919050565b6000611d6b8261099d565b9050611d7b816000846001611980565b611d848261099d565b90506004600083815260200190815260200160002060006101000a81549073ffffffffffffffffffffffffffffffffffffffff02191690556001600360008373ffffffffffffffffffffffffffffffffffffffff1673ffffffffffffffffffffffffffffffffffffffff168152602001908152602001600020600082825403925050819055506002600083815260200190815260200160002060006101000a81549073ffffffffffffffffffffffffffffffffffffffff021916905581600073ffffffffffffffffffffffffffffffffffffffff168273ffffffffffffffffffffffffffffffffffffffff167fddf252ad1be2c89b69c2b068fc378daa952ba7f163c4a11628f55a4df523b3ef60405160405180910390a4611eaa816000846001611aa6565b5050565b600073ffffffffffffffffffffffffffffffffffffffff168273ffffffffffffffffffffffffffffffffffffffff1603611f1d576040517f08c379a0000000000000000000000000000000000000000000000000000000008152600401611f14906137c9565b60405180910390fd5b611f268161193f565b15611f66576040517f08c379a0000000000000000000000000000000000000000000000000000000008152600401611f5d90613835565b60405180910390fd5b611f74600083836001611980565b611f7d8161193f565b15611fbd576040517f08c379a0000000000000000000000000000000000000000000000000000000008152600401611fb490613835565b60405180910390fd5b6001600360008473ffffffffffffffffffffffffffffffffffffffff1673ffffffffffffffffffffffffffffffffffffffff16815260200190815260200160002060008282540192505081905550816002600083815260200190815260200160002060006101000a81548173ffffffffffffffffffffffffffffffffffffffff021916908373ffffffffffffffffffffffffffffffffffffffff160217905550808273ffffffffffffffffffffffffffffffffffffffff16600073ffffffffffffffffffffffffffffffffffffffff167fddf252ad1be2c89b69c2b068fc378daa952ba7f163c4a11628f55a4df523b3ef60405160405180910390a46120c7600083836001611aa6565b5050565b6000808273ffffffffffffffffffffffffffffffffffffffff163b119050919050565b6060600060016120fd846121bc565b01905060008167ffffffffffffffff81111561211c5761211b6127ac565b5b6040519080825280601f01601f19166020018201604052801561214e5781602001600182028036833780820191505090505b509050600082602001820190505b6001156121b1578080600190039150507f3031323334353637383961626364656600000000000000000000000000000000600a86061a8153600a85816121a5576121a4613855565b5b0494506000850361215c575b819350505050919050565b600080600090507a184f03e93ff9f4daa797ed6e38ed64bf6a1f010000000000000000831061221a577a184f03e93ff9f4daa797ed6e38ed64bf6a1f01000000000000000083816122105761220f613855565b5b0492506040810190505b6d04ee2d6d415b85acef81000000008310612257576d04ee2d6d415b85acef8100000000838161224d5761224c613855565b5b0492506020810190505b662386f26fc10000831061228657662386f26fc10000838161227c5761227b613855565b5b0492506010810190505b6305f5e10083106122af576305f5e10083816122a5576122a4613855565b5b0492506008810190505b61271083106122d45761271083816122ca576122c9613855565b5b0492506004810190505b606483106122f757606483816122ed576122ec613855565b5b0492506002810190505b600a8310612306576001810190505b80915050919050565b50805461231b90612b45565b6000825580601f1061232d575061234c565b601f01602090049060005260206000209081019061234b919061234f565b5b50565b5b80821115612368576000816000905550600101612350565b5090565b6000604051905090565b600080fd5b600080fd5b60007fffffffff0000000000000000000000000000000000000000000000000000000082169050919050565b6123b581612380565b81146123c057600080fd5b50565b6000813590506123d2816123ac565b92915050565b6000602082840312156123ee576123ed612376565b5b60006123fc848285016123c3565b91505092915050565b60008115159050919050565b61241a81612405565b82525050565b60006020820190506124356000830184612411565b92915050565b600081519050919050565b600082825260208201905092915050565b60005b8381101561247557808201518184015260208101905061245a565b60008484015250505050565b6000601f19601f8301169050919050565b600061249d8261243b565b6124a78185612446565b93506124b7818560208601612457565b6124c081612481565b840191505092915050565b600060208201905081810360008301526124e58184612492565b905092915050565b6000819050919050565b612500816124ed565b811461250b57600080fd5b50565b60008135905061251d816124f7565b92915050565b60006020828403121561253957612538612376565b5b60006125478482850161250e565b91505092915050565b600073ffffffffffffffffffffffffffffffffffffffff82169050919050565b600061257b82612550565b9050919050565b61258b81612570565b82525050565b60006020820190506125a66000830184612582565b92915050565b6125b581612570565b81146125c057600080fd5b50565b6000813590506125d2816125ac565b92915050565b600080604083850312156125ef576125ee612376565b5b60006125fd858286016125c3565b925050602061260e8582860161250e565b9150509250929050565b60008060006060848603121561263157612630612376565b5b600061263f868287016125c3565b9350506020612650868287016125c3565b92505060406126618682870161250e565b9150509250925092565b60006020828403121561268157612680612376565b5b600061268f848285016125c3565b91505092915050565b6126a1816124ed565b82525050565b60006020820190506126bc6000830184612698565b92915050565b600081519050919050565b600082825260208201905092915050565b6000819050602082019050919050565b6126f7816124ed565b82525050565b600061270983836126ee565b60208301905092915050565b6000602082019050919050565b600061272d826126c2565b61273781856126cd565b9350612742836126de565b8060005b8381101561277357815161275a88826126fd565b975061276583612715565b925050600181019050612746565b5085935050505092915050565b6000602082019050818103600083015261279a8184612722565b905092915050565b600080fd5b600080fd5b7f4e487b7100000000000000000000000000000000000000000000000000000000600052604160045260246000fd5b6127e482612481565b810181811067ffffffffffffffff82111715612803576128026127ac565b5b80604052505050565b600061281661236c565b905061282282826127db565b919050565b600067ffffffffffffffff821115612842576128416127ac565b5b61284b82612481565b9050602081019050919050565b82818337600083830152505050565b600061287a61287584612827565b61280c565b905082815260208101848484011115612896576128956127a7565b5b6128a1848285612858565b509392505050565b600082601f8301126128be576128bd6127a2565b5b81356128ce848260208601612867565b91505092915050565b6000806000606084860312156128f0576128ef612376565b5b600084013567ffffffffffffffff81111561290e5761290d61237b565b5b61291a868287016128a9565b935050602061292b8682870161250e565b925050604061293c8682870161250e565b9150509250925092565b61294f81612405565b811461295a57600080fd5b50565b60008135905061296c81612946565b92915050565b6000806040838503121561298957612988612376565b5b6000612997858286016125c3565b92505060206129a88582860161295d565b9150509250929050565b600067ffffffffffffffff8211156129cd576129cc6127ac565b5b6129d682612481565b9050602081019050919050565b60006129f66129f1846129b2565b61280c565b905082815260208101848484011115612a1257612a116127a7565b5b612a1d848285612858565b509392505050565b600082601f830112612a3a57612a396127a2565b5b8135612a4a8482602086016129e3565b91505092915050565b60008060008060808587031215612a6d57612a6c612376565b5b6000612a7b878288016125c3565b9450506020612a8c878288016125c3565b9350506040612a9d8782880161250e565b925050606085013567ffffffffffffffff811115612abe57612abd61237b565b5b612aca87828801612a25565b91505092959194509250565b60008060408385031215612aed57612aec612376565b5b6000612afb858286016125c3565b9250506020612b0c858286016125c3565b9150509250929050565b7f4e487b7100000000000000000000000000000000000000000000000000000000600052602260045260246000fd5b60006002820490506001821680612b5d57607f821691505b602082108103612b7057612b6f612b16565b5b50919050565b7f4552433732313a20617070726f76616c20746f2063757272656e74206f776e6560008201527f7200000000000000000000000000000000000000000000000000000000000000602082015250565b6000612bd2602183612446565b9150612bdd82612b76565b604082019050919050565b60006020820190508181036000830152612c0181612bc5565b9050919050565b7f4552433732313a20617070726f76652063616c6c6572206973206e6f7420746f60008201527f6b656e206f776e6572206f7220617070726f76656420666f7220616c6c000000602082015250565b6000612c64603d83612446565b9150612c6f82612c08565b604082019050919050565b60006020820190508181036000830152612c9381612c57565b9050919050565b7f4552433732313a2063616c6c6572206973206e6f7420746f6b656e206f776e6560008201527f72206f7220617070726f76656400000000000000000000000000000000000000602082015250565b6000612cf6602d83612446565b9150612d0182612c9a565b604082019050919050565b60006020820190508181036000830152612d2581612ce9565b9050919050565b7f4f6e6c7920636f6e7472616374206f776e657273210000000000000000000000600082015250565b6000612d62601583612446565b9150612d6d82612d2c565b602082019050919050565b60006020820190508181036000830152612d9181612d55565b9050919050565b7f4552433732314275726e61626c653a2063616c6c6572206973206e6f74206f7760008201527f6e6572206e6f7220617070726f76656400000000000000000000000000000000602082015250565b6000612df4603083612446565b9150612dff82612d98565b604082019050919050565b60006020820190508181036000830152612e2381612de7565b9050919050565b7f4552433732313a20696e76616c696420746f6b656e2049440000000000000000600082015250565b6000612e60601883612446565b9150612e6b82612e2a565b602082019050919050565b60006020820190508181036000830152612e8f81612e53565b9050919050565b7f4552433732313a2061646472657373207a65726f206973206e6f74206120766160008201527f6c6964206f776e65720000000000000000000000000000000000000000000000602082015250565b6000612ef2602983612446565b9150612efd82612e96565b604082019050919050565b60006020820190508181036000830152612f2181612ee5565b9050919050565b7f596f75206e65656420746f2062652077686974656c6973746564000000000000600082015250565b6000612f5e601a83612446565b9150612f6982612f28565b602082019050919050565b60006020820190508181036000830152612f8d81612f51565b9050919050565b7f4e487b7100000000000000000000000000000000000000000000000000000000600052601160045260246000fd5b6000612fce826124ed565b91507fffffffffffffffffffffffffffffffffffffffffffffffffffffffffffffffff820361300057612fff612f94565b5b600182019050919050565b60006040820190506130206000830185612698565b61302d6020830184612582565b9392505050565b7f46726f6d2061646472657373206d75737420626520746f6b656e206f776e6572600082015250565b600061306a602083612446565b915061307582613034565b602082019050919050565b600060208201905081810360008301526130998161305d565b9050919050565b7f4552433732313a207472616e736665722066726f6d20696e636f72726563742060008201527f6f776e6572000000000000000000000000000000000000000000000000000000602082015250565b60006130fc602583612446565b9150613107826130a0565b604082019050919050565b6000602082019050818103600083015261312b816130ef565b9050919050565b7f4552433732313a207472616e7366657220746f20746865207a65726f2061646460008201527f7265737300000000000000000000000000000000000000000000000000000000602082015250565b600061318e602483612446565b915061319982613132565b604082019050919050565b600060208201905081810360008301526131bd81613181565b9050919050565b7f45524337323155524953746f726167653a2055524920736574206f66206e6f6e60008201527f6578697374656e7420746f6b656e000000000000000000000000000000000000602082015250565b6000613220602e83612446565b915061322b826131c4565b604082019050919050565b6000602082019050818103600083015261324f81613213565b9050919050565b60008190508160005260206000209050919050565b60006020601f8301049050919050565b600082821b905092915050565b6000600883026132b87fffffffffffffffffffffffffffffffffffffffffffffffffffffffffffffffff8261327b565b6132c2868361327b565b95508019841693508086168417925050509392505050565b6000819050919050565b60006132ff6132fa6132f5846124ed565b6132da565b6124ed565b9050919050565b6000819050919050565b613319836132e4565b61332d61332582613306565b848454613288565b825550505050565b600090565b613342613335565b61334d818484613310565b505050565b5b818110156133715761336660008261333a565b600181019050613353565b5050565b601f8211156133b65761338781613256565b6133908461326b565b8101602085101561339f578190505b6133b36133ab8561326b565b830182613352565b50505b505050565b600082821c905092915050565b60006133d9600019846008026133bb565b1980831691505092915050565b60006133f283836133c8565b9150826002028217905092915050565b61340b8261243b565b67ffffffffffffffff811115613424576134236127ac565b5b61342e8254612b45565b613439828285613375565b600060209050601f83116001811461346c576000841561345a578287015190505b61346485826133e6565b8655506134cc565b601f19841661347a86613256565b60005b828110156134a25784890151825560018201915060208501945060208101905061347d565b868310156134bf57848901516134bb601f8916826133c8565b8355505b6001600288020188555050505b505050505050565b7f4552433732313a20617070726f766520746f2063616c6c657200000000000000600082015250565b600061350a601983612446565b9150613515826134d4565b602082019050919050565b60006020820190508181036000830152613539816134fd565b9050919050565b7f4552433732313a207472616e7366657220746f206e6f6e20455243373231526560008201527f63656976657220696d706c656d656e7465720000000000000000000000000000602082015250565b600061359c603283612446565b91506135a782613540565b604082019050919050565b600060208201905081810360008301526135cb8161358f565b9050919050565b600081905092915050565b60006135e88261243b565b6135f281856135d2565b9350613602818560208601612457565b80840191505092915050565b600061361a82856135dd565b915061362682846135dd565b91508190509392505050565b600061363d826124ed565b9150613648836124ed565b92508282039050818111156136605761365f612f94565b5b92915050565b6000613671826124ed565b915061367c836124ed565b925082820190508082111561369457613693612f94565b5b92915050565b600081519050919050565b600082825260208201905092915050565b60006136c18261369a565b6136cb81856136a5565b93506136db818560208601612457565b6136e481612481565b840191505092915050565b60006080820190506137046000830187612582565b6137116020830186612582565b61371e6040830185612698565b818103606083015261373081846136b6565b905095945050505050565b60008151905061374a816123ac565b92915050565b60006020828403121561376657613765612376565b5b60006137748482850161373b565b91505092915050565b7f4552433732313a206d696e7420746f20746865207a65726f2061646472657373600082015250565b60006137b3602083612446565b91506137be8261377d565b602082019050919050565b600060208201905081810360008301526137e2816137a6565b9050919050565b7f4552433732313a20746f6b656e20616c7265616479206d696e74656400000000600082015250565b600061381f601c83612446565b915061382a826137e9565b602082019050919050565b6000602082019050818103600083015261384e81613812565b9050919050565b7f4e487b7100000000000000000000000000000000000000000000000000000000600052601260045260246000fdfea26469706673582212203f26707166f592905ef53b4e08a4b7dafec832db22a340c51e48e1303096dd6764736f6c63430008110033",
  "linkReferences": {},
  "deployedLinkReferences": {}
}