{
  "_format": "hh-sol-artifact-1",
  "contractName": "TicketMarket",
  "sourceName": "contracts/TicketMarket.sol",
  "abi": [
    {
      "inputs": [],
      "stateMutability": "nonpayable",
      "type": "constructor"
    },
    {
      "anonymous": false,
      "inputs": [
        {
          "indexed": true,
          "internalType": "uint256",
          "name": "tokenID",
          "type": "uint256"
        },
        {
          "indexed": false,
          "internalType": "address",
          "name": "ticketOwner",
          "type": "address"
        },
        {
          "indexed": false,
          "internalType": "uint256",
          "name": "price",
          "type": "uint256"
        }
      ],
      "name": "MarketItemAfterSale",
      "type": "event"
    },
    {
      "anonymous": false,
      "inputs": [
        {
          "indexed": false,
          "internalType": "uint256",
          "name": "eventID",
          "type": "uint256"
        },
        {
          "indexed": false,
          "internalType": "address",
          "name": "seller",
          "type": "address"
        },
        {
          "indexed": false,
          "internalType": "uint128",
          "name": "price",
          "type": "uint128"
        },
        {
          "indexed": false,
          "internalType": "uint128",
          "name": "supply",
          "type": "uint128"
        },
        {
          "indexed": false,
          "internalType": "string",
          "name": "ticketType",
          "type": "string"
        }
      ],
      "name": "MarketItemCreation",
      "type": "event"
    },
    {
      "anonymous": false,
      "inputs": [
        {
          "indexed": false,
          "internalType": "uint256[]",
          "name": "tokenID",
          "type": "uint256[]"
        },
        {
          "indexed": false,
          "internalType": "address",
          "name": "ticketOwner",
          "type": "address"
        },
        {
          "indexed": false,
          "internalType": "address",
          "name": "seller",
          "type": "address"
        },
        {
          "indexed": false,
          "internalType": "uint256",
          "name": "price",
          "type": "uint256"
        }
      ],
      "name": "MarketItemResell",
      "type": "event"
    },
    {
      "anonymous": false,
      "inputs": [
        {
          "indexed": true,
          "internalType": "uint256",
          "name": "tokenID",
          "type": "uint256"
        },
        {
          "indexed": false,
          "internalType": "address",
          "name": "seller",
          "type": "address"
        },
        {
          "indexed": false,
          "internalType": "uint256",
          "name": "price",
          "type": "uint256"
        }
      ],
      "name": "MarketItemStopSale",
      "type": "event"
    },
    {
      "anonymous": false,
      "inputs": [
        {
          "indexed": false,
          "internalType": "uint256[]",
          "name": "tokenID",
          "type": "uint256[]"
        },
        {
          "indexed": false,
          "internalType": "address",
          "name": "seller",
          "type": "address"
        },
        {
          "indexed": false,
          "internalType": "uint256",
          "name": "price",
          "type": "uint256"
        }
      ],
      "name": "StopBatchTicketSale",
      "type": "event"
    },
    {
      "anonymous": false,
      "inputs": [
        {
          "indexed": false,
          "internalType": "uint256",
          "name": "tokenId",
          "type": "uint256"
        },
        {
          "indexed": false,
          "internalType": "address",
          "name": "toUser",
          "type": "address"
        }
      ],
      "name": "transferTicket",
      "type": "event"
    },
    {
      "inputs": [
        {
          "internalType": "uint256",
          "name": "eventId",
          "type": "uint256"
        }
      ],
      "name": "ListEventTicketAll",
      "outputs": [
        {
          "components": [
            {
              "internalType": "address",
              "name": "nftContract",
              "type": "address"
            },
            {
              "internalType": "uint256",
              "name": "tokenID",
              "type": "uint256"
            },
            {
              "internalType": "uint256",
              "name": "eventID",
              "type": "uint256"
            },
            {
              "internalType": "address payable",
              "name": "ticketOwner",
              "type": "address"
            },
            {
              "internalType": "address payable",
              "name": "eventOwner",
              "type": "address"
            },
            {
              "internalType": "address payable",
              "name": "seller",
              "type": "address"
            },
            {
              "internalType": "uint128",
              "name": "price",
              "type": "uint128"
            },
            {
              "internalType": "string",
              "name": "ticketType",
              "type": "string"
            },
            {
              "internalType": "bool",
              "name": "sold",
              "type": "bool"
            },
            {
              "internalType": "bool",
              "name": "soldBefore",
              "type": "bool"
            },
            {
              "internalType": "bool",
              "name": "used",
              "type": "bool"
            },
            {
              "internalType": "uint128",
              "name": "seat",
              "type": "uint128"
            },
            {
              "internalType": "uint128",
              "name": "transferRight",
              "type": "uint128"
            }
          ],
          "internalType": "struct TicketMarket.MarketItem[]",
          "name": "",
          "type": "tuple[]"
        }
      ],
      "stateMutability": "view",
      "type": "function"
    },
    {
      "inputs": [
        {
          "internalType": "address",
          "name": "user",
          "type": "address"
        }
      ],
      "name": "ListEventTicketByPublicAddress",
      "outputs": [
        {
          "components": [
            {
              "internalType": "address",
              "name": "nftContract",
              "type": "address"
            },
            {
              "internalType": "uint256",
              "name": "tokenID",
              "type": "uint256"
            },
            {
              "internalType": "uint256",
              "name": "eventID",
              "type": "uint256"
            },
            {
              "internalType": "address payable",
              "name": "ticketOwner",
              "type": "address"
            },
            {
              "internalType": "address payable",
              "name": "eventOwner",
              "type": "address"
            },
            {
              "internalType": "address payable",
              "name": "seller",
              "type": "address"
            },
            {
              "internalType": "uint128",
              "name": "price",
              "type": "uint128"
            },
            {
              "internalType": "string",
              "name": "ticketType",
              "type": "string"
            },
            {
              "internalType": "bool",
              "name": "sold",
              "type": "bool"
            },
            {
              "internalType": "bool",
              "name": "soldBefore",
              "type": "bool"
            },
            {
              "internalType": "bool",
              "name": "used",
              "type": "bool"
            },
            {
              "internalType": "uint128",
              "name": "seat",
              "type": "uint128"
            },
            {
              "internalType": "uint128",
              "name": "transferRight",
              "type": "uint128"
            }
          ],
          "internalType": "struct TicketMarket.MarketItem[]",
          "name": "",
          "type": "tuple[]"
        }
      ],
      "stateMutability": "view",
      "type": "function"
    },
    {
      "inputs": [
        {
          "internalType": "uint256",
          "name": "eventId",
          "type": "uint256"
        }
      ],
      "name": "ListEventTicketOnSale",
      "outputs": [
        {
          "components": [
            {
              "internalType": "address",
              "name": "nftContract",
              "type": "address"
            },
            {
              "internalType": "uint256",
              "name": "tokenID",
              "type": "uint256"
            },
            {
              "internalType": "uint256",
              "name": "eventID",
              "type": "uint256"
            },
            {
              "internalType": "address payable",
              "name": "ticketOwner",
              "type": "address"
            },
            {
              "internalType": "address payable",
              "name": "eventOwner",
              "type": "address"
            },
            {
              "internalType": "address payable",
              "name": "seller",
              "type": "address"
            },
            {
              "internalType": "uint128",
              "name": "price",
              "type": "uint128"
            },
            {
              "internalType": "string",
              "name": "ticketType",
              "type": "string"
            },
            {
              "internalType": "bool",
              "name": "sold",
              "type": "bool"
            },
            {
              "internalType": "bool",
              "name": "soldBefore",
              "type": "bool"
            },
            {
              "internalType": "bool",
              "name": "used",
              "type": "bool"
            },
            {
              "internalType": "uint128",
              "name": "seat",
              "type": "uint128"
            },
            {
              "internalType": "uint128",
              "name": "transferRight",
              "type": "uint128"
            }
          ],
          "internalType": "struct TicketMarket.MarketItem[]",
          "name": "",
          "type": "tuple[]"
        }
      ],
      "stateMutability": "view",
      "type": "function"
    },
    {
      "inputs": [],
      "name": "ListUserOwnItems",
      "outputs": [
        {
          "components": [
            {
              "internalType": "address",
              "name": "nftContract",
              "type": "address"
            },
            {
              "internalType": "uint256",
              "name": "tokenID",
              "type": "uint256"
            },
            {
              "internalType": "uint256",
              "name": "eventID",
              "type": "uint256"
            },
            {
              "internalType": "address payable",
              "name": "ticketOwner",
              "type": "address"
            },
            {
              "internalType": "address payable",
              "name": "eventOwner",
              "type": "address"
            },
            {
              "internalType": "address payable",
              "name": "seller",
              "type": "address"
            },
            {
              "internalType": "uint128",
              "name": "price",
              "type": "uint128"
            },
            {
              "internalType": "string",
              "name": "ticketType",
              "type": "string"
            },
            {
              "internalType": "bool",
              "name": "sold",
              "type": "bool"
            },
            {
              "internalType": "bool",
              "name": "soldBefore",
              "type": "bool"
            },
            {
              "internalType": "bool",
              "name": "used",
              "type": "bool"
            },
            {
              "internalType": "uint128",
              "name": "seat",
              "type": "uint128"
            },
            {
              "internalType": "uint128",
              "name": "transferRight",
              "type": "uint128"
            }
          ],
          "internalType": "struct TicketMarket.MarketItem[]",
          "name": "",
          "type": "tuple[]"
        }
      ],
      "stateMutability": "view",
      "type": "function"
    },
    {
      "inputs": [
        {
          "internalType": "uint256",
          "name": "tokenId",
          "type": "uint256"
        }
      ],
      "name": "NFTItem",
      "outputs": [
        {
          "components": [
            {
              "internalType": "address",
              "name": "nftContract",
              "type": "address"
            },
            {
              "internalType": "uint256",
              "name": "tokenID",
              "type": "uint256"
            },
            {
              "internalType": "uint256",
              "name": "eventID",
              "type": "uint256"
            },
            {
              "internalType": "address payable",
              "name": "ticketOwner",
              "type": "address"
            },
            {
              "internalType": "address payable",
              "name": "eventOwner",
              "type": "address"
            },
            {
              "internalType": "address payable",
              "name": "seller",
              "type": "address"
            },
            {
              "internalType": "uint128",
              "name": "price",
              "type": "uint128"
            },
            {
              "internalType": "string",
              "name": "ticketType",
              "type": "string"
            },
            {
              "internalType": "bool",
              "name": "sold",
              "type": "bool"
            },
            {
              "internalType": "bool",
              "name": "soldBefore",
              "type": "bool"
            },
            {
              "internalType": "bool",
              "name": "used",
              "type": "bool"
            },
            {
              "internalType": "uint128",
              "name": "seat",
              "type": "uint128"
            },
            {
              "internalType": "uint128",
              "name": "transferRight",
              "type": "uint128"
            }
          ],
          "internalType": "struct TicketMarket.MarketItem",
          "name": "",
          "type": "tuple"
        }
      ],
      "stateMutability": "view",
      "type": "function"
    },
    {
      "inputs": [
        {
          "internalType": "uint128",
          "name": "price",
          "type": "uint128"
        },
        {
          "internalType": "address",
          "name": "NftCont",
          "type": "address"
        },
        {
          "internalType": "uint256[]",
          "name": "tokenIds",
          "type": "uint256[]"
        }
      ],
      "name": "ResellTicket",
      "outputs": [],
      "stateMutability": "payable",
      "type": "function"
    },
    {
      "inputs": [
        {
          "internalType": "uint128",
          "name": "price",
          "type": "uint128"
        },
        {
          "internalType": "address",
          "name": "NftCont",
          "type": "address"
        },
        {
          "internalType": "uint256[]",
          "name": "tokenIds",
          "type": "uint256[]"
        },
        {
          "internalType": "uint256",
          "name": "eventid",
          "type": "uint256"
        }
      ],
      "name": "StopBatchSale",
      "outputs": [],
      "stateMutability": "payable",
      "type": "function"
    },
    {
      "inputs": [
        {
          "internalType": "uint128",
          "name": "price",
          "type": "uint128"
        },
        {
          "internalType": "address",
          "name": "NftCont",
          "type": "address"
        },
        {
          "internalType": "uint256",
          "name": "tokenId",
          "type": "uint256"
        }
      ],
      "name": "StopTicketSale",
      "outputs": [],
      "stateMutability": "payable",
      "type": "function"
    },
    {
      "inputs": [
        {
          "internalType": "address",
          "name": "NftCont",
          "type": "address"
        },
        {
          "internalType": "uint256",
          "name": "tokenId",
          "type": "uint256"
        },
        {
          "internalType": "address",
          "name": "toAddr",
          "type": "address"
        }
      ],
      "name": "TransferTicket",
      "outputs": [],
      "stateMutability": "payable",
      "type": "function"
    },
    {
      "inputs": [
        {
          "internalType": "uint256",
          "name": "eventId",
          "type": "uint256"
        },
        {
          "internalType": "address",
          "name": "user",
          "type": "address"
        }
      ],
      "name": "TransferableIds",
      "outputs": [
        {
          "internalType": "uint256[]",
          "name": "",
          "type": "uint256[]"
        }
      ],
      "stateMutability": "view",
      "type": "function"
    },
    {
      "inputs": [
        {
          "internalType": "uint128",
          "name": "price",
          "type": "uint128"
        },
        {
          "internalType": "address",
          "name": "NftCont",
          "type": "address"
        },
        {
          "internalType": "string",
          "name": "ticketType",
          "type": "string"
        },
        {
          "internalType": "uint256",
          "name": "eventID",
          "type": "uint256"
        },
        {
          "internalType": "uint128",
          "name": "supply",
          "type": "uint128"
        },
        {
          "internalType": "uint128",
          "name": "transNum",
          "type": "uint128"
        }
      ],
      "name": "createMarketItem",
      "outputs": [],
      "stateMutability": "payable",
      "type": "function"
    },
    {
      "inputs": [
        {
          "internalType": "uint256",
          "name": "tokenid",
          "type": "uint256"
        }
      ],
      "name": "isInMarket",
      "outputs": [
        {
          "internalType": "bool",
          "name": "",
          "type": "bool"
        }
      ],
      "stateMutability": "view",
      "type": "function"
    },
    {
      "inputs": [
        {
          "internalType": "uint256",
          "name": "tokenId",
          "type": "uint256"
        }
      ],
      "name": "isSoldBefore",
      "outputs": [
        {
          "internalType": "bool",
          "name": "",
          "type": "bool"
        }
      ],
      "stateMutability": "view",
      "type": "function"
    },
    {
      "inputs": [
        {
          "internalType": "address",
          "name": "NftCont",
          "type": "address"
        },
        {
          "internalType": "uint256",
          "name": "tokenId",
          "type": "uint256"
        }
      ],
      "name": "ticketSale",
      "outputs": [],
      "stateMutability": "payable",
      "type": "function"
    },
    {
      "inputs": [
        {
          "internalType": "uint256[]",
          "name": "tokenIds",
          "type": "uint256[]"
        },
        {
          "internalType": "uint256",
          "name": "eventId",
          "type": "uint256"
        },
        {
          "internalType": "address",
          "name": "NftCont",
          "type": "address"
        }
      ],
      "name": "useTickets",
      "outputs": [],
      "stateMutability": "nonpayable",
      "type": "function"
    }
  ],
  "bytecode": "0x608060405234801561001057600080fd5b50600160008190555033600360006101000a81548173ffffffffffffffffffffffffffffffffffffffff021916908373ffffffffffffffffffffffffffffffffffffffff160217905550615401806100696000396000f3fe6080604052600436106100e85760003560e01c80636cbd493b1161008a578063bd3114b611610059578063bd3114b6146102f6578063c2301b691461031f578063cf0db05b1461035c578063e701679b14610378576100e8565b80636cbd493b14610244578063827884a81461026057806385c15fed1461027c578063b19d4e08146102b9576100e8565b8063396f7d15116100c6578063396f7d151461017157806349cdcc98146101ae5780636aaf93d2146101ca5780636b282dd814610207576100e8565b806308aaac95146100ed5780630a29d9491461012a578063112b358414610146575b600080fd5b3480156100f957600080fd5b50610114600480360381019061010f9190613b11565b610394565b6040516101219190613b59565b60405180910390f35b610144600480360381019061013f9190613bd2565b6103f1565b005b34801561015257600080fd5b5061015b6107fb565b6040516101689190613ef6565b60405180910390f35b34801561017d57600080fd5b5061019860048036038101906101939190613b11565b610d3a565b6040516101a59190613b59565b60405180910390f35b6101c860048036038101906101c3919061408c565b610d6a565b005b3480156101d657600080fd5b506101f160048036038101906101ec9190613b11565b6110d6565b6040516101fe9190613ef6565b60405180910390f35b34801561021357600080fd5b5061022e6004803603810190610229919061410f565b6115ff565b60405161023b91906141fe565b60405180910390f35b61025e60048036038101906102599190614220565b611910565b005b61027a60048036038101906102759190614273565b611c57565b005b34801561028857600080fd5b506102a3600480360381019061029e9190613b11565b6120b5565b6040516102b09190613ef6565b60405180910390f35b3480156102c557600080fd5b506102e060048036038101906102db9190613b11565b61255e565b6040516102ed91906143fb565b60405180910390f35b34801561030257600080fd5b5061031d6004803603810190610318919061441d565b6128d2565b005b34801561032b57600080fd5b506103466004803603810190610341919061448c565b612a70565b6040516103539190613ef6565b60405180910390f35b6103766004803603810190610371919061456e565b6130a3565b005b610392600480360381019061038d9190614617565b613692565b005b60008060056000848152602001908152602001600020549050600115156004600083815260200190815260200160002060080160019054906101000a900460ff161515036103e65760019150506103ec565b60009150505b919050565b6103f96138f2565b60006005600083815260200190815260200160002054905060006004600083815260200190815260200160002060060160009054906101000a90046fffffffffffffffffffffffffffffffff16905060006004600084815260200190815260200160002060010154905060006004600085815260200190815260200160002060050160009054906101000a900473ffffffffffffffffffffffffffffffffffffffff169050826fffffffffffffffffffffffffffffffff163410156104f3576040517f08c379a00000000000000000000000000000000000000000000000000000000081526004016104ea906146c7565b60405180910390fd5b600015156004600086815260200190815260200160002060080160009054906101000a900460ff1615151461055d576040517f08c379a000000000000000000000000000000000000000000000000000000000815260040161055490614733565b60405180910390fd5b336004600086815260200190815260200160002060030160006101000a81548173ffffffffffffffffffffffffffffffffffffffff021916908373ffffffffffffffffffffffffffffffffffffffff16021790555060016004600086815260200190815260200160002060080160006101000a81548160ff02191690831515021790555060006004600086815260200190815260200160002060050160006101000a81548173ffffffffffffffffffffffffffffffffffffffff021916908373ffffffffffffffffffffffffffffffffffffffff16021790555060016004600086815260200190815260200160002060080160016101000a81548160ff02191690831515021790555060016004600086815260200190815260200160002060090160009054906101000a90046fffffffffffffffffffffffffffffffff166106a59190614782565b6004600086815260200190815260200160002060090160006101000a8154816fffffffffffffffffffffffffffffffff02191690836fffffffffffffffffffffffffffffffff1602179055506106fb6002613941565b8573ffffffffffffffffffffffffffffffffffffffff166323b872dd3033856040518463ffffffff1660e01b8152600401610738939291906147e4565b600060405180830381600087803b15801561075257600080fd5b505af1158015610766573d6000803e3d6000fd5b505050508073ffffffffffffffffffffffffffffffffffffffff166108fc349081150290604051600060405180830381858888f193505050501580156107b0573d6000803e3d6000fd5b50847f5352ac602b276106b740de31546b729325b98e18c87e86cde3dd97f9726a734b33856040516107e3929190614856565b60405180910390a2505050506107f7613957565b5050565b606060006108096001613961565b905060008060005b838110156108b1573373ffffffffffffffffffffffffffffffffffffffff1660046000600184610841919061487f565b815260200190815260200160002060030160009054906101000a900473ffffffffffffffffffffffffffffffffffffffff1673ffffffffffffffffffffffffffffffffffffffff160361089e5760018361089b919061487f565b92505b80806108a9906148b3565b915050610811565b5060008267ffffffffffffffff8111156108ce576108cd613f49565b5b60405190808252806020026020018201604052801561090757816020015b6108f46139cb565b8152602001906001900390816108ec5790505b50905060005b84811015610d2f573373ffffffffffffffffffffffffffffffffffffffff166004600060018461093d919061487f565b815260200190815260200160002060030160009054906101000a900473ffffffffffffffffffffffffffffffffffffffff1673ffffffffffffffffffffffffffffffffffffffff1603610d1c576000600182610999919061487f565b9050600060046000838152602001908152602001600020905080604051806101a00160405290816000820160009054906101000a900473ffffffffffffffffffffffffffffffffffffffff1673ffffffffffffffffffffffffffffffffffffffff1673ffffffffffffffffffffffffffffffffffffffff16815260200160018201548152602001600282015481526020016003820160009054906101000a900473ffffffffffffffffffffffffffffffffffffffff1673ffffffffffffffffffffffffffffffffffffffff1673ffffffffffffffffffffffffffffffffffffffff1681526020016004820160009054906101000a900473ffffffffffffffffffffffffffffffffffffffff1673ffffffffffffffffffffffffffffffffffffffff1673ffffffffffffffffffffffffffffffffffffffff1681526020016005820160009054906101000a900473ffffffffffffffffffffffffffffffffffffffff1673ffffffffffffffffffffffffffffffffffffffff1673ffffffffffffffffffffffffffffffffffffffff1681526020016006820160009054906101000a90046fffffffffffffffffffffffffffffffff166fffffffffffffffffffffffffffffffff166fffffffffffffffffffffffffffffffff168152602001600782018054610b859061492a565b80601f0160208091040260200160405190810160405280929190818152602001828054610bb19061492a565b8015610bfe5780601f10610bd357610100808354040283529160200191610bfe565b820191906000526020600020905b815481529060010190602001808311610be157829003601f168201915b505050505081526020016008820160009054906101000a900460ff161515151581526020016008820160019054906101000a900460ff161515151581526020016008820160029054906101000a900460ff161515151581526020016008820160039054906101000a90046fffffffffffffffffffffffffffffffff166fffffffffffffffffffffffffffffffff166fffffffffffffffffffffffffffffffff1681526020016009820160009054906101000a90046fffffffffffffffffffffffffffffffff166fffffffffffffffffffffffffffffffff166fffffffffffffffffffffffffffffffff1681525050848681518110610cff57610cfe61495b565b5b6020026020010181905250600185610d17919061487f565b945050505b8080610d27906148b3565b91505061090d565b508094505050505090565b60008060056000848152602001908152602001600020541115610d605760019050610d65565b600090505b919050565b610d726138f2565b600083905060008173ffffffffffffffffffffffffffffffffffffffff16631e90b293846040518263ffffffff1660e01b8152600401610db2919061498a565b602060405180830381865afa158015610dcf573d6000803e3d6000fd5b505050506040513d601f19601f82011682018060405250810190610df391906149ba565b90508073ffffffffffffffffffffffffffffffffffffffff163373ffffffffffffffffffffffffffffffffffffffff1614610e63576040517f08c379a0000000000000000000000000000000000000000000000000000000008152600401610e5a90614a59565b60405180910390fd5b60005b845181101561108a576000858281518110610e8457610e8361495b565b5b6020026020010151905060006005600083815260200190815260200160002054905060016004600083815260200190815260200160002060080160006101000a81548160ff021916908315150217905550886004600083815260200190815260200160002060060160006101000a8154816fffffffffffffffffffffffffffffffff02191690836fffffffffffffffffffffffffffffffff16021790555060006004600083815260200190815260200160002060050160006101000a81548173ffffffffffffffffffffffffffffffffffffffff021916908373ffffffffffffffffffffffffffffffffffffffff160217905550336004600083815260200190815260200160002060030160006101000a81548173ffffffffffffffffffffffffffffffffffffffff021916908373ffffffffffffffffffffffffffffffffffffffff16021790555060016004600083815260200190815260200160002060080160016101000a81548160ff0219169083151502179055506110066002613941565b8773ffffffffffffffffffffffffffffffffffffffff166323b872dd3033856040518463ffffffff1660e01b8152600401611043939291906147e4565b600060405180830381600087803b15801561105d57600080fd5b505af1158015611071573d6000803e3d6000fd5b5050505050508080611082906148b3565b915050610e66565b507fdfafe2e7643356941ce9f45cd6df80c12d2513261b6d7ba4b1239e29de4363008433886040516110be93929190614a79565b60405180910390a150506110d0613957565b50505050565b606060006110e46001613961565b905060008060005b83811015611180578560046000600184611106919061487f565b81526020019081526020016000206002015414801561115857506000151560046000600184611135919061487f565b815260200190815260200160002060080160009054906101000a900460ff161515145b1561116d5760018361116a919061487f565b92505b8080611178906148b3565b9150506110ec565b5060008267ffffffffffffffff81111561119d5761119c613f49565b5b6040519080825280602002602001820160405280156111d657816020015b6111c36139cb565b8152602001906001900390816111bb5790505b50905060005b848110156115f25786600460006001846111f6919061487f565b81526020019081526020016000206002015414801561124857506000151560046000600184611225919061487f565b815260200190815260200160002060080160009054906101000a900460ff161515145b156115df57600060018261125c919061487f565b9050600060046000838152602001908152602001600020905080604051806101a00160405290816000820160009054906101000a900473ffffffffffffffffffffffffffffffffffffffff1673ffffffffffffffffffffffffffffffffffffffff1673ffffffffffffffffffffffffffffffffffffffff16815260200160018201548152602001600282015481526020016003820160009054906101000a900473ffffffffffffffffffffffffffffffffffffffff1673ffffffffffffffffffffffffffffffffffffffff1673ffffffffffffffffffffffffffffffffffffffff1681526020016004820160009054906101000a900473ffffffffffffffffffffffffffffffffffffffff1673ffffffffffffffffffffffffffffffffffffffff1673ffffffffffffffffffffffffffffffffffffffff1681526020016005820160009054906101000a900473ffffffffffffffffffffffffffffffffffffffff1673ffffffffffffffffffffffffffffffffffffffff1673ffffffffffffffffffffffffffffffffffffffff1681526020016006820160009054906101000a90046fffffffffffffffffffffffffffffffff166fffffffffffffffffffffffffffffffff166fffffffffffffffffffffffffffffffff1681526020016007820180546114489061492a565b80601f01602080910402602001604051908101604052809291908181526020018280546114749061492a565b80156114c15780601f10611496576101008083540402835291602001916114c1565b820191906000526020600020905b8154815290600101906020018083116114a457829003601f168201915b505050505081526020016008820160009054906101000a900460ff161515151581526020016008820160019054906101000a900460ff161515151581526020016008820160029054906101000a900460ff161515151581526020016008820160039054906101000a90046fffffffffffffffffffffffffffffffff166fffffffffffffffffffffffffffffffff166fffffffffffffffffffffffffffffffff1681526020016009820160009054906101000a90046fffffffffffffffffffffffffffffffff166fffffffffffffffffffffffffffffffff166fffffffffffffffffffffffffffffffff16815250508486815181106115c2576115c161495b565b5b60200260200101819052506001856115da919061487f565b945050505b80806115ea906148b3565b9150506111dc565b5080945050505050919050565b6060600061160d6001613961565b905060008060005b8381101561173f578573ffffffffffffffffffffffffffffffffffffffff1660046000600184611645919061487f565b815260200190815260200160002060030160009054906101000a900473ffffffffffffffffffffffffffffffffffffffff1673ffffffffffffffffffffffffffffffffffffffff161480156116ea57506000600460006001846116a8919061487f565b815260200190815260200160002060090160009054906101000a90046fffffffffffffffffffffffffffffffff166fffffffffffffffffffffffffffffffff16115b801561171757508660046000600184611703919061487f565b815260200190815260200160002060020154145b1561172c57600183611729919061487f565b92505b8080611737906148b3565b915050611615565b5060008267ffffffffffffffff81111561175c5761175b613f49565b5b60405190808252806020026020018201604052801561178a5781602001602082028036833780820191505090505b50905060005b84811015611902578673ffffffffffffffffffffffffffffffffffffffff16600460006001846117c0919061487f565b815260200190815260200160002060030160009054906101000a900473ffffffffffffffffffffffffffffffffffffffff1673ffffffffffffffffffffffffffffffffffffffff161480156118655750600060046000600184611823919061487f565b815260200190815260200160002060090160009054906101000a90046fffffffffffffffffffffffffffffffff166fffffffffffffffffffffffffffffffff16115b80156118925750876004600060018461187e919061487f565b815260200190815260200160002060020154145b156118ef576000600460006001846118aa919061487f565b8152602001908152602001600020600101549050808385815181106118d2576118d161495b565b5b6020026020010181815250506001846118eb919061487f565b9350505b80806118fa906148b3565b915050611790565b508094505050505092915050565b6119186138f2565b6000600560008381526020019081526020016000205490506004600082815260200190815260200160002060050160009054906101000a900473ffffffffffffffffffffffffffffffffffffffff1673ffffffffffffffffffffffffffffffffffffffff163373ffffffffffffffffffffffffffffffffffffffff161480611a0157506004600082815260200190815260200160002060040160009054906101000a900473ffffffffffffffffffffffffffffffffffffffff1673ffffffffffffffffffffffffffffffffffffffff163373ffffffffffffffffffffffffffffffffffffffff16145b611a40576040517f08c379a0000000000000000000000000000000000000000000000000000000008152600401611a3790614b29565b60405180910390fd5b60016004600083815260200190815260200160002060080160006101000a81548160ff021916908315150217905550836004600083815260200190815260200160002060060160006101000a8154816fffffffffffffffffffffffffffffffff02191690836fffffffffffffffffffffffffffffffff16021790555060006004600083815260200190815260200160002060050160006101000a81548173ffffffffffffffffffffffffffffffffffffffff021916908373ffffffffffffffffffffffffffffffffffffffff160217905550336004600083815260200190815260200160002060030160006101000a81548173ffffffffffffffffffffffffffffffffffffffff021916908373ffffffffffffffffffffffffffffffffffffffff16021790555060016004600083815260200190815260200160002060080160016101000a81548160ff021916908315150217905550611ba06002613941565b8273ffffffffffffffffffffffffffffffffffffffff166323b872dd3033856040518463ffffffff1660e01b8152600401611bdd939291906147e4565b600060405180830381600087803b158015611bf757600080fd5b505af1158015611c0b573d6000803e3d6000fd5b50505050817fdbe18d9dd8643fa7e3222cffee0423f082934c039103e454dd8791854b442e913386604051611c41929190614856565b60405180910390a250611c52613957565b505050565b611c5f6138f2565b6000836fffffffffffffffffffffffffffffffff1611611cb4576040517f08c379a0000000000000000000000000000000000000000000000000000000008152600401611cab90614b95565b60405180910390fd5b60005b8151816fffffffffffffffffffffffffffffffff16101561206a57600082826fffffffffffffffffffffffffffffffff1681518110611cf957611cf861495b565b5b602002602001015190506000600560008381526020019081526020016000205490503373ffffffffffffffffffffffffffffffffffffffff166004600083815260200190815260200160002060030160009054906101000a900473ffffffffffffffffffffffffffffffffffffffff1673ffffffffffffffffffffffffffffffffffffffff1614611dbf576040517f08c379a0000000000000000000000000000000000000000000000000000000008152600401611db690614c27565b60405180910390fd5b600115156004600083815260200190815260200160002060080160009054906101000a900460ff16151514611e29576040517f08c379a0000000000000000000000000000000000000000000000000000000008152600401611e2090614c93565b60405180910390fd5b60006004600083815260200190815260200160002060090160009054906101000a90046fffffffffffffffffffffffffffffffff166fffffffffffffffffffffffffffffffff1611611eb0576040517f08c379a0000000000000000000000000000000000000000000000000000000008152600401611ea790614cff565b60405180910390fd5b60008590508073ffffffffffffffffffffffffffffffffffffffff1663f5537ede3330866040518463ffffffff1660e01b8152600401611ef2939291906147e4565b600060405180830381600087803b158015611f0c57600080fd5b505af1158015611f20573d6000803e3d6000fd5b5050505060006004600084815260200190815260200160002060080160006101000a81548160ff021916908315150217905550866004600084815260200190815260200160002060060160006101000a8154816fffffffffffffffffffffffffffffffff02191690836fffffffffffffffffffffffffffffffff160217905550336004600084815260200190815260200160002060050160006101000a81548173ffffffffffffffffffffffffffffffffffffffff021916908373ffffffffffffffffffffffffffffffffffffffff160217905550306004600084815260200190815260200160002060030160006101000a81548173ffffffffffffffffffffffffffffffffffffffff021916908373ffffffffffffffffffffffffffffffffffffffff160217905550612054600261396f565b505050808061206290614d1f565b915050611cb7565b507f59a4c9a93f26aad2a724b873f5ad10297dad1edb62ba7b042699f0dd821d9f2b813033866040516120a09493929190614d57565b60405180910390a16120b0613957565b505050565b606060006120c36001613961565b905060008060005b8381101561211f5785600460006001846120e5919061487f565b8152602001908152602001600020600201540361210c57600183612109919061487f565b92505b8080612117906148b3565b9150506120cb565b5060008267ffffffffffffffff81111561213c5761213b613f49565b5b60405190808252806020026020018201604052801561217557816020015b6121626139cb565b81526020019060019003908161215a5790505b50905060005b84811015612551578660046000600184612195919061487f565b8152602001908152602001600020600201540361253e5760006001826121bb919061487f565b9050600060046000838152602001908152602001600020905080604051806101a00160405290816000820160009054906101000a900473ffffffffffffffffffffffffffffffffffffffff1673ffffffffffffffffffffffffffffffffffffffff1673ffffffffffffffffffffffffffffffffffffffff16815260200160018201548152602001600282015481526020016003820160009054906101000a900473ffffffffffffffffffffffffffffffffffffffff1673ffffffffffffffffffffffffffffffffffffffff1673ffffffffffffffffffffffffffffffffffffffff1681526020016004820160009054906101000a900473ffffffffffffffffffffffffffffffffffffffff1673ffffffffffffffffffffffffffffffffffffffff1673ffffffffffffffffffffffffffffffffffffffff1681526020016005820160009054906101000a900473ffffffffffffffffffffffffffffffffffffffff1673ffffffffffffffffffffffffffffffffffffffff1673ffffffffffffffffffffffffffffffffffffffff1681526020016006820160009054906101000a90046fffffffffffffffffffffffffffffffff166fffffffffffffffffffffffffffffffff166fffffffffffffffffffffffffffffffff1681526020016007820180546123a79061492a565b80601f01602080910402602001604051908101604052809291908181526020018280546123d39061492a565b80156124205780601f106123f557610100808354040283529160200191612420565b820191906000526020600020905b81548152906001019060200180831161240357829003601f168201915b505050505081526020016008820160009054906101000a900460ff161515151581526020016008820160019054906101000a900460ff161515151581526020016008820160029054906101000a900460ff161515151581526020016008820160039054906101000a90046fffffffffffffffffffffffffffffffff166fffffffffffffffffffffffffffffffff166fffffffffffffffffffffffffffffffff1681526020016009820160009054906101000a90046fffffffffffffffffffffffffffffffff166fffffffffffffffffffffffffffffffff166fffffffffffffffffffffffffffffffff16815250508486815181106125215761252061495b565b5b6020026020010181905250600185612539919061487f565b945050505b8080612549906148b3565b91505061217b565b5080945050505050919050565b6125666139cb565b60006005600084815260200190815260200160002054905060046000828152602001908152602001600020604051806101a00160405290816000820160009054906101000a900473ffffffffffffffffffffffffffffffffffffffff1673ffffffffffffffffffffffffffffffffffffffff1673ffffffffffffffffffffffffffffffffffffffff16815260200160018201548152602001600282015481526020016003820160009054906101000a900473ffffffffffffffffffffffffffffffffffffffff1673ffffffffffffffffffffffffffffffffffffffff1673ffffffffffffffffffffffffffffffffffffffff1681526020016004820160009054906101000a900473ffffffffffffffffffffffffffffffffffffffff1673ffffffffffffffffffffffffffffffffffffffff1673ffffffffffffffffffffffffffffffffffffffff1681526020016005820160009054906101000a900473ffffffffffffffffffffffffffffffffffffffff1673ffffffffffffffffffffffffffffffffffffffff1673ffffffffffffffffffffffffffffffffffffffff1681526020016006820160009054906101000a90046fffffffffffffffffffffffffffffffff166fffffffffffffffffffffffffffffffff166fffffffffffffffffffffffffffffffff1681526020016007820180546127639061492a565b80601f016020809104026020016040519081016040528092919081815260200182805461278f9061492a565b80156127dc5780601f106127b1576101008083540402835291602001916127dc565b820191906000526020600020905b8154815290600101906020018083116127bf57829003601f168201915b505050505081526020016008820160009054906101000a900460ff161515151581526020016008820160019054906101000a900460ff161515151581526020016008820160029054906101000a900460ff161515151581526020016008820160039054906101000a90046fffffffffffffffffffffffffffffffff166fffffffffffffffffffffffffffffffff166fffffffffffffffffffffffffffffffff1681526020016009820160009054906101000a90046fffffffffffffffffffffffffffffffff166fffffffffffffffffffffffffffffffff166fffffffffffffffffffffffffffffffff1681525050915050919050565b60008190503373ffffffffffffffffffffffffffffffffffffffff168173ffffffffffffffffffffffffffffffffffffffff1663827cc153856040518263ffffffff1660e01b8152600401612927919061498a565b602060405180830381865afa158015612944573d6000803e3d6000fd5b505050506040513d601f19601f8201168201806040525081019061296891906149ba565b73ffffffffffffffffffffffffffffffffffffffff16146129be576040517f08c379a00000000000000000000000000000000000000000000000000000000081526004016129b590614def565b60405180910390fd5b60005b8451816fffffffffffffffffffffffffffffffff161015612a6957600085826fffffffffffffffffffffffffffffffff1681518110612a0357612a0261495b565b5b6020026020010151905060006005600083815260200190815260200160002054905060016004600083815260200190815260200160002060080160026101000a81548160ff02191690831515021790555050508080612a6190614d1f565b9150506129c1565b5050505050565b60606000612a7e6001613961565b905060008060005b83811015612b9f578573ffffffffffffffffffffffffffffffffffffffff1660046000600184612ab6919061487f565b815260200190815260200160002060050160009054906101000a900473ffffffffffffffffffffffffffffffffffffffff1673ffffffffffffffffffffffffffffffffffffffff161480612b7757508573ffffffffffffffffffffffffffffffffffffffff1660046000600184612b2d919061487f565b815260200190815260200160002060030160009054906101000a900473ffffffffffffffffffffffffffffffffffffffff1673ffffffffffffffffffffffffffffffffffffffff16145b15612b8c57600183612b89919061487f565b92505b8080612b97906148b3565b915050612a86565b5060008267ffffffffffffffff811115612bbc57612bbb613f49565b5b604051908082528060200260200182016040528015612bf557816020015b612be26139cb565b815260200190600190039081612bda5790505b50905060005b84811015613096578673ffffffffffffffffffffffffffffffffffffffff1660046000600184612c2b919061487f565b815260200190815260200160002060050160009054906101000a900473ffffffffffffffffffffffffffffffffffffffff1673ffffffffffffffffffffffffffffffffffffffff161480612cec57508673ffffffffffffffffffffffffffffffffffffffff1660046000600184612ca2919061487f565b815260200190815260200160002060030160009054906101000a900473ffffffffffffffffffffffffffffffffffffffff1673ffffffffffffffffffffffffffffffffffffffff16145b15613083576000600182612d00919061487f565b9050600060046000838152602001908152602001600020905080604051806101a00160405290816000820160009054906101000a900473ffffffffffffffffffffffffffffffffffffffff1673ffffffffffffffffffffffffffffffffffffffff1673ffffffffffffffffffffffffffffffffffffffff16815260200160018201548152602001600282015481526020016003820160009054906101000a900473ffffffffffffffffffffffffffffffffffffffff1673ffffffffffffffffffffffffffffffffffffffff1673ffffffffffffffffffffffffffffffffffffffff1681526020016004820160009054906101000a900473ffffffffffffffffffffffffffffffffffffffff1673ffffffffffffffffffffffffffffffffffffffff1673ffffffffffffffffffffffffffffffffffffffff1681526020016005820160009054906101000a900473ffffffffffffffffffffffffffffffffffffffff1673ffffffffffffffffffffffffffffffffffffffff1673ffffffffffffffffffffffffffffffffffffffff1681526020016006820160009054906101000a90046fffffffffffffffffffffffffffffffff166fffffffffffffffffffffffffffffffff166fffffffffffffffffffffffffffffffff168152602001600782018054612eec9061492a565b80601f0160208091040260200160405190810160405280929190818152602001828054612f189061492a565b8015612f655780601f10612f3a57610100808354040283529160200191612f65565b820191906000526020600020905b815481529060010190602001808311612f4857829003601f168201915b505050505081526020016008820160009054906101000a900460ff161515151581526020016008820160019054906101000a900460ff161515151581526020016008820160029054906101000a900460ff161515151581526020016008820160039054906101000a90046fffffffffffffffffffffffffffffffff166fffffffffffffffffffffffffffffffff166fffffffffffffffffffffffffffffffff1681526020016009820160009054906101000a90046fffffffffffffffffffffffffffffffff166fffffffffffffffffffffffffffffffff166fffffffffffffffffffffffffffffffff16815250508486815181106130665761306561495b565b5b602002602001018190525060018561307e919061487f565b945050505b808061308e906148b3565b915050612bfb565b5080945050505050919050565b6130ab6138f2565b6000866fffffffffffffffffffffffffffffffff1611613100576040517f08c379a00000000000000000000000000000000000000000000000000000000081526004016130f790614b95565b60405180910390fd5b606060008690508073ffffffffffffffffffffffffffffffffffffffff16637c428edb866040518263ffffffff1660e01b8152600401613140919061498a565b600060405180830381865afa15801561315d573d6000803e3d6000fd5b505050506040513d6000823e3d601f19601f820116820180604052508101906131869190614ebb565b91506000805b8351816fffffffffffffffffffffffffffffffff161080156131bf5750856fffffffffffffffffffffffffffffffff1682105b1561363f576131ce6001613941565b60006131da6001613961565b9050600085836fffffffffffffffffffffffffffffffff16815181106132035761320261495b565b5b6020026020010151905061321681610d3a565b61362a57600184613227919061487f565b9350816005600083815260200190815260200160002081905550604051806101a001604052808c73ffffffffffffffffffffffffffffffffffffffff1681526020018281526020018a81526020013073ffffffffffffffffffffffffffffffffffffffff1681526020013373ffffffffffffffffffffffffffffffffffffffff1681526020013373ffffffffffffffffffffffffffffffffffffffff1681526020018d6fffffffffffffffffffffffffffffffff1681526020018b8152602001600015158152602001600015158152602001600015158152602001846fffffffffffffffffffffffffffffffff1681526020016001896133279190614f04565b6fffffffffffffffffffffffffffffffff168152506004600084815260200190815260200160002060008201518160000160006101000a81548173ffffffffffffffffffffffffffffffffffffffff021916908373ffffffffffffffffffffffffffffffffffffffff160217905550602082015181600101556040820151816002015560608201518160030160006101000a81548173ffffffffffffffffffffffffffffffffffffffff021916908373ffffffffffffffffffffffffffffffffffffffff16021790555060808201518160040160006101000a81548173ffffffffffffffffffffffffffffffffffffffff021916908373ffffffffffffffffffffffffffffffffffffffff16021790555060a08201518160050160006101000a81548173ffffffffffffffffffffffffffffffffffffffff021916908373ffffffffffffffffffffffffffffffffffffffff16021790555060c08201518160060160006101000a8154816fffffffffffffffffffffffffffffffff02191690836fffffffffffffffffffffffffffffffff16021790555060e08201518160070190816134d391906150ea565b506101008201518160080160006101000a81548160ff0219169083151502179055506101208201518160080160016101000a81548160ff0219169083151502179055506101408201518160080160026101000a81548160ff0219169083151502179055506101608201518160080160036101000a8154816fffffffffffffffffffffffffffffffff02191690836fffffffffffffffffffffffffffffffff1602179055506101808201518160090160006101000a8154816fffffffffffffffffffffffffffffffff02191690836fffffffffffffffffffffffffffffffff1602179055509050508a73ffffffffffffffffffffffffffffffffffffffff166323b872dd3330846040518463ffffffff1660e01b81526004016135f7939291906147e4565b600060405180830381600087803b15801561361157600080fd5b505af1158015613625573d6000803e3d6000fd5b505050505b5050808061363790614d1f565b91505061318c565b507f3f86671f43fc8df2398a80d3b5ac31fb810f93e2cfa1724aed76f7042d836b7e86338b888b604051613677959493929190615204565b60405180910390a150505061368a613957565b505050505050565b61369a6138f2565b6000600560008481526020019081526020016000205490503373ffffffffffffffffffffffffffffffffffffffff166004600083815260200190815260200160002060030160009054906101000a900473ffffffffffffffffffffffffffffffffffffffff1673ffffffffffffffffffffffffffffffffffffffff1614613756576040517f08c379a000000000000000000000000000000000000000000000000000000000815260040161374d906152aa565b60405180910390fd5b816004600083815260200190815260200160002060030160006101000a81548173ffffffffffffffffffffffffffffffffffffffff021916908373ffffffffffffffffffffffffffffffffffffffff16021790555060016004600083815260200190815260200160002060090160009054906101000a90046fffffffffffffffffffffffffffffffff166137ea9190614782565b6004600083815260200190815260200160002060090160006101000a8154816fffffffffffffffffffffffffffffffff02191690836fffffffffffffffffffffffffffffffff16021790555060008490508073ffffffffffffffffffffffffffffffffffffffff1663f5537ede3385876040518463ffffffff1660e01b8152600401613878939291906147e4565b600060405180830381600087803b15801561389257600080fd5b505af11580156138a6573d6000803e3d6000fd5b505050507f679ebf1af59403ccbbf38261fcf3ed9f7618934b037cd0baafb3441282332b6284846040516138db9291906152ca565b60405180910390a150506138ed613957565b505050565b600260005403613937576040517f08c379a000000000000000000000000000000000000000000000000000000000815260040161392e9061533f565b60405180910390fd5b6002600081905550565b6001816000016000828254019250508190555050565b6001600081905550565b600081600001549050919050565b600081600001549050600081116139bb576040517f08c379a00000000000000000000000000000000000000000000000000000000081526004016139b2906153ab565b60405180910390fd5b6001810382600001819055505050565b604051806101a00160405280600073ffffffffffffffffffffffffffffffffffffffff1681526020016000815260200160008152602001600073ffffffffffffffffffffffffffffffffffffffff168152602001600073ffffffffffffffffffffffffffffffffffffffff168152602001600073ffffffffffffffffffffffffffffffffffffffff16815260200160006fffffffffffffffffffffffffffffffff1681526020016060815260200160001515815260200160001515815260200160001515815260200160006fffffffffffffffffffffffffffffffff16815260200160006fffffffffffffffffffffffffffffffff1681525090565b6000604051905090565b600080fd5b600080fd5b6000819050919050565b613aee81613adb565b8114613af957600080fd5b50565b600081359050613b0b81613ae5565b92915050565b600060208284031215613b2757613b26613ad1565b5b6000613b3584828501613afc565b91505092915050565b60008115159050919050565b613b5381613b3e565b82525050565b6000602082019050613b6e6000830184613b4a565b92915050565b600073ffffffffffffffffffffffffffffffffffffffff82169050919050565b6000613b9f82613b74565b9050919050565b613baf81613b94565b8114613bba57600080fd5b50565b600081359050613bcc81613ba6565b92915050565b60008060408385031215613be957613be8613ad1565b5b6000613bf785828601613bbd565b9250506020613c0885828601613afc565b9150509250929050565b600081519050919050565b600082825260208201905092915050565b6000819050602082019050919050565b613c4781613b94565b82525050565b613c5681613adb565b82525050565b6000613c6782613b74565b9050919050565b613c7781613c5c565b82525050565b60006fffffffffffffffffffffffffffffffff82169050919050565b613ca281613c7d565b82525050565b600081519050919050565b600082825260208201905092915050565b60005b83811015613ce2578082015181840152602081019050613cc7565b60008484015250505050565b6000601f19601f8301169050919050565b6000613d0a82613ca8565b613d148185613cb3565b9350613d24818560208601613cc4565b613d2d81613cee565b840191505092915050565b613d4181613b3e565b82525050565b60006101a083016000830151613d606000860182613c3e565b506020830151613d736020860182613c4d565b506040830151613d866040860182613c4d565b506060830151613d996060860182613c6e565b506080830151613dac6080860182613c6e565b5060a0830151613dbf60a0860182613c6e565b5060c0830151613dd260c0860182613c99565b5060e083015184820360e0860152613dea8282613cff565b915050610100830151613e01610100860182613d38565b50610120830151613e16610120860182613d38565b50610140830151613e2b610140860182613d38565b50610160830151613e40610160860182613c99565b50610180830151613e55610180860182613c99565b508091505092915050565b6000613e6c8383613d47565b905092915050565b6000602082019050919050565b6000613e8c82613c12565b613e968185613c1d565b935083602082028501613ea885613c2e565b8060005b85811015613ee45784840389528151613ec58582613e60565b9450613ed083613e74565b925060208a01995050600181019050613eac565b50829750879550505050505092915050565b60006020820190508181036000830152613f108184613e81565b905092915050565b613f2181613c7d565b8114613f2c57600080fd5b50565b600081359050613f3e81613f18565b92915050565b600080fd5b7f4e487b7100000000000000000000000000000000000000000000000000000000600052604160045260246000fd5b613f8182613cee565b810181811067ffffffffffffffff82111715613fa057613f9f613f49565b5b80604052505050565b6000613fb3613ac7565b9050613fbf8282613f78565b919050565b600067ffffffffffffffff821115613fdf57613fde613f49565b5b602082029050602081019050919050565b600080fd5b600061400861400384613fc4565b613fa9565b9050808382526020820190506020840283018581111561402b5761402a613ff0565b5b835b8181101561405457806140408882613afc565b84526020840193505060208101905061402d565b5050509392505050565b600082601f83011261407357614072613f44565b5b8135614083848260208601613ff5565b91505092915050565b600080600080608085870312156140a6576140a5613ad1565b5b60006140b487828801613f2f565b94505060206140c587828801613bbd565b935050604085013567ffffffffffffffff8111156140e6576140e5613ad6565b5b6140f28782880161405e565b925050606061410387828801613afc565b91505092959194509250565b6000806040838503121561412657614125613ad1565b5b600061413485828601613afc565b925050602061414585828601613bbd565b9150509250929050565b600081519050919050565b600082825260208201905092915050565b6000819050602082019050919050565b60006141878383613c4d565b60208301905092915050565b6000602082019050919050565b60006141ab8261414f565b6141b5818561415a565b93506141c08361416b565b8060005b838110156141f15781516141d8888261417b565b97506141e383614193565b9250506001810190506141c4565b5085935050505092915050565b6000602082019050818103600083015261421881846141a0565b905092915050565b60008060006060848603121561423957614238613ad1565b5b600061424786828701613f2f565b935050602061425886828701613bbd565b925050604061426986828701613afc565b9150509250925092565b60008060006060848603121561428c5761428b613ad1565b5b600061429a86828701613f2f565b93505060206142ab86828701613bbd565b925050604084013567ffffffffffffffff8111156142cc576142cb613ad6565b5b6142d88682870161405e565b9150509250925092565b60006101a0830160008301516142fb6000860182613c3e565b50602083015161430e6020860182613c4d565b5060408301516143216040860182613c4d565b5060608301516143346060860182613c6e565b5060808301516143476080860182613c6e565b5060a083015161435a60a0860182613c6e565b5060c083015161436d60c0860182613c99565b5060e083015184820360e08601526143858282613cff565b91505061010083015161439c610100860182613d38565b506101208301516143b1610120860182613d38565b506101408301516143c6610140860182613d38565b506101608301516143db610160860182613c99565b506101808301516143f0610180860182613c99565b508091505092915050565b6000602082019050818103600083015261441581846142e2565b905092915050565b60008060006060848603121561443657614435613ad1565b5b600084013567ffffffffffffffff81111561445457614453613ad6565b5b6144608682870161405e565b935050602061447186828701613afc565b925050604061448286828701613bbd565b9150509250925092565b6000602082840312156144a2576144a1613ad1565b5b60006144b084828501613bbd565b91505092915050565b600080fd5b600067ffffffffffffffff8211156144d9576144d8613f49565b5b6144e282613cee565b9050602081019050919050565b82818337600083830152505050565b600061451161450c846144be565b613fa9565b90508281526020810184848401111561452d5761452c6144b9565b5b6145388482856144ef565b509392505050565b600082601f83011261455557614554613f44565b5b81356145658482602086016144fe565b91505092915050565b60008060008060008060c0878903121561458b5761458a613ad1565b5b600061459989828a01613f2f565b96505060206145aa89828a01613bbd565b955050604087013567ffffffffffffffff8111156145cb576145ca613ad6565b5b6145d789828a01614540565b94505060606145e889828a01613afc565b93505060806145f989828a01613f2f565b92505060a061460a89828a01613f2f565b9150509295509295509295565b6000806000606084860312156146305761462f613ad1565b5b600061463e86828701613bbd565b935050602061464f86828701613afc565b925050604061466086828701613bbd565b9150509250925092565b600082825260208201905092915050565b7f506c6561736520706179207468652061736b696e672070726963650000000000600082015250565b60006146b1601b8361466a565b91506146bc8261467b565b602082019050919050565b600060208201905081810360008301526146e0816146a4565b9050919050565b7f4974656d20686173206265656e20616c726561647920736f6c64000000000000600082015250565b600061471d601a8361466a565b9150614728826146e7565b602082019050919050565b6000602082019050818103600083015261474c81614710565b9050919050565b7f4e487b7100000000000000000000000000000000000000000000000000000000600052601160045260246000fd5b600061478d82613c7d565b915061479883613c7d565b925082820390506fffffffffffffffffffffffffffffffff8111156147c0576147bf614753565b5b92915050565b6147cf81613b94565b82525050565b6147de81613adb565b82525050565b60006060820190506147f960008301866147c6565b61480660208301856147c6565b61481360408301846147d5565b949350505050565b6000819050919050565b600061484061483b61483684613c7d565b61481b565b613adb565b9050919050565b61485081614825565b82525050565b600060408201905061486b60008301856147c6565b6148786020830184614847565b9392505050565b600061488a82613adb565b915061489583613adb565b92508282019050808211156148ad576148ac614753565b5b92915050565b60006148be82613adb565b91507fffffffffffffffffffffffffffffffffffffffffffffffffffffffffffffffff82036148f0576148ef614753565b5b600182019050919050565b7f4e487b7100000000000000000000000000000000000000000000000000000000600052602260045260246000fd5b6000600282049050600182168061494257607f821691505b602082108103614955576149546148fb565b5b50919050565b7f4e487b7100000000000000000000000000000000000000000000000000000000600052603260045260246000fd5b600060208201905061499f60008301846147d5565b92915050565b6000815190506149b481613ba6565b92915050565b6000602082840312156149d0576149cf613ad1565b5b60006149de848285016149a5565b91505092915050565b7f4f6e6c79206576656e74206f776e65722063616e20706572666f726d2074686960008201527f7300000000000000000000000000000000000000000000000000000000000000602082015250565b6000614a4360218361466a565b9150614a4e826149e7565b604082019050919050565b60006020820190508181036000830152614a7281614a36565b9050919050565b60006060820190508181036000830152614a9381866141a0565b9050614aa260208301856147c6565b614aaf6040830184614847565b949350505050565b7f4f6e6c79206576656e74206f776e6572206f722073656c6c65722063616e207060008201527f6572666f726d2074686973000000000000000000000000000000000000000000602082015250565b6000614b13602b8361466a565b9150614b1e82614ab7565b604082019050919050565b60006020820190508181036000830152614b4281614b06565b9050919050565b7f546f6f206c6f7700000000000000000000000000000000000000000000000000600082015250565b6000614b7f60078361466a565b9150614b8a82614b49565b602082019050919050565b60006020820190508181036000830152614bae81614b72565b9050919050565b7f4f6e6c79207469636b6574206f776e65722063616e20706572666f726d20746860008201527f6973206f7065726174696f6e0000000000000000000000000000000000000000602082015250565b6000614c11602c8361466a565b9150614c1c82614bb5565b604082019050919050565b60006020820190508181036000830152614c4081614c04565b9050919050565b7f5469636b657420697320616c7265616479206c69737465642100000000000000600082015250565b6000614c7d60198361466a565b9150614c8882614c47565b602082019050919050565b60006020820190508181036000830152614cac81614c70565b9050919050565b7f4e756d626572206f66207472616e736665722072696768742069732030000000600082015250565b6000614ce9601d8361466a565b9150614cf482614cb3565b602082019050919050565b60006020820190508181036000830152614d1881614cdc565b9050919050565b6000614d2a82613c7d565b91506fffffffffffffffffffffffffffffffff8203614d4c57614d4b614753565b5b600182019050919050565b60006080820190508181036000830152614d7181876141a0565b9050614d8060208301866147c6565b614d8d60408301856147c6565b614d9a6060830184614847565b95945050505050565b7f4f6e6c79206576656e74206f776e657200000000000000000000000000000000600082015250565b6000614dd960108361466a565b9150614de482614da3565b602082019050919050565b60006020820190508181036000830152614e0881614dcc565b9050919050565b600081519050614e1e81613ae5565b92915050565b6000614e37614e3284613fc4565b613fa9565b90508083825260208201905060208402830185811115614e5a57614e59613ff0565b5b835b81811015614e835780614e6f8882614e0f565b845260208401935050602081019050614e5c565b5050509392505050565b600082601f830112614ea257614ea1613f44565b5b8151614eb2848260208601614e24565b91505092915050565b600060208284031215614ed157614ed0613ad1565b5b600082015167ffffffffffffffff811115614eef57614eee613ad6565b5b614efb84828501614e8d565b91505092915050565b6000614f0f82613c7d565b9150614f1a83613c7d565b925082820190506fffffffffffffffffffffffffffffffff811115614f4257614f41614753565b5b92915050565b60008190508160005260206000209050919050565b60006020601f8301049050919050565b600082821b905092915050565b600060088302614faa7fffffffffffffffffffffffffffffffffffffffffffffffffffffffffffffffff82614f6d565b614fb48683614f6d565b95508019841693508086168417925050509392505050565b6000614fe7614fe2614fdd84613adb565b61481b565b613adb565b9050919050565b6000819050919050565b61500183614fcc565b61501561500d82614fee565b848454614f7a565b825550505050565b600090565b61502a61501d565b615035818484614ff8565b505050565b5b818110156150595761504e600082615022565b60018101905061503b565b5050565b601f82111561509e5761506f81614f48565b61507884614f5d565b81016020851015615087578190505b61509b61509385614f5d565b83018261503a565b50505b505050565b600082821c905092915050565b60006150c1600019846008026150a3565b1980831691505092915050565b60006150da83836150b0565b9150826002028217905092915050565b6150f382613ca8565b67ffffffffffffffff81111561510c5761510b613f49565b5b615116825461492a565b61512182828561505d565b600060209050601f8311600181146151545760008415615142578287015190505b61514c85826150ce565b8655506151b4565b601f19841661516286614f48565b60005b8281101561518a57848901518255600182019150602085019450602081019050615165565b868310156151a757848901516151a3601f8916826150b0565b8355505b6001600288020188555050505b505050505050565b6151c581613c7d565b82525050565b60006151d682613ca8565b6151e0818561466a565b93506151f0818560208601613cc4565b6151f981613cee565b840191505092915050565b600060a08201905061521960008301886147d5565b61522660208301876147c6565b61523360408301866151bc565b61524060608301856151bc565b818103608083015261525281846151cb565b90509695505050505050565b7f4f6e6c79207469636b6574206f776e6572000000000000000000000000000000600082015250565b600061529460118361466a565b915061529f8261525e565b602082019050919050565b600060208201905081810360008301526152c381615287565b9050919050565b60006040820190506152df60008301856147d5565b6152ec60208301846147c6565b9392505050565b7f5265656e7472616e637947756172643a207265656e7472616e742063616c6c00600082015250565b6000615329601f8361466a565b9150615334826152f3565b602082019050919050565b600060208201905081810360008301526153588161531c565b9050919050565b7f436f756e7465723a2064656372656d656e74206f766572666c6f770000000000600082015250565b6000615395601b8361466a565b91506153a08261535f565b602082019050919050565b600060208201905081810360008301526153c481615388565b905091905056fea2646970667358221220b818322467b32b990c21e99804c75de3a559717fb6d5c2418d1e2f833b0476ac64736f6c63430008110033",
  "linkReferences": {},
  "deployedLinkReferences": {}
}