{
  "_format": "hh-sol-artifact-1",
  "contractName": "TicketMint",
  "sourceName": "contracts/TicketMint.sol",
  "abi": [
    {
      "inputs": [
        {
          "internalType": "address",
          "name": "marketAddress",
          "type": "address"
        }
      ],
      "stateMutability": "nonpayable",
      "type": "constructor"
    },
    {
      "anonymous": false,
      "inputs": [
        {
          "indexed": true,
          "internalType": "address",
          "name": "owner",
          "type": "address"
        },
        {
          "indexed": true,
          "internalType": "address",
          "name": "approved",
          "type": "address"
        },
        {
          "indexed": true,
          "internalType": "uint256",
          "name": "tokenId",
          "type": "uint256"
        }
      ],
      "name": "Approval",
      "type": "event"
    },
    {
      "anonymous": false,
      "inputs": [
        {
          "indexed": true,
          "internalType": "address",
          "name": "owner",
          "type": "address"
        },
        {
          "indexed": true,
          "internalType": "address",
          "name": "operator",
          "type": "address"
        },
        {
          "indexed": false,
          "internalType": "bool",
          "name": "approved",
          "type": "bool"
        }
      ],
      "name": "ApprovalForAll",
      "type": "event"
    },
    {
      "anonymous": false,
      "inputs": [
        {
          "indexed": true,
          "internalType": "uint256",
          "name": "eventID",
          "type": "uint256"
        },
        {
          "indexed": false,
          "internalType": "uint256",
          "name": "supply",
          "type": "uint256"
        },
        {
          "indexed": false,
          "internalType": "address",
          "name": "ticketOwner",
          "type": "address"
        }
      ],
      "name": "Mint",
      "type": "event"
    },
    {
      "anonymous": false,
      "inputs": [
        {
          "indexed": true,
          "internalType": "address",
          "name": "from",
          "type": "address"
        },
        {
          "indexed": true,
          "internalType": "address",
          "name": "to",
          "type": "address"
        },
        {
          "indexed": true,
          "internalType": "uint256",
          "name": "tokenId",
          "type": "uint256"
        }
      ],
      "name": "Transfer",
      "type": "event"
    },
    {
      "inputs": [
        {
          "internalType": "address",
          "name": "_address",
          "type": "address"
        }
      ],
      "name": "addEventOwner",
      "outputs": [],
      "stateMutability": "nonpayable",
      "type": "function"
    },
    {
      "inputs": [
        {
          "internalType": "address",
          "name": "_addressToOwners",
          "type": "address"
        }
      ],
      "name": "addOwner",
      "outputs": [],
      "stateMutability": "nonpayable",
      "type": "function"
    },
    {
      "inputs": [
        {
          "internalType": "address",
          "name": "to",
          "type": "address"
        },
        {
          "internalType": "uint256",
          "name": "tokenId",
          "type": "uint256"
        }
      ],
      "name": "approve",
      "outputs": [],
      "stateMutability": "nonpayable",
      "type": "function"
    },
    {
      "inputs": [
        {
          "internalType": "address",
          "name": "owner",
          "type": "address"
        }
      ],
      "name": "balanceOf",
      "outputs": [
        {
          "internalType": "uint256",
          "name": "",
          "type": "uint256"
        }
      ],
      "stateMutability": "view",
      "type": "function"
    },
    {
      "inputs": [
        {
          "internalType": "uint256",
          "name": "tokenId",
          "type": "uint256"
        }
      ],
      "name": "burn",
      "outputs": [],
      "stateMutability": "nonpayable",
      "type": "function"
    },
    {
      "inputs": [
        {
          "internalType": "uint256",
          "name": "tokenId",
          "type": "uint256"
        }
      ],
      "name": "burnNFT",
      "outputs": [],
      "stateMutability": "nonpayable",
      "type": "function"
    },
    {
      "inputs": [
        {
          "internalType": "uint256",
          "name": "",
          "type": "uint256"
        }
      ],
      "name": "eventIDtoeventOwner",
      "outputs": [
        {
          "internalType": "address",
          "name": "",
          "type": "address"
        }
      ],
      "stateMutability": "view",
      "type": "function"
    },
    {
      "inputs": [
        {
          "internalType": "uint256",
          "name": "eventid",
          "type": "uint256"
        }
      ],
      "name": "eventOwnerOfEventID",
      "outputs": [
        {
          "internalType": "address",
          "name": "",
          "type": "address"
        }
      ],
      "stateMutability": "view",
      "type": "function"
    },
    {
      "inputs": [
        {
          "internalType": "uint256",
          "name": "tokenId",
          "type": "uint256"
        }
      ],
      "name": "getApproved",
      "outputs": [
        {
          "internalType": "address",
          "name": "",
          "type": "address"
        }
      ],
      "stateMutability": "view",
      "type": "function"
    },
    {
      "inputs": [
        {
          "internalType": "uint256",
          "name": "tokenid",
          "type": "uint256"
        }
      ],
      "name": "getEventID",
      "outputs": [
        {
          "internalType": "uint256",
          "name": "",
          "type": "uint256"
        }
      ],
      "stateMutability": "view",
      "type": "function"
    },
    {
      "inputs": [
        {
          "internalType": "uint256",
          "name": "eventid",
          "type": "uint256"
        }
      ],
      "name": "getEventTicketList",
      "outputs": [
        {
          "internalType": "uint256[]",
          "name": "",
          "type": "uint256[]"
        }
      ],
      "stateMutability": "view",
      "type": "function"
    },
    {
      "inputs": [
        {
          "internalType": "address",
          "name": "owner",
          "type": "address"
        },
        {
          "internalType": "address",
          "name": "operator",
          "type": "address"
        }
      ],
      "name": "isApprovedForAll",
      "outputs": [
        {
          "internalType": "bool",
          "name": "",
          "type": "bool"
        }
      ],
      "stateMutability": "view",
      "type": "function"
    },
    {
      "inputs": [
        {
          "internalType": "string",
          "name": "tokenUri",
          "type": "string"
        },
        {
          "internalType": "uint256",
          "name": "eventId",
          "type": "uint256"
        },
        {
          "internalType": "uint256",
          "name": "supply",
          "type": "uint256"
        }
      ],
      "name": "mintNFT",
      "outputs": [],
      "stateMutability": "nonpayable",
      "type": "function"
    },
    {
      "inputs": [],
      "name": "name",
      "outputs": [
        {
          "internalType": "string",
          "name": "",
          "type": "string"
        }
      ],
      "stateMutability": "view",
      "type": "function"
    },
    {
      "inputs": [
        {
          "internalType": "uint256",
          "name": "tokenId",
          "type": "uint256"
        }
      ],
      "name": "ownerOf",
      "outputs": [
        {
          "internalType": "address",
          "name": "",
          "type": "address"
        }
      ],
      "stateMutability": "view",
      "type": "function"
    },
    {
      "inputs": [
        {
          "internalType": "address",
          "name": "from",
          "type": "address"
        },
        {
          "internalType": "address",
          "name": "to",
          "type": "address"
        },
        {
          "internalType": "uint256",
          "name": "tokenId",
          "type": "uint256"
        }
      ],
      "name": "safeTransferFrom",
      "outputs": [],
      "stateMutability": "nonpayable",
      "type": "function"
    },
    {
      "inputs": [
        {
          "internalType": "address",
          "name": "from",
          "type": "address"
        },
        {
          "internalType": "address",
          "name": "to",
          "type": "address"
        },
        {
          "internalType": "uint256",
          "name": "tokenId",
          "type": "uint256"
        },
        {
          "internalType": "bytes",
          "name": "data",
          "type": "bytes"
        }
      ],
      "name": "safeTransferFrom",
      "outputs": [],
      "stateMutability": "nonpayable",
      "type": "function"
    },
    {
      "inputs": [
        {
          "internalType": "address",
          "name": "operator",
          "type": "address"
        },
        {
          "internalType": "bool",
          "name": "approved",
          "type": "bool"
        }
      ],
      "name": "setApprovalForAll",
      "outputs": [],
      "stateMutability": "nonpayable",
      "type": "function"
    },
    {
      "inputs": [
        {
          "internalType": "bytes4",
          "name": "interfaceId",
          "type": "bytes4"
        }
      ],
      "name": "supportsInterface",
      "outputs": [
        {
          "internalType": "bool",
          "name": "",
          "type": "bool"
        }
      ],
      "stateMutability": "view",
      "type": "function"
    },
    {
      "inputs": [],
      "name": "symbol",
      "outputs": [
        {
          "internalType": "string",
          "name": "",
          "type": "string"
        }
      ],
      "stateMutability": "view",
      "type": "function"
    },
    {
      "inputs": [],
      "name": "tokenID",
      "outputs": [
        {
          "internalType": "uint256",
          "name": "",
          "type": "uint256"
        }
      ],
      "stateMutability": "view",
      "type": "function"
    },
    {
      "inputs": [
        {
          "internalType": "uint256",
          "name": "tokenId",
          "type": "uint256"
        }
      ],
      "name": "tokenURI",
      "outputs": [
        {
          "internalType": "string",
          "name": "",
          "type": "string"
        }
      ],
      "stateMutability": "view",
      "type": "function"
    },
    {
      "inputs": [
        {
          "internalType": "address",
          "name": "from",
          "type": "address"
        },
        {
          "internalType": "address",
          "name": "to",
          "type": "address"
        },
        {
          "internalType": "uint256",
          "name": "tokenId",
          "type": "uint256"
        }
      ],
      "name": "transferFrom",
      "outputs": [],
      "stateMutability": "nonpayable",
      "type": "function"
    },
    {
      "inputs": [
        {
          "internalType": "address",
          "name": "from",
          "type": "address"
        },
        {
          "internalType": "address",
          "name": "to",
          "type": "address"
        },
        {
          "internalType": "uint256",
          "name": "tokenId",
          "type": "uint256"
        }
      ],
      "name": "transferToken",
      "outputs": [],
      "stateMutability": "nonpayable",
      "type": "function"
    },
    {
      "inputs": [
        {
          "internalType": "address",
          "name": "_address",
          "type": "address"
        }
      ],
      "name": "verifyEventOwner",
      "outputs": [
        {
          "internalType": "bool",
          "name": "",
          "type": "bool"
        }
      ],
      "stateMutability": "view",
      "type": "function"
    }
  ],
  "bytecode": "0x60806040523480156200001157600080fd5b5060405162003f7838038062003f788339818101604052810190620000379190620001d3565b6040518060400160405280600881526020017f5469636b726970740000000000000000000000000000000000000000000000008152506040518060400160405280600381526020017f54696300000000000000000000000000000000000000000000000000000000008152508160009081620000b491906200047f565b508060019081620000c691906200047f565b50505080600860006101000a81548173ffffffffffffffffffffffffffffffffffffffff021916908373ffffffffffffffffffffffffffffffffffffffff1602179055506001600960003373ffffffffffffffffffffffffffffffffffffffff1673ffffffffffffffffffffffffffffffffffffffff16815260200190815260200160002060006101000a81548160ff0219169083151502179055505062000566565b600080fd5b600073ffffffffffffffffffffffffffffffffffffffff82169050919050565b60006200019b826200016e565b9050919050565b620001ad816200018e565b8114620001b957600080fd5b50565b600081519050620001cd81620001a2565b92915050565b600060208284031215620001ec57620001eb62000169565b5b6000620001fc84828501620001bc565b91505092915050565b600081519050919050565b7f4e487b7100000000000000000000000000000000000000000000000000000000600052604160045260246000fd5b7f4e487b7100000000000000000000000000000000000000000000000000000000600052602260045260246000fd5b600060028204905060018216806200028757607f821691505b6020821081036200029d576200029c6200023f565b5b50919050565b60008190508160005260206000209050919050565b60006020601f8301049050919050565b600082821b905092915050565b600060088302620003077fffffffffffffffffffffffffffffffffffffffffffffffffffffffffffffffff82620002c8565b620003138683620002c8565b95508019841693508086168417925050509392505050565b6000819050919050565b6000819050919050565b6000620003606200035a62000354846200032b565b62000335565b6200032b565b9050919050565b6000819050919050565b6200037c836200033f565b620003946200038b8262000367565b848454620002d5565b825550505050565b600090565b620003ab6200039c565b620003b881848462000371565b505050565b5b81811015620003e057620003d4600082620003a1565b600181019050620003be565b5050565b601f8211156200042f57620003f981620002a3565b6200040484620002b8565b8101602085101562000414578190505b6200042c6200042385620002b8565b830182620003bd565b50505b505050565b600082821c905092915050565b6000620004546000198460080262000434565b1980831691505092915050565b60006200046f838362000441565b9150826002028217905092915050565b6200048a8262000205565b67ffffffffffffffff811115620004a657620004a562000210565b5b620004b282546200026e565b620004bf828285620003e4565b600060209050601f831160018114620004f75760008415620004e2578287015190505b620004ee858262000461565b8655506200055e565b601f1984166200050786620002a3565b60005b8281101562000531578489015182556001820191506020850194506020810190506200050a565b868310156200055157848901516200054d601f89168262000441565b8355505b6001600288020188555050505b505050505050565b613a0280620005766000396000f3fe608060405234801561001057600080fd5b50600436106101735760003560e01c80637065cb48116100de578063977922d211610097578063b88d4fde11610071578063b88d4fde1461047e578063c87b56dd1461049a578063e985e9c5146104ca578063f5537ede146104fa57610173565b8063977922d214610428578063a22cb46514610444578063a5c42ef11461046057610173565b80637065cb481461032e57806370a082311461034a5780637c428edb1461037a578063827cc153146103aa5780638966d3a2146103da57806395d89b411461040a57610173565b806327848eae1161013057806327848eae1461025e5780632890e0d71461027a5780632b43ecf61461029657806342842e0e146102c657806342966c68146102e25780636352211e146102fe57610173565b806301ffc9a71461017857806306fdde03146101a8578063081812fc146101c6578063095ea7b3146101f65780631e90b2931461021257806323b872dd14610242575b600080fd5b610192600480360381019061018d9190612520565b610516565b60405161019f9190612568565b60405180910390f35b6101b06105f8565b6040516101bd9190612613565b60405180910390f35b6101e060048036038101906101db919061266b565b61068a565b6040516101ed91906126d9565b60405180910390f35b610210600480360381019061020b9190612720565b6106d0565b005b61022c6004803603810190610227919061266b565b6107e7565b60405161023991906126d9565b60405180910390f35b61025c60048036038101906102579190612760565b610824565b005b610278600480360381019061027391906127b3565b610884565b005b610294600480360381019061028f919061266b565b61096b565b005b6102b060048036038101906102ab919061266b565b6109c7565b6040516102bd91906127ef565b60405180910390f35b6102e060048036038101906102db9190612760565b6109e4565b005b6102fc60048036038101906102f7919061266b565b610a04565b005b6103186004803603810190610313919061266b565b610a60565b60405161032591906126d9565b60405180910390f35b610348600480360381019061034391906127b3565b610ae6565b005b610364600480360381019061035f91906127b3565b610bcd565b60405161037191906127ef565b60405180910390f35b610394600480360381019061038f919061266b565b610c84565b6040516103a191906128c8565b60405180910390f35b6103c460048036038101906103bf919061266b565b610cef565b6040516103d191906126d9565b60405180910390f35b6103f460048036038101906103ef91906127b3565b610d22565b6040516104019190612568565b60405180910390f35b610412610d7d565b60405161041f9190612613565b60405180910390f35b610442600480360381019061043d9190612a1f565b610e0f565b005b61045e60048036038101906104599190612aba565b610ffc565b005b610468611012565b60405161047591906127ef565b60405180910390f35b61049860048036038101906104939190612b9b565b611023565b005b6104b460048036038101906104af919061266b565b611085565b6040516104c19190612613565b60405180910390f35b6104e460048036038101906104df9190612c1e565b611097565b6040516104f19190612568565b60405180910390f35b610514600480360381019061050f9190612760565b61112b565b005b60007f80ac58cd000000000000000000000000000000000000000000000000000000007bffffffffffffffffffffffffffffffffffffffffffffffffffffffff1916827bffffffffffffffffffffffffffffffffffffffffffffffffffffffff191614806105e157507f5b5e139f000000000000000000000000000000000000000000000000000000007bffffffffffffffffffffffffffffffffffffffffffffffffffffffff1916827bffffffffffffffffffffffffffffffffffffffffffffffffffffffff1916145b806105f157506105f0826111b1565b5b9050919050565b60606000805461060790612c8d565b80601f016020809104026020016040519081016040528092919081815260200182805461063390612c8d565b80156106805780601f1061065557610100808354040283529160200191610680565b820191906000526020600020905b81548152906001019060200180831161066357829003601f168201915b5050505050905090565b60006106958261121b565b6004600083815260200190815260200160002060009054906101000a900473ffffffffffffffffffffffffffffffffffffffff169050919050565b60006106db82610a60565b90508073ffffffffffffffffffffffffffffffffffffffff168373ffffffffffffffffffffffffffffffffffffffff160361074b576040517f08c379a000000000000000000000000000000000000000000000000000000000815260040161074290612d30565b60405180910390fd5b8073ffffffffffffffffffffffffffffffffffffffff1661076a611266565b73ffffffffffffffffffffffffffffffffffffffff161480610799575061079881610793611266565b611097565b5b6107d8576040517f08c379a00000000000000000000000000000000000000000000000000000000081526004016107cf90612dc2565b60405180910390fd5b6107e2838361126e565b505050565b6000600d600083815260200190815260200160002060009054906101000a900473ffffffffffffffffffffffffffffffffffffffff169050919050565b61083561082f611266565b82611327565b610874576040517f08c379a000000000000000000000000000000000000000000000000000000000815260040161086b90612e54565b60405180910390fd5b61087f8383836113bc565b505050565b600960003373ffffffffffffffffffffffffffffffffffffffff1673ffffffffffffffffffffffffffffffffffffffff16815260200190815260200160002060009054906101000a900460ff16610910576040517f08c379a000000000000000000000000000000000000000000000000000000000815260040161090790612ec0565b60405180910390fd5b6001600a60008373ffffffffffffffffffffffffffffffffffffffff1673ffffffffffffffffffffffffffffffffffffffff16815260200190815260200160002060006101000a81548160ff02191690831515021790555050565b61097c610976611266565b82611327565b6109bb576040517f08c379a00000000000000000000000000000000000000000000000000000000081526004016109b290612f52565b60405180910390fd5b6109c4816116b5565b50565b6000600c6000838152602001908152602001600020549050919050565b6109ff83838360405180602001604052806000815250611023565b505050565b610a15610a0f611266565b82611327565b610a54576040517f08c379a0000000000000000000000000000000000000000000000000000000008152600401610a4b90612e54565b60405180910390fd5b610a5d816116b5565b50565b600080610a6c836116c1565b9050600073ffffffffffffffffffffffffffffffffffffffff168173ffffffffffffffffffffffffffffffffffffffff1603610add576040517f08c379a0000000000000000000000000000000000000000000000000000000008152600401610ad490612fbe565b60405180910390fd5b80915050919050565b600960003373ffffffffffffffffffffffffffffffffffffffff1673ffffffffffffffffffffffffffffffffffffffff16815260200190815260200160002060009054906101000a900460ff16610b72576040517f08c379a0000000000000000000000000000000000000000000000000000000008152600401610b6990612ec0565b60405180910390fd5b6001600960008373ffffffffffffffffffffffffffffffffffffffff1673ffffffffffffffffffffffffffffffffffffffff16815260200190815260200160002060006101000a81548160ff02191690831515021790555050565b60008073ffffffffffffffffffffffffffffffffffffffff168273ffffffffffffffffffffffffffffffffffffffff1603610c3d576040517f08c379a0000000000000000000000000000000000000000000000000000000008152600401610c3490613050565b60405180910390fd5b600360008373ffffffffffffffffffffffffffffffffffffffff1673ffffffffffffffffffffffffffffffffffffffff168152602001908152602001600020549050919050565b6060600b6000838152602001908152602001600020805480602002602001604051908101604052809291908181526020018280548015610ce357602002820191906000526020600020905b815481526020019060010190808311610ccf575b50505050509050919050565b600d6020528060005260406000206000915054906101000a900473ffffffffffffffffffffffffffffffffffffffff1681565b600080600a60008473ffffffffffffffffffffffffffffffffffffffff1673ffffffffffffffffffffffffffffffffffffffff16815260200190815260200160002060009054906101000a900460ff16905080915050919050565b606060018054610d8c90612c8d565b80601f0160208091040260200160405190810160405280929190818152602001828054610db890612c8d565b8015610e055780601f10610dda57610100808354040283529160200191610e05565b820191906000526020600020905b815481529060010190602001808311610de857829003601f168201915b5050505050905090565b33600a60008273ffffffffffffffffffffffffffffffffffffffff1673ffffffffffffffffffffffffffffffffffffffff16815260200190815260200160002060009054906101000a900460ff16610e9c576040517f08c379a0000000000000000000000000000000000000000000000000000000008152600401610e93906130bc565b60405180910390fd5b600080600090505b83811015610f6857610eb660076116fe565b610ec06007611714565b9150610ecc3383611722565b610ed68287611740565b610f03600860009054906101000a900473ffffffffffffffffffffffffffffffffffffffff166001610ffc565b600b600086815260200190815260200160002082908060018154018082558091505060019003906000526020600020016000909190919091505584600c6000848152602001908152602001600020819055508080610f609061310b565b915050610ea4565b5033600d600086815260200190815260200160002060006101000a81548173ffffffffffffffffffffffffffffffffffffffff021916908373ffffffffffffffffffffffffffffffffffffffff160217905550837f8334f87aeaf76e52b061d93ee968e51fdd3ad53ca04e80271249227997aab3a08433604051610fed929190613153565b60405180910390a25050505050565b61100e611007611266565b83836117ad565b5050565b600061101e6007611714565b905090565b61103461102e611266565b83611327565b611073576040517f08c379a000000000000000000000000000000000000000000000000000000000815260040161106a90612e54565b60405180910390fd5b61107f84848484611919565b50505050565b606061109082611975565b9050919050565b6000600560008473ffffffffffffffffffffffffffffffffffffffff1673ffffffffffffffffffffffffffffffffffffffff16815260200190815260200160002060008373ffffffffffffffffffffffffffffffffffffffff1673ffffffffffffffffffffffffffffffffffffffff16815260200190815260200160002060009054906101000a900460ff16905092915050565b8273ffffffffffffffffffffffffffffffffffffffff1661114b82610a60565b73ffffffffffffffffffffffffffffffffffffffff16146111a1576040517f08c379a0000000000000000000000000000000000000000000000000000000008152600401611198906131c8565b60405180910390fd5b6111ac8383836113bc565b505050565b60007f01ffc9a7000000000000000000000000000000000000000000000000000000007bffffffffffffffffffffffffffffffffffffffffffffffffffffffff1916827bffffffffffffffffffffffffffffffffffffffffffffffffffffffff1916149050919050565b61122481611a87565b611263576040517f08c379a000000000000000000000000000000000000000000000000000000000815260040161125a90612fbe565b60405180910390fd5b50565b600033905090565b816004600083815260200190815260200160002060006101000a81548173ffffffffffffffffffffffffffffffffffffffff021916908373ffffffffffffffffffffffffffffffffffffffff160217905550808273ffffffffffffffffffffffffffffffffffffffff166112e183610a60565b73ffffffffffffffffffffffffffffffffffffffff167f8c5be1e5ebec7d5bd14f71427d1e84f3dd0314c0f7b2291e5b200ac8c7c3b92560405160405180910390a45050565b60008061133383610a60565b90508073ffffffffffffffffffffffffffffffffffffffff168473ffffffffffffffffffffffffffffffffffffffff16148061137557506113748185611097565b5b806113b357508373ffffffffffffffffffffffffffffffffffffffff1661139b8461068a565b73ffffffffffffffffffffffffffffffffffffffff16145b91505092915050565b8273ffffffffffffffffffffffffffffffffffffffff166113dc82610a60565b73ffffffffffffffffffffffffffffffffffffffff1614611432576040517f08c379a00000000000000000000000000000000000000000000000000000000081526004016114299061325a565b60405180910390fd5b600073ffffffffffffffffffffffffffffffffffffffff168273ffffffffffffffffffffffffffffffffffffffff16036114a1576040517f08c379a0000000000000000000000000000000000000000000000000000000008152600401611498906132ec565b60405180910390fd5b6114ae8383836001611ac8565b8273ffffffffffffffffffffffffffffffffffffffff166114ce82610a60565b73ffffffffffffffffffffffffffffffffffffffff1614611524576040517f08c379a000000000000000000000000000000000000000000000000000000000815260040161151b9061325a565b60405180910390fd5b6004600082815260200190815260200160002060006101000a81549073ffffffffffffffffffffffffffffffffffffffff02191690556001600360008573ffffffffffffffffffffffffffffffffffffffff1673ffffffffffffffffffffffffffffffffffffffff168152602001908152602001600020600082825403925050819055506001600360008473ffffffffffffffffffffffffffffffffffffffff1673ffffffffffffffffffffffffffffffffffffffff16815260200190815260200160002060008282540192505081905550816002600083815260200190815260200160002060006101000a81548173ffffffffffffffffffffffffffffffffffffffff021916908373ffffffffffffffffffffffffffffffffffffffff160217905550808273ffffffffffffffffffffffffffffffffffffffff168473ffffffffffffffffffffffffffffffffffffffff167fddf252ad1be2c89b69c2b068fc378daa952ba7f163c4a11628f55a4df523b3ef60405160405180910390a46116b08383836001611bee565b505050565b6116be81611bf4565b50565b60006002600083815260200190815260200160002060009054906101000a900473ffffffffffffffffffffffffffffffffffffffff169050919050565b6001816000016000828254019250508190555050565b600081600001549050919050565b61173c828260405180602001604052806000815250611c47565b5050565b61174982611a87565b611788576040517f08c379a000000000000000000000000000000000000000000000000000000000815260040161177f9061337e565b60405180910390fd5b806006600084815260200190815260200160002090816117a8919061354a565b505050565b8173ffffffffffffffffffffffffffffffffffffffff168373ffffffffffffffffffffffffffffffffffffffff160361181b576040517f08c379a000000000000000000000000000000000000000000000000000000000815260040161181290613668565b60405180910390fd5b80600560008573ffffffffffffffffffffffffffffffffffffffff1673ffffffffffffffffffffffffffffffffffffffff16815260200190815260200160002060008473ffffffffffffffffffffffffffffffffffffffff1673ffffffffffffffffffffffffffffffffffffffff16815260200190815260200160002060006101000a81548160ff0219169083151502179055508173ffffffffffffffffffffffffffffffffffffffff168373ffffffffffffffffffffffffffffffffffffffff167f17307eab39ab6107e8899845ad3d59bd9653f200f220920489ca2b5937696c318360405161190c9190612568565b60405180910390a3505050565b6119248484846113bc565b61193084848484611ca2565b61196f576040517f08c379a0000000000000000000000000000000000000000000000000000000008152600401611966906136fa565b60405180910390fd5b50505050565b60606119808261121b565b60006006600084815260200190815260200160002080546119a090612c8d565b80601f01602080910402602001604051908101604052809291908181526020018280546119cc90612c8d565b8015611a195780601f106119ee57610100808354040283529160200191611a19565b820191906000526020600020905b8154815290600101906020018083116119fc57829003601f168201915b505050505090506000611a2a611e29565b90506000815103611a3f578192505050611a82565b600082511115611a74578082604051602001611a5c929190613756565b60405160208183030381529060405292505050611a82565b611a7d84611e40565b925050505b919050565b60008073ffffffffffffffffffffffffffffffffffffffff16611aa9836116c1565b73ffffffffffffffffffffffffffffffffffffffff1614159050919050565b6001811115611be857600073ffffffffffffffffffffffffffffffffffffffff168473ffffffffffffffffffffffffffffffffffffffff1614611b5c5780600360008673ffffffffffffffffffffffffffffffffffffffff1673ffffffffffffffffffffffffffffffffffffffff1681526020019081526020016000206000828254611b54919061377a565b925050819055505b600073ffffffffffffffffffffffffffffffffffffffff168373ffffffffffffffffffffffffffffffffffffffff1614611be75780600360008573ffffffffffffffffffffffffffffffffffffffff1673ffffffffffffffffffffffffffffffffffffffff1681526020019081526020016000206000828254611bdf91906137ae565b925050819055505b5b50505050565b50505050565b611bfd81611ea8565b6000600660008381526020019081526020016000208054611c1d90612c8d565b905014611c4457600660008281526020019081526020016000206000611c439190612457565b5b50565b611c518383611ff6565b611c5e6000848484611ca2565b611c9d576040517f08c379a0000000000000000000000000000000000000000000000000000000008152600401611c94906136fa565b60405180910390fd5b505050565b6000611cc38473ffffffffffffffffffffffffffffffffffffffff16612213565b15611e1c578373ffffffffffffffffffffffffffffffffffffffff1663150b7a02611cec611266565b8786866040518563ffffffff1660e01b8152600401611d0e9493929190613837565b6020604051808303816000875af1925050508015611d4a57506040513d601f19601f82011682018060405250810190611d479190613898565b60015b611dcc573d8060008114611d7a576040519150601f19603f3d011682016040523d82523d6000602084013e611d7f565b606091505b506000815103611dc4576040517f08c379a0000000000000000000000000000000000000000000000000000000008152600401611dbb906136fa565b60405180910390fd5b805181602001fd5b63150b7a0260e01b7bffffffffffffffffffffffffffffffffffffffffffffffffffffffff1916817bffffffffffffffffffffffffffffffffffffffffffffffffffffffff191614915050611e21565b600190505b949350505050565b606060405180602001604052806000815250905090565b6060611e4b8261121b565b6000611e55611e29565b90506000815111611e755760405180602001604052806000815250611ea0565b80611e7f84612236565b604051602001611e90929190613756565b6040516020818303038152906040525b915050919050565b6000611eb382610a60565b9050611ec3816000846001611ac8565b611ecc82610a60565b90506004600083815260200190815260200160002060006101000a81549073ffffffffffffffffffffffffffffffffffffffff02191690556001600360008373ffffffffffffffffffffffffffffffffffffffff1673ffffffffffffffffffffffffffffffffffffffff168152602001908152602001600020600082825403925050819055506002600083815260200190815260200160002060006101000a81549073ffffffffffffffffffffffffffffffffffffffff021916905581600073ffffffffffffffffffffffffffffffffffffffff168273ffffffffffffffffffffffffffffffffffffffff167fddf252ad1be2c89b69c2b068fc378daa952ba7f163c4a11628f55a4df523b3ef60405160405180910390a4611ff2816000846001611bee565b5050565b600073ffffffffffffffffffffffffffffffffffffffff168273ffffffffffffffffffffffffffffffffffffffff1603612065576040517f08c379a000000000000000000000000000000000000000000000000000000000815260040161205c90613911565b60405180910390fd5b61206e81611a87565b156120ae576040517f08c379a00000000000000000000000000000000000000000000000000000000081526004016120a59061397d565b60405180910390fd5b6120bc600083836001611ac8565b6120c581611a87565b15612105576040517f08c379a00000000000000000000000000000000000000000000000000000000081526004016120fc9061397d565b60405180910390fd5b6001600360008473ffffffffffffffffffffffffffffffffffffffff1673ffffffffffffffffffffffffffffffffffffffff16815260200190815260200160002060008282540192505081905550816002600083815260200190815260200160002060006101000a81548173ffffffffffffffffffffffffffffffffffffffff021916908373ffffffffffffffffffffffffffffffffffffffff160217905550808273ffffffffffffffffffffffffffffffffffffffff16600073ffffffffffffffffffffffffffffffffffffffff167fddf252ad1be2c89b69c2b068fc378daa952ba7f163c4a11628f55a4df523b3ef60405160405180910390a461220f600083836001611bee565b5050565b6000808273ffffffffffffffffffffffffffffffffffffffff163b119050919050565b60606000600161224584612304565b01905060008167ffffffffffffffff811115612264576122636128f4565b5b6040519080825280601f01601f1916602001820160405280156122965781602001600182028036833780820191505090505b509050600082602001820190505b6001156122f9578080600190039150507f3031323334353637383961626364656600000000000000000000000000000000600a86061a8153600a85816122ed576122ec61399d565b5b049450600085036122a4575b819350505050919050565b600080600090507a184f03e93ff9f4daa797ed6e38ed64bf6a1f0100000000000000008310612362577a184f03e93ff9f4daa797ed6e38ed64bf6a1f01000000000000000083816123585761235761399d565b5b0492506040810190505b6d04ee2d6d415b85acef8100000000831061239f576d04ee2d6d415b85acef810000000083816123955761239461399d565b5b0492506020810190505b662386f26fc1000083106123ce57662386f26fc1000083816123c4576123c361399d565b5b0492506010810190505b6305f5e10083106123f7576305f5e10083816123ed576123ec61399d565b5b0492506008810190505b612710831061241c5761271083816124125761241161399d565b5b0492506004810190505b6064831061243f57606483816124355761243461399d565b5b0492506002810190505b600a831061244e576001810190505b80915050919050565b50805461246390612c8d565b6000825580601f106124755750612494565b601f0160209004906000526020600020908101906124939190612497565b5b50565b5b808211156124b0576000816000905550600101612498565b5090565b6000604051905090565b600080fd5b600080fd5b60007fffffffff0000000000000000000000000000000000000000000000000000000082169050919050565b6124fd816124c8565b811461250857600080fd5b50565b60008135905061251a816124f4565b92915050565b600060208284031215612536576125356124be565b5b60006125448482850161250b565b91505092915050565b60008115159050919050565b6125628161254d565b82525050565b600060208201905061257d6000830184612559565b92915050565b600081519050919050565b600082825260208201905092915050565b60005b838110156125bd5780820151818401526020810190506125a2565b60008484015250505050565b6000601f19601f8301169050919050565b60006125e582612583565b6125ef818561258e565b93506125ff81856020860161259f565b612608816125c9565b840191505092915050565b6000602082019050818103600083015261262d81846125da565b905092915050565b6000819050919050565b61264881612635565b811461265357600080fd5b50565b6000813590506126658161263f565b92915050565b600060208284031215612681576126806124be565b5b600061268f84828501612656565b91505092915050565b600073ffffffffffffffffffffffffffffffffffffffff82169050919050565b60006126c382612698565b9050919050565b6126d3816126b8565b82525050565b60006020820190506126ee60008301846126ca565b92915050565b6126fd816126b8565b811461270857600080fd5b50565b60008135905061271a816126f4565b92915050565b60008060408385031215612737576127366124be565b5b60006127458582860161270b565b925050602061275685828601612656565b9150509250929050565b600080600060608486031215612779576127786124be565b5b60006127878682870161270b565b93505060206127988682870161270b565b92505060406127a986828701612656565b9150509250925092565b6000602082840312156127c9576127c86124be565b5b60006127d78482850161270b565b91505092915050565b6127e981612635565b82525050565b600060208201905061280460008301846127e0565b92915050565b600081519050919050565b600082825260208201905092915050565b6000819050602082019050919050565b61283f81612635565b82525050565b60006128518383612836565b60208301905092915050565b6000602082019050919050565b60006128758261280a565b61287f8185612815565b935061288a83612826565b8060005b838110156128bb5781516128a28882612845565b97506128ad8361285d565b92505060018101905061288e565b5085935050505092915050565b600060208201905081810360008301526128e2818461286a565b905092915050565b600080fd5b600080fd5b7f4e487b7100000000000000000000000000000000000000000000000000000000600052604160045260246000fd5b61292c826125c9565b810181811067ffffffffffffffff8211171561294b5761294a6128f4565b5b80604052505050565b600061295e6124b4565b905061296a8282612923565b919050565b600067ffffffffffffffff82111561298a576129896128f4565b5b612993826125c9565b9050602081019050919050565b82818337600083830152505050565b60006129c26129bd8461296f565b612954565b9050828152602081018484840111156129de576129dd6128ef565b5b6129e98482856129a0565b509392505050565b600082601f830112612a0657612a056128ea565b5b8135612a168482602086016129af565b91505092915050565b600080600060608486031215612a3857612a376124be565b5b600084013567ffffffffffffffff811115612a5657612a556124c3565b5b612a62868287016129f1565b9350506020612a7386828701612656565b9250506040612a8486828701612656565b9150509250925092565b612a978161254d565b8114612aa257600080fd5b50565b600081359050612ab481612a8e565b92915050565b60008060408385031215612ad157612ad06124be565b5b6000612adf8582860161270b565b9250506020612af085828601612aa5565b9150509250929050565b600067ffffffffffffffff821115612b1557612b146128f4565b5b612b1e826125c9565b9050602081019050919050565b6000612b3e612b3984612afa565b612954565b905082815260208101848484011115612b5a57612b596128ef565b5b612b658482856129a0565b509392505050565b600082601f830112612b8257612b816128ea565b5b8135612b92848260208601612b2b565b91505092915050565b60008060008060808587031215612bb557612bb46124be565b5b6000612bc38782880161270b565b9450506020612bd48782880161270b565b9350506040612be587828801612656565b925050606085013567ffffffffffffffff811115612c0657612c056124c3565b5b612c1287828801612b6d565b91505092959194509250565b60008060408385031215612c3557612c346124be565b5b6000612c438582860161270b565b9250506020612c548582860161270b565b9150509250929050565b7f4e487b7100000000000000000000000000000000000000000000000000000000600052602260045260246000fd5b60006002820490506001821680612ca557607f821691505b602082108103612cb857612cb7612c5e565b5b50919050565b7f4552433732313a20617070726f76616c20746f2063757272656e74206f776e6560008201527f7200000000000000000000000000000000000000000000000000000000000000602082015250565b6000612d1a60218361258e565b9150612d2582612cbe565b604082019050919050565b60006020820190508181036000830152612d4981612d0d565b9050919050565b7f4552433732313a20617070726f76652063616c6c6572206973206e6f7420746f60008201527f6b656e206f776e6572206f7220617070726f76656420666f7220616c6c000000602082015250565b6000612dac603d8361258e565b9150612db782612d50565b604082019050919050565b60006020820190508181036000830152612ddb81612d9f565b9050919050565b7f4552433732313a2063616c6c6572206973206e6f7420746f6b656e206f776e6560008201527f72206f7220617070726f76656400000000000000000000000000000000000000602082015250565b6000612e3e602d8361258e565b9150612e4982612de2565b604082019050919050565b60006020820190508181036000830152612e6d81612e31565b9050919050565b7f4f6e6c7920636f6e7472616374206f776e657273210000000000000000000000600082015250565b6000612eaa60158361258e565b9150612eb582612e74565b602082019050919050565b60006020820190508181036000830152612ed981612e9d565b9050919050565b7f4552433732314275726e61626c653a2063616c6c6572206973206e6f74206f7760008201527f6e6572206e6f7220617070726f76656400000000000000000000000000000000602082015250565b6000612f3c60308361258e565b9150612f4782612ee0565b604082019050919050565b60006020820190508181036000830152612f6b81612f2f565b9050919050565b7f4552433732313a20696e76616c696420746f6b656e2049440000000000000000600082015250565b6000612fa860188361258e565b9150612fb382612f72565b602082019050919050565b60006020820190508181036000830152612fd781612f9b565b9050919050565b7f4552433732313a2061646472657373207a65726f206973206e6f74206120766160008201527f6c6964206f776e65720000000000000000000000000000000000000000000000602082015250565b600061303a60298361258e565b915061304582612fde565b604082019050919050565b600060208201905081810360008301526130698161302d565b9050919050565b7f596f75206e65656420746f2062652077686974656c6973746564000000000000600082015250565b60006130a6601a8361258e565b91506130b182613070565b602082019050919050565b600060208201905081810360008301526130d581613099565b9050919050565b7f4e487b7100000000000000000000000000000000000000000000000000000000600052601160045260246000fd5b600061311682612635565b91507fffffffffffffffffffffffffffffffffffffffffffffffffffffffffffffffff8203613148576131476130dc565b5b600182019050919050565b600060408201905061316860008301856127e0565b61317560208301846126ca565b9392505050565b7f46726f6d2061646472657373206d75737420626520746f6b656e206f776e6572600082015250565b60006131b260208361258e565b91506131bd8261317c565b602082019050919050565b600060208201905081810360008301526131e1816131a5565b9050919050565b7f4552433732313a207472616e736665722066726f6d20696e636f72726563742060008201527f6f776e6572000000000000000000000000000000000000000000000000000000602082015250565b600061324460258361258e565b915061324f826131e8565b604082019050919050565b6000602082019050818103600083015261327381613237565b9050919050565b7f4552433732313a207472616e7366657220746f20746865207a65726f2061646460008201527f7265737300000000000000000000000000000000000000000000000000000000602082015250565b60006132d660248361258e565b91506132e18261327a565b604082019050919050565b60006020820190508181036000830152613305816132c9565b9050919050565b7f45524337323155524953746f726167653a2055524920736574206f66206e6f6e60008201527f6578697374656e7420746f6b656e000000000000000000000000000000000000602082015250565b6000613368602e8361258e565b91506133738261330c565b604082019050919050565b600060208201905081810360008301526133978161335b565b9050919050565b60008190508160005260206000209050919050565b60006020601f8301049050919050565b600082821b905092915050565b6000600883026134007fffffffffffffffffffffffffffffffffffffffffffffffffffffffffffffffff826133c3565b61340a86836133c3565b95508019841693508086168417925050509392505050565b6000819050919050565b600061344761344261343d84612635565b613422565b612635565b9050919050565b6000819050919050565b6134618361342c565b61347561346d8261344e565b8484546133d0565b825550505050565b600090565b61348a61347d565b613495818484613458565b505050565b5b818110156134b9576134ae600082613482565b60018101905061349b565b5050565b601f8211156134fe576134cf8161339e565b6134d8846133b3565b810160208510156134e7578190505b6134fb6134f3856133b3565b83018261349a565b50505b505050565b600082821c905092915050565b600061352160001984600802613503565b1980831691505092915050565b600061353a8383613510565b9150826002028217905092915050565b61355382612583565b67ffffffffffffffff81111561356c5761356b6128f4565b5b6135768254612c8d565b6135818282856134bd565b600060209050601f8311600181146135b457600084156135a2578287015190505b6135ac858261352e565b865550613614565b601f1984166135c28661339e565b60005b828110156135ea578489015182556001820191506020850194506020810190506135c5565b868310156136075784890151613603601f891682613510565b8355505b6001600288020188555050505b505050505050565b7f4552433732313a20617070726f766520746f2063616c6c657200000000000000600082015250565b600061365260198361258e565b915061365d8261361c565b602082019050919050565b6000602082019050818103600083015261368181613645565b9050919050565b7f4552433732313a207472616e7366657220746f206e6f6e20455243373231526560008201527f63656976657220696d706c656d656e7465720000000000000000000000000000602082015250565b60006136e460328361258e565b91506136ef82613688565b604082019050919050565b60006020820190508181036000830152613713816136d7565b9050919050565b600081905092915050565b600061373082612583565b61373a818561371a565b935061374a81856020860161259f565b80840191505092915050565b60006137628285613725565b915061376e8284613725565b91508190509392505050565b600061378582612635565b915061379083612635565b92508282039050818111156137a8576137a76130dc565b5b92915050565b60006137b982612635565b91506137c483612635565b92508282019050808211156137dc576137db6130dc565b5b92915050565b600081519050919050565b600082825260208201905092915050565b6000613809826137e2565b61381381856137ed565b935061382381856020860161259f565b61382c816125c9565b840191505092915050565b600060808201905061384c60008301876126ca565b61385960208301866126ca565b61386660408301856127e0565b818103606083015261387881846137fe565b905095945050505050565b600081519050613892816124f4565b92915050565b6000602082840312156138ae576138ad6124be565b5b60006138bc84828501613883565b91505092915050565b7f4552433732313a206d696e7420746f20746865207a65726f2061646472657373600082015250565b60006138fb60208361258e565b9150613906826138c5565b602082019050919050565b6000602082019050818103600083015261392a816138ee565b9050919050565b7f4552433732313a20746f6b656e20616c7265616479206d696e74656400000000600082015250565b6000613967601c8361258e565b915061397282613931565b602082019050919050565b600060208201905081810360008301526139968161395a565b9050919050565b7f4e487b7100000000000000000000000000000000000000000000000000000000600052601260045260246000fdfea264697066735822122075c2f01775f827cd928f38ff9c72aff1d6289e72aa8d5358e33d3584cfb68b5d64736f6c63430008110033",
  "linkReferences": {},
  "deployedLinkReferences": {}
}