{
  "_format": "hh-sol-artifact-1",
  "contractName": "TicketMarket",
  "sourceName": "contracts/TicketMarket.sol",
  "abi": [
    {
      "inputs": [],
      "stateMutability": "nonpayable",
      "type": "constructor"
    },
    {
      "anonymous": false,
      "inputs": [
        {
          "indexed": true,
          "internalType": "uint256",
          "name": "tokenID",
          "type": "uint256"
        },
        {
          "indexed": false,
          "internalType": "address",
          "name": "ticketOwner",
          "type": "address"
        },
        {
          "indexed": false,
          "internalType": "uint256",
          "name": "price",
          "type": "uint256"
        }
      ],
      "name": "MarketItemAfterSale",
      "type": "event"
    },
    {
      "anonymous": false,
      "inputs": [
        {
          "indexed": true,
          "internalType": "uint256",
          "name": "tokenID",
          "type": "uint256"
        },
        {
          "indexed": false,
          "internalType": "address",
          "name": "ticketOwner",
          "type": "address"
        },
        {
          "indexed": false,
          "internalType": "address",
          "name": "eventOwner",
          "type": "address"
        },
        {
          "indexed": false,
          "internalType": "address",
          "name": "seller",
          "type": "address"
        },
        {
          "indexed": false,
          "internalType": "uint256",
          "name": "price",
          "type": "uint256"
        },
        {
          "indexed": false,
          "internalType": "string",
          "name": "ticketType",
          "type": "string"
        },
        {
          "indexed": false,
          "internalType": "bool",
          "name": "sold",
          "type": "bool"
        },
        {
          "indexed": false,
          "internalType": "bool",
          "name": "soldBefore",
          "type": "bool"
        }
      ],
      "name": "MarketItemCreation",
      "type": "event"
    },
    {
      "anonymous": false,
      "inputs": [
        {
          "indexed": true,
          "internalType": "uint256",
          "name": "tokenID",
          "type": "uint256"
        },
        {
          "indexed": false,
          "internalType": "address",
          "name": "ticketOwner",
          "type": "address"
        },
        {
          "indexed": false,
          "internalType": "address",
          "name": "seller",
          "type": "address"
        },
        {
          "indexed": false,
          "internalType": "uint256",
          "name": "price",
          "type": "uint256"
        }
      ],
      "name": "MarketItemResell",
      "type": "event"
    },
    {
      "anonymous": false,
      "inputs": [
        {
          "indexed": true,
          "internalType": "uint256",
          "name": "tokenID",
          "type": "uint256"
        },
        {
          "indexed": false,
          "internalType": "address",
          "name": "seller",
          "type": "address"
        },
        {
          "indexed": false,
          "internalType": "uint256",
          "name": "price",
          "type": "uint256"
        }
      ],
      "name": "MarketItemStopSale",
      "type": "event"
    },
    {
      "inputs": [],
      "name": "ListEventOwnerItems",
      "outputs": [
        {
          "components": [
            {
              "internalType": "address",
              "name": "nftContract",
              "type": "address"
            },
            {
              "internalType": "uint256",
              "name": "tokenID",
              "type": "uint256"
            },
            {
              "internalType": "address payable",
              "name": "ticketOwner",
              "type": "address"
            },
            {
              "internalType": "address payable",
              "name": "eventOwner",
              "type": "address"
            },
            {
              "internalType": "address payable",
              "name": "seller",
              "type": "address"
            },
            {
              "internalType": "uint256",
              "name": "price",
              "type": "uint256"
            },
            {
              "internalType": "string",
              "name": "ticketType",
              "type": "string"
            },
            {
              "internalType": "bool",
              "name": "sold",
              "type": "bool"
            },
            {
              "internalType": "bool",
              "name": "soldBefore",
              "type": "bool"
            }
          ],
          "internalType": "struct TicketMarket.MarketItem[]",
          "name": "",
          "type": "tuple[]"
        }
      ],
      "stateMutability": "view",
      "type": "function"
    },
    {
      "inputs": [],
      "name": "ListEventOwnerItemsOnSale",
      "outputs": [
        {
          "components": [
            {
              "internalType": "address",
              "name": "nftContract",
              "type": "address"
            },
            {
              "internalType": "uint256",
              "name": "tokenID",
              "type": "uint256"
            },
            {
              "internalType": "address payable",
              "name": "ticketOwner",
              "type": "address"
            },
            {
              "internalType": "address payable",
              "name": "eventOwner",
              "type": "address"
            },
            {
              "internalType": "address payable",
              "name": "seller",
              "type": "address"
            },
            {
              "internalType": "uint256",
              "name": "price",
              "type": "uint256"
            },
            {
              "internalType": "string",
              "name": "ticketType",
              "type": "string"
            },
            {
              "internalType": "bool",
              "name": "sold",
              "type": "bool"
            },
            {
              "internalType": "bool",
              "name": "soldBefore",
              "type": "bool"
            }
          ],
          "internalType": "struct TicketMarket.MarketItem[]",
          "name": "",
          "type": "tuple[]"
        }
      ],
      "stateMutability": "view",
      "type": "function"
    },
    {
      "inputs": [],
      "name": "ListItemsOnSale",
      "outputs": [
        {
          "components": [
            {
              "internalType": "address",
              "name": "nftContract",
              "type": "address"
            },
            {
              "internalType": "uint256",
              "name": "tokenID",
              "type": "uint256"
            },
            {
              "internalType": "address payable",
              "name": "ticketOwner",
              "type": "address"
            },
            {
              "internalType": "address payable",
              "name": "eventOwner",
              "type": "address"
            },
            {
              "internalType": "address payable",
              "name": "seller",
              "type": "address"
            },
            {
              "internalType": "uint256",
              "name": "price",
              "type": "uint256"
            },
            {
              "internalType": "string",
              "name": "ticketType",
              "type": "string"
            },
            {
              "internalType": "bool",
              "name": "sold",
              "type": "bool"
            },
            {
              "internalType": "bool",
              "name": "soldBefore",
              "type": "bool"
            }
          ],
          "internalType": "struct TicketMarket.MarketItem[]",
          "name": "",
          "type": "tuple[]"
        }
      ],
      "stateMutability": "view",
      "type": "function"
    },
    {
      "inputs": [],
      "name": "ListMusicItemsOnSale",
      "outputs": [
        {
          "components": [
            {
              "internalType": "address",
              "name": "nftContract",
              "type": "address"
            },
            {
              "internalType": "uint256",
              "name": "tokenID",
              "type": "uint256"
            },
            {
              "internalType": "address payable",
              "name": "ticketOwner",
              "type": "address"
            },
            {
              "internalType": "address payable",
              "name": "eventOwner",
              "type": "address"
            },
            {
              "internalType": "address payable",
              "name": "seller",
              "type": "address"
            },
            {
              "internalType": "uint256",
              "name": "price",
              "type": "uint256"
            },
            {
              "internalType": "string",
              "name": "ticketType",
              "type": "string"
            },
            {
              "internalType": "bool",
              "name": "sold",
              "type": "bool"
            },
            {
              "internalType": "bool",
              "name": "soldBefore",
              "type": "bool"
            }
          ],
          "internalType": "struct TicketMarket.MarketItem[]",
          "name": "",
          "type": "tuple[]"
        }
      ],
      "stateMutability": "view",
      "type": "function"
    },
    {
      "inputs": [],
      "name": "ListOrganizationItemsOnSale",
      "outputs": [
        {
          "components": [
            {
              "internalType": "address",
              "name": "nftContract",
              "type": "address"
            },
            {
              "internalType": "uint256",
              "name": "tokenID",
              "type": "uint256"
            },
            {
              "internalType": "address payable",
              "name": "ticketOwner",
              "type": "address"
            },
            {
              "internalType": "address payable",
              "name": "eventOwner",
              "type": "address"
            },
            {
              "internalType": "address payable",
              "name": "seller",
              "type": "address"
            },
            {
              "internalType": "uint256",
              "name": "price",
              "type": "uint256"
            },
            {
              "internalType": "string",
              "name": "ticketType",
              "type": "string"
            },
            {
              "internalType": "bool",
              "name": "sold",
              "type": "bool"
            },
            {
              "internalType": "bool",
              "name": "soldBefore",
              "type": "bool"
            }
          ],
          "internalType": "struct TicketMarket.MarketItem[]",
          "name": "",
          "type": "tuple[]"
        }
      ],
      "stateMutability": "view",
      "type": "function"
    },
    {
      "inputs": [],
      "name": "ListOtherItemsOnSale",
      "outputs": [
        {
          "components": [
            {
              "internalType": "address",
              "name": "nftContract",
              "type": "address"
            },
            {
              "internalType": "uint256",
              "name": "tokenID",
              "type": "uint256"
            },
            {
              "internalType": "address payable",
              "name": "ticketOwner",
              "type": "address"
            },
            {
              "internalType": "address payable",
              "name": "eventOwner",
              "type": "address"
            },
            {
              "internalType": "address payable",
              "name": "seller",
              "type": "address"
            },
            {
              "internalType": "uint256",
              "name": "price",
              "type": "uint256"
            },
            {
              "internalType": "string",
              "name": "ticketType",
              "type": "string"
            },
            {
              "internalType": "bool",
              "name": "sold",
              "type": "bool"
            },
            {
              "internalType": "bool",
              "name": "soldBefore",
              "type": "bool"
            }
          ],
          "internalType": "struct TicketMarket.MarketItem[]",
          "name": "",
          "type": "tuple[]"
        }
      ],
      "stateMutability": "view",
      "type": "function"
    },
    {
      "inputs": [],
      "name": "ListPartyItemsOnSale",
      "outputs": [
        {
          "components": [
            {
              "internalType": "address",
              "name": "nftContract",
              "type": "address"
            },
            {
              "internalType": "uint256",
              "name": "tokenID",
              "type": "uint256"
            },
            {
              "internalType": "address payable",
              "name": "ticketOwner",
              "type": "address"
            },
            {
              "internalType": "address payable",
              "name": "eventOwner",
              "type": "address"
            },
            {
              "internalType": "address payable",
              "name": "seller",
              "type": "address"
            },
            {
              "internalType": "uint256",
              "name": "price",
              "type": "uint256"
            },
            {
              "internalType": "string",
              "name": "ticketType",
              "type": "string"
            },
            {
              "internalType": "bool",
              "name": "sold",
              "type": "bool"
            },
            {
              "internalType": "bool",
              "name": "soldBefore",
              "type": "bool"
            }
          ],
          "internalType": "struct TicketMarket.MarketItem[]",
          "name": "",
          "type": "tuple[]"
        }
      ],
      "stateMutability": "view",
      "type": "function"
    },
    {
      "inputs": [],
      "name": "ListSportItemsOnSale",
      "outputs": [
        {
          "components": [
            {
              "internalType": "address",
              "name": "nftContract",
              "type": "address"
            },
            {
              "internalType": "uint256",
              "name": "tokenID",
              "type": "uint256"
            },
            {
              "internalType": "address payable",
              "name": "ticketOwner",
              "type": "address"
            },
            {
              "internalType": "address payable",
              "name": "eventOwner",
              "type": "address"
            },
            {
              "internalType": "address payable",
              "name": "seller",
              "type": "address"
            },
            {
              "internalType": "uint256",
              "name": "price",
              "type": "uint256"
            },
            {
              "internalType": "string",
              "name": "ticketType",
              "type": "string"
            },
            {
              "internalType": "bool",
              "name": "sold",
              "type": "bool"
            },
            {
              "internalType": "bool",
              "name": "soldBefore",
              "type": "bool"
            }
          ],
          "internalType": "struct TicketMarket.MarketItem[]",
          "name": "",
          "type": "tuple[]"
        }
      ],
      "stateMutability": "view",
      "type": "function"
    },
    {
      "inputs": [],
      "name": "ListStageItemsOnSale",
      "outputs": [
        {
          "components": [
            {
              "internalType": "address",
              "name": "nftContract",
              "type": "address"
            },
            {
              "internalType": "uint256",
              "name": "tokenID",
              "type": "uint256"
            },
            {
              "internalType": "address payable",
              "name": "ticketOwner",
              "type": "address"
            },
            {
              "internalType": "address payable",
              "name": "eventOwner",
              "type": "address"
            },
            {
              "internalType": "address payable",
              "name": "seller",
              "type": "address"
            },
            {
              "internalType": "uint256",
              "name": "price",
              "type": "uint256"
            },
            {
              "internalType": "string",
              "name": "ticketType",
              "type": "string"
            },
            {
              "internalType": "bool",
              "name": "sold",
              "type": "bool"
            },
            {
              "internalType": "bool",
              "name": "soldBefore",
              "type": "bool"
            }
          ],
          "internalType": "struct TicketMarket.MarketItem[]",
          "name": "",
          "type": "tuple[]"
        }
      ],
      "stateMutability": "view",
      "type": "function"
    },
    {
      "inputs": [],
      "name": "ListUserOwnItems",
      "outputs": [
        {
          "components": [
            {
              "internalType": "address",
              "name": "nftContract",
              "type": "address"
            },
            {
              "internalType": "uint256",
              "name": "tokenID",
              "type": "uint256"
            },
            {
              "internalType": "address payable",
              "name": "ticketOwner",
              "type": "address"
            },
            {
              "internalType": "address payable",
              "name": "eventOwner",
              "type": "address"
            },
            {
              "internalType": "address payable",
              "name": "seller",
              "type": "address"
            },
            {
              "internalType": "uint256",
              "name": "price",
              "type": "uint256"
            },
            {
              "internalType": "string",
              "name": "ticketType",
              "type": "string"
            },
            {
              "internalType": "bool",
              "name": "sold",
              "type": "bool"
            },
            {
              "internalType": "bool",
              "name": "soldBefore",
              "type": "bool"
            }
          ],
          "internalType": "struct TicketMarket.MarketItem[]",
          "name": "",
          "type": "tuple[]"
        }
      ],
      "stateMutability": "view",
      "type": "function"
    },
    {
      "inputs": [],
      "name": "ListUserSaleItems",
      "outputs": [
        {
          "components": [
            {
              "internalType": "address",
              "name": "nftContract",
              "type": "address"
            },
            {
              "internalType": "uint256",
              "name": "tokenID",
              "type": "uint256"
            },
            {
              "internalType": "address payable",
              "name": "ticketOwner",
              "type": "address"
            },
            {
              "internalType": "address payable",
              "name": "eventOwner",
              "type": "address"
            },
            {
              "internalType": "address payable",
              "name": "seller",
              "type": "address"
            },
            {
              "internalType": "uint256",
              "name": "price",
              "type": "uint256"
            },
            {
              "internalType": "string",
              "name": "ticketType",
              "type": "string"
            },
            {
              "internalType": "bool",
              "name": "sold",
              "type": "bool"
            },
            {
              "internalType": "bool",
              "name": "soldBefore",
              "type": "bool"
            }
          ],
          "internalType": "struct TicketMarket.MarketItem[]",
          "name": "",
          "type": "tuple[]"
        }
      ],
      "stateMutability": "view",
      "type": "function"
    },
    {
      "inputs": [
        {
          "internalType": "address",
          "name": "user",
          "type": "address"
        }
      ],
      "name": "ListUsersAllItems",
      "outputs": [
        {
          "components": [
            {
              "internalType": "address",
              "name": "nftContract",
              "type": "address"
            },
            {
              "internalType": "uint256",
              "name": "tokenID",
              "type": "uint256"
            },
            {
              "internalType": "address payable",
              "name": "ticketOwner",
              "type": "address"
            },
            {
              "internalType": "address payable",
              "name": "eventOwner",
              "type": "address"
            },
            {
              "internalType": "address payable",
              "name": "seller",
              "type": "address"
            },
            {
              "internalType": "uint256",
              "name": "price",
              "type": "uint256"
            },
            {
              "internalType": "string",
              "name": "ticketType",
              "type": "string"
            },
            {
              "internalType": "bool",
              "name": "sold",
              "type": "bool"
            },
            {
              "internalType": "bool",
              "name": "soldBefore",
              "type": "bool"
            }
          ],
          "internalType": "struct TicketMarket.MarketItem[]",
          "name": "",
          "type": "tuple[]"
        }
      ],
      "stateMutability": "view",
      "type": "function"
    },
    {
      "inputs": [
        {
          "internalType": "uint256",
          "name": "tokenId",
          "type": "uint256"
        }
      ],
      "name": "NFTItem",
      "outputs": [
        {
          "components": [
            {
              "internalType": "address",
              "name": "nftContract",
              "type": "address"
            },
            {
              "internalType": "uint256",
              "name": "tokenID",
              "type": "uint256"
            },
            {
              "internalType": "address payable",
              "name": "ticketOwner",
              "type": "address"
            },
            {
              "internalType": "address payable",
              "name": "eventOwner",
              "type": "address"
            },
            {
              "internalType": "address payable",
              "name": "seller",
              "type": "address"
            },
            {
              "internalType": "uint256",
              "name": "price",
              "type": "uint256"
            },
            {
              "internalType": "string",
              "name": "ticketType",
              "type": "string"
            },
            {
              "internalType": "bool",
              "name": "sold",
              "type": "bool"
            },
            {
              "internalType": "bool",
              "name": "soldBefore",
              "type": "bool"
            }
          ],
          "internalType": "struct TicketMarket.MarketItem",
          "name": "",
          "type": "tuple"
        }
      ],
      "stateMutability": "view",
      "type": "function"
    },
    {
      "inputs": [
        {
          "internalType": "uint256",
          "name": "price",
          "type": "uint256"
        },
        {
          "internalType": "address",
          "name": "NftCont",
          "type": "address"
        },
        {
          "internalType": "uint256",
          "name": "tokenId",
          "type": "uint256"
        }
      ],
      "name": "ResellNFT",
      "outputs": [],
      "stateMutability": "payable",
      "type": "function"
    },
    {
      "inputs": [
        {
          "internalType": "uint256",
          "name": "price",
          "type": "uint256"
        },
        {
          "internalType": "address",
          "name": "NftCont",
          "type": "address"
        },
        {
          "internalType": "uint256",
          "name": "tokenId",
          "type": "uint256"
        }
      ],
      "name": "StopNFTSale",
      "outputs": [],
      "stateMutability": "payable",
      "type": "function"
    },
    {
      "inputs": [
        {
          "internalType": "uint256",
          "name": "price",
          "type": "uint256"
        },
        {
          "internalType": "address",
          "name": "NftCont",
          "type": "address"
        },
        {
          "internalType": "uint256",
          "name": "tokenId",
          "type": "uint256"
        },
        {
          "internalType": "string",
          "name": "ticketType",
          "type": "string"
        },
        {
          "internalType": "uint256",
          "name": "amount",
          "type": "uint256"
        }
      ],
      "name": "createMarketItem",
      "outputs": [],
      "stateMutability": "payable",
      "type": "function"
    },
    {
      "inputs": [
        {
          "internalType": "uint256",
          "name": "tokenId",
          "type": "uint256"
        }
      ],
      "name": "isSoldBefore",
      "outputs": [
        {
          "internalType": "bool",
          "name": "",
          "type": "bool"
        }
      ],
      "stateMutability": "view",
      "type": "function"
    },
    {
      "inputs": [
        {
          "internalType": "address",
          "name": "NftCont",
          "type": "address"
        },
        {
          "internalType": "uint256",
          "name": "tokenId",
          "type": "uint256"
        }
      ],
      "name": "ticketSale",
      "outputs": [],
      "stateMutability": "payable",
      "type": "function"
    }
  ],
  "bytecode": "0x608060405234801561001057600080fd5b50600160008190555033600360006101000a81548173ffffffffffffffffffffffffffffffffffffffff021916908373ffffffffffffffffffffffffffffffffffffffff1602179055506159a6806200006a6000396000f3fe6080604052600436106101095760003560e01c80635b9e432811610095578063a9a440c911610064578063a9a440c914610325578063b19d4e0814610350578063b666aa311461038d578063c4f228c1146103b8578063f945e8b5146103e357610109565b80635b9e43281461027657806366f74e20146102b35780638471075d146102de578063986d88e0146102fa57610109565b8063112b3584116100dc578063112b3584146101ae5780632e560c4d146101d95780632ffb12bb1461020457806341610859146102205780634b2115691461024b57610109565b80630611e1f01461010e57806308aaac951461012a5780630a29d949146101675780630bb8766d14610183575b600080fd5b61012860048036038101906101239190614904565b61040e565b005b34801561013657600080fd5b50610151600480360381019061014c919061499b565b6107c8565b60405161015e91906149e3565b60405180910390f35b610181600480360381019061017c91906149fe565b610825565b005b34801561018f57600080fd5b50610198610b76565b6040516101a59190614c92565b60405180910390f35b3480156101ba57600080fd5b506101c3610f75565b6040516101d09190614c92565b60405180910390f35b3480156101e557600080fd5b506101ee6113bb565b6040516101fb9190614c92565b60405180910390f35b61021e60048036038101906102199190614cb4565b6117ba565b005b34801561022c57600080fd5b50610235611a3b565b6040516102429190614c92565b60405180910390f35b34801561025757600080fd5b50610260611e3a565b60405161026d9190614c92565b60405180910390f35b34801561028257600080fd5b5061029d60048036038101906102989190614d07565b612280565b6040516102aa9190614c92565b60405180910390f35b3480156102bf57600080fd5b506102c86127ba565b6040516102d59190614c92565b60405180910390f35b6102f860048036038101906102f39190614cb4565b612bb9565b005b34801561030657600080fd5b5061030f612ece565b60405161031c9190614c92565b60405180910390f35b34801561033157600080fd5b5061033a613290565b6040516103479190614c92565b60405180910390f35b34801561035c57600080fd5b506103776004803603810190610372919061499b565b6136d6565b6040516103849190614df9565b60405180910390f35b34801561039957600080fd5b506103a2613951565b6040516103af9190614c92565b60405180910390f35b3480156103c457600080fd5b506103cd613d97565b6040516103da9190614c92565b60405180910390f35b3480156103ef57600080fd5b506103f8614196565b6040516104059190614c92565b60405180910390f35b610416614595565b60008511610459576040517f08c379a000000000000000000000000000000000000000000000000000000000815260040161045090614e78565b60405180910390fd5b60005b818110156107b85761046e60016145e4565b600061047a60016145fa565b90508060056000848861048d9190614ec7565b8152602001908152602001600020819055506040518061012001604052808773ffffffffffffffffffffffffffffffffffffffff16815260200183876104d39190614ec7565b81526020013073ffffffffffffffffffffffffffffffffffffffff1681526020013373ffffffffffffffffffffffffffffffffffffffff1681526020013373ffffffffffffffffffffffffffffffffffffffff168152602001888152602001858152602001600015158152602001600015158152506004600083815260200190815260200160002060008201518160000160006101000a81548173ffffffffffffffffffffffffffffffffffffffff021916908373ffffffffffffffffffffffffffffffffffffffff1602179055506020820151816001015560408201518160020160006101000a81548173ffffffffffffffffffffffffffffffffffffffff021916908373ffffffffffffffffffffffffffffffffffffffff16021790555060608201518160030160006101000a81548173ffffffffffffffffffffffffffffffffffffffff021916908373ffffffffffffffffffffffffffffffffffffffff16021790555060808201518160040160006101000a81548173ffffffffffffffffffffffffffffffffffffffff021916908373ffffffffffffffffffffffffffffffffffffffff16021790555060a0820151816005015560c08201518160060190816106a09190615107565b5060e08201518160070160006101000a81548160ff0219169083151502179055506101008201518160070160016101000a81548160ff0219169083151502179055509050508573ffffffffffffffffffffffffffffffffffffffff166323b872dd3330886040518463ffffffff1660e01b8152600401610722939291906151f7565b600060405180830381600087803b15801561073c57600080fd5b505af1158015610750573d6000803e3d6000fd5b5050505081856107609190614ec7565b7f5104fd747f6fb0bed6110f4d244ddb1e3d329aa803649e12ba3b174d0d95e3cf3033338b8960008060405161079c9796959493929190615267565b60405180910390a25080806107b0906152dd565b91505061045c565b506107c1614608565b5050505050565b60008060056000848152602001908152602001600020549050600115156004600083815260200190815260200160002060070160019054906101000a900460ff1615150361081a576001915050610820565b60009150505b919050565b61082d614595565b60006005600083815260200190815260200160002054905060006004600083815260200190815260200160002060050154905060006004600084815260200190815260200160002060010154905060006004600085815260200190815260200160002060040160009054906101000a900473ffffffffffffffffffffffffffffffffffffffff169050823410156108f9576040517f08c379a00000000000000000000000000000000000000000000000000000000081526004016108f090615371565b60405180910390fd5b600015156004600086815260200190815260200160002060070160009054906101000a900460ff16151514610963576040517f08c379a000000000000000000000000000000000000000000000000000000000815260040161095a906153dd565b60405180910390fd5b336004600086815260200190815260200160002060020160006101000a81548173ffffffffffffffffffffffffffffffffffffffff021916908373ffffffffffffffffffffffffffffffffffffffff16021790555060016004600086815260200190815260200160002060070160006101000a81548160ff02191690831515021790555060006004600086815260200190815260200160002060040160006101000a81548173ffffffffffffffffffffffffffffffffffffffff021916908373ffffffffffffffffffffffffffffffffffffffff16021790555060016004600086815260200190815260200160002060070160016101000a81548160ff021916908315150217905550610a7660026145e4565b8573ffffffffffffffffffffffffffffffffffffffff166323b872dd3033856040518463ffffffff1660e01b8152600401610ab3939291906151f7565b600060405180830381600087803b158015610acd57600080fd5b505af1158015610ae1573d6000803e3d6000fd5b505050508073ffffffffffffffffffffffffffffffffffffffff166108fc349081150290604051600060405180830381858888f19350505050158015610b2b573d6000803e3d6000fd5b50847f5352ac602b276106b740de31546b729325b98e18c87e86cde3dd97f9726a734b3385604051610b5e9291906153fd565b60405180910390a250505050610b72614608565b5050565b60606000610b8460016145fa565b90506000610b9260026145fa565b610b9c60016145fa565b610ba69190615426565b90506000808267ffffffffffffffff811115610bc557610bc46147d9565b5b604051908082528060200260200182016040528015610bfe57816020015b610beb61466e565b815260200190600190039081610be35790505b50905060005b84811015610f6a57604051602001610c1b906154b1565b6040516020818303038152906040528051906020012060046000600184610c429190614ec7565b8152602001908152602001600020600601604051602001610c639190615549565b60405160208183030381529060405280519060200120148015610cb957506000151560046000600184610c969190614ec7565b815260200190815260200160002060070160009054906101000a900460ff161515145b15610f57576000600182610ccd9190614ec7565b9050600060046000838152602001908152602001600020905080604051806101200160405290816000820160009054906101000a900473ffffffffffffffffffffffffffffffffffffffff1673ffffffffffffffffffffffffffffffffffffffff1673ffffffffffffffffffffffffffffffffffffffff168152602001600182015481526020016002820160009054906101000a900473ffffffffffffffffffffffffffffffffffffffff1673ffffffffffffffffffffffffffffffffffffffff1673ffffffffffffffffffffffffffffffffffffffff1681526020016003820160009054906101000a900473ffffffffffffffffffffffffffffffffffffffff1673ffffffffffffffffffffffffffffffffffffffff1673ffffffffffffffffffffffffffffffffffffffff1681526020016004820160009054906101000a900473ffffffffffffffffffffffffffffffffffffffff1673ffffffffffffffffffffffffffffffffffffffff1673ffffffffffffffffffffffffffffffffffffffff16815260200160058201548152602001600682018054610e6f90614f2a565b80601f0160208091040260200160405190810160405280929190818152602001828054610e9b90614f2a565b8015610ee85780601f10610ebd57610100808354040283529160200191610ee8565b820191906000526020600020905b815481529060010190602001808311610ecb57829003601f168201915b505050505081526020016007820160009054906101000a900460ff161515151581526020016007820160019054906101000a900460ff161515151581525050848681518110610f3a57610f39615560565b5b6020026020010181905250600185610f529190614ec7565b945050505b8080610f62906152dd565b915050610c04565b508094505050505090565b60606000610f8360016145fa565b905060008060005b8381101561102b573373ffffffffffffffffffffffffffffffffffffffff1660046000600184610fbb9190614ec7565b815260200190815260200160002060020160009054906101000a900473ffffffffffffffffffffffffffffffffffffffff1673ffffffffffffffffffffffffffffffffffffffff1603611018576001836110159190614ec7565b92505b8080611023906152dd565b915050610f8b565b5060008267ffffffffffffffff811115611048576110476147d9565b5b60405190808252806020026020018201604052801561108157816020015b61106e61466e565b8152602001906001900390816110665790505b50905060005b848110156113b0573373ffffffffffffffffffffffffffffffffffffffff16600460006001846110b79190614ec7565b815260200190815260200160002060020160009054906101000a900473ffffffffffffffffffffffffffffffffffffffff1673ffffffffffffffffffffffffffffffffffffffff160361139d5760006001826111139190614ec7565b9050600060046000838152602001908152602001600020905080604051806101200160405290816000820160009054906101000a900473ffffffffffffffffffffffffffffffffffffffff1673ffffffffffffffffffffffffffffffffffffffff1673ffffffffffffffffffffffffffffffffffffffff168152602001600182015481526020016002820160009054906101000a900473ffffffffffffffffffffffffffffffffffffffff1673ffffffffffffffffffffffffffffffffffffffff1673ffffffffffffffffffffffffffffffffffffffff1681526020016003820160009054906101000a900473ffffffffffffffffffffffffffffffffffffffff1673ffffffffffffffffffffffffffffffffffffffff1673ffffffffffffffffffffffffffffffffffffffff1681526020016004820160009054906101000a900473ffffffffffffffffffffffffffffffffffffffff1673ffffffffffffffffffffffffffffffffffffffff1673ffffffffffffffffffffffffffffffffffffffff168152602001600582015481526020016006820180546112b590614f2a565b80601f01602080910402602001604051908101604052809291908181526020018280546112e190614f2a565b801561132e5780601f106113035761010080835404028352916020019161132e565b820191906000526020600020905b81548152906001019060200180831161131157829003601f168201915b505050505081526020016007820160009054906101000a900460ff161515151581526020016007820160019054906101000a900460ff1615151515815250508486815181106113805761137f615560565b5b60200260200101819052506001856113989190614ec7565b945050505b80806113a8906152dd565b915050611087565b508094505050505090565b606060006113c960016145fa565b905060006113d760026145fa565b6113e160016145fa565b6113eb9190615426565b90506000808267ffffffffffffffff81111561140a576114096147d9565b5b60405190808252806020026020018201604052801561144357816020015b61143061466e565b8152602001906001900390816114285790505b50905060005b848110156117af57604051602001611460906155db565b60405160208183030381529060405280519060200120600460006001846114879190614ec7565b81526020019081526020016000206006016040516020016114a89190615549565b604051602081830303815290604052805190602001201480156114fe575060001515600460006001846114db9190614ec7565b815260200190815260200160002060070160009054906101000a900460ff161515145b1561179c5760006001826115129190614ec7565b9050600060046000838152602001908152602001600020905080604051806101200160405290816000820160009054906101000a900473ffffffffffffffffffffffffffffffffffffffff1673ffffffffffffffffffffffffffffffffffffffff1673ffffffffffffffffffffffffffffffffffffffff168152602001600182015481526020016002820160009054906101000a900473ffffffffffffffffffffffffffffffffffffffff1673ffffffffffffffffffffffffffffffffffffffff1673ffffffffffffffffffffffffffffffffffffffff1681526020016003820160009054906101000a900473ffffffffffffffffffffffffffffffffffffffff1673ffffffffffffffffffffffffffffffffffffffff1673ffffffffffffffffffffffffffffffffffffffff1681526020016004820160009054906101000a900473ffffffffffffffffffffffffffffffffffffffff1673ffffffffffffffffffffffffffffffffffffffff1673ffffffffffffffffffffffffffffffffffffffff168152602001600582015481526020016006820180546116b490614f2a565b80601f01602080910402602001604051908101604052809291908181526020018280546116e090614f2a565b801561172d5780601f106117025761010080835404028352916020019161172d565b820191906000526020600020905b81548152906001019060200180831161171057829003601f168201915b505050505081526020016007820160009054906101000a900460ff161515151581526020016007820160019054906101000a900460ff16151515158152505084868151811061177f5761177e615560565b5b60200260200101819052506001856117979190614ec7565b945050505b80806117a7906152dd565b915050611449565b508094505050505090565b6117c2614595565b6000600560008381526020019081526020016000205490503373ffffffffffffffffffffffffffffffffffffffff166004600083815260200190815260200160002060020160009054906101000a900473ffffffffffffffffffffffffffffffffffffffff1673ffffffffffffffffffffffffffffffffffffffff161461187e576040517f08c379a000000000000000000000000000000000000000000000000000000000815260040161187590615662565b60405180910390fd5b60008390508073ffffffffffffffffffffffffffffffffffffffff1663f5537ede3330866040518463ffffffff1660e01b81526004016118c0939291906151f7565b600060405180830381600087803b1580156118da57600080fd5b505af11580156118ee573d6000803e3d6000fd5b5050505060006004600084815260200190815260200160002060070160006101000a81548160ff021916908315150217905550846004600084815260200190815260200160002060050181905550336004600084815260200190815260200160002060040160006101000a81548173ffffffffffffffffffffffffffffffffffffffff021916908373ffffffffffffffffffffffffffffffffffffffff160217905550306004600084815260200190815260200160002060020160006101000a81548173ffffffffffffffffffffffffffffffffffffffff021916908373ffffffffffffffffffffffffffffffffffffffff1602179055506119f06002614612565b827f43fd502c2b3ccce9ab96e3398308b712eb7ff697a75a2afe87316bdf94af0efe303388604051611a24939291906151f7565b60405180910390a25050611a36614608565b505050565b60606000611a4960016145fa565b90506000611a5760026145fa565b611a6160016145fa565b611a6b9190615426565b90506000808267ffffffffffffffff811115611a8a57611a896147d9565b5b604051908082528060200260200182016040528015611ac357816020015b611ab061466e565b815260200190600190039081611aa85790505b50905060005b84811015611e2f57604051602001611ae0906156ce565b6040516020818303038152906040528051906020012060046000600184611b079190614ec7565b8152602001908152602001600020600601604051602001611b289190615549565b60405160208183030381529060405280519060200120148015611b7e57506000151560046000600184611b5b9190614ec7565b815260200190815260200160002060070160009054906101000a900460ff161515145b15611e1c576000600182611b929190614ec7565b9050600060046000838152602001908152602001600020905080604051806101200160405290816000820160009054906101000a900473ffffffffffffffffffffffffffffffffffffffff1673ffffffffffffffffffffffffffffffffffffffff1673ffffffffffffffffffffffffffffffffffffffff168152602001600182015481526020016002820160009054906101000a900473ffffffffffffffffffffffffffffffffffffffff1673ffffffffffffffffffffffffffffffffffffffff1673ffffffffffffffffffffffffffffffffffffffff1681526020016003820160009054906101000a900473ffffffffffffffffffffffffffffffffffffffff1673ffffffffffffffffffffffffffffffffffffffff1673ffffffffffffffffffffffffffffffffffffffff1681526020016004820160009054906101000a900473ffffffffffffffffffffffffffffffffffffffff1673ffffffffffffffffffffffffffffffffffffffff1673ffffffffffffffffffffffffffffffffffffffff16815260200160058201548152602001600682018054611d3490614f2a565b80601f0160208091040260200160405190810160405280929190818152602001828054611d6090614f2a565b8015611dad5780601f10611d8257610100808354040283529160200191611dad565b820191906000526020600020905b815481529060010190602001808311611d9057829003601f168201915b505050505081526020016007820160009054906101000a900460ff161515151581526020016007820160019054906101000a900460ff161515151581525050848681518110611dff57611dfe615560565b5b6020026020010181905250600185611e179190614ec7565b945050505b8080611e27906152dd565b915050611ac9565b508094505050505090565b60606000611e4860016145fa565b905060008060005b83811015611ef0573373ffffffffffffffffffffffffffffffffffffffff1660046000600184611e809190614ec7565b815260200190815260200160002060040160009054906101000a900473ffffffffffffffffffffffffffffffffffffffff1673ffffffffffffffffffffffffffffffffffffffff1603611edd57600183611eda9190614ec7565b92505b8080611ee8906152dd565b915050611e50565b5060008267ffffffffffffffff811115611f0d57611f0c6147d9565b5b604051908082528060200260200182016040528015611f4657816020015b611f3361466e565b815260200190600190039081611f2b5790505b50905060005b84811015612275573373ffffffffffffffffffffffffffffffffffffffff1660046000600184611f7c9190614ec7565b815260200190815260200160002060040160009054906101000a900473ffffffffffffffffffffffffffffffffffffffff1673ffffffffffffffffffffffffffffffffffffffff1603612262576000600182611fd89190614ec7565b9050600060046000838152602001908152602001600020905080604051806101200160405290816000820160009054906101000a900473ffffffffffffffffffffffffffffffffffffffff1673ffffffffffffffffffffffffffffffffffffffff1673ffffffffffffffffffffffffffffffffffffffff168152602001600182015481526020016002820160009054906101000a900473ffffffffffffffffffffffffffffffffffffffff1673ffffffffffffffffffffffffffffffffffffffff1673ffffffffffffffffffffffffffffffffffffffff1681526020016003820160009054906101000a900473ffffffffffffffffffffffffffffffffffffffff1673ffffffffffffffffffffffffffffffffffffffff1673ffffffffffffffffffffffffffffffffffffffff1681526020016004820160009054906101000a900473ffffffffffffffffffffffffffffffffffffffff1673ffffffffffffffffffffffffffffffffffffffff1673ffffffffffffffffffffffffffffffffffffffff1681526020016005820154815260200160068201805461217a90614f2a565b80601f01602080910402602001604051908101604052809291908181526020018280546121a690614f2a565b80156121f35780601f106121c8576101008083540402835291602001916121f3565b820191906000526020600020905b8154815290600101906020018083116121d657829003601f168201915b505050505081526020016007820160009054906101000a900460ff161515151581526020016007820160019054906101000a900460ff16151515158152505084868151811061224557612244615560565b5b602002602001018190525060018561225d9190614ec7565b945050505b808061226d906152dd565b915050611f4c565b508094505050505090565b6060600061228e60016145fa565b905060008060005b838110156123af578573ffffffffffffffffffffffffffffffffffffffff16600460006001846122c69190614ec7565b815260200190815260200160002060040160009054906101000a900473ffffffffffffffffffffffffffffffffffffffff1673ffffffffffffffffffffffffffffffffffffffff16148061238757508573ffffffffffffffffffffffffffffffffffffffff166004600060018461233d9190614ec7565b815260200190815260200160002060020160009054906101000a900473ffffffffffffffffffffffffffffffffffffffff1673ffffffffffffffffffffffffffffffffffffffff16145b1561239c576001836123999190614ec7565b92505b80806123a7906152dd565b915050612296565b5060008267ffffffffffffffff8111156123cc576123cb6147d9565b5b60405190808252806020026020018201604052801561240557816020015b6123f261466e565b8152602001906001900390816123ea5790505b50905060005b848110156127ad578673ffffffffffffffffffffffffffffffffffffffff166004600060018461243b9190614ec7565b815260200190815260200160002060040160009054906101000a900473ffffffffffffffffffffffffffffffffffffffff1673ffffffffffffffffffffffffffffffffffffffff1614806124fc57508673ffffffffffffffffffffffffffffffffffffffff16600460006001846124b29190614ec7565b815260200190815260200160002060020160009054906101000a900473ffffffffffffffffffffffffffffffffffffffff1673ffffffffffffffffffffffffffffffffffffffff16145b1561279a5760006001826125109190614ec7565b9050600060046000838152602001908152602001600020905080604051806101200160405290816000820160009054906101000a900473ffffffffffffffffffffffffffffffffffffffff1673ffffffffffffffffffffffffffffffffffffffff1673ffffffffffffffffffffffffffffffffffffffff168152602001600182015481526020016002820160009054906101000a900473ffffffffffffffffffffffffffffffffffffffff1673ffffffffffffffffffffffffffffffffffffffff1673ffffffffffffffffffffffffffffffffffffffff1681526020016003820160009054906101000a900473ffffffffffffffffffffffffffffffffffffffff1673ffffffffffffffffffffffffffffffffffffffff1673ffffffffffffffffffffffffffffffffffffffff1681526020016004820160009054906101000a900473ffffffffffffffffffffffffffffffffffffffff1673ffffffffffffffffffffffffffffffffffffffff1673ffffffffffffffffffffffffffffffffffffffff168152602001600582015481526020016006820180546126b290614f2a565b80601f01602080910402602001604051908101604052809291908181526020018280546126de90614f2a565b801561272b5780601f106127005761010080835404028352916020019161272b565b820191906000526020600020905b81548152906001019060200180831161270e57829003601f168201915b505050505081526020016007820160009054906101000a900460ff161515151581526020016007820160019054906101000a900460ff16151515158152505084868151811061277d5761277c615560565b5b60200260200101819052506001856127959190614ec7565b945050505b80806127a5906152dd565b91505061240b565b5080945050505050919050565b606060006127c860016145fa565b905060006127d660026145fa565b6127e060016145fa565b6127ea9190615426565b90506000808267ffffffffffffffff811115612809576128086147d9565b5b60405190808252806020026020018201604052801561284257816020015b61282f61466e565b8152602001906001900390816128275790505b50905060005b84811015612bae5760405160200161285f9061572f565b60405160208183030381529060405280519060200120600460006001846128869190614ec7565b81526020019081526020016000206006016040516020016128a79190615549565b604051602081830303815290604052805190602001201480156128fd575060001515600460006001846128da9190614ec7565b815260200190815260200160002060070160009054906101000a900460ff161515145b15612b9b5760006001826129119190614ec7565b9050600060046000838152602001908152602001600020905080604051806101200160405290816000820160009054906101000a900473ffffffffffffffffffffffffffffffffffffffff1673ffffffffffffffffffffffffffffffffffffffff1673ffffffffffffffffffffffffffffffffffffffff168152602001600182015481526020016002820160009054906101000a900473ffffffffffffffffffffffffffffffffffffffff1673ffffffffffffffffffffffffffffffffffffffff1673ffffffffffffffffffffffffffffffffffffffff1681526020016003820160009054906101000a900473ffffffffffffffffffffffffffffffffffffffff1673ffffffffffffffffffffffffffffffffffffffff1673ffffffffffffffffffffffffffffffffffffffff1681526020016004820160009054906101000a900473ffffffffffffffffffffffffffffffffffffffff1673ffffffffffffffffffffffffffffffffffffffff1673ffffffffffffffffffffffffffffffffffffffff16815260200160058201548152602001600682018054612ab390614f2a565b80601f0160208091040260200160405190810160405280929190818152602001828054612adf90614f2a565b8015612b2c5780601f10612b0157610100808354040283529160200191612b2c565b820191906000526020600020905b815481529060010190602001808311612b0f57829003601f168201915b505050505081526020016007820160009054906101000a900460ff161515151581526020016007820160019054906101000a900460ff161515151581525050848681518110612b7e57612b7d615560565b5b6020026020010181905250600185612b969190614ec7565b945050505b8080612ba6906152dd565b915050612848565b508094505050505090565b612bc1614595565b6000600560008381526020019081526020016000205490506004600082815260200190815260200160002060040160009054906101000a900473ffffffffffffffffffffffffffffffffffffffff1673ffffffffffffffffffffffffffffffffffffffff163373ffffffffffffffffffffffffffffffffffffffff161480612caa57506004600082815260200190815260200160002060030160009054906101000a900473ffffffffffffffffffffffffffffffffffffffff1673ffffffffffffffffffffffffffffffffffffffff163373ffffffffffffffffffffffffffffffffffffffff16145b612ce9576040517f08c379a0000000000000000000000000000000000000000000000000000000008152600401612ce0906157b6565b60405180910390fd5b60016004600083815260200190815260200160002060070160006101000a81548160ff02191690831515021790555083600460008381526020019081526020016000206005018190555060006004600083815260200190815260200160002060040160006101000a81548173ffffffffffffffffffffffffffffffffffffffff021916908373ffffffffffffffffffffffffffffffffffffffff160217905550336004600083815260200190815260200160002060020160006101000a81548173ffffffffffffffffffffffffffffffffffffffff021916908373ffffffffffffffffffffffffffffffffffffffff16021790555060016004600083815260200190815260200160002060070160016101000a81548160ff021916908315150217905550612e1760026145e4565b8273ffffffffffffffffffffffffffffffffffffffff166323b872dd3033856040518463ffffffff1660e01b8152600401612e54939291906151f7565b600060405180830381600087803b158015612e6e57600080fd5b505af1158015612e82573d6000803e3d6000fd5b50505050817fdbe18d9dd8643fa7e3222cffee0423f082934c039103e454dd8791854b442e913386604051612eb89291906153fd565b60405180910390a250612ec9614608565b505050565b60606000612edc60016145fa565b90506000612eea60026145fa565b612ef460016145fa565b612efe9190615426565b90506000808267ffffffffffffffff811115612f1d57612f1c6147d9565b5b604051908082528060200260200182016040528015612f5657816020015b612f4361466e565b815260200190600190039081612f3b5790505b50905060005b84811015613285573073ffffffffffffffffffffffffffffffffffffffff1660046000600184612f8c9190614ec7565b815260200190815260200160002060020160009054906101000a900473ffffffffffffffffffffffffffffffffffffffff1673ffffffffffffffffffffffffffffffffffffffff1603613272576000600182612fe89190614ec7565b9050600060046000838152602001908152602001600020905080604051806101200160405290816000820160009054906101000a900473ffffffffffffffffffffffffffffffffffffffff1673ffffffffffffffffffffffffffffffffffffffff1673ffffffffffffffffffffffffffffffffffffffff168152602001600182015481526020016002820160009054906101000a900473ffffffffffffffffffffffffffffffffffffffff1673ffffffffffffffffffffffffffffffffffffffff1673ffffffffffffffffffffffffffffffffffffffff1681526020016003820160009054906101000a900473ffffffffffffffffffffffffffffffffffffffff1673ffffffffffffffffffffffffffffffffffffffff1673ffffffffffffffffffffffffffffffffffffffff1681526020016004820160009054906101000a900473ffffffffffffffffffffffffffffffffffffffff1673ffffffffffffffffffffffffffffffffffffffff1673ffffffffffffffffffffffffffffffffffffffff1681526020016005820154815260200160068201805461318a90614f2a565b80601f01602080910402602001604051908101604052809291908181526020018280546131b690614f2a565b80156132035780601f106131d857610100808354040283529160200191613203565b820191906000526020600020905b8154815290600101906020018083116131e657829003601f168201915b505050505081526020016007820160009054906101000a900460ff161515151581526020016007820160019054906101000a900460ff16151515158152505084868151811061325557613254615560565b5b602002602001018190525060018561326d9190614ec7565b945050505b808061327d906152dd565b915050612f5c565b508094505050505090565b6060600061329e60016145fa565b905060008060005b83811015613346573373ffffffffffffffffffffffffffffffffffffffff16600460006001846132d69190614ec7565b815260200190815260200160002060040160009054906101000a900473ffffffffffffffffffffffffffffffffffffffff1673ffffffffffffffffffffffffffffffffffffffff1603613333576001836133309190614ec7565b92505b808061333e906152dd565b9150506132a6565b5060008267ffffffffffffffff811115613363576133626147d9565b5b60405190808252806020026020018201604052801561339c57816020015b61338961466e565b8152602001906001900390816133815790505b50905060005b848110156136cb573373ffffffffffffffffffffffffffffffffffffffff16600460006001846133d29190614ec7565b815260200190815260200160002060040160009054906101000a900473ffffffffffffffffffffffffffffffffffffffff1673ffffffffffffffffffffffffffffffffffffffff16036136b857600060018261342e9190614ec7565b9050600060046000838152602001908152602001600020905080604051806101200160405290816000820160009054906101000a900473ffffffffffffffffffffffffffffffffffffffff1673ffffffffffffffffffffffffffffffffffffffff1673ffffffffffffffffffffffffffffffffffffffff168152602001600182015481526020016002820160009054906101000a900473ffffffffffffffffffffffffffffffffffffffff1673ffffffffffffffffffffffffffffffffffffffff1673ffffffffffffffffffffffffffffffffffffffff1681526020016003820160009054906101000a900473ffffffffffffffffffffffffffffffffffffffff1673ffffffffffffffffffffffffffffffffffffffff1673ffffffffffffffffffffffffffffffffffffffff1681526020016004820160009054906101000a900473ffffffffffffffffffffffffffffffffffffffff1673ffffffffffffffffffffffffffffffffffffffff1673ffffffffffffffffffffffffffffffffffffffff168152602001600582015481526020016006820180546135d090614f2a565b80601f01602080910402602001604051908101604052809291908181526020018280546135fc90614f2a565b80156136495780601f1061361e57610100808354040283529160200191613649565b820191906000526020600020905b81548152906001019060200180831161362c57829003601f168201915b505050505081526020016007820160009054906101000a900460ff161515151581526020016007820160019054906101000a900460ff16151515158152505084868151811061369b5761369a615560565b5b60200260200101819052506001856136b39190614ec7565b945050505b80806136c3906152dd565b9150506133a2565b508094505050505090565b6136de61466e565b60006005600084815260200190815260200160002054905060046000828152602001908152602001600020604051806101200160405290816000820160009054906101000a900473ffffffffffffffffffffffffffffffffffffffff1673ffffffffffffffffffffffffffffffffffffffff1673ffffffffffffffffffffffffffffffffffffffff168152602001600182015481526020016002820160009054906101000a900473ffffffffffffffffffffffffffffffffffffffff1673ffffffffffffffffffffffffffffffffffffffff1673ffffffffffffffffffffffffffffffffffffffff1681526020016003820160009054906101000a900473ffffffffffffffffffffffffffffffffffffffff1673ffffffffffffffffffffffffffffffffffffffff1673ffffffffffffffffffffffffffffffffffffffff1681526020016004820160009054906101000a900473ffffffffffffffffffffffffffffffffffffffff1673ffffffffffffffffffffffffffffffffffffffff1673ffffffffffffffffffffffffffffffffffffffff1681526020016005820154815260200160068201805461389190614f2a565b80601f01602080910402602001604051908101604052809291908181526020018280546138bd90614f2a565b801561390a5780601f106138df5761010080835404028352916020019161390a565b820191906000526020600020905b8154815290600101906020018083116138ed57829003601f168201915b505050505081526020016007820160009054906101000a900460ff161515151581526020016007820160019054906101000a900460ff161515151581525050915050919050565b6060600061395f60016145fa565b905060008060005b83811015613a07573373ffffffffffffffffffffffffffffffffffffffff16600460006001846139979190614ec7565b815260200190815260200160002060030160009054906101000a900473ffffffffffffffffffffffffffffffffffffffff1673ffffffffffffffffffffffffffffffffffffffff16036139f4576001836139f19190614ec7565b92505b80806139ff906152dd565b915050613967565b5060008267ffffffffffffffff811115613a2457613a236147d9565b5b604051908082528060200260200182016040528015613a5d57816020015b613a4a61466e565b815260200190600190039081613a425790505b50905060005b84811015613d8c573373ffffffffffffffffffffffffffffffffffffffff1660046000600184613a939190614ec7565b815260200190815260200160002060030160009054906101000a900473ffffffffffffffffffffffffffffffffffffffff1673ffffffffffffffffffffffffffffffffffffffff1603613d79576000600182613aef9190614ec7565b9050600060046000838152602001908152602001600020905080604051806101200160405290816000820160009054906101000a900473ffffffffffffffffffffffffffffffffffffffff1673ffffffffffffffffffffffffffffffffffffffff1673ffffffffffffffffffffffffffffffffffffffff168152602001600182015481526020016002820160009054906101000a900473ffffffffffffffffffffffffffffffffffffffff1673ffffffffffffffffffffffffffffffffffffffff1673ffffffffffffffffffffffffffffffffffffffff1681526020016003820160009054906101000a900473ffffffffffffffffffffffffffffffffffffffff1673ffffffffffffffffffffffffffffffffffffffff1673ffffffffffffffffffffffffffffffffffffffff1681526020016004820160009054906101000a900473ffffffffffffffffffffffffffffffffffffffff1673ffffffffffffffffffffffffffffffffffffffff1673ffffffffffffffffffffffffffffffffffffffff16815260200160058201548152602001600682018054613c9190614f2a565b80601f0160208091040260200160405190810160405280929190818152602001828054613cbd90614f2a565b8015613d0a5780601f10613cdf57610100808354040283529160200191613d0a565b820191906000526020600020905b815481529060010190602001808311613ced57829003601f168201915b505050505081526020016007820160009054906101000a900460ff161515151581526020016007820160019054906101000a900460ff161515151581525050848681518110613d5c57613d5b615560565b5b6020026020010181905250600185613d749190614ec7565b945050505b8080613d84906152dd565b915050613a63565b508094505050505090565b60606000613da560016145fa565b90506000613db360026145fa565b613dbd60016145fa565b613dc79190615426565b90506000808267ffffffffffffffff811115613de657613de56147d9565b5b604051908082528060200260200182016040528015613e1f57816020015b613e0c61466e565b815260200190600190039081613e045790505b50905060005b8481101561418b57604051602001613e3c90615822565b6040516020818303038152906040528051906020012060046000600184613e639190614ec7565b8152602001908152602001600020600601604051602001613e849190615549565b60405160208183030381529060405280519060200120148015613eda57506000151560046000600184613eb79190614ec7565b815260200190815260200160002060070160009054906101000a900460ff161515145b15614178576000600182613eee9190614ec7565b9050600060046000838152602001908152602001600020905080604051806101200160405290816000820160009054906101000a900473ffffffffffffffffffffffffffffffffffffffff1673ffffffffffffffffffffffffffffffffffffffff1673ffffffffffffffffffffffffffffffffffffffff168152602001600182015481526020016002820160009054906101000a900473ffffffffffffffffffffffffffffffffffffffff1673ffffffffffffffffffffffffffffffffffffffff1673ffffffffffffffffffffffffffffffffffffffff1681526020016003820160009054906101000a900473ffffffffffffffffffffffffffffffffffffffff1673ffffffffffffffffffffffffffffffffffffffff1673ffffffffffffffffffffffffffffffffffffffff1681526020016004820160009054906101000a900473ffffffffffffffffffffffffffffffffffffffff1673ffffffffffffffffffffffffffffffffffffffff1673ffffffffffffffffffffffffffffffffffffffff1681526020016005820154815260200160068201805461409090614f2a565b80601f01602080910402602001604051908101604052809291908181526020018280546140bc90614f2a565b80156141095780601f106140de57610100808354040283529160200191614109565b820191906000526020600020905b8154815290600101906020018083116140ec57829003601f168201915b505050505081526020016007820160009054906101000a900460ff161515151581526020016007820160019054906101000a900460ff16151515158152505084868151811061415b5761415a615560565b5b60200260200101819052506001856141739190614ec7565b945050505b8080614183906152dd565b915050613e25565b508094505050505090565b606060006141a460016145fa565b905060006141b260026145fa565b6141bc60016145fa565b6141c69190615426565b90506000808267ffffffffffffffff8111156141e5576141e46147d9565b5b60405190808252806020026020018201604052801561421e57816020015b61420b61466e565b8152602001906001900390816142035790505b50905060005b8481101561458a5760405160200161423b90615883565b60405160208183030381529060405280519060200120600460006001846142629190614ec7565b81526020019081526020016000206006016040516020016142839190615549565b604051602081830303815290604052805190602001201480156142d9575060001515600460006001846142b69190614ec7565b815260200190815260200160002060070160009054906101000a900460ff161515145b156145775760006001826142ed9190614ec7565b9050600060046000838152602001908152602001600020905080604051806101200160405290816000820160009054906101000a900473ffffffffffffffffffffffffffffffffffffffff1673ffffffffffffffffffffffffffffffffffffffff1673ffffffffffffffffffffffffffffffffffffffff168152602001600182015481526020016002820160009054906101000a900473ffffffffffffffffffffffffffffffffffffffff1673ffffffffffffffffffffffffffffffffffffffff1673ffffffffffffffffffffffffffffffffffffffff1681526020016003820160009054906101000a900473ffffffffffffffffffffffffffffffffffffffff1673ffffffffffffffffffffffffffffffffffffffff1673ffffffffffffffffffffffffffffffffffffffff1681526020016004820160009054906101000a900473ffffffffffffffffffffffffffffffffffffffff1673ffffffffffffffffffffffffffffffffffffffff1673ffffffffffffffffffffffffffffffffffffffff1681526020016005820154815260200160068201805461448f90614f2a565b80601f01602080910402602001604051908101604052809291908181526020018280546144bb90614f2a565b80156145085780601f106144dd57610100808354040283529160200191614508565b820191906000526020600020905b8154815290600101906020018083116144eb57829003601f168201915b505050505081526020016007820160009054906101000a900460ff161515151581526020016007820160019054906101000a900460ff16151515158152505084868151811061455a57614559615560565b5b60200260200101819052506001856145729190614ec7565b945050505b8080614582906152dd565b915050614224565b508094505050505090565b6002600054036145da576040517f08c379a00000000000000000000000000000000000000000000000000000000081526004016145d1906158e4565b60405180910390fd5b6002600081905550565b6001816000016000828254019250508190555050565b600081600001549050919050565b6001600081905550565b6000816000015490506000811161465e576040517f08c379a000000000000000000000000000000000000000000000000000000000815260040161465590615950565b60405180910390fd5b6001810382600001819055505050565b604051806101200160405280600073ffffffffffffffffffffffffffffffffffffffff16815260200160008152602001600073ffffffffffffffffffffffffffffffffffffffff168152602001600073ffffffffffffffffffffffffffffffffffffffff168152602001600073ffffffffffffffffffffffffffffffffffffffff16815260200160008152602001606081526020016000151581526020016000151581525090565b6000604051905090565b600080fd5b600080fd5b6000819050919050565b61473d8161472a565b811461474857600080fd5b50565b60008135905061475a81614734565b92915050565b600073ffffffffffffffffffffffffffffffffffffffff82169050919050565b600061478b82614760565b9050919050565b61479b81614780565b81146147a657600080fd5b50565b6000813590506147b881614792565b92915050565b600080fd5b600080fd5b6000601f19601f8301169050919050565b7f4e487b7100000000000000000000000000000000000000000000000000000000600052604160045260246000fd5b614811826147c8565b810181811067ffffffffffffffff821117156148305761482f6147d9565b5b80604052505050565b6000614843614716565b905061484f8282614808565b919050565b600067ffffffffffffffff82111561486f5761486e6147d9565b5b614878826147c8565b9050602081019050919050565b82818337600083830152505050565b60006148a76148a284614854565b614839565b9050828152602081018484840111156148c3576148c26147c3565b5b6148ce848285614885565b509392505050565b600082601f8301126148eb576148ea6147be565b5b81356148fb848260208601614894565b91505092915050565b600080600080600060a086880312156149205761491f614720565b5b600061492e8882890161474b565b955050602061493f888289016147a9565b94505060406149508882890161474b565b935050606086013567ffffffffffffffff81111561497157614970614725565b5b61497d888289016148d6565b925050608061498e8882890161474b565b9150509295509295909350565b6000602082840312156149b1576149b0614720565b5b60006149bf8482850161474b565b91505092915050565b60008115159050919050565b6149dd816149c8565b82525050565b60006020820190506149f860008301846149d4565b92915050565b60008060408385031215614a1557614a14614720565b5b6000614a23858286016147a9565b9250506020614a348582860161474b565b9150509250929050565b600081519050919050565b600082825260208201905092915050565b6000819050602082019050919050565b614a7381614780565b82525050565b614a828161472a565b82525050565b6000614a9382614760565b9050919050565b614aa381614a88565b82525050565b600081519050919050565b600082825260208201905092915050565b60005b83811015614ae3578082015181840152602081019050614ac8565b60008484015250505050565b6000614afa82614aa9565b614b048185614ab4565b9350614b14818560208601614ac5565b614b1d816147c8565b840191505092915050565b614b31816149c8565b82525050565b600061012083016000830151614b506000860182614a6a565b506020830151614b636020860182614a79565b506040830151614b766040860182614a9a565b506060830151614b896060860182614a9a565b506080830151614b9c6080860182614a9a565b5060a0830151614baf60a0860182614a79565b5060c083015184820360c0860152614bc78282614aef565b91505060e0830151614bdc60e0860182614b28565b50610100830151614bf1610100860182614b28565b508091505092915050565b6000614c088383614b37565b905092915050565b6000602082019050919050565b6000614c2882614a3e565b614c328185614a49565b935083602082028501614c4485614a5a565b8060005b85811015614c805784840389528151614c618582614bfc565b9450614c6c83614c10565b925060208a01995050600181019050614c48565b50829750879550505050505092915050565b60006020820190508181036000830152614cac8184614c1d565b905092915050565b600080600060608486031215614ccd57614ccc614720565b5b6000614cdb8682870161474b565b9350506020614cec868287016147a9565b9250506040614cfd8682870161474b565b9150509250925092565b600060208284031215614d1d57614d1c614720565b5b6000614d2b848285016147a9565b91505092915050565b600061012083016000830151614d4d6000860182614a6a565b506020830151614d606020860182614a79565b506040830151614d736040860182614a9a565b506060830151614d866060860182614a9a565b506080830151614d996080860182614a9a565b5060a0830151614dac60a0860182614a79565b5060c083015184820360c0860152614dc48282614aef565b91505060e0830151614dd960e0860182614b28565b50610100830151614dee610100860182614b28565b508091505092915050565b60006020820190508181036000830152614e138184614d34565b905092915050565b600082825260208201905092915050565b7f546f6f206c6f7700000000000000000000000000000000000000000000000000600082015250565b6000614e62600783614e1b565b9150614e6d82614e2c565b602082019050919050565b60006020820190508181036000830152614e9181614e55565b9050919050565b7f4e487b7100000000000000000000000000000000000000000000000000000000600052601160045260246000fd5b6000614ed28261472a565b9150614edd8361472a565b9250828201905080821115614ef557614ef4614e98565b5b92915050565b7f4e487b7100000000000000000000000000000000000000000000000000000000600052602260045260246000fd5b60006002820490506001821680614f4257607f821691505b602082108103614f5557614f54614efb565b5b50919050565b60008190508160005260206000209050919050565b60006020601f8301049050919050565b600082821b905092915050565b600060088302614fbd7fffffffffffffffffffffffffffffffffffffffffffffffffffffffffffffffff82614f80565b614fc78683614f80565b95508019841693508086168417925050509392505050565b6000819050919050565b6000615004614fff614ffa8461472a565b614fdf565b61472a565b9050919050565b6000819050919050565b61501e83614fe9565b61503261502a8261500b565b848454614f8d565b825550505050565b600090565b61504761503a565b615052818484615015565b505050565b5b818110156150765761506b60008261503f565b600181019050615058565b5050565b601f8211156150bb5761508c81614f5b565b61509584614f70565b810160208510156150a4578190505b6150b86150b085614f70565b830182615057565b50505b505050565b600082821c905092915050565b60006150de600019846008026150c0565b1980831691505092915050565b60006150f783836150cd565b9150826002028217905092915050565b61511082614aa9565b67ffffffffffffffff811115615129576151286147d9565b5b6151338254614f2a565b61513e82828561507a565b600060209050601f831160018114615171576000841561515f578287015190505b61516985826150eb565b8655506151d1565b601f19841661517f86614f5b565b60005b828110156151a757848901518255600182019150602085019450602081019050615182565b868310156151c457848901516151c0601f8916826150cd565b8355505b6001600288020188555050505b505050505050565b6151e281614780565b82525050565b6151f18161472a565b82525050565b600060608201905061520c60008301866151d9565b61521960208301856151d9565b61522660408301846151e8565b949350505050565b600061523982614aa9565b6152438185614e1b565b9350615253818560208601614ac5565b61525c816147c8565b840191505092915050565b600060e08201905061527c600083018a6151d9565b61528960208301896151d9565b61529660408301886151d9565b6152a360608301876151e8565b81810360808301526152b5818661522e565b90506152c460a08301856149d4565b6152d160c08301846149d4565b98975050505050505050565b60006152e88261472a565b91507fffffffffffffffffffffffffffffffffffffffffffffffffffffffffffffffff820361531a57615319614e98565b5b600182019050919050565b7f506c6561736520706179207468652061736b696e672070726963650000000000600082015250565b600061535b601b83614e1b565b915061536682615325565b602082019050919050565b6000602082019050818103600083015261538a8161534e565b9050919050565b7f4974656d20686173206265656e20616c726561647920736f6c64000000000000600082015250565b60006153c7601a83614e1b565b91506153d282615391565b602082019050919050565b600060208201905081810360008301526153f6816153ba565b9050919050565b600060408201905061541260008301856151d9565b61541f60208301846151e8565b9392505050565b60006154318261472a565b915061543c8361472a565b925082820390508181111561545457615453614e98565b5b92915050565b600081905092915050565b7f4d55534943000000000000000000000000000000000000000000000000000000600082015250565b600061549b60058361545a565b91506154a682615465565b600582019050919050565b60006154bc8261548e565b9150819050919050565b600081546154d381614f2a565b6154dd818661545a565b945060018216600081146154f8576001811461550d57615540565b60ff1983168652811515820286019350615540565b61551685614f5b565b60005b8381101561553857815481890152600182019150602081019050615519565b838801955050505b50505092915050565b600061555582846154c6565b915081905092915050565b7f4e487b7100000000000000000000000000000000000000000000000000000000600052603260045260246000fd5b7f4f54484552000000000000000000000000000000000000000000000000000000600082015250565b60006155c560058361545a565b91506155d08261558f565b600582019050919050565b60006155e6826155b8565b9150819050919050565b7f4f6e6c79207469636b6574206f776e65722063616e20706572666f726d20746860008201527f6973206f7065726174696f6e0000000000000000000000000000000000000000602082015250565b600061564c602c83614e1b565b9150615657826155f0565b604082019050919050565b6000602082019050818103600083015261567b8161563f565b9050919050565b7f53504f5254000000000000000000000000000000000000000000000000000000600082015250565b60006156b860058361545a565b91506156c382615682565b600582019050919050565b60006156d9826156ab565b9150819050919050565b7f5354414745000000000000000000000000000000000000000000000000000000600082015250565b600061571960058361545a565b9150615724826156e3565b600582019050919050565b600061573a8261570c565b9150819050919050565b7f4f6e6c79206576656e74206f776e6572206f722073656c6c65722063616e207060008201527f6572666f726d2074686973000000000000000000000000000000000000000000602082015250565b60006157a0602b83614e1b565b91506157ab82615744565b604082019050919050565b600060208201905081810360008301526157cf81615793565b9050919050565b7f4f5247414e495a4154494f4e0000000000000000000000000000000000000000600082015250565b600061580c600c8361545a565b9150615817826157d6565b600c82019050919050565b600061582d826157ff565b9150819050919050565b7f5041525459000000000000000000000000000000000000000000000000000000600082015250565b600061586d60058361545a565b915061587882615837565b600582019050919050565b600061588e82615860565b9150819050919050565b7f5265656e7472616e637947756172643a207265656e7472616e742063616c6c00600082015250565b60006158ce601f83614e1b565b91506158d982615898565b602082019050919050565b600060208201905081810360008301526158fd816158c1565b9050919050565b7f436f756e7465723a2064656372656d656e74206f766572666c6f770000000000600082015250565b600061593a601b83614e1b565b915061594582615904565b602082019050919050565b600060208201905081810360008301526159698161592d565b905091905056fea2646970667358221220bd7820eba2b4423e11064346be74599121e42f819e0e2f246730cacb07eccc4e64736f6c63430008110033",
  "linkReferences": {},
  "deployedLinkReferences": {}
}