{
  "_format": "hh-sol-artifact-1",
  "contractName": "TicketMint",
  "sourceName": "contracts/TicketMint.sol",
  "abi": [
    {
      "inputs": [
        {
          "internalType": "address",
          "name": "marketAddress",
          "type": "address"
        }
      ],
      "stateMutability": "nonpayable",
      "type": "constructor"
    },
    {
      "anonymous": false,
      "inputs": [
        {
          "indexed": true,
          "internalType": "address",
          "name": "owner",
          "type": "address"
        },
        {
          "indexed": true,
          "internalType": "address",
          "name": "approved",
          "type": "address"
        },
        {
          "indexed": true,
          "internalType": "uint256",
          "name": "tokenId",
          "type": "uint256"
        }
      ],
      "name": "Approval",
      "type": "event"
    },
    {
      "anonymous": false,
      "inputs": [
        {
          "indexed": true,
          "internalType": "address",
          "name": "owner",
          "type": "address"
        },
        {
          "indexed": true,
          "internalType": "address",
          "name": "operator",
          "type": "address"
        },
        {
          "indexed": false,
          "internalType": "bool",
          "name": "approved",
          "type": "bool"
        }
      ],
      "name": "ApprovalForAll",
      "type": "event"
    },
    {
      "anonymous": false,
      "inputs": [
        {
          "indexed": true,
          "internalType": "address",
          "name": "from",
          "type": "address"
        },
        {
          "indexed": true,
          "internalType": "address",
          "name": "to",
          "type": "address"
        },
        {
          "indexed": true,
          "internalType": "uint256",
          "name": "tokenId",
          "type": "uint256"
        }
      ],
      "name": "Transfer",
      "type": "event"
    },
    {
      "inputs": [
        {
          "internalType": "address",
          "name": "to",
          "type": "address"
        },
        {
          "internalType": "uint256",
          "name": "tokenId",
          "type": "uint256"
        }
      ],
      "name": "approve",
      "outputs": [],
      "stateMutability": "nonpayable",
      "type": "function"
    },
    {
      "inputs": [
        {
          "internalType": "address",
          "name": "owner",
          "type": "address"
        }
      ],
      "name": "balanceOf",
      "outputs": [
        {
          "internalType": "uint256",
          "name": "",
          "type": "uint256"
        }
      ],
      "stateMutability": "view",
      "type": "function"
    },
    {
      "inputs": [
        {
          "internalType": "uint256",
          "name": "tokenId",
          "type": "uint256"
        }
      ],
      "name": "burn",
      "outputs": [],
      "stateMutability": "nonpayable",
      "type": "function"
    },
    {
      "inputs": [
        {
          "internalType": "uint256",
          "name": "tokenId",
          "type": "uint256"
        }
      ],
      "name": "burnNFT",
      "outputs": [],
      "stateMutability": "nonpayable",
      "type": "function"
    },
    {
      "inputs": [
        {
          "internalType": "uint256",
          "name": "tokenId",
          "type": "uint256"
        }
      ],
      "name": "getApproved",
      "outputs": [
        {
          "internalType": "address",
          "name": "",
          "type": "address"
        }
      ],
      "stateMutability": "view",
      "type": "function"
    },
    {
      "inputs": [
        {
          "internalType": "address",
          "name": "owner",
          "type": "address"
        },
        {
          "internalType": "address",
          "name": "operator",
          "type": "address"
        }
      ],
      "name": "isApprovedForAll",
      "outputs": [
        {
          "internalType": "bool",
          "name": "",
          "type": "bool"
        }
      ],
      "stateMutability": "view",
      "type": "function"
    },
    {
      "inputs": [
        {
          "internalType": "string",
          "name": "tokenUri",
          "type": "string"
        },
        {
          "internalType": "uint256",
          "name": "supply",
          "type": "uint256"
        }
      ],
      "name": "mintNFT",
      "outputs": [
        {
          "internalType": "uint256",
          "name": "",
          "type": "uint256"
        }
      ],
      "stateMutability": "nonpayable",
      "type": "function"
    },
    {
      "inputs": [],
      "name": "name",
      "outputs": [
        {
          "internalType": "string",
          "name": "",
          "type": "string"
        }
      ],
      "stateMutability": "view",
      "type": "function"
    },
    {
      "inputs": [
        {
          "internalType": "uint256",
          "name": "tokenId",
          "type": "uint256"
        }
      ],
      "name": "ownerOf",
      "outputs": [
        {
          "internalType": "address",
          "name": "",
          "type": "address"
        }
      ],
      "stateMutability": "view",
      "type": "function"
    },
    {
      "inputs": [
        {
          "internalType": "address",
          "name": "from",
          "type": "address"
        },
        {
          "internalType": "address",
          "name": "to",
          "type": "address"
        },
        {
          "internalType": "uint256",
          "name": "tokenId",
          "type": "uint256"
        }
      ],
      "name": "safeTransferFrom",
      "outputs": [],
      "stateMutability": "nonpayable",
      "type": "function"
    },
    {
      "inputs": [
        {
          "internalType": "address",
          "name": "from",
          "type": "address"
        },
        {
          "internalType": "address",
          "name": "to",
          "type": "address"
        },
        {
          "internalType": "uint256",
          "name": "tokenId",
          "type": "uint256"
        },
        {
          "internalType": "bytes",
          "name": "data",
          "type": "bytes"
        }
      ],
      "name": "safeTransferFrom",
      "outputs": [],
      "stateMutability": "nonpayable",
      "type": "function"
    },
    {
      "inputs": [
        {
          "internalType": "address",
          "name": "operator",
          "type": "address"
        },
        {
          "internalType": "bool",
          "name": "approved",
          "type": "bool"
        }
      ],
      "name": "setApprovalForAll",
      "outputs": [],
      "stateMutability": "nonpayable",
      "type": "function"
    },
    {
      "inputs": [
        {
          "internalType": "bytes4",
          "name": "interfaceId",
          "type": "bytes4"
        }
      ],
      "name": "supportsInterface",
      "outputs": [
        {
          "internalType": "bool",
          "name": "",
          "type": "bool"
        }
      ],
      "stateMutability": "view",
      "type": "function"
    },
    {
      "inputs": [],
      "name": "symbol",
      "outputs": [
        {
          "internalType": "string",
          "name": "",
          "type": "string"
        }
      ],
      "stateMutability": "view",
      "type": "function"
    },
    {
      "inputs": [],
      "name": "tokenID",
      "outputs": [
        {
          "internalType": "uint256",
          "name": "",
          "type": "uint256"
        }
      ],
      "stateMutability": "view",
      "type": "function"
    },
    {
      "inputs": [
        {
          "internalType": "uint256",
          "name": "tokenId",
          "type": "uint256"
        }
      ],
      "name": "tokenURI",
      "outputs": [
        {
          "internalType": "string",
          "name": "",
          "type": "string"
        }
      ],
      "stateMutability": "view",
      "type": "function"
    },
    {
      "inputs": [
        {
          "internalType": "address",
          "name": "from",
          "type": "address"
        },
        {
          "internalType": "address",
          "name": "to",
          "type": "address"
        },
        {
          "internalType": "uint256",
          "name": "tokenId",
          "type": "uint256"
        }
      ],
      "name": "transferFrom",
      "outputs": [],
      "stateMutability": "nonpayable",
      "type": "function"
    },
    {
      "inputs": [
        {
          "internalType": "address",
          "name": "from",
          "type": "address"
        },
        {
          "internalType": "address",
          "name": "to",
          "type": "address"
        },
        {
          "internalType": "uint256",
          "name": "tokenId",
          "type": "uint256"
        }
      ],
      "name": "transferToken",
      "outputs": [],
      "stateMutability": "nonpayable",
      "type": "function"
    }
  ],
  "bytecode": "0x60806040523480156200001157600080fd5b50604051620037303803806200373083398181016040528101906200003791906200017b565b6040518060400160405280600881526020017f5469636b726970740000000000000000000000000000000000000000000000008152506040518060400160405280600381526020017f54696300000000000000000000000000000000000000000000000000000000008152508160009081620000b4919062000427565b508060019081620000c6919062000427565b50505080600860006101000a81548173ffffffffffffffffffffffffffffffffffffffff021916908373ffffffffffffffffffffffffffffffffffffffff160217905550506200050e565b600080fd5b600073ffffffffffffffffffffffffffffffffffffffff82169050919050565b6000620001438262000116565b9050919050565b620001558162000136565b81146200016157600080fd5b50565b60008151905062000175816200014a565b92915050565b60006020828403121562000194576200019362000111565b5b6000620001a48482850162000164565b91505092915050565b600081519050919050565b7f4e487b7100000000000000000000000000000000000000000000000000000000600052604160045260246000fd5b7f4e487b7100000000000000000000000000000000000000000000000000000000600052602260045260246000fd5b600060028204905060018216806200022f57607f821691505b602082108103620002455762000244620001e7565b5b50919050565b60008190508160005260206000209050919050565b60006020601f8301049050919050565b600082821b905092915050565b600060088302620002af7fffffffffffffffffffffffffffffffffffffffffffffffffffffffffffffffff8262000270565b620002bb868362000270565b95508019841693508086168417925050509392505050565b6000819050919050565b6000819050919050565b60006200030862000302620002fc84620002d3565b620002dd565b620002d3565b9050919050565b6000819050919050565b6200032483620002e7565b6200033c62000333826200030f565b8484546200027d565b825550505050565b600090565b6200035362000344565b6200036081848462000319565b505050565b5b8181101562000388576200037c60008262000349565b60018101905062000366565b5050565b601f821115620003d757620003a1816200024b565b620003ac8462000260565b81016020851015620003bc578190505b620003d4620003cb8562000260565b83018262000365565b50505b505050565b600082821c905092915050565b6000620003fc60001984600802620003dc565b1980831691505092915050565b6000620004178383620003e9565b9150826002028217905092915050565b6200043282620001ad565b67ffffffffffffffff8111156200044e576200044d620001b8565b5b6200045a825462000216565b620004678282856200038c565b600060209050601f8311600181146200049f57600084156200048a578287015190505b62000496858262000409565b86555062000506565b601f198416620004af866200024b565b60005b82811015620004d957848901518255600182019150602085019450602081019050620004b2565b86831015620004f95784890151620004f5601f891682620003e9565b8355505b6001600288020188555050505b505050505050565b613212806200051e6000396000f3fe608060405234801561001057600080fd5b50600436106101165760003560e01c80636352211e116100a2578063a5c42ef111610071578063a5c42ef1146102ef578063b88d4fde1461030d578063c87b56dd14610329578063e985e9c514610359578063f5537ede1461038957610116565b80636352211e1461025557806370a082311461028557806395d89b41146102b5578063a22cb465146102d357610116565b806323b872dd116100e957806323b872dd146101b55780632890e0d7146101d157806342842e0e146101ed57806342966c68146102095780635afa3a721461022557610116565b806301ffc9a71461011b57806306fdde031461014b578063081812fc14610169578063095ea7b314610199575b600080fd5b61013560048036038101906101309190611f24565b6103a5565b6040516101429190611f6c565b60405180910390f35b610153610487565b6040516101609190612017565b60405180910390f35b610183600480360381019061017e919061206f565b610519565b60405161019091906120dd565b60405180910390f35b6101b360048036038101906101ae9190612124565b61055f565b005b6101cf60048036038101906101ca9190612164565b610676565b005b6101eb60048036038101906101e6919061206f565b6106d6565b005b61020760048036038101906102029190612164565b610732565b005b610223600480360381019061021e919061206f565b610752565b005b61023f600480360381019061023a91906122ec565b6107ae565b60405161024c9190612357565b60405180910390f35b61026f600480360381019061026a919061206f565b610831565b60405161027c91906120dd565b60405180910390f35b61029f600480360381019061029a9190612372565b6108b7565b6040516102ac9190612357565b60405180910390f35b6102bd61096e565b6040516102ca9190612017565b60405180910390f35b6102ed60048036038101906102e891906123cb565b610a00565b005b6102f7610a16565b6040516103049190612357565b60405180910390f35b610327600480360381019061032291906124ac565b610a27565b005b610343600480360381019061033e919061206f565b610a89565b6040516103509190612017565b60405180910390f35b610373600480360381019061036e919061252f565b610a9b565b6040516103809190611f6c565b60405180910390f35b6103a3600480360381019061039e9190612164565b610b2f565b005b60007f80ac58cd000000000000000000000000000000000000000000000000000000007bffffffffffffffffffffffffffffffffffffffffffffffffffffffff1916827bffffffffffffffffffffffffffffffffffffffffffffffffffffffff1916148061047057507f5b5e139f000000000000000000000000000000000000000000000000000000007bffffffffffffffffffffffffffffffffffffffffffffffffffffffff1916827bffffffffffffffffffffffffffffffffffffffffffffffffffffffff1916145b80610480575061047f82610bb5565b5b9050919050565b6060600080546104969061259e565b80601f01602080910402602001604051908101604052809291908181526020018280546104c29061259e565b801561050f5780601f106104e45761010080835404028352916020019161050f565b820191906000526020600020905b8154815290600101906020018083116104f257829003601f168201915b5050505050905090565b600061052482610c1f565b6004600083815260200190815260200160002060009054906101000a900473ffffffffffffffffffffffffffffffffffffffff169050919050565b600061056a82610831565b90508073ffffffffffffffffffffffffffffffffffffffff168373ffffffffffffffffffffffffffffffffffffffff16036105da576040517f08c379a00000000000000000000000000000000000000000000000000000000081526004016105d190612641565b60405180910390fd5b8073ffffffffffffffffffffffffffffffffffffffff166105f9610c6a565b73ffffffffffffffffffffffffffffffffffffffff161480610628575061062781610622610c6a565b610a9b565b5b610667576040517f08c379a000000000000000000000000000000000000000000000000000000000815260040161065e906126d3565b60405180910390fd5b6106718383610c72565b505050565b610687610681610c6a565b82610d2b565b6106c6576040517f08c379a00000000000000000000000000000000000000000000000000000000081526004016106bd90612765565b60405180910390fd5b6106d1838383610dc0565b505050565b6106e76106e1610c6a565b82610d2b565b610726576040517f08c379a000000000000000000000000000000000000000000000000000000000815260040161071d906127f7565b60405180910390fd5b61072f816110b9565b50565b61074d83838360405180602001604052806000815250610a27565b505050565b61076361075d610c6a565b82610d2b565b6107a2576040517f08c379a000000000000000000000000000000000000000000000000000000000815260040161079990612765565b60405180910390fd5b6107ab816110b9565b50565b60008060005b838110156107f9576107c660076110c5565b6107d060076110db565b91506107dc33836110e9565b6107e68286611107565b80806107f190612846565b9150506107b4565b50610827600860009054906101000a900473ffffffffffffffffffffffffffffffffffffffff166001610a00565b8091505092915050565b60008061083d83611174565b9050600073ffffffffffffffffffffffffffffffffffffffff168173ffffffffffffffffffffffffffffffffffffffff16036108ae576040517f08c379a00000000000000000000000000000000000000000000000000000000081526004016108a5906128da565b60405180910390fd5b80915050919050565b60008073ffffffffffffffffffffffffffffffffffffffff168273ffffffffffffffffffffffffffffffffffffffff1603610927576040517f08c379a000000000000000000000000000000000000000000000000000000000815260040161091e9061296c565b60405180910390fd5b600360008373ffffffffffffffffffffffffffffffffffffffff1673ffffffffffffffffffffffffffffffffffffffff168152602001908152602001600020549050919050565b60606001805461097d9061259e565b80601f01602080910402602001604051908101604052809291908181526020018280546109a99061259e565b80156109f65780601f106109cb576101008083540402835291602001916109f6565b820191906000526020600020905b8154815290600101906020018083116109d957829003601f168201915b5050505050905090565b610a12610a0b610c6a565b83836111b1565b5050565b6000610a2260076110db565b905090565b610a38610a32610c6a565b83610d2b565b610a77576040517f08c379a0000000000000000000000000000000000000000000000000000000008152600401610a6e90612765565b60405180910390fd5b610a838484848461131d565b50505050565b6060610a9482611379565b9050919050565b6000600560008473ffffffffffffffffffffffffffffffffffffffff1673ffffffffffffffffffffffffffffffffffffffff16815260200190815260200160002060008373ffffffffffffffffffffffffffffffffffffffff1673ffffffffffffffffffffffffffffffffffffffff16815260200190815260200160002060009054906101000a900460ff16905092915050565b8273ffffffffffffffffffffffffffffffffffffffff16610b4f82610831565b73ffffffffffffffffffffffffffffffffffffffff1614610ba5576040517f08c379a0000000000000000000000000000000000000000000000000000000008152600401610b9c906129d8565b60405180910390fd5b610bb0838383610dc0565b505050565b60007f01ffc9a7000000000000000000000000000000000000000000000000000000007bffffffffffffffffffffffffffffffffffffffffffffffffffffffff1916827bffffffffffffffffffffffffffffffffffffffffffffffffffffffff1916149050919050565b610c288161148b565b610c67576040517f08c379a0000000000000000000000000000000000000000000000000000000008152600401610c5e906128da565b60405180910390fd5b50565b600033905090565b816004600083815260200190815260200160002060006101000a81548173ffffffffffffffffffffffffffffffffffffffff021916908373ffffffffffffffffffffffffffffffffffffffff160217905550808273ffffffffffffffffffffffffffffffffffffffff16610ce583610831565b73ffffffffffffffffffffffffffffffffffffffff167f8c5be1e5ebec7d5bd14f71427d1e84f3dd0314c0f7b2291e5b200ac8c7c3b92560405160405180910390a45050565b600080610d3783610831565b90508073ffffffffffffffffffffffffffffffffffffffff168473ffffffffffffffffffffffffffffffffffffffff161480610d795750610d788185610a9b565b5b80610db757508373ffffffffffffffffffffffffffffffffffffffff16610d9f84610519565b73ffffffffffffffffffffffffffffffffffffffff16145b91505092915050565b8273ffffffffffffffffffffffffffffffffffffffff16610de082610831565b73ffffffffffffffffffffffffffffffffffffffff1614610e36576040517f08c379a0000000000000000000000000000000000000000000000000000000008152600401610e2d90612a6a565b60405180910390fd5b600073ffffffffffffffffffffffffffffffffffffffff168273ffffffffffffffffffffffffffffffffffffffff1603610ea5576040517f08c379a0000000000000000000000000000000000000000000000000000000008152600401610e9c90612afc565b60405180910390fd5b610eb283838360016114cc565b8273ffffffffffffffffffffffffffffffffffffffff16610ed282610831565b73ffffffffffffffffffffffffffffffffffffffff1614610f28576040517f08c379a0000000000000000000000000000000000000000000000000000000008152600401610f1f90612a6a565b60405180910390fd5b6004600082815260200190815260200160002060006101000a81549073ffffffffffffffffffffffffffffffffffffffff02191690556001600360008573ffffffffffffffffffffffffffffffffffffffff1673ffffffffffffffffffffffffffffffffffffffff168152602001908152602001600020600082825403925050819055506001600360008473ffffffffffffffffffffffffffffffffffffffff1673ffffffffffffffffffffffffffffffffffffffff16815260200190815260200160002060008282540192505081905550816002600083815260200190815260200160002060006101000a81548173ffffffffffffffffffffffffffffffffffffffff021916908373ffffffffffffffffffffffffffffffffffffffff160217905550808273ffffffffffffffffffffffffffffffffffffffff168473ffffffffffffffffffffffffffffffffffffffff167fddf252ad1be2c89b69c2b068fc378daa952ba7f163c4a11628f55a4df523b3ef60405160405180910390a46110b483838360016115f2565b505050565b6110c2816115f8565b50565b6001816000016000828254019250508190555050565b600081600001549050919050565b61110382826040518060200160405280600081525061164b565b5050565b6111108261148b565b61114f576040517f08c379a000000000000000000000000000000000000000000000000000000000815260040161114690612b8e565b60405180910390fd5b8060066000848152602001908152602001600020908161116f9190612d5a565b505050565b60006002600083815260200190815260200160002060009054906101000a900473ffffffffffffffffffffffffffffffffffffffff169050919050565b8173ffffffffffffffffffffffffffffffffffffffff168373ffffffffffffffffffffffffffffffffffffffff160361121f576040517f08c379a000000000000000000000000000000000000000000000000000000000815260040161121690612e78565b60405180910390fd5b80600560008573ffffffffffffffffffffffffffffffffffffffff1673ffffffffffffffffffffffffffffffffffffffff16815260200190815260200160002060008473ffffffffffffffffffffffffffffffffffffffff1673ffffffffffffffffffffffffffffffffffffffff16815260200190815260200160002060006101000a81548160ff0219169083151502179055508173ffffffffffffffffffffffffffffffffffffffff168373ffffffffffffffffffffffffffffffffffffffff167f17307eab39ab6107e8899845ad3d59bd9653f200f220920489ca2b5937696c31836040516113109190611f6c565b60405180910390a3505050565b611328848484610dc0565b611334848484846116a6565b611373576040517f08c379a000000000000000000000000000000000000000000000000000000000815260040161136a90612f0a565b60405180910390fd5b50505050565b606061138482610c1f565b60006006600084815260200190815260200160002080546113a49061259e565b80601f01602080910402602001604051908101604052809291908181526020018280546113d09061259e565b801561141d5780601f106113f25761010080835404028352916020019161141d565b820191906000526020600020905b81548152906001019060200180831161140057829003601f168201915b50505050509050600061142e61182d565b90506000815103611443578192505050611486565b600082511115611478578082604051602001611460929190612f66565b60405160208183030381529060405292505050611486565b61148184611844565b925050505b919050565b60008073ffffffffffffffffffffffffffffffffffffffff166114ad83611174565b73ffffffffffffffffffffffffffffffffffffffff1614159050919050565b60018111156115ec57600073ffffffffffffffffffffffffffffffffffffffff168473ffffffffffffffffffffffffffffffffffffffff16146115605780600360008673ffffffffffffffffffffffffffffffffffffffff1673ffffffffffffffffffffffffffffffffffffffff16815260200190815260200160002060008282546115589190612f8a565b925050819055505b600073ffffffffffffffffffffffffffffffffffffffff168373ffffffffffffffffffffffffffffffffffffffff16146115eb5780600360008573ffffffffffffffffffffffffffffffffffffffff1673ffffffffffffffffffffffffffffffffffffffff16815260200190815260200160002060008282546115e39190612fbe565b925050819055505b5b50505050565b50505050565b611601816118ac565b60006006600083815260200190815260200160002080546116219061259e565b905014611648576006600082815260200190815260200160002060006116479190611e5b565b5b50565b61165583836119fa565b61166260008484846116a6565b6116a1576040517f08c379a000000000000000000000000000000000000000000000000000000000815260040161169890612f0a565b60405180910390fd5b505050565b60006116c78473ffffffffffffffffffffffffffffffffffffffff16611c17565b15611820578373ffffffffffffffffffffffffffffffffffffffff1663150b7a026116f0610c6a565b8786866040518563ffffffff1660e01b81526004016117129493929190613047565b6020604051808303816000875af192505050801561174e57506040513d601f19601f8201168201806040525081019061174b91906130a8565b60015b6117d0573d806000811461177e576040519150601f19603f3d011682016040523d82523d6000602084013e611783565b606091505b5060008151036117c8576040517f08c379a00000000000000000000000000000000000000000000000000000000081526004016117bf90612f0a565b60405180910390fd5b805181602001fd5b63150b7a0260e01b7bffffffffffffffffffffffffffffffffffffffffffffffffffffffff1916817bffffffffffffffffffffffffffffffffffffffffffffffffffffffff191614915050611825565b600190505b949350505050565b606060405180602001604052806000815250905090565b606061184f82610c1f565b600061185961182d565b9050600081511161187957604051806020016040528060008152506118a4565b8061188384611c3a565b604051602001611894929190612f66565b6040516020818303038152906040525b915050919050565b60006118b782610831565b90506118c78160008460016114cc565b6118d082610831565b90506004600083815260200190815260200160002060006101000a81549073ffffffffffffffffffffffffffffffffffffffff02191690556001600360008373ffffffffffffffffffffffffffffffffffffffff1673ffffffffffffffffffffffffffffffffffffffff168152602001908152602001600020600082825403925050819055506002600083815260200190815260200160002060006101000a81549073ffffffffffffffffffffffffffffffffffffffff021916905581600073ffffffffffffffffffffffffffffffffffffffff168273ffffffffffffffffffffffffffffffffffffffff167fddf252ad1be2c89b69c2b068fc378daa952ba7f163c4a11628f55a4df523b3ef60405160405180910390a46119f68160008460016115f2565b5050565b600073ffffffffffffffffffffffffffffffffffffffff168273ffffffffffffffffffffffffffffffffffffffff1603611a69576040517f08c379a0000000000000000000000000000000000000000000000000000000008152600401611a6090613121565b60405180910390fd5b611a728161148b565b15611ab2576040517f08c379a0000000000000000000000000000000000000000000000000000000008152600401611aa99061318d565b60405180910390fd5b611ac06000838360016114cc565b611ac98161148b565b15611b09576040517f08c379a0000000000000000000000000000000000000000000000000000000008152600401611b009061318d565b60405180910390fd5b6001600360008473ffffffffffffffffffffffffffffffffffffffff1673ffffffffffffffffffffffffffffffffffffffff16815260200190815260200160002060008282540192505081905550816002600083815260200190815260200160002060006101000a81548173ffffffffffffffffffffffffffffffffffffffff021916908373ffffffffffffffffffffffffffffffffffffffff160217905550808273ffffffffffffffffffffffffffffffffffffffff16600073ffffffffffffffffffffffffffffffffffffffff167fddf252ad1be2c89b69c2b068fc378daa952ba7f163c4a11628f55a4df523b3ef60405160405180910390a4611c136000838360016115f2565b5050565b6000808273ffffffffffffffffffffffffffffffffffffffff163b119050919050565b606060006001611c4984611d08565b01905060008167ffffffffffffffff811115611c6857611c676121c1565b5b6040519080825280601f01601f191660200182016040528015611c9a5781602001600182028036833780820191505090505b509050600082602001820190505b600115611cfd578080600190039150507f3031323334353637383961626364656600000000000000000000000000000000600a86061a8153600a8581611cf157611cf06131ad565b5b04945060008503611ca8575b819350505050919050565b600080600090507a184f03e93ff9f4daa797ed6e38ed64bf6a1f0100000000000000008310611d66577a184f03e93ff9f4daa797ed6e38ed64bf6a1f0100000000000000008381611d5c57611d5b6131ad565b5b0492506040810190505b6d04ee2d6d415b85acef81000000008310611da3576d04ee2d6d415b85acef81000000008381611d9957611d986131ad565b5b0492506020810190505b662386f26fc100008310611dd257662386f26fc100008381611dc857611dc76131ad565b5b0492506010810190505b6305f5e1008310611dfb576305f5e1008381611df157611df06131ad565b5b0492506008810190505b6127108310611e20576127108381611e1657611e156131ad565b5b0492506004810190505b60648310611e435760648381611e3957611e386131ad565b5b0492506002810190505b600a8310611e52576001810190505b80915050919050565b508054611e679061259e565b6000825580601f10611e795750611e98565b601f016020900490600052602060002090810190611e979190611e9b565b5b50565b5b80821115611eb4576000816000905550600101611e9c565b5090565b6000604051905090565b600080fd5b600080fd5b60007fffffffff0000000000000000000000000000000000000000000000000000000082169050919050565b611f0181611ecc565b8114611f0c57600080fd5b50565b600081359050611f1e81611ef8565b92915050565b600060208284031215611f3a57611f39611ec2565b5b6000611f4884828501611f0f565b91505092915050565b60008115159050919050565b611f6681611f51565b82525050565b6000602082019050611f816000830184611f5d565b92915050565b600081519050919050565b600082825260208201905092915050565b60005b83811015611fc1578082015181840152602081019050611fa6565b60008484015250505050565b6000601f19601f8301169050919050565b6000611fe982611f87565b611ff38185611f92565b9350612003818560208601611fa3565b61200c81611fcd565b840191505092915050565b600060208201905081810360008301526120318184611fde565b905092915050565b6000819050919050565b61204c81612039565b811461205757600080fd5b50565b60008135905061206981612043565b92915050565b60006020828403121561208557612084611ec2565b5b60006120938482850161205a565b91505092915050565b600073ffffffffffffffffffffffffffffffffffffffff82169050919050565b60006120c78261209c565b9050919050565b6120d7816120bc565b82525050565b60006020820190506120f260008301846120ce565b92915050565b612101816120bc565b811461210c57600080fd5b50565b60008135905061211e816120f8565b92915050565b6000806040838503121561213b5761213a611ec2565b5b60006121498582860161210f565b925050602061215a8582860161205a565b9150509250929050565b60008060006060848603121561217d5761217c611ec2565b5b600061218b8682870161210f565b935050602061219c8682870161210f565b92505060406121ad8682870161205a565b9150509250925092565b600080fd5b600080fd5b7f4e487b7100000000000000000000000000000000000000000000000000000000600052604160045260246000fd5b6121f982611fcd565b810181811067ffffffffffffffff82111715612218576122176121c1565b5b80604052505050565b600061222b611eb8565b905061223782826121f0565b919050565b600067ffffffffffffffff821115612257576122566121c1565b5b61226082611fcd565b9050602081019050919050565b82818337600083830152505050565b600061228f61228a8461223c565b612221565b9050828152602081018484840111156122ab576122aa6121bc565b5b6122b684828561226d565b509392505050565b600082601f8301126122d3576122d26121b7565b5b81356122e384826020860161227c565b91505092915050565b6000806040838503121561230357612302611ec2565b5b600083013567ffffffffffffffff81111561232157612320611ec7565b5b61232d858286016122be565b925050602061233e8582860161205a565b9150509250929050565b61235181612039565b82525050565b600060208201905061236c6000830184612348565b92915050565b60006020828403121561238857612387611ec2565b5b60006123968482850161210f565b91505092915050565b6123a881611f51565b81146123b357600080fd5b50565b6000813590506123c58161239f565b92915050565b600080604083850312156123e2576123e1611ec2565b5b60006123f08582860161210f565b9250506020612401858286016123b6565b9150509250929050565b600067ffffffffffffffff821115612426576124256121c1565b5b61242f82611fcd565b9050602081019050919050565b600061244f61244a8461240b565b612221565b90508281526020810184848401111561246b5761246a6121bc565b5b61247684828561226d565b509392505050565b600082601f830112612493576124926121b7565b5b81356124a384826020860161243c565b91505092915050565b600080600080608085870312156124c6576124c5611ec2565b5b60006124d48782880161210f565b94505060206124e58782880161210f565b93505060406124f68782880161205a565b925050606085013567ffffffffffffffff81111561251757612516611ec7565b5b6125238782880161247e565b91505092959194509250565b6000806040838503121561254657612545611ec2565b5b60006125548582860161210f565b92505060206125658582860161210f565b9150509250929050565b7f4e487b7100000000000000000000000000000000000000000000000000000000600052602260045260246000fd5b600060028204905060018216806125b657607f821691505b6020821081036125c9576125c861256f565b5b50919050565b7f4552433732313a20617070726f76616c20746f2063757272656e74206f776e6560008201527f7200000000000000000000000000000000000000000000000000000000000000602082015250565b600061262b602183611f92565b9150612636826125cf565b604082019050919050565b6000602082019050818103600083015261265a8161261e565b9050919050565b7f4552433732313a20617070726f76652063616c6c6572206973206e6f7420746f60008201527f6b656e206f776e6572206f7220617070726f76656420666f7220616c6c000000602082015250565b60006126bd603d83611f92565b91506126c882612661565b604082019050919050565b600060208201905081810360008301526126ec816126b0565b9050919050565b7f4552433732313a2063616c6c6572206973206e6f7420746f6b656e206f776e6560008201527f72206f7220617070726f76656400000000000000000000000000000000000000602082015250565b600061274f602d83611f92565b915061275a826126f3565b604082019050919050565b6000602082019050818103600083015261277e81612742565b9050919050565b7f4552433732314275726e61626c653a2063616c6c6572206973206e6f74206f7760008201527f6e6572206e6f7220617070726f76656400000000000000000000000000000000602082015250565b60006127e1603083611f92565b91506127ec82612785565b604082019050919050565b60006020820190508181036000830152612810816127d4565b9050919050565b7f4e487b7100000000000000000000000000000000000000000000000000000000600052601160045260246000fd5b600061285182612039565b91507fffffffffffffffffffffffffffffffffffffffffffffffffffffffffffffffff820361288357612882612817565b5b600182019050919050565b7f4552433732313a20696e76616c696420746f6b656e2049440000000000000000600082015250565b60006128c4601883611f92565b91506128cf8261288e565b602082019050919050565b600060208201905081810360008301526128f3816128b7565b9050919050565b7f4552433732313a2061646472657373207a65726f206973206e6f74206120766160008201527f6c6964206f776e65720000000000000000000000000000000000000000000000602082015250565b6000612956602983611f92565b9150612961826128fa565b604082019050919050565b6000602082019050818103600083015261298581612949565b9050919050565b7f46726f6d2061646472657373206d75737420626520746f6b656e206f776e6572600082015250565b60006129c2602083611f92565b91506129cd8261298c565b602082019050919050565b600060208201905081810360008301526129f1816129b5565b9050919050565b7f4552433732313a207472616e736665722066726f6d20696e636f72726563742060008201527f6f776e6572000000000000000000000000000000000000000000000000000000602082015250565b6000612a54602583611f92565b9150612a5f826129f8565b604082019050919050565b60006020820190508181036000830152612a8381612a47565b9050919050565b7f4552433732313a207472616e7366657220746f20746865207a65726f2061646460008201527f7265737300000000000000000000000000000000000000000000000000000000602082015250565b6000612ae6602483611f92565b9150612af182612a8a565b604082019050919050565b60006020820190508181036000830152612b1581612ad9565b9050919050565b7f45524337323155524953746f726167653a2055524920736574206f66206e6f6e60008201527f6578697374656e7420746f6b656e000000000000000000000000000000000000602082015250565b6000612b78602e83611f92565b9150612b8382612b1c565b604082019050919050565b60006020820190508181036000830152612ba781612b6b565b9050919050565b60008190508160005260206000209050919050565b60006020601f8301049050919050565b600082821b905092915050565b600060088302612c107fffffffffffffffffffffffffffffffffffffffffffffffffffffffffffffffff82612bd3565b612c1a8683612bd3565b95508019841693508086168417925050509392505050565b6000819050919050565b6000612c57612c52612c4d84612039565b612c32565b612039565b9050919050565b6000819050919050565b612c7183612c3c565b612c85612c7d82612c5e565b848454612be0565b825550505050565b600090565b612c9a612c8d565b612ca5818484612c68565b505050565b5b81811015612cc957612cbe600082612c92565b600181019050612cab565b5050565b601f821115612d0e57612cdf81612bae565b612ce884612bc3565b81016020851015612cf7578190505b612d0b612d0385612bc3565b830182612caa565b50505b505050565b600082821c905092915050565b6000612d3160001984600802612d13565b1980831691505092915050565b6000612d4a8383612d20565b9150826002028217905092915050565b612d6382611f87565b67ffffffffffffffff811115612d7c57612d7b6121c1565b5b612d86825461259e565b612d91828285612ccd565b600060209050601f831160018114612dc45760008415612db2578287015190505b612dbc8582612d3e565b865550612e24565b601f198416612dd286612bae565b60005b82811015612dfa57848901518255600182019150602085019450602081019050612dd5565b86831015612e175784890151612e13601f891682612d20565b8355505b6001600288020188555050505b505050505050565b7f4552433732313a20617070726f766520746f2063616c6c657200000000000000600082015250565b6000612e62601983611f92565b9150612e6d82612e2c565b602082019050919050565b60006020820190508181036000830152612e9181612e55565b9050919050565b7f4552433732313a207472616e7366657220746f206e6f6e20455243373231526560008201527f63656976657220696d706c656d656e7465720000000000000000000000000000602082015250565b6000612ef4603283611f92565b9150612eff82612e98565b604082019050919050565b60006020820190508181036000830152612f2381612ee7565b9050919050565b600081905092915050565b6000612f4082611f87565b612f4a8185612f2a565b9350612f5a818560208601611fa3565b80840191505092915050565b6000612f728285612f35565b9150612f7e8284612f35565b91508190509392505050565b6000612f9582612039565b9150612fa083612039565b9250828203905081811115612fb857612fb7612817565b5b92915050565b6000612fc982612039565b9150612fd483612039565b9250828201905080821115612fec57612feb612817565b5b92915050565b600081519050919050565b600082825260208201905092915050565b600061301982612ff2565b6130238185612ffd565b9350613033818560208601611fa3565b61303c81611fcd565b840191505092915050565b600060808201905061305c60008301876120ce565b61306960208301866120ce565b6130766040830185612348565b8181036060830152613088818461300e565b905095945050505050565b6000815190506130a281611ef8565b92915050565b6000602082840312156130be576130bd611ec2565b5b60006130cc84828501613093565b91505092915050565b7f4552433732313a206d696e7420746f20746865207a65726f2061646472657373600082015250565b600061310b602083611f92565b9150613116826130d5565b602082019050919050565b6000602082019050818103600083015261313a816130fe565b9050919050565b7f4552433732313a20746f6b656e20616c7265616479206d696e74656400000000600082015250565b6000613177601c83611f92565b915061318282613141565b602082019050919050565b600060208201905081810360008301526131a68161316a565b9050919050565b7f4e487b7100000000000000000000000000000000000000000000000000000000600052601260045260246000fdfea2646970667358221220a1c8d766c33f61a371f571cffe2788849c9450ed88264f3b669722e1da8b7d9564736f6c63430008110033",
  "linkReferences": {},
  "deployedLinkReferences": {}
}