{
  "_format": "hh-sol-artifact-1",
  "contractName": "TicketMint",
  "sourceName": "contracts/TicketMint.sol",
  "abi": [
    {
      "inputs": [],
      "stateMutability": "nonpayable",
      "type": "constructor"
    },
    {
      "anonymous": false,
      "inputs": [
        {
          "indexed": true,
          "internalType": "address",
          "name": "owner",
          "type": "address"
        },
        {
          "indexed": true,
          "internalType": "address",
          "name": "approved",
          "type": "address"
        },
        {
          "indexed": true,
          "internalType": "uint256",
          "name": "tokenId",
          "type": "uint256"
        }
      ],
      "name": "Approval",
      "type": "event"
    },
    {
      "anonymous": false,
      "inputs": [
        {
          "indexed": true,
          "internalType": "address",
          "name": "owner",
          "type": "address"
        },
        {
          "indexed": true,
          "internalType": "address",
          "name": "operator",
          "type": "address"
        },
        {
          "indexed": false,
          "internalType": "bool",
          "name": "approved",
          "type": "bool"
        }
      ],
      "name": "ApprovalForAll",
      "type": "event"
    },
    {
      "anonymous": false,
      "inputs": [
        {
          "indexed": true,
          "internalType": "address",
          "name": "from",
          "type": "address"
        },
        {
          "indexed": true,
          "internalType": "address",
          "name": "to",
          "type": "address"
        },
        {
          "indexed": true,
          "internalType": "uint256",
          "name": "tokenId",
          "type": "uint256"
        }
      ],
      "name": "Transfer",
      "type": "event"
    },
    {
      "inputs": [
        {
          "internalType": "address",
          "name": "to",
          "type": "address"
        },
        {
          "internalType": "uint256",
          "name": "tokenId",
          "type": "uint256"
        }
      ],
      "name": "approve",
      "outputs": [],
      "stateMutability": "nonpayable",
      "type": "function"
    },
    {
      "inputs": [
        {
          "internalType": "address",
          "name": "owner",
          "type": "address"
        }
      ],
      "name": "balanceOf",
      "outputs": [
        {
          "internalType": "uint256",
          "name": "",
          "type": "uint256"
        }
      ],
      "stateMutability": "view",
      "type": "function"
    },
    {
      "inputs": [
        {
          "internalType": "uint256",
          "name": "tokenId",
          "type": "uint256"
        }
      ],
      "name": "burn",
      "outputs": [],
      "stateMutability": "nonpayable",
      "type": "function"
    },
    {
      "inputs": [
        {
          "internalType": "uint256",
          "name": "tokenId",
          "type": "uint256"
        }
      ],
      "name": "burnNFT",
      "outputs": [],
      "stateMutability": "nonpayable",
      "type": "function"
    },
    {
      "inputs": [
        {
          "internalType": "uint256",
          "name": "tokenId",
          "type": "uint256"
        }
      ],
      "name": "getApproved",
      "outputs": [
        {
          "internalType": "address",
          "name": "",
          "type": "address"
        }
      ],
      "stateMutability": "view",
      "type": "function"
    },
    {
      "inputs": [
        {
          "internalType": "address",
          "name": "owner",
          "type": "address"
        },
        {
          "internalType": "address",
          "name": "operator",
          "type": "address"
        }
      ],
      "name": "isApprovedForAll",
      "outputs": [
        {
          "internalType": "bool",
          "name": "",
          "type": "bool"
        }
      ],
      "stateMutability": "view",
      "type": "function"
    },
    {
      "inputs": [
        {
          "internalType": "string",
          "name": "tokenUri",
          "type": "string"
        },
        {
          "internalType": "uint256",
          "name": "supply",
          "type": "uint256"
        }
      ],
      "name": "mintNFT",
      "outputs": [
        {
          "internalType": "uint256",
          "name": "",
          "type": "uint256"
        }
      ],
      "stateMutability": "nonpayable",
      "type": "function"
    },
    {
      "inputs": [],
      "name": "name",
      "outputs": [
        {
          "internalType": "string",
          "name": "",
          "type": "string"
        }
      ],
      "stateMutability": "view",
      "type": "function"
    },
    {
      "inputs": [
        {
          "internalType": "uint256",
          "name": "tokenId",
          "type": "uint256"
        }
      ],
      "name": "ownerOf",
      "outputs": [
        {
          "internalType": "address",
          "name": "",
          "type": "address"
        }
      ],
      "stateMutability": "view",
      "type": "function"
    },
    {
      "inputs": [
        {
          "internalType": "address",
          "name": "from",
          "type": "address"
        },
        {
          "internalType": "address",
          "name": "to",
          "type": "address"
        },
        {
          "internalType": "uint256",
          "name": "tokenId",
          "type": "uint256"
        }
      ],
      "name": "safeTransferFrom",
      "outputs": [],
      "stateMutability": "nonpayable",
      "type": "function"
    },
    {
      "inputs": [
        {
          "internalType": "address",
          "name": "from",
          "type": "address"
        },
        {
          "internalType": "address",
          "name": "to",
          "type": "address"
        },
        {
          "internalType": "uint256",
          "name": "tokenId",
          "type": "uint256"
        },
        {
          "internalType": "bytes",
          "name": "data",
          "type": "bytes"
        }
      ],
      "name": "safeTransferFrom",
      "outputs": [],
      "stateMutability": "nonpayable",
      "type": "function"
    },
    {
      "inputs": [
        {
          "internalType": "address",
          "name": "operator",
          "type": "address"
        },
        {
          "internalType": "bool",
          "name": "approved",
          "type": "bool"
        }
      ],
      "name": "setApprovalForAll",
      "outputs": [],
      "stateMutability": "nonpayable",
      "type": "function"
    },
    {
      "inputs": [
        {
          "internalType": "bytes4",
          "name": "interfaceId",
          "type": "bytes4"
        }
      ],
      "name": "supportsInterface",
      "outputs": [
        {
          "internalType": "bool",
          "name": "",
          "type": "bool"
        }
      ],
      "stateMutability": "view",
      "type": "function"
    },
    {
      "inputs": [],
      "name": "symbol",
      "outputs": [
        {
          "internalType": "string",
          "name": "",
          "type": "string"
        }
      ],
      "stateMutability": "view",
      "type": "function"
    },
    {
      "inputs": [],
      "name": "tokenID",
      "outputs": [
        {
          "internalType": "uint256",
          "name": "",
          "type": "uint256"
        }
      ],
      "stateMutability": "view",
      "type": "function"
    },
    {
      "inputs": [
        {
          "internalType": "uint256",
          "name": "tokenId",
          "type": "uint256"
        }
      ],
      "name": "tokenURI",
      "outputs": [
        {
          "internalType": "string",
          "name": "",
          "type": "string"
        }
      ],
      "stateMutability": "view",
      "type": "function"
    },
    {
      "inputs": [
        {
          "internalType": "address",
          "name": "from",
          "type": "address"
        },
        {
          "internalType": "address",
          "name": "to",
          "type": "address"
        },
        {
          "internalType": "uint256",
          "name": "tokenId",
          "type": "uint256"
        }
      ],
      "name": "transferFrom",
      "outputs": [],
      "stateMutability": "nonpayable",
      "type": "function"
    },
    {
      "inputs": [
        {
          "internalType": "address",
          "name": "from",
          "type": "address"
        },
        {
          "internalType": "address",
          "name": "to",
          "type": "address"
        },
        {
          "internalType": "uint256",
          "name": "tokenId",
          "type": "uint256"
        }
      ],
      "name": "transferToken",
      "outputs": [],
      "stateMutability": "nonpayable",
      "type": "function"
    }
  ],
  "bytecode": "0x60806040523480156200001157600080fd5b506040518060400160405280600881526020017f5469636b726970740000000000000000000000000000000000000000000000008152506040518060400160405280600381526020017f546963000000000000000000000000000000000000000000000000000000000081525081600090816200008f919062000324565b508060019081620000a1919062000324565b5050506200040b565b600081519050919050565b7f4e487b7100000000000000000000000000000000000000000000000000000000600052604160045260246000fd5b7f4e487b7100000000000000000000000000000000000000000000000000000000600052602260045260246000fd5b600060028204905060018216806200012c57607f821691505b602082108103620001425762000141620000e4565b5b50919050565b60008190508160005260206000209050919050565b60006020601f8301049050919050565b600082821b905092915050565b600060088302620001ac7fffffffffffffffffffffffffffffffffffffffffffffffffffffffffffffffff826200016d565b620001b886836200016d565b95508019841693508086168417925050509392505050565b6000819050919050565b6000819050919050565b600062000205620001ff620001f984620001d0565b620001da565b620001d0565b9050919050565b6000819050919050565b6200022183620001e4565b6200023962000230826200020c565b8484546200017a565b825550505050565b600090565b6200025062000241565b6200025d81848462000216565b505050565b5b8181101562000285576200027960008262000246565b60018101905062000263565b5050565b601f821115620002d4576200029e8162000148565b620002a9846200015d565b81016020851015620002b9578190505b620002d1620002c8856200015d565b83018262000262565b50505b505050565b600082821c905092915050565b6000620002f960001984600802620002d9565b1980831691505092915050565b6000620003148383620002e6565b9150826002028217905092915050565b6200032f82620000aa565b67ffffffffffffffff8111156200034b576200034a620000b5565b5b62000357825462000113565b6200036482828562000289565b600060209050601f8311600181146200039c576000841562000387578287015190505b62000393858262000306565b86555062000403565b601f198416620003ac8662000148565b60005b82811015620003d657848901518255600182019150602085019450602081019050620003af565b86831015620003f65784890151620003f2601f891682620002e6565b8355505b6001600288020188555050505b505050505050565b6131e5806200041b6000396000f3fe608060405234801561001057600080fd5b50600436106101165760003560e01c80636352211e116100a2578063a5c42ef111610071578063a5c42ef1146102ef578063b88d4fde1461030d578063c87b56dd14610329578063e985e9c514610359578063f5537ede1461038957610116565b80636352211e1461025557806370a082311461028557806395d89b41146102b5578063a22cb465146102d357610116565b806323b872dd116100e957806323b872dd146101b55780632890e0d7146101d157806342842e0e146101ed57806342966c68146102095780635afa3a721461022557610116565b806301ffc9a71461011b57806306fdde031461014b578063081812fc14610169578063095ea7b314610199575b600080fd5b61013560048036038101906101309190611ef7565b6103a5565b6040516101429190611f3f565b60405180910390f35b610153610487565b6040516101609190611fea565b60405180910390f35b610183600480360381019061017e9190612042565b610519565b60405161019091906120b0565b60405180910390f35b6101b360048036038101906101ae91906120f7565b61055f565b005b6101cf60048036038101906101ca9190612137565b610676565b005b6101eb60048036038101906101e69190612042565b6106d6565b005b61020760048036038101906102029190612137565b610732565b005b610223600480360381019061021e9190612042565b610752565b005b61023f600480360381019061023a91906122bf565b6107ae565b60405161024c919061232a565b60405180910390f35b61026f600480360381019061026a9190612042565b610804565b60405161027c91906120b0565b60405180910390f35b61029f600480360381019061029a9190612345565b61088a565b6040516102ac919061232a565b60405180910390f35b6102bd610941565b6040516102ca9190611fea565b60405180910390f35b6102ed60048036038101906102e8919061239e565b6109d3565b005b6102f76109e9565b604051610304919061232a565b60405180910390f35b6103276004803603810190610322919061247f565b6109fa565b005b610343600480360381019061033e9190612042565b610a5c565b6040516103509190611fea565b60405180910390f35b610373600480360381019061036e9190612502565b610a6e565b6040516103809190611f3f565b60405180910390f35b6103a3600480360381019061039e9190612137565b610b02565b005b60007f80ac58cd000000000000000000000000000000000000000000000000000000007bffffffffffffffffffffffffffffffffffffffffffffffffffffffff1916827bffffffffffffffffffffffffffffffffffffffffffffffffffffffff1916148061047057507f5b5e139f000000000000000000000000000000000000000000000000000000007bffffffffffffffffffffffffffffffffffffffffffffffffffffffff1916827bffffffffffffffffffffffffffffffffffffffffffffffffffffffff1916145b80610480575061047f82610b88565b5b9050919050565b60606000805461049690612571565b80601f01602080910402602001604051908101604052809291908181526020018280546104c290612571565b801561050f5780601f106104e45761010080835404028352916020019161050f565b820191906000526020600020905b8154815290600101906020018083116104f257829003601f168201915b5050505050905090565b600061052482610bf2565b6004600083815260200190815260200160002060009054906101000a900473ffffffffffffffffffffffffffffffffffffffff169050919050565b600061056a82610804565b90508073ffffffffffffffffffffffffffffffffffffffff168373ffffffffffffffffffffffffffffffffffffffff16036105da576040517f08c379a00000000000000000000000000000000000000000000000000000000081526004016105d190612614565b60405180910390fd5b8073ffffffffffffffffffffffffffffffffffffffff166105f9610c3d565b73ffffffffffffffffffffffffffffffffffffffff161480610628575061062781610622610c3d565b610a6e565b5b610667576040517f08c379a000000000000000000000000000000000000000000000000000000000815260040161065e906126a6565b60405180910390fd5b6106718383610c45565b505050565b610687610681610c3d565b82610cfe565b6106c6576040517f08c379a00000000000000000000000000000000000000000000000000000000081526004016106bd90612738565b60405180910390fd5b6106d1838383610d93565b505050565b6106e76106e1610c3d565b82610cfe565b610726576040517f08c379a000000000000000000000000000000000000000000000000000000000815260040161071d906127ca565b60405180910390fd5b61072f8161108c565b50565b61074d838383604051806020016040528060008152506109fa565b505050565b61076361075d610c3d565b82610cfe565b6107a2576040517f08c379a000000000000000000000000000000000000000000000000000000000815260040161079990612738565b60405180910390fd5b6107ab8161108c565b50565b60008060005b838110156107d9576107c66007611098565b80806107d190612819565b9150506107b4565b506107e460076110ae565b90506107f033826110bc565b6107fa81856110da565b8091505092915050565b60008061081083611147565b9050600073ffffffffffffffffffffffffffffffffffffffff168173ffffffffffffffffffffffffffffffffffffffff1603610881576040517f08c379a0000000000000000000000000000000000000000000000000000000008152600401610878906128ad565b60405180910390fd5b80915050919050565b60008073ffffffffffffffffffffffffffffffffffffffff168273ffffffffffffffffffffffffffffffffffffffff16036108fa576040517f08c379a00000000000000000000000000000000000000000000000000000000081526004016108f19061293f565b60405180910390fd5b600360008373ffffffffffffffffffffffffffffffffffffffff1673ffffffffffffffffffffffffffffffffffffffff168152602001908152602001600020549050919050565b60606001805461095090612571565b80601f016020809104026020016040519081016040528092919081815260200182805461097c90612571565b80156109c95780601f1061099e576101008083540402835291602001916109c9565b820191906000526020600020905b8154815290600101906020018083116109ac57829003601f168201915b5050505050905090565b6109e56109de610c3d565b8383611184565b5050565b60006109f560076110ae565b905090565b610a0b610a05610c3d565b83610cfe565b610a4a576040517f08c379a0000000000000000000000000000000000000000000000000000000008152600401610a4190612738565b60405180910390fd5b610a56848484846112f0565b50505050565b6060610a678261134c565b9050919050565b6000600560008473ffffffffffffffffffffffffffffffffffffffff1673ffffffffffffffffffffffffffffffffffffffff16815260200190815260200160002060008373ffffffffffffffffffffffffffffffffffffffff1673ffffffffffffffffffffffffffffffffffffffff16815260200190815260200160002060009054906101000a900460ff16905092915050565b8273ffffffffffffffffffffffffffffffffffffffff16610b2282610804565b73ffffffffffffffffffffffffffffffffffffffff1614610b78576040517f08c379a0000000000000000000000000000000000000000000000000000000008152600401610b6f906129ab565b60405180910390fd5b610b83838383610d93565b505050565b60007f01ffc9a7000000000000000000000000000000000000000000000000000000007bffffffffffffffffffffffffffffffffffffffffffffffffffffffff1916827bffffffffffffffffffffffffffffffffffffffffffffffffffffffff1916149050919050565b610bfb8161145e565b610c3a576040517f08c379a0000000000000000000000000000000000000000000000000000000008152600401610c31906128ad565b60405180910390fd5b50565b600033905090565b816004600083815260200190815260200160002060006101000a81548173ffffffffffffffffffffffffffffffffffffffff021916908373ffffffffffffffffffffffffffffffffffffffff160217905550808273ffffffffffffffffffffffffffffffffffffffff16610cb883610804565b73ffffffffffffffffffffffffffffffffffffffff167f8c5be1e5ebec7d5bd14f71427d1e84f3dd0314c0f7b2291e5b200ac8c7c3b92560405160405180910390a45050565b600080610d0a83610804565b90508073ffffffffffffffffffffffffffffffffffffffff168473ffffffffffffffffffffffffffffffffffffffff161480610d4c5750610d4b8185610a6e565b5b80610d8a57508373ffffffffffffffffffffffffffffffffffffffff16610d7284610519565b73ffffffffffffffffffffffffffffffffffffffff16145b91505092915050565b8273ffffffffffffffffffffffffffffffffffffffff16610db382610804565b73ffffffffffffffffffffffffffffffffffffffff1614610e09576040517f08c379a0000000000000000000000000000000000000000000000000000000008152600401610e0090612a3d565b60405180910390fd5b600073ffffffffffffffffffffffffffffffffffffffff168273ffffffffffffffffffffffffffffffffffffffff1603610e78576040517f08c379a0000000000000000000000000000000000000000000000000000000008152600401610e6f90612acf565b60405180910390fd5b610e85838383600161149f565b8273ffffffffffffffffffffffffffffffffffffffff16610ea582610804565b73ffffffffffffffffffffffffffffffffffffffff1614610efb576040517f08c379a0000000000000000000000000000000000000000000000000000000008152600401610ef290612a3d565b60405180910390fd5b6004600082815260200190815260200160002060006101000a81549073ffffffffffffffffffffffffffffffffffffffff02191690556001600360008573ffffffffffffffffffffffffffffffffffffffff1673ffffffffffffffffffffffffffffffffffffffff168152602001908152602001600020600082825403925050819055506001600360008473ffffffffffffffffffffffffffffffffffffffff1673ffffffffffffffffffffffffffffffffffffffff16815260200190815260200160002060008282540192505081905550816002600083815260200190815260200160002060006101000a81548173ffffffffffffffffffffffffffffffffffffffff021916908373ffffffffffffffffffffffffffffffffffffffff160217905550808273ffffffffffffffffffffffffffffffffffffffff168473ffffffffffffffffffffffffffffffffffffffff167fddf252ad1be2c89b69c2b068fc378daa952ba7f163c4a11628f55a4df523b3ef60405160405180910390a461108783838360016115c5565b505050565b611095816115cb565b50565b6001816000016000828254019250508190555050565b600081600001549050919050565b6110d682826040518060200160405280600081525061161e565b5050565b6110e38261145e565b611122576040517f08c379a000000000000000000000000000000000000000000000000000000000815260040161111990612b61565b60405180910390fd5b806006600084815260200190815260200160002090816111429190612d2d565b505050565b60006002600083815260200190815260200160002060009054906101000a900473ffffffffffffffffffffffffffffffffffffffff169050919050565b8173ffffffffffffffffffffffffffffffffffffffff168373ffffffffffffffffffffffffffffffffffffffff16036111f2576040517f08c379a00000000000000000000000000000000000000000000000000000000081526004016111e990612e4b565b60405180910390fd5b80600560008573ffffffffffffffffffffffffffffffffffffffff1673ffffffffffffffffffffffffffffffffffffffff16815260200190815260200160002060008473ffffffffffffffffffffffffffffffffffffffff1673ffffffffffffffffffffffffffffffffffffffff16815260200190815260200160002060006101000a81548160ff0219169083151502179055508173ffffffffffffffffffffffffffffffffffffffff168373ffffffffffffffffffffffffffffffffffffffff167f17307eab39ab6107e8899845ad3d59bd9653f200f220920489ca2b5937696c31836040516112e39190611f3f565b60405180910390a3505050565b6112fb848484610d93565b61130784848484611679565b611346576040517f08c379a000000000000000000000000000000000000000000000000000000000815260040161133d90612edd565b60405180910390fd5b50505050565b606061135782610bf2565b600060066000848152602001908152602001600020805461137790612571565b80601f01602080910402602001604051908101604052809291908181526020018280546113a390612571565b80156113f05780601f106113c5576101008083540402835291602001916113f0565b820191906000526020600020905b8154815290600101906020018083116113d357829003601f168201915b505050505090506000611401611800565b90506000815103611416578192505050611459565b60008251111561144b578082604051602001611433929190612f39565b60405160208183030381529060405292505050611459565b61145484611817565b925050505b919050565b60008073ffffffffffffffffffffffffffffffffffffffff1661148083611147565b73ffffffffffffffffffffffffffffffffffffffff1614159050919050565b60018111156115bf57600073ffffffffffffffffffffffffffffffffffffffff168473ffffffffffffffffffffffffffffffffffffffff16146115335780600360008673ffffffffffffffffffffffffffffffffffffffff1673ffffffffffffffffffffffffffffffffffffffff168152602001908152602001600020600082825461152b9190612f5d565b925050819055505b600073ffffffffffffffffffffffffffffffffffffffff168373ffffffffffffffffffffffffffffffffffffffff16146115be5780600360008573ffffffffffffffffffffffffffffffffffffffff1673ffffffffffffffffffffffffffffffffffffffff16815260200190815260200160002060008282546115b69190612f91565b925050819055505b5b50505050565b50505050565b6115d48161187f565b60006006600083815260200190815260200160002080546115f490612571565b90501461161b5760066000828152602001908152602001600020600061161a9190611e2e565b5b50565b61162883836119cd565b6116356000848484611679565b611674576040517f08c379a000000000000000000000000000000000000000000000000000000000815260040161166b90612edd565b60405180910390fd5b505050565b600061169a8473ffffffffffffffffffffffffffffffffffffffff16611bea565b156117f3578373ffffffffffffffffffffffffffffffffffffffff1663150b7a026116c3610c3d565b8786866040518563ffffffff1660e01b81526004016116e5949392919061301a565b6020604051808303816000875af192505050801561172157506040513d601f19601f8201168201806040525081019061171e919061307b565b60015b6117a3573d8060008114611751576040519150601f19603f3d011682016040523d82523d6000602084013e611756565b606091505b50600081510361179b576040517f08c379a000000000000000000000000000000000000000000000000000000000815260040161179290612edd565b60405180910390fd5b805181602001fd5b63150b7a0260e01b7bffffffffffffffffffffffffffffffffffffffffffffffffffffffff1916817bffffffffffffffffffffffffffffffffffffffffffffffffffffffff1916149150506117f8565b600190505b949350505050565b606060405180602001604052806000815250905090565b606061182282610bf2565b600061182c611800565b9050600081511161184c5760405180602001604052806000815250611877565b8061185684611c0d565b604051602001611867929190612f39565b6040516020818303038152906040525b915050919050565b600061188a82610804565b905061189a81600084600161149f565b6118a382610804565b90506004600083815260200190815260200160002060006101000a81549073ffffffffffffffffffffffffffffffffffffffff02191690556001600360008373ffffffffffffffffffffffffffffffffffffffff1673ffffffffffffffffffffffffffffffffffffffff168152602001908152602001600020600082825403925050819055506002600083815260200190815260200160002060006101000a81549073ffffffffffffffffffffffffffffffffffffffff021916905581600073ffffffffffffffffffffffffffffffffffffffff168273ffffffffffffffffffffffffffffffffffffffff167fddf252ad1be2c89b69c2b068fc378daa952ba7f163c4a11628f55a4df523b3ef60405160405180910390a46119c98160008460016115c5565b5050565b600073ffffffffffffffffffffffffffffffffffffffff168273ffffffffffffffffffffffffffffffffffffffff1603611a3c576040517f08c379a0000000000000000000000000000000000000000000000000000000008152600401611a33906130f4565b60405180910390fd5b611a458161145e565b15611a85576040517f08c379a0000000000000000000000000000000000000000000000000000000008152600401611a7c90613160565b60405180910390fd5b611a9360008383600161149f565b611a9c8161145e565b15611adc576040517f08c379a0000000000000000000000000000000000000000000000000000000008152600401611ad390613160565b60405180910390fd5b6001600360008473ffffffffffffffffffffffffffffffffffffffff1673ffffffffffffffffffffffffffffffffffffffff16815260200190815260200160002060008282540192505081905550816002600083815260200190815260200160002060006101000a81548173ffffffffffffffffffffffffffffffffffffffff021916908373ffffffffffffffffffffffffffffffffffffffff160217905550808273ffffffffffffffffffffffffffffffffffffffff16600073ffffffffffffffffffffffffffffffffffffffff167fddf252ad1be2c89b69c2b068fc378daa952ba7f163c4a11628f55a4df523b3ef60405160405180910390a4611be66000838360016115c5565b5050565b6000808273ffffffffffffffffffffffffffffffffffffffff163b119050919050565b606060006001611c1c84611cdb565b01905060008167ffffffffffffffff811115611c3b57611c3a612194565b5b6040519080825280601f01601f191660200182016040528015611c6d5781602001600182028036833780820191505090505b509050600082602001820190505b600115611cd0578080600190039150507f3031323334353637383961626364656600000000000000000000000000000000600a86061a8153600a8581611cc457611cc3613180565b5b04945060008503611c7b575b819350505050919050565b600080600090507a184f03e93ff9f4daa797ed6e38ed64bf6a1f0100000000000000008310611d39577a184f03e93ff9f4daa797ed6e38ed64bf6a1f0100000000000000008381611d2f57611d2e613180565b5b0492506040810190505b6d04ee2d6d415b85acef81000000008310611d76576d04ee2d6d415b85acef81000000008381611d6c57611d6b613180565b5b0492506020810190505b662386f26fc100008310611da557662386f26fc100008381611d9b57611d9a613180565b5b0492506010810190505b6305f5e1008310611dce576305f5e1008381611dc457611dc3613180565b5b0492506008810190505b6127108310611df3576127108381611de957611de8613180565b5b0492506004810190505b60648310611e165760648381611e0c57611e0b613180565b5b0492506002810190505b600a8310611e25576001810190505b80915050919050565b508054611e3a90612571565b6000825580601f10611e4c5750611e6b565b601f016020900490600052602060002090810190611e6a9190611e6e565b5b50565b5b80821115611e87576000816000905550600101611e6f565b5090565b6000604051905090565b600080fd5b600080fd5b60007fffffffff0000000000000000000000000000000000000000000000000000000082169050919050565b611ed481611e9f565b8114611edf57600080fd5b50565b600081359050611ef181611ecb565b92915050565b600060208284031215611f0d57611f0c611e95565b5b6000611f1b84828501611ee2565b91505092915050565b60008115159050919050565b611f3981611f24565b82525050565b6000602082019050611f546000830184611f30565b92915050565b600081519050919050565b600082825260208201905092915050565b60005b83811015611f94578082015181840152602081019050611f79565b60008484015250505050565b6000601f19601f8301169050919050565b6000611fbc82611f5a565b611fc68185611f65565b9350611fd6818560208601611f76565b611fdf81611fa0565b840191505092915050565b600060208201905081810360008301526120048184611fb1565b905092915050565b6000819050919050565b61201f8161200c565b811461202a57600080fd5b50565b60008135905061203c81612016565b92915050565b60006020828403121561205857612057611e95565b5b60006120668482850161202d565b91505092915050565b600073ffffffffffffffffffffffffffffffffffffffff82169050919050565b600061209a8261206f565b9050919050565b6120aa8161208f565b82525050565b60006020820190506120c560008301846120a1565b92915050565b6120d48161208f565b81146120df57600080fd5b50565b6000813590506120f1816120cb565b92915050565b6000806040838503121561210e5761210d611e95565b5b600061211c858286016120e2565b925050602061212d8582860161202d565b9150509250929050565b6000806000606084860312156121505761214f611e95565b5b600061215e868287016120e2565b935050602061216f868287016120e2565b92505060406121808682870161202d565b9150509250925092565b600080fd5b600080fd5b7f4e487b7100000000000000000000000000000000000000000000000000000000600052604160045260246000fd5b6121cc82611fa0565b810181811067ffffffffffffffff821117156121eb576121ea612194565b5b80604052505050565b60006121fe611e8b565b905061220a82826121c3565b919050565b600067ffffffffffffffff82111561222a57612229612194565b5b61223382611fa0565b9050602081019050919050565b82818337600083830152505050565b600061226261225d8461220f565b6121f4565b90508281526020810184848401111561227e5761227d61218f565b5b612289848285612240565b509392505050565b600082601f8301126122a6576122a561218a565b5b81356122b684826020860161224f565b91505092915050565b600080604083850312156122d6576122d5611e95565b5b600083013567ffffffffffffffff8111156122f4576122f3611e9a565b5b61230085828601612291565b92505060206123118582860161202d565b9150509250929050565b6123248161200c565b82525050565b600060208201905061233f600083018461231b565b92915050565b60006020828403121561235b5761235a611e95565b5b6000612369848285016120e2565b91505092915050565b61237b81611f24565b811461238657600080fd5b50565b60008135905061239881612372565b92915050565b600080604083850312156123b5576123b4611e95565b5b60006123c3858286016120e2565b92505060206123d485828601612389565b9150509250929050565b600067ffffffffffffffff8211156123f9576123f8612194565b5b61240282611fa0565b9050602081019050919050565b600061242261241d846123de565b6121f4565b90508281526020810184848401111561243e5761243d61218f565b5b612449848285612240565b509392505050565b600082601f8301126124665761246561218a565b5b813561247684826020860161240f565b91505092915050565b6000806000806080858703121561249957612498611e95565b5b60006124a7878288016120e2565b94505060206124b8878288016120e2565b93505060406124c98782880161202d565b925050606085013567ffffffffffffffff8111156124ea576124e9611e9a565b5b6124f687828801612451565b91505092959194509250565b6000806040838503121561251957612518611e95565b5b6000612527858286016120e2565b9250506020612538858286016120e2565b9150509250929050565b7f4e487b7100000000000000000000000000000000000000000000000000000000600052602260045260246000fd5b6000600282049050600182168061258957607f821691505b60208210810361259c5761259b612542565b5b50919050565b7f4552433732313a20617070726f76616c20746f2063757272656e74206f776e6560008201527f7200000000000000000000000000000000000000000000000000000000000000602082015250565b60006125fe602183611f65565b9150612609826125a2565b604082019050919050565b6000602082019050818103600083015261262d816125f1565b9050919050565b7f4552433732313a20617070726f76652063616c6c6572206973206e6f7420746f60008201527f6b656e206f776e6572206f7220617070726f76656420666f7220616c6c000000602082015250565b6000612690603d83611f65565b915061269b82612634565b604082019050919050565b600060208201905081810360008301526126bf81612683565b9050919050565b7f4552433732313a2063616c6c6572206973206e6f7420746f6b656e206f776e6560008201527f72206f7220617070726f76656400000000000000000000000000000000000000602082015250565b6000612722602d83611f65565b915061272d826126c6565b604082019050919050565b6000602082019050818103600083015261275181612715565b9050919050565b7f4552433732314275726e61626c653a2063616c6c6572206973206e6f74206f7760008201527f6e6572206e6f7220617070726f76656400000000000000000000000000000000602082015250565b60006127b4603083611f65565b91506127bf82612758565b604082019050919050565b600060208201905081810360008301526127e3816127a7565b9050919050565b7f4e487b7100000000000000000000000000000000000000000000000000000000600052601160045260246000fd5b60006128248261200c565b91507fffffffffffffffffffffffffffffffffffffffffffffffffffffffffffffffff8203612856576128556127ea565b5b600182019050919050565b7f4552433732313a20696e76616c696420746f6b656e2049440000000000000000600082015250565b6000612897601883611f65565b91506128a282612861565b602082019050919050565b600060208201905081810360008301526128c68161288a565b9050919050565b7f4552433732313a2061646472657373207a65726f206973206e6f74206120766160008201527f6c6964206f776e65720000000000000000000000000000000000000000000000602082015250565b6000612929602983611f65565b9150612934826128cd565b604082019050919050565b600060208201905081810360008301526129588161291c565b9050919050565b7f46726f6d2061646472657373206d75737420626520746f6b656e206f776e6572600082015250565b6000612995602083611f65565b91506129a08261295f565b602082019050919050565b600060208201905081810360008301526129c481612988565b9050919050565b7f4552433732313a207472616e736665722066726f6d20696e636f72726563742060008201527f6f776e6572000000000000000000000000000000000000000000000000000000602082015250565b6000612a27602583611f65565b9150612a32826129cb565b604082019050919050565b60006020820190508181036000830152612a5681612a1a565b9050919050565b7f4552433732313a207472616e7366657220746f20746865207a65726f2061646460008201527f7265737300000000000000000000000000000000000000000000000000000000602082015250565b6000612ab9602483611f65565b9150612ac482612a5d565b604082019050919050565b60006020820190508181036000830152612ae881612aac565b9050919050565b7f45524337323155524953746f726167653a2055524920736574206f66206e6f6e60008201527f6578697374656e7420746f6b656e000000000000000000000000000000000000602082015250565b6000612b4b602e83611f65565b9150612b5682612aef565b604082019050919050565b60006020820190508181036000830152612b7a81612b3e565b9050919050565b60008190508160005260206000209050919050565b60006020601f8301049050919050565b600082821b905092915050565b600060088302612be37fffffffffffffffffffffffffffffffffffffffffffffffffffffffffffffffff82612ba6565b612bed8683612ba6565b95508019841693508086168417925050509392505050565b6000819050919050565b6000612c2a612c25612c208461200c565b612c05565b61200c565b9050919050565b6000819050919050565b612c4483612c0f565b612c58612c5082612c31565b848454612bb3565b825550505050565b600090565b612c6d612c60565b612c78818484612c3b565b505050565b5b81811015612c9c57612c91600082612c65565b600181019050612c7e565b5050565b601f821115612ce157612cb281612b81565b612cbb84612b96565b81016020851015612cca578190505b612cde612cd685612b96565b830182612c7d565b50505b505050565b600082821c905092915050565b6000612d0460001984600802612ce6565b1980831691505092915050565b6000612d1d8383612cf3565b9150826002028217905092915050565b612d3682611f5a565b67ffffffffffffffff811115612d4f57612d4e612194565b5b612d598254612571565b612d64828285612ca0565b600060209050601f831160018114612d975760008415612d85578287015190505b612d8f8582612d11565b865550612df7565b601f198416612da586612b81565b60005b82811015612dcd57848901518255600182019150602085019450602081019050612da8565b86831015612dea5784890151612de6601f891682612cf3565b8355505b6001600288020188555050505b505050505050565b7f4552433732313a20617070726f766520746f2063616c6c657200000000000000600082015250565b6000612e35601983611f65565b9150612e4082612dff565b602082019050919050565b60006020820190508181036000830152612e6481612e28565b9050919050565b7f4552433732313a207472616e7366657220746f206e6f6e20455243373231526560008201527f63656976657220696d706c656d656e7465720000000000000000000000000000602082015250565b6000612ec7603283611f65565b9150612ed282612e6b565b604082019050919050565b60006020820190508181036000830152612ef681612eba565b9050919050565b600081905092915050565b6000612f1382611f5a565b612f1d8185612efd565b9350612f2d818560208601611f76565b80840191505092915050565b6000612f458285612f08565b9150612f518284612f08565b91508190509392505050565b6000612f688261200c565b9150612f738361200c565b9250828203905081811115612f8b57612f8a6127ea565b5b92915050565b6000612f9c8261200c565b9150612fa78361200c565b9250828201905080821115612fbf57612fbe6127ea565b5b92915050565b600081519050919050565b600082825260208201905092915050565b6000612fec82612fc5565b612ff68185612fd0565b9350613006818560208601611f76565b61300f81611fa0565b840191505092915050565b600060808201905061302f60008301876120a1565b61303c60208301866120a1565b613049604083018561231b565b818103606083015261305b8184612fe1565b905095945050505050565b60008151905061307581611ecb565b92915050565b60006020828403121561309157613090611e95565b5b600061309f84828501613066565b91505092915050565b7f4552433732313a206d696e7420746f20746865207a65726f2061646472657373600082015250565b60006130de602083611f65565b91506130e9826130a8565b602082019050919050565b6000602082019050818103600083015261310d816130d1565b9050919050565b7f4552433732313a20746f6b656e20616c7265616479206d696e74656400000000600082015250565b600061314a601c83611f65565b915061315582613114565b602082019050919050565b600060208201905081810360008301526131798161313d565b9050919050565b7f4e487b7100000000000000000000000000000000000000000000000000000000600052601260045260246000fdfea2646970667358221220a3ce12ff8557e3cb351382e74937ece933a3e51bd6e06ab358558f3e4ec4956364736f6c63430008110033",
  "linkReferences": {},
  "deployedLinkReferences": {}
}