{
  "_format": "hh-sol-artifact-1",
  "contractName": "TicketMarket",
  "sourceName": "contracts/TicketMarket.sol",
  "abi": [
    {
      "inputs": [],
      "stateMutability": "nonpayable",
      "type": "constructor"
    },
    {
      "anonymous": false,
      "inputs": [
        {
          "indexed": true,
          "internalType": "uint256",
          "name": "tokenID",
          "type": "uint256"
        },
        {
          "indexed": false,
          "internalType": "address",
          "name": "ticketOwner",
          "type": "address"
        },
        {
          "indexed": false,
          "internalType": "uint256",
          "name": "price",
          "type": "uint256"
        }
      ],
      "name": "MarketItemAfterSale",
      "type": "event"
    },
    {
      "anonymous": false,
      "inputs": [
        {
          "indexed": false,
          "internalType": "uint256",
          "name": "eventID",
          "type": "uint256"
        },
        {
          "indexed": false,
          "internalType": "address",
          "name": "seller",
          "type": "address"
        },
        {
          "indexed": false,
          "internalType": "uint256",
          "name": "price",
          "type": "uint256"
        },
        {
          "indexed": false,
          "internalType": "uint256",
          "name": "supply",
          "type": "uint256"
        },
        {
          "indexed": false,
          "internalType": "string",
          "name": "ticketType",
          "type": "string"
        }
      ],
      "name": "MarketItemCreation",
      "type": "event"
    },
    {
      "anonymous": false,
      "inputs": [
        {
          "indexed": true,
          "internalType": "uint256",
          "name": "tokenID",
          "type": "uint256"
        },
        {
          "indexed": false,
          "internalType": "address",
          "name": "ticketOwner",
          "type": "address"
        },
        {
          "indexed": false,
          "internalType": "address",
          "name": "seller",
          "type": "address"
        },
        {
          "indexed": false,
          "internalType": "uint256",
          "name": "price",
          "type": "uint256"
        }
      ],
      "name": "MarketItemResell",
      "type": "event"
    },
    {
      "anonymous": false,
      "inputs": [
        {
          "indexed": true,
          "internalType": "uint256",
          "name": "tokenID",
          "type": "uint256"
        },
        {
          "indexed": false,
          "internalType": "address",
          "name": "seller",
          "type": "address"
        },
        {
          "indexed": false,
          "internalType": "uint256",
          "name": "price",
          "type": "uint256"
        }
      ],
      "name": "MarketItemStopSale",
      "type": "event"
    },
    {
      "anonymous": false,
      "inputs": [
        {
          "indexed": false,
          "internalType": "uint256[]",
          "name": "tokenID",
          "type": "uint256[]"
        },
        {
          "indexed": false,
          "internalType": "address",
          "name": "seller",
          "type": "address"
        },
        {
          "indexed": false,
          "internalType": "uint256",
          "name": "price",
          "type": "uint256"
        }
      ],
      "name": "StopBatchTicketSale",
      "type": "event"
    },
    {
      "inputs": [],
      "name": "ListEventOwnerItems",
      "outputs": [
        {
          "components": [
            {
              "internalType": "address",
              "name": "nftContract",
              "type": "address"
            },
            {
              "internalType": "uint256",
              "name": "tokenID",
              "type": "uint256"
            },
            {
              "internalType": "uint256",
              "name": "eventID",
              "type": "uint256"
            },
            {
              "internalType": "address payable",
              "name": "ticketOwner",
              "type": "address"
            },
            {
              "internalType": "address payable",
              "name": "eventOwner",
              "type": "address"
            },
            {
              "internalType": "address payable",
              "name": "seller",
              "type": "address"
            },
            {
              "internalType": "uint256",
              "name": "price",
              "type": "uint256"
            },
            {
              "internalType": "string",
              "name": "ticketType",
              "type": "string"
            },
            {
              "internalType": "bool",
              "name": "sold",
              "type": "bool"
            },
            {
              "internalType": "bool",
              "name": "soldBefore",
              "type": "bool"
            }
          ],
          "internalType": "struct TicketMarket.MarketItem[]",
          "name": "",
          "type": "tuple[]"
        }
      ],
      "stateMutability": "view",
      "type": "function"
    },
    {
      "inputs": [],
      "name": "ListEventOwnerItemsOnSale",
      "outputs": [
        {
          "components": [
            {
              "internalType": "address",
              "name": "nftContract",
              "type": "address"
            },
            {
              "internalType": "uint256",
              "name": "tokenID",
              "type": "uint256"
            },
            {
              "internalType": "uint256",
              "name": "eventID",
              "type": "uint256"
            },
            {
              "internalType": "address payable",
              "name": "ticketOwner",
              "type": "address"
            },
            {
              "internalType": "address payable",
              "name": "eventOwner",
              "type": "address"
            },
            {
              "internalType": "address payable",
              "name": "seller",
              "type": "address"
            },
            {
              "internalType": "uint256",
              "name": "price",
              "type": "uint256"
            },
            {
              "internalType": "string",
              "name": "ticketType",
              "type": "string"
            },
            {
              "internalType": "bool",
              "name": "sold",
              "type": "bool"
            },
            {
              "internalType": "bool",
              "name": "soldBefore",
              "type": "bool"
            }
          ],
          "internalType": "struct TicketMarket.MarketItem[]",
          "name": "",
          "type": "tuple[]"
        }
      ],
      "stateMutability": "view",
      "type": "function"
    },
    {
      "inputs": [
        {
          "internalType": "uint256",
          "name": "eventId",
          "type": "uint256"
        }
      ],
      "name": "ListEventTicketAll",
      "outputs": [
        {
          "components": [
            {
              "internalType": "address",
              "name": "nftContract",
              "type": "address"
            },
            {
              "internalType": "uint256",
              "name": "tokenID",
              "type": "uint256"
            },
            {
              "internalType": "uint256",
              "name": "eventID",
              "type": "uint256"
            },
            {
              "internalType": "address payable",
              "name": "ticketOwner",
              "type": "address"
            },
            {
              "internalType": "address payable",
              "name": "eventOwner",
              "type": "address"
            },
            {
              "internalType": "address payable",
              "name": "seller",
              "type": "address"
            },
            {
              "internalType": "uint256",
              "name": "price",
              "type": "uint256"
            },
            {
              "internalType": "string",
              "name": "ticketType",
              "type": "string"
            },
            {
              "internalType": "bool",
              "name": "sold",
              "type": "bool"
            },
            {
              "internalType": "bool",
              "name": "soldBefore",
              "type": "bool"
            }
          ],
          "internalType": "struct TicketMarket.MarketItem[]",
          "name": "",
          "type": "tuple[]"
        }
      ],
      "stateMutability": "view",
      "type": "function"
    },
    {
      "inputs": [
        {
          "internalType": "address",
          "name": "user",
          "type": "address"
        }
      ],
      "name": "ListEventTicketByPublicAddress",
      "outputs": [
        {
          "components": [
            {
              "internalType": "address",
              "name": "nftContract",
              "type": "address"
            },
            {
              "internalType": "uint256",
              "name": "tokenID",
              "type": "uint256"
            },
            {
              "internalType": "uint256",
              "name": "eventID",
              "type": "uint256"
            },
            {
              "internalType": "address payable",
              "name": "ticketOwner",
              "type": "address"
            },
            {
              "internalType": "address payable",
              "name": "eventOwner",
              "type": "address"
            },
            {
              "internalType": "address payable",
              "name": "seller",
              "type": "address"
            },
            {
              "internalType": "uint256",
              "name": "price",
              "type": "uint256"
            },
            {
              "internalType": "string",
              "name": "ticketType",
              "type": "string"
            },
            {
              "internalType": "bool",
              "name": "sold",
              "type": "bool"
            },
            {
              "internalType": "bool",
              "name": "soldBefore",
              "type": "bool"
            }
          ],
          "internalType": "struct TicketMarket.MarketItem[]",
          "name": "",
          "type": "tuple[]"
        }
      ],
      "stateMutability": "view",
      "type": "function"
    },
    {
      "inputs": [
        {
          "internalType": "uint256",
          "name": "eventId",
          "type": "uint256"
        }
      ],
      "name": "ListEventTicketOnSale",
      "outputs": [
        {
          "components": [
            {
              "internalType": "address",
              "name": "nftContract",
              "type": "address"
            },
            {
              "internalType": "uint256",
              "name": "tokenID",
              "type": "uint256"
            },
            {
              "internalType": "uint256",
              "name": "eventID",
              "type": "uint256"
            },
            {
              "internalType": "address payable",
              "name": "ticketOwner",
              "type": "address"
            },
            {
              "internalType": "address payable",
              "name": "eventOwner",
              "type": "address"
            },
            {
              "internalType": "address payable",
              "name": "seller",
              "type": "address"
            },
            {
              "internalType": "uint256",
              "name": "price",
              "type": "uint256"
            },
            {
              "internalType": "string",
              "name": "ticketType",
              "type": "string"
            },
            {
              "internalType": "bool",
              "name": "sold",
              "type": "bool"
            },
            {
              "internalType": "bool",
              "name": "soldBefore",
              "type": "bool"
            }
          ],
          "internalType": "struct TicketMarket.MarketItem[]",
          "name": "",
          "type": "tuple[]"
        }
      ],
      "stateMutability": "view",
      "type": "function"
    },
    {
      "inputs": [
        {
          "internalType": "uint256",
          "name": "eventId",
          "type": "uint256"
        }
      ],
      "name": "ListEventTicketSold",
      "outputs": [
        {
          "components": [
            {
              "internalType": "address",
              "name": "nftContract",
              "type": "address"
            },
            {
              "internalType": "uint256",
              "name": "tokenID",
              "type": "uint256"
            },
            {
              "internalType": "uint256",
              "name": "eventID",
              "type": "uint256"
            },
            {
              "internalType": "address payable",
              "name": "ticketOwner",
              "type": "address"
            },
            {
              "internalType": "address payable",
              "name": "eventOwner",
              "type": "address"
            },
            {
              "internalType": "address payable",
              "name": "seller",
              "type": "address"
            },
            {
              "internalType": "uint256",
              "name": "price",
              "type": "uint256"
            },
            {
              "internalType": "string",
              "name": "ticketType",
              "type": "string"
            },
            {
              "internalType": "bool",
              "name": "sold",
              "type": "bool"
            },
            {
              "internalType": "bool",
              "name": "soldBefore",
              "type": "bool"
            }
          ],
          "internalType": "struct TicketMarket.MarketItem[]",
          "name": "",
          "type": "tuple[]"
        }
      ],
      "stateMutability": "view",
      "type": "function"
    },
    {
      "inputs": [],
      "name": "ListItemsOnSale",
      "outputs": [
        {
          "components": [
            {
              "internalType": "address",
              "name": "nftContract",
              "type": "address"
            },
            {
              "internalType": "uint256",
              "name": "tokenID",
              "type": "uint256"
            },
            {
              "internalType": "uint256",
              "name": "eventID",
              "type": "uint256"
            },
            {
              "internalType": "address payable",
              "name": "ticketOwner",
              "type": "address"
            },
            {
              "internalType": "address payable",
              "name": "eventOwner",
              "type": "address"
            },
            {
              "internalType": "address payable",
              "name": "seller",
              "type": "address"
            },
            {
              "internalType": "uint256",
              "name": "price",
              "type": "uint256"
            },
            {
              "internalType": "string",
              "name": "ticketType",
              "type": "string"
            },
            {
              "internalType": "bool",
              "name": "sold",
              "type": "bool"
            },
            {
              "internalType": "bool",
              "name": "soldBefore",
              "type": "bool"
            }
          ],
          "internalType": "struct TicketMarket.MarketItem[]",
          "name": "",
          "type": "tuple[]"
        }
      ],
      "stateMutability": "view",
      "type": "function"
    },
    {
      "inputs": [],
      "name": "ListUserOnSaleItems",
      "outputs": [
        {
          "components": [
            {
              "internalType": "address",
              "name": "nftContract",
              "type": "address"
            },
            {
              "internalType": "uint256",
              "name": "tokenID",
              "type": "uint256"
            },
            {
              "internalType": "uint256",
              "name": "eventID",
              "type": "uint256"
            },
            {
              "internalType": "address payable",
              "name": "ticketOwner",
              "type": "address"
            },
            {
              "internalType": "address payable",
              "name": "eventOwner",
              "type": "address"
            },
            {
              "internalType": "address payable",
              "name": "seller",
              "type": "address"
            },
            {
              "internalType": "uint256",
              "name": "price",
              "type": "uint256"
            },
            {
              "internalType": "string",
              "name": "ticketType",
              "type": "string"
            },
            {
              "internalType": "bool",
              "name": "sold",
              "type": "bool"
            },
            {
              "internalType": "bool",
              "name": "soldBefore",
              "type": "bool"
            }
          ],
          "internalType": "struct TicketMarket.MarketItem[]",
          "name": "",
          "type": "tuple[]"
        }
      ],
      "stateMutability": "view",
      "type": "function"
    },
    {
      "inputs": [],
      "name": "ListUserOwnItems",
      "outputs": [
        {
          "components": [
            {
              "internalType": "address",
              "name": "nftContract",
              "type": "address"
            },
            {
              "internalType": "uint256",
              "name": "tokenID",
              "type": "uint256"
            },
            {
              "internalType": "uint256",
              "name": "eventID",
              "type": "uint256"
            },
            {
              "internalType": "address payable",
              "name": "ticketOwner",
              "type": "address"
            },
            {
              "internalType": "address payable",
              "name": "eventOwner",
              "type": "address"
            },
            {
              "internalType": "address payable",
              "name": "seller",
              "type": "address"
            },
            {
              "internalType": "uint256",
              "name": "price",
              "type": "uint256"
            },
            {
              "internalType": "string",
              "name": "ticketType",
              "type": "string"
            },
            {
              "internalType": "bool",
              "name": "sold",
              "type": "bool"
            },
            {
              "internalType": "bool",
              "name": "soldBefore",
              "type": "bool"
            }
          ],
          "internalType": "struct TicketMarket.MarketItem[]",
          "name": "",
          "type": "tuple[]"
        }
      ],
      "stateMutability": "view",
      "type": "function"
    },
    {
      "inputs": [
        {
          "internalType": "uint256",
          "name": "tokenId",
          "type": "uint256"
        }
      ],
      "name": "NFTItem",
      "outputs": [
        {
          "components": [
            {
              "internalType": "address",
              "name": "nftContract",
              "type": "address"
            },
            {
              "internalType": "uint256",
              "name": "tokenID",
              "type": "uint256"
            },
            {
              "internalType": "uint256",
              "name": "eventID",
              "type": "uint256"
            },
            {
              "internalType": "address payable",
              "name": "ticketOwner",
              "type": "address"
            },
            {
              "internalType": "address payable",
              "name": "eventOwner",
              "type": "address"
            },
            {
              "internalType": "address payable",
              "name": "seller",
              "type": "address"
            },
            {
              "internalType": "uint256",
              "name": "price",
              "type": "uint256"
            },
            {
              "internalType": "string",
              "name": "ticketType",
              "type": "string"
            },
            {
              "internalType": "bool",
              "name": "sold",
              "type": "bool"
            },
            {
              "internalType": "bool",
              "name": "soldBefore",
              "type": "bool"
            }
          ],
          "internalType": "struct TicketMarket.MarketItem",
          "name": "",
          "type": "tuple"
        }
      ],
      "stateMutability": "view",
      "type": "function"
    },
    {
      "inputs": [
        {
          "internalType": "uint256",
          "name": "price",
          "type": "uint256"
        },
        {
          "internalType": "address",
          "name": "NftCont",
          "type": "address"
        },
        {
          "internalType": "uint256",
          "name": "tokenId",
          "type": "uint256"
        }
      ],
      "name": "ResellTicket",
      "outputs": [],
      "stateMutability": "payable",
      "type": "function"
    },
    {
      "inputs": [
        {
          "internalType": "uint256",
          "name": "price",
          "type": "uint256"
        },
        {
          "internalType": "address",
          "name": "NftCont",
          "type": "address"
        },
        {
          "internalType": "uint256[]",
          "name": "tokenIds",
          "type": "uint256[]"
        },
        {
          "internalType": "uint256",
          "name": "eventid",
          "type": "uint256"
        }
      ],
      "name": "StopBatchSale",
      "outputs": [],
      "stateMutability": "payable",
      "type": "function"
    },
    {
      "inputs": [
        {
          "internalType": "uint256",
          "name": "price",
          "type": "uint256"
        },
        {
          "internalType": "address",
          "name": "NftCont",
          "type": "address"
        },
        {
          "internalType": "uint256",
          "name": "tokenId",
          "type": "uint256"
        }
      ],
      "name": "StopTicketSale",
      "outputs": [],
      "stateMutability": "payable",
      "type": "function"
    },
    {
      "inputs": [
        {
          "internalType": "uint256",
          "name": "price",
          "type": "uint256"
        },
        {
          "internalType": "address",
          "name": "NftCont",
          "type": "address"
        },
        {
          "internalType": "string",
          "name": "ticketType",
          "type": "string"
        },
        {
          "internalType": "uint256",
          "name": "eventID",
          "type": "uint256"
        },
        {
          "internalType": "uint256",
          "name": "supply",
          "type": "uint256"
        }
      ],
      "name": "createMarketItem",
      "outputs": [],
      "stateMutability": "payable",
      "type": "function"
    },
    {
      "inputs": [
        {
          "internalType": "uint256",
          "name": "tokenid",
          "type": "uint256"
        }
      ],
      "name": "isInMarket",
      "outputs": [
        {
          "internalType": "bool",
          "name": "",
          "type": "bool"
        }
      ],
      "stateMutability": "view",
      "type": "function"
    },
    {
      "inputs": [
        {
          "internalType": "uint256",
          "name": "tokenId",
          "type": "uint256"
        }
      ],
      "name": "isSoldBefore",
      "outputs": [
        {
          "internalType": "bool",
          "name": "",
          "type": "bool"
        }
      ],
      "stateMutability": "view",
      "type": "function"
    },
    {
      "inputs": [
        {
          "internalType": "address",
          "name": "NftCont",
          "type": "address"
        },
        {
          "internalType": "uint256",
          "name": "tokenId",
          "type": "uint256"
        }
      ],
      "name": "ticketSale",
      "outputs": [],
      "stateMutability": "payable",
      "type": "function"
    }
  ],
  "bytecode": "0x608060405234801561001057600080fd5b50600160008190555033600360006101000a81548173ffffffffffffffffffffffffffffffffffffffff021916908373ffffffffffffffffffffffffffffffffffffffff160217905550615392806100696000396000f3fe6080604052600436106100fe5760003560e01c80636aaf93d211610095578063b19d4e0811610064578063b19d4e0814610334578063b666aa3114610371578063c2301b691461039c578063df75d46f146103d9578063eb312d37146103f5576100fe565b80636aaf93d2146102525780638113ee711461028f57806385c15fed146102cc578063986d88e014610309576100fe565b8063338b5a4e116100d1578063338b5a4e146101a3578063396f7d15146101bf5780634b211569146101fc5780634cee5a3314610227576100fe565b806308aaac95146101035780630a29d949146101405780630de8af491461015c578063112b358414610178575b600080fd5b34801561010f57600080fd5b5061012a6004803603810190610125919061400d565b610411565b6040516101379190614055565b60405180910390f35b61015a600480360381019061015591906140ce565b61046e565b005b61017660048036038101906101719190614267565b6107bf565b005b34801561018457600080fd5b5061018d610af9565b60405161019a9190614553565b60405180910390f35b6101bd60048036038101906101b89190614575565b610f49565b005b3480156101cb57600080fd5b506101e660048036038101906101e1919061400d565b61125e565b6040516101f39190614055565b60405180910390f35b34801561020857600080fd5b5061021161128e565b60405161021e9190614553565b60405180910390f35b34801561023357600080fd5b5061023c6116de565b6040516102499190614553565b60405180910390f35b34801561025e57600080fd5b506102796004803603810190610274919061400d565b611b2e565b6040516102869190614553565b60405180910390f35b34801561029b57600080fd5b506102b660048036038101906102b1919061400d565b611f68565b6040516102c39190614553565b60405180910390f35b3480156102d857600080fd5b506102f360048036038101906102ee919061400d565b6123a2565b6040516103009190614553565b60405180910390f35b34801561031557600080fd5b5061031e61275c565b60405161032b9190614553565b60405180910390f35b34801561034057600080fd5b5061035b6004803603810190610356919061400d565b612b28565b60405161036891906146a2565b60405180910390f35b34801561037d57600080fd5b50610386612dad565b6040516103939190614553565b60405180910390f35b3480156103a857600080fd5b506103c360048036038101906103be91906146c4565b6131fd565b6040516103d09190614553565b60405180910390f35b6103f360048036038101906103ee91906147a6565b613741565b005b61040f600480360381019061040a9190614575565b613bba565b005b60008060056000848152602001908152602001600020549050600115156004600083815260200190815260200160002060080160019054906101000a900460ff16151503610463576001915050610469565b60009150505b919050565b610476613e3b565b60006005600083815260200190815260200160002054905060006004600083815260200190815260200160002060060154905060006004600084815260200190815260200160002060010154905060006004600085815260200190815260200160002060050160009054906101000a900473ffffffffffffffffffffffffffffffffffffffff16905082341015610542576040517f08c379a00000000000000000000000000000000000000000000000000000000081526004016105399061489a565b60405180910390fd5b600015156004600086815260200190815260200160002060080160009054906101000a900460ff161515146105ac576040517f08c379a00000000000000000000000000000000000000000000000000000000081526004016105a390614906565b60405180910390fd5b336004600086815260200190815260200160002060030160006101000a81548173ffffffffffffffffffffffffffffffffffffffff021916908373ffffffffffffffffffffffffffffffffffffffff16021790555060016004600086815260200190815260200160002060080160006101000a81548160ff02191690831515021790555060006004600086815260200190815260200160002060050160006101000a81548173ffffffffffffffffffffffffffffffffffffffff021916908373ffffffffffffffffffffffffffffffffffffffff16021790555060016004600086815260200190815260200160002060080160016101000a81548160ff0219169083151502179055506106bf6002613e8a565b8573ffffffffffffffffffffffffffffffffffffffff166323b872dd3033856040518463ffffffff1660e01b81526004016106fc93929190614944565b600060405180830381600087803b15801561071657600080fd5b505af115801561072a573d6000803e3d6000fd5b505050508073ffffffffffffffffffffffffffffffffffffffff166108fc349081150290604051600060405180830381858888f19350505050158015610774573d6000803e3d6000fd5b50847f5352ac602b276106b740de31546b729325b98e18c87e86cde3dd97f9726a734b33856040516107a792919061497b565b60405180910390a2505050506107bb613ea0565b5050565b6107c7613e3b565b600083905060008173ffffffffffffffffffffffffffffffffffffffff16631e90b293846040518263ffffffff1660e01b815260040161080791906149a4565b602060405180830381865afa158015610824573d6000803e3d6000fd5b505050506040513d601f19601f8201168201806040525081019061084891906149d4565b90508073ffffffffffffffffffffffffffffffffffffffff163373ffffffffffffffffffffffffffffffffffffffff16146108b8576040517f08c379a00000000000000000000000000000000000000000000000000000000081526004016108af90614a73565b60405180910390fd5b60005b8451811015610aad5760008582815181106108d9576108d8614a93565b5b6020026020010151905060006005600083815260200190815260200160002054905060016004600083815260200190815260200160002060080160006101000a81548160ff02191690831515021790555088600460008381526020019081526020016000206006018190555060006004600083815260200190815260200160002060050160006101000a81548173ffffffffffffffffffffffffffffffffffffffff021916908373ffffffffffffffffffffffffffffffffffffffff160217905550336004600083815260200190815260200160002060030160006101000a81548173ffffffffffffffffffffffffffffffffffffffff021916908373ffffffffffffffffffffffffffffffffffffffff16021790555060016004600083815260200190815260200160002060080160016101000a81548160ff021916908315150217905550610a296002613e8a565b8773ffffffffffffffffffffffffffffffffffffffff166323b872dd3033856040518463ffffffff1660e01b8152600401610a6693929190614944565b600060405180830381600087803b158015610a8057600080fd5b505af1158015610a94573d6000803e3d6000fd5b5050505050508080610aa590614af1565b9150506108bb565b507fdfafe2e7643356941ce9f45cd6df80c12d2513261b6d7ba4b1239e29de436300843388604051610ae193929190614be8565b60405180910390a15050610af3613ea0565b50505050565b60606000610b076001613eaa565b905060008060005b83811015610baf573373ffffffffffffffffffffffffffffffffffffffff1660046000600184610b3f9190614c26565b815260200190815260200160002060030160009054906101000a900473ffffffffffffffffffffffffffffffffffffffff1673ffffffffffffffffffffffffffffffffffffffff1603610b9c57600183610b999190614c26565b92505b8080610ba790614af1565b915050610b0f565b5060008267ffffffffffffffff811115610bcc57610bcb614124565b5b604051908082528060200260200182016040528015610c0557816020015b610bf2613f14565b815260200190600190039081610bea5790505b50905060005b84811015610f3e573373ffffffffffffffffffffffffffffffffffffffff1660046000600184610c3b9190614c26565b815260200190815260200160002060030160009054906101000a900473ffffffffffffffffffffffffffffffffffffffff1673ffffffffffffffffffffffffffffffffffffffff1603610f2b576000600182610c979190614c26565b9050600060046000838152602001908152602001600020905080604051806101400160405290816000820160009054906101000a900473ffffffffffffffffffffffffffffffffffffffff1673ffffffffffffffffffffffffffffffffffffffff1673ffffffffffffffffffffffffffffffffffffffff16815260200160018201548152602001600282015481526020016003820160009054906101000a900473ffffffffffffffffffffffffffffffffffffffff1673ffffffffffffffffffffffffffffffffffffffff1673ffffffffffffffffffffffffffffffffffffffff1681526020016004820160009054906101000a900473ffffffffffffffffffffffffffffffffffffffff1673ffffffffffffffffffffffffffffffffffffffff1673ffffffffffffffffffffffffffffffffffffffff1681526020016005820160009054906101000a900473ffffffffffffffffffffffffffffffffffffffff1673ffffffffffffffffffffffffffffffffffffffff1673ffffffffffffffffffffffffffffffffffffffff16815260200160068201548152602001600782018054610e4390614c89565b80601f0160208091040260200160405190810160405280929190818152602001828054610e6f90614c89565b8015610ebc5780601f10610e9157610100808354040283529160200191610ebc565b820191906000526020600020905b815481529060010190602001808311610e9f57829003601f168201915b505050505081526020016008820160009054906101000a900460ff161515151581526020016008820160019054906101000a900460ff161515151581525050848681518110610f0e57610f0d614a93565b5b6020026020010181905250600185610f269190614c26565b945050505b8080610f3690614af1565b915050610c0b565b508094505050505090565b610f51613e3b565b6000600560008381526020019081526020016000205490506004600082815260200190815260200160002060050160009054906101000a900473ffffffffffffffffffffffffffffffffffffffff1673ffffffffffffffffffffffffffffffffffffffff163373ffffffffffffffffffffffffffffffffffffffff16148061103a57506004600082815260200190815260200160002060040160009054906101000a900473ffffffffffffffffffffffffffffffffffffffff1673ffffffffffffffffffffffffffffffffffffffff163373ffffffffffffffffffffffffffffffffffffffff16145b611079576040517f08c379a000000000000000000000000000000000000000000000000000000000815260040161107090614d2c565b60405180910390fd5b60016004600083815260200190815260200160002060080160006101000a81548160ff02191690831515021790555083600460008381526020019081526020016000206006018190555060006004600083815260200190815260200160002060050160006101000a81548173ffffffffffffffffffffffffffffffffffffffff021916908373ffffffffffffffffffffffffffffffffffffffff160217905550336004600083815260200190815260200160002060030160006101000a81548173ffffffffffffffffffffffffffffffffffffffff021916908373ffffffffffffffffffffffffffffffffffffffff16021790555060016004600083815260200190815260200160002060080160016101000a81548160ff0219169083151502179055506111a76002613e8a565b8273ffffffffffffffffffffffffffffffffffffffff166323b872dd3033856040518463ffffffff1660e01b81526004016111e493929190614944565b600060405180830381600087803b1580156111fe57600080fd5b505af1158015611212573d6000803e3d6000fd5b50505050817fdbe18d9dd8643fa7e3222cffee0423f082934c039103e454dd8791854b442e91338660405161124892919061497b565b60405180910390a250611259613ea0565b505050565b600080600560008481526020019081526020016000205411156112845760019050611289565b600090505b919050565b6060600061129c6001613eaa565b905060008060005b83811015611344573373ffffffffffffffffffffffffffffffffffffffff16600460006001846112d49190614c26565b815260200190815260200160002060050160009054906101000a900473ffffffffffffffffffffffffffffffffffffffff1673ffffffffffffffffffffffffffffffffffffffff16036113315760018361132e9190614c26565b92505b808061133c90614af1565b9150506112a4565b5060008267ffffffffffffffff81111561136157611360614124565b5b60405190808252806020026020018201604052801561139a57816020015b611387613f14565b81526020019060019003908161137f5790505b50905060005b848110156116d3573373ffffffffffffffffffffffffffffffffffffffff16600460006001846113d09190614c26565b815260200190815260200160002060050160009054906101000a900473ffffffffffffffffffffffffffffffffffffffff1673ffffffffffffffffffffffffffffffffffffffff16036116c057600060018261142c9190614c26565b9050600060046000838152602001908152602001600020905080604051806101400160405290816000820160009054906101000a900473ffffffffffffffffffffffffffffffffffffffff1673ffffffffffffffffffffffffffffffffffffffff1673ffffffffffffffffffffffffffffffffffffffff16815260200160018201548152602001600282015481526020016003820160009054906101000a900473ffffffffffffffffffffffffffffffffffffffff1673ffffffffffffffffffffffffffffffffffffffff1673ffffffffffffffffffffffffffffffffffffffff1681526020016004820160009054906101000a900473ffffffffffffffffffffffffffffffffffffffff1673ffffffffffffffffffffffffffffffffffffffff1673ffffffffffffffffffffffffffffffffffffffff1681526020016005820160009054906101000a900473ffffffffffffffffffffffffffffffffffffffff1673ffffffffffffffffffffffffffffffffffffffff1673ffffffffffffffffffffffffffffffffffffffff168152602001600682015481526020016007820180546115d890614c89565b80601f016020809104026020016040519081016040528092919081815260200182805461160490614c89565b80156116515780601f1061162657610100808354040283529160200191611651565b820191906000526020600020905b81548152906001019060200180831161163457829003601f168201915b505050505081526020016008820160009054906101000a900460ff161515151581526020016008820160019054906101000a900460ff1615151515815250508486815181106116a3576116a2614a93565b5b60200260200101819052506001856116bb9190614c26565b945050505b80806116cb90614af1565b9150506113a0565b508094505050505090565b606060006116ec6001613eaa565b905060008060005b83811015611794573373ffffffffffffffffffffffffffffffffffffffff16600460006001846117249190614c26565b815260200190815260200160002060050160009054906101000a900473ffffffffffffffffffffffffffffffffffffffff1673ffffffffffffffffffffffffffffffffffffffff16036117815760018361177e9190614c26565b92505b808061178c90614af1565b9150506116f4565b5060008267ffffffffffffffff8111156117b1576117b0614124565b5b6040519080825280602002602001820160405280156117ea57816020015b6117d7613f14565b8152602001906001900390816117cf5790505b50905060005b84811015611b23573373ffffffffffffffffffffffffffffffffffffffff16600460006001846118209190614c26565b815260200190815260200160002060050160009054906101000a900473ffffffffffffffffffffffffffffffffffffffff1673ffffffffffffffffffffffffffffffffffffffff1603611b1057600060018261187c9190614c26565b9050600060046000838152602001908152602001600020905080604051806101400160405290816000820160009054906101000a900473ffffffffffffffffffffffffffffffffffffffff1673ffffffffffffffffffffffffffffffffffffffff1673ffffffffffffffffffffffffffffffffffffffff16815260200160018201548152602001600282015481526020016003820160009054906101000a900473ffffffffffffffffffffffffffffffffffffffff1673ffffffffffffffffffffffffffffffffffffffff1673ffffffffffffffffffffffffffffffffffffffff1681526020016004820160009054906101000a900473ffffffffffffffffffffffffffffffffffffffff1673ffffffffffffffffffffffffffffffffffffffff1673ffffffffffffffffffffffffffffffffffffffff1681526020016005820160009054906101000a900473ffffffffffffffffffffffffffffffffffffffff1673ffffffffffffffffffffffffffffffffffffffff1673ffffffffffffffffffffffffffffffffffffffff16815260200160068201548152602001600782018054611a2890614c89565b80601f0160208091040260200160405190810160405280929190818152602001828054611a5490614c89565b8015611aa15780601f10611a7657610100808354040283529160200191611aa1565b820191906000526020600020905b815481529060010190602001808311611a8457829003601f168201915b505050505081526020016008820160009054906101000a900460ff161515151581526020016008820160019054906101000a900460ff161515151581525050848681518110611af357611af2614a93565b5b6020026020010181905250600185611b0b9190614c26565b945050505b8080611b1b90614af1565b9150506117f0565b508094505050505090565b60606000611b3c6001613eaa565b905060008060005b83811015611bd8578560046000600184611b5e9190614c26565b815260200190815260200160002060020154148015611bb057506000151560046000600184611b8d9190614c26565b815260200190815260200160002060080160009054906101000a900460ff161515145b15611bc557600183611bc29190614c26565b92505b8080611bd090614af1565b915050611b44565b5060008267ffffffffffffffff811115611bf557611bf4614124565b5b604051908082528060200260200182016040528015611c2e57816020015b611c1b613f14565b815260200190600190039081611c135790505b50905060005b84811015611f5b578660046000600184611c4e9190614c26565b815260200190815260200160002060020154148015611ca057506000151560046000600184611c7d9190614c26565b815260200190815260200160002060080160009054906101000a900460ff161515145b15611f48576000600182611cb49190614c26565b9050600060046000838152602001908152602001600020905080604051806101400160405290816000820160009054906101000a900473ffffffffffffffffffffffffffffffffffffffff1673ffffffffffffffffffffffffffffffffffffffff1673ffffffffffffffffffffffffffffffffffffffff16815260200160018201548152602001600282015481526020016003820160009054906101000a900473ffffffffffffffffffffffffffffffffffffffff1673ffffffffffffffffffffffffffffffffffffffff1673ffffffffffffffffffffffffffffffffffffffff1681526020016004820160009054906101000a900473ffffffffffffffffffffffffffffffffffffffff1673ffffffffffffffffffffffffffffffffffffffff1673ffffffffffffffffffffffffffffffffffffffff1681526020016005820160009054906101000a900473ffffffffffffffffffffffffffffffffffffffff1673ffffffffffffffffffffffffffffffffffffffff1673ffffffffffffffffffffffffffffffffffffffff16815260200160068201548152602001600782018054611e6090614c89565b80601f0160208091040260200160405190810160405280929190818152602001828054611e8c90614c89565b8015611ed95780601f10611eae57610100808354040283529160200191611ed9565b820191906000526020600020905b815481529060010190602001808311611ebc57829003601f168201915b505050505081526020016008820160009054906101000a900460ff161515151581526020016008820160019054906101000a900460ff161515151581525050848681518110611f2b57611f2a614a93565b5b6020026020010181905250600185611f439190614c26565b945050505b8080611f5390614af1565b915050611c34565b5080945050505050919050565b60606000611f766001613eaa565b905060008060005b83811015612012578560046000600184611f989190614c26565b815260200190815260200160002060020154148015611fea57506001151560046000600184611fc79190614c26565b815260200190815260200160002060080160009054906101000a900460ff161515145b15611fff57600183611ffc9190614c26565b92505b808061200a90614af1565b915050611f7e565b5060008267ffffffffffffffff81111561202f5761202e614124565b5b60405190808252806020026020018201604052801561206857816020015b612055613f14565b81526020019060019003908161204d5790505b50905060005b848110156123955786600460006001846120889190614c26565b8152602001908152602001600020600201541480156120da575060011515600460006001846120b79190614c26565b815260200190815260200160002060080160009054906101000a900460ff161515145b156123825760006001826120ee9190614c26565b9050600060046000838152602001908152602001600020905080604051806101400160405290816000820160009054906101000a900473ffffffffffffffffffffffffffffffffffffffff1673ffffffffffffffffffffffffffffffffffffffff1673ffffffffffffffffffffffffffffffffffffffff16815260200160018201548152602001600282015481526020016003820160009054906101000a900473ffffffffffffffffffffffffffffffffffffffff1673ffffffffffffffffffffffffffffffffffffffff1673ffffffffffffffffffffffffffffffffffffffff1681526020016004820160009054906101000a900473ffffffffffffffffffffffffffffffffffffffff1673ffffffffffffffffffffffffffffffffffffffff1673ffffffffffffffffffffffffffffffffffffffff1681526020016005820160009054906101000a900473ffffffffffffffffffffffffffffffffffffffff1673ffffffffffffffffffffffffffffffffffffffff1673ffffffffffffffffffffffffffffffffffffffff1681526020016006820154815260200160078201805461229a90614c89565b80601f01602080910402602001604051908101604052809291908181526020018280546122c690614c89565b80156123135780601f106122e857610100808354040283529160200191612313565b820191906000526020600020905b8154815290600101906020018083116122f657829003601f168201915b505050505081526020016008820160009054906101000a900460ff161515151581526020016008820160019054906101000a900460ff16151515158152505084868151811061236557612364614a93565b5b602002602001018190525060018561237d9190614c26565b945050505b808061238d90614af1565b91505061206e565b5080945050505050919050565b606060006123b06001613eaa565b905060008060005b8381101561240c5785600460006001846123d29190614c26565b815260200190815260200160002060020154036123f9576001836123f69190614c26565b92505b808061240490614af1565b9150506123b8565b5060008267ffffffffffffffff81111561242957612428614124565b5b60405190808252806020026020018201604052801561246257816020015b61244f613f14565b8152602001906001900390816124475790505b50905060005b8481101561274f5786600460006001846124829190614c26565b8152602001908152602001600020600201540361273c5760006001826124a89190614c26565b9050600060046000838152602001908152602001600020905080604051806101400160405290816000820160009054906101000a900473ffffffffffffffffffffffffffffffffffffffff1673ffffffffffffffffffffffffffffffffffffffff1673ffffffffffffffffffffffffffffffffffffffff16815260200160018201548152602001600282015481526020016003820160009054906101000a900473ffffffffffffffffffffffffffffffffffffffff1673ffffffffffffffffffffffffffffffffffffffff1673ffffffffffffffffffffffffffffffffffffffff1681526020016004820160009054906101000a900473ffffffffffffffffffffffffffffffffffffffff1673ffffffffffffffffffffffffffffffffffffffff1673ffffffffffffffffffffffffffffffffffffffff1681526020016005820160009054906101000a900473ffffffffffffffffffffffffffffffffffffffff1673ffffffffffffffffffffffffffffffffffffffff1673ffffffffffffffffffffffffffffffffffffffff1681526020016006820154815260200160078201805461265490614c89565b80601f016020809104026020016040519081016040528092919081815260200182805461268090614c89565b80156126cd5780601f106126a2576101008083540402835291602001916126cd565b820191906000526020600020905b8154815290600101906020018083116126b057829003601f168201915b505050505081526020016008820160009054906101000a900460ff161515151581526020016008820160019054906101000a900460ff16151515158152505084868151811061271f5761271e614a93565b5b60200260200101819052506001856127379190614c26565b945050505b808061274790614af1565b915050612468565b5080945050505050919050565b6060600061276a6001613eaa565b905060006127786002613eaa565b6127826001613eaa565b61278c9190614d4c565b90506000808267ffffffffffffffff8111156127ab576127aa614124565b5b6040519080825280602002602001820160405280156127e457816020015b6127d1613f14565b8152602001906001900390816127c95790505b50905060005b84811015612b1d573073ffffffffffffffffffffffffffffffffffffffff166004600060018461281a9190614c26565b815260200190815260200160002060030160009054906101000a900473ffffffffffffffffffffffffffffffffffffffff1673ffffffffffffffffffffffffffffffffffffffff1603612b0a5760006001826128769190614c26565b9050600060046000838152602001908152602001600020905080604051806101400160405290816000820160009054906101000a900473ffffffffffffffffffffffffffffffffffffffff1673ffffffffffffffffffffffffffffffffffffffff1673ffffffffffffffffffffffffffffffffffffffff16815260200160018201548152602001600282015481526020016003820160009054906101000a900473ffffffffffffffffffffffffffffffffffffffff1673ffffffffffffffffffffffffffffffffffffffff1673ffffffffffffffffffffffffffffffffffffffff1681526020016004820160009054906101000a900473ffffffffffffffffffffffffffffffffffffffff1673ffffffffffffffffffffffffffffffffffffffff1673ffffffffffffffffffffffffffffffffffffffff1681526020016005820160009054906101000a900473ffffffffffffffffffffffffffffffffffffffff1673ffffffffffffffffffffffffffffffffffffffff1673ffffffffffffffffffffffffffffffffffffffff16815260200160068201548152602001600782018054612a2290614c89565b80601f0160208091040260200160405190810160405280929190818152602001828054612a4e90614c89565b8015612a9b5780601f10612a7057610100808354040283529160200191612a9b565b820191906000526020600020905b815481529060010190602001808311612a7e57829003601f168201915b505050505081526020016008820160009054906101000a900460ff161515151581526020016008820160019054906101000a900460ff161515151581525050848681518110612aed57612aec614a93565b5b6020026020010181905250600185612b059190614c26565b945050505b8080612b1590614af1565b9150506127ea565b508094505050505090565b612b30613f14565b60006005600084815260200190815260200160002054905060046000828152602001908152602001600020604051806101400160405290816000820160009054906101000a900473ffffffffffffffffffffffffffffffffffffffff1673ffffffffffffffffffffffffffffffffffffffff1673ffffffffffffffffffffffffffffffffffffffff16815260200160018201548152602001600282015481526020016003820160009054906101000a900473ffffffffffffffffffffffffffffffffffffffff1673ffffffffffffffffffffffffffffffffffffffff1673ffffffffffffffffffffffffffffffffffffffff1681526020016004820160009054906101000a900473ffffffffffffffffffffffffffffffffffffffff1673ffffffffffffffffffffffffffffffffffffffff1673ffffffffffffffffffffffffffffffffffffffff1681526020016005820160009054906101000a900473ffffffffffffffffffffffffffffffffffffffff1673ffffffffffffffffffffffffffffffffffffffff1673ffffffffffffffffffffffffffffffffffffffff16815260200160068201548152602001600782018054612ced90614c89565b80601f0160208091040260200160405190810160405280929190818152602001828054612d1990614c89565b8015612d665780601f10612d3b57610100808354040283529160200191612d66565b820191906000526020600020905b815481529060010190602001808311612d4957829003601f168201915b505050505081526020016008820160009054906101000a900460ff161515151581526020016008820160019054906101000a900460ff161515151581525050915050919050565b60606000612dbb6001613eaa565b905060008060005b83811015612e63573373ffffffffffffffffffffffffffffffffffffffff1660046000600184612df39190614c26565b815260200190815260200160002060040160009054906101000a900473ffffffffffffffffffffffffffffffffffffffff1673ffffffffffffffffffffffffffffffffffffffff1603612e5057600183612e4d9190614c26565b92505b8080612e5b90614af1565b915050612dc3565b5060008267ffffffffffffffff811115612e8057612e7f614124565b5b604051908082528060200260200182016040528015612eb957816020015b612ea6613f14565b815260200190600190039081612e9e5790505b50905060005b848110156131f2573373ffffffffffffffffffffffffffffffffffffffff1660046000600184612eef9190614c26565b815260200190815260200160002060040160009054906101000a900473ffffffffffffffffffffffffffffffffffffffff1673ffffffffffffffffffffffffffffffffffffffff16036131df576000600182612f4b9190614c26565b9050600060046000838152602001908152602001600020905080604051806101400160405290816000820160009054906101000a900473ffffffffffffffffffffffffffffffffffffffff1673ffffffffffffffffffffffffffffffffffffffff1673ffffffffffffffffffffffffffffffffffffffff16815260200160018201548152602001600282015481526020016003820160009054906101000a900473ffffffffffffffffffffffffffffffffffffffff1673ffffffffffffffffffffffffffffffffffffffff1673ffffffffffffffffffffffffffffffffffffffff1681526020016004820160009054906101000a900473ffffffffffffffffffffffffffffffffffffffff1673ffffffffffffffffffffffffffffffffffffffff1673ffffffffffffffffffffffffffffffffffffffff1681526020016005820160009054906101000a900473ffffffffffffffffffffffffffffffffffffffff1673ffffffffffffffffffffffffffffffffffffffff1673ffffffffffffffffffffffffffffffffffffffff168152602001600682015481526020016007820180546130f790614c89565b80601f016020809104026020016040519081016040528092919081815260200182805461312390614c89565b80156131705780601f1061314557610100808354040283529160200191613170565b820191906000526020600020905b81548152906001019060200180831161315357829003601f168201915b505050505081526020016008820160009054906101000a900460ff161515151581526020016008820160019054906101000a900460ff1615151515815250508486815181106131c2576131c1614a93565b5b60200260200101819052506001856131da9190614c26565b945050505b80806131ea90614af1565b915050612ebf565b508094505050505090565b6060600061320b6001613eaa565b905060008060005b8381101561332c578573ffffffffffffffffffffffffffffffffffffffff16600460006001846132439190614c26565b815260200190815260200160002060050160009054906101000a900473ffffffffffffffffffffffffffffffffffffffff1673ffffffffffffffffffffffffffffffffffffffff16148061330457508573ffffffffffffffffffffffffffffffffffffffff16600460006001846132ba9190614c26565b815260200190815260200160002060030160009054906101000a900473ffffffffffffffffffffffffffffffffffffffff1673ffffffffffffffffffffffffffffffffffffffff16145b15613319576001836133169190614c26565b92505b808061332490614af1565b915050613213565b5060008267ffffffffffffffff81111561334957613348614124565b5b60405190808252806020026020018201604052801561338257816020015b61336f613f14565b8152602001906001900390816133675790505b50905060005b84811015613734578673ffffffffffffffffffffffffffffffffffffffff16600460006001846133b89190614c26565b815260200190815260200160002060050160009054906101000a900473ffffffffffffffffffffffffffffffffffffffff1673ffffffffffffffffffffffffffffffffffffffff16148061347957508673ffffffffffffffffffffffffffffffffffffffff166004600060018461342f9190614c26565b815260200190815260200160002060030160009054906101000a900473ffffffffffffffffffffffffffffffffffffffff1673ffffffffffffffffffffffffffffffffffffffff16145b1561372157600060018261348d9190614c26565b9050600060046000838152602001908152602001600020905080604051806101400160405290816000820160009054906101000a900473ffffffffffffffffffffffffffffffffffffffff1673ffffffffffffffffffffffffffffffffffffffff1673ffffffffffffffffffffffffffffffffffffffff16815260200160018201548152602001600282015481526020016003820160009054906101000a900473ffffffffffffffffffffffffffffffffffffffff1673ffffffffffffffffffffffffffffffffffffffff1673ffffffffffffffffffffffffffffffffffffffff1681526020016004820160009054906101000a900473ffffffffffffffffffffffffffffffffffffffff1673ffffffffffffffffffffffffffffffffffffffff1673ffffffffffffffffffffffffffffffffffffffff1681526020016005820160009054906101000a900473ffffffffffffffffffffffffffffffffffffffff1673ffffffffffffffffffffffffffffffffffffffff1673ffffffffffffffffffffffffffffffffffffffff1681526020016006820154815260200160078201805461363990614c89565b80601f016020809104026020016040519081016040528092919081815260200182805461366590614c89565b80156136b25780601f10613687576101008083540402835291602001916136b2565b820191906000526020600020905b81548152906001019060200180831161369557829003601f168201915b505050505081526020016008820160009054906101000a900460ff161515151581526020016008820160019054906101000a900460ff16151515158152505084868151811061370457613703614a93565b5b602002602001018190525060018561371c9190614c26565b945050505b808061372c90614af1565b915050613388565b5080945050505050919050565b613749613e3b565b6000851161378c576040517f08c379a000000000000000000000000000000000000000000000000000000000815260040161378390614dcc565b60405180910390fd5b606060008590508073ffffffffffffffffffffffffffffffffffffffff16637c428edb856040518263ffffffff1660e01b81526004016137cc91906149a4565b600060405180830381865afa1580156137e9573d6000803e3d6000fd5b505050506040513d6000823e3d601f19601f820116820180604052508101906138129190614e98565b91506000805b83518110801561382757508482105b15613b68576138366001613e8a565b60006138426001613eaa565b9050600085838151811061385957613858614a93565b5b6020026020010151905061386c8161125e565b613b535760018461387d9190614c26565b93508160056000838152602001908152602001600020819055506040518061014001604052808b73ffffffffffffffffffffffffffffffffffffffff1681526020018281526020018981526020013073ffffffffffffffffffffffffffffffffffffffff1681526020013373ffffffffffffffffffffffffffffffffffffffff1681526020013373ffffffffffffffffffffffffffffffffffffffff1681526020018c81526020018a8152602001600015158152602001600015158152506004600084815260200190815260200160002060008201518160000160006101000a81548173ffffffffffffffffffffffffffffffffffffffff021916908373ffffffffffffffffffffffffffffffffffffffff160217905550602082015181600101556040820151816002015560608201518160030160006101000a81548173ffffffffffffffffffffffffffffffffffffffff021916908373ffffffffffffffffffffffffffffffffffffffff16021790555060808201518160040160006101000a81548173ffffffffffffffffffffffffffffffffffffffff021916908373ffffffffffffffffffffffffffffffffffffffff16021790555060a08201518160050160006101000a81548173ffffffffffffffffffffffffffffffffffffffff021916908373ffffffffffffffffffffffffffffffffffffffff16021790555060c0820151816006015560e0820151816007019081613a9d919061508d565b506101008201518160080160006101000a81548160ff0219169083151502179055506101208201518160080160016101000a81548160ff0219169083151502179055509050508973ffffffffffffffffffffffffffffffffffffffff166323b872dd3330846040518463ffffffff1660e01b8152600401613b2093929190614944565b600060405180830381600087803b158015613b3a57600080fd5b505af1158015613b4e573d6000803e3d6000fd5b505050505b50508080613b6090614af1565b915050613818565b507fe06ca02c843f7ef01202c602909f144135007be635a2fb8b80005ae64a943cfa85338a878a604051613ba0959493929190615198565b60405180910390a1505050613bb3613ea0565b5050505050565b613bc2613e3b565b6000600560008381526020019081526020016000205490503373ffffffffffffffffffffffffffffffffffffffff166004600083815260200190815260200160002060030160009054906101000a900473ffffffffffffffffffffffffffffffffffffffff1673ffffffffffffffffffffffffffffffffffffffff1614613c7e576040517f08c379a0000000000000000000000000000000000000000000000000000000008152600401613c7590615264565b60405180910390fd5b60008390508073ffffffffffffffffffffffffffffffffffffffff1663f5537ede3330866040518463ffffffff1660e01b8152600401613cc093929190614944565b600060405180830381600087803b158015613cda57600080fd5b505af1158015613cee573d6000803e3d6000fd5b5050505060006004600084815260200190815260200160002060080160006101000a81548160ff021916908315150217905550846004600084815260200190815260200160002060060181905550336004600084815260200190815260200160002060050160006101000a81548173ffffffffffffffffffffffffffffffffffffffff021916908373ffffffffffffffffffffffffffffffffffffffff160217905550306004600084815260200190815260200160002060030160006101000a81548173ffffffffffffffffffffffffffffffffffffffff021916908373ffffffffffffffffffffffffffffffffffffffff160217905550613df06002613eb8565b827f43fd502c2b3ccce9ab96e3398308b712eb7ff697a75a2afe87316bdf94af0efe303388604051613e2493929190614944565b60405180910390a25050613e36613ea0565b505050565b600260005403613e80576040517f08c379a0000000000000000000000000000000000000000000000000000000008152600401613e77906152d0565b60405180910390fd5b6002600081905550565b6001816000016000828254019250508190555050565b6001600081905550565b600081600001549050919050565b60008160000154905060008111613f04576040517f08c379a0000000000000000000000000000000000000000000000000000000008152600401613efb9061533c565b60405180910390fd5b6001810382600001819055505050565b604051806101400160405280600073ffffffffffffffffffffffffffffffffffffffff1681526020016000815260200160008152602001600073ffffffffffffffffffffffffffffffffffffffff168152602001600073ffffffffffffffffffffffffffffffffffffffff168152602001600073ffffffffffffffffffffffffffffffffffffffff16815260200160008152602001606081526020016000151581526020016000151581525090565b6000604051905090565b600080fd5b600080fd5b6000819050919050565b613fea81613fd7565b8114613ff557600080fd5b50565b60008135905061400781613fe1565b92915050565b60006020828403121561402357614022613fcd565b5b600061403184828501613ff8565b91505092915050565b60008115159050919050565b61404f8161403a565b82525050565b600060208201905061406a6000830184614046565b92915050565b600073ffffffffffffffffffffffffffffffffffffffff82169050919050565b600061409b82614070565b9050919050565b6140ab81614090565b81146140b657600080fd5b50565b6000813590506140c8816140a2565b92915050565b600080604083850312156140e5576140e4613fcd565b5b60006140f3858286016140b9565b925050602061410485828601613ff8565b9150509250929050565b600080fd5b6000601f19601f8301169050919050565b7f4e487b7100000000000000000000000000000000000000000000000000000000600052604160045260246000fd5b61415c82614113565b810181811067ffffffffffffffff8211171561417b5761417a614124565b5b80604052505050565b600061418e613fc3565b905061419a8282614153565b919050565b600067ffffffffffffffff8211156141ba576141b9614124565b5b602082029050602081019050919050565b600080fd5b60006141e36141de8461419f565b614184565b90508083825260208201905060208402830185811115614206576142056141cb565b5b835b8181101561422f578061421b8882613ff8565b845260208401935050602081019050614208565b5050509392505050565b600082601f83011261424e5761424d61410e565b5b813561425e8482602086016141d0565b91505092915050565b6000806000806080858703121561428157614280613fcd565b5b600061428f87828801613ff8565b94505060206142a0878288016140b9565b935050604085013567ffffffffffffffff8111156142c1576142c0613fd2565b5b6142cd87828801614239565b92505060606142de87828801613ff8565b91505092959194509250565b600081519050919050565b600082825260208201905092915050565b6000819050602082019050919050565b61431f81614090565b82525050565b61432e81613fd7565b82525050565b600061433f82614070565b9050919050565b61434f81614334565b82525050565b600081519050919050565b600082825260208201905092915050565b60005b8381101561438f578082015181840152602081019050614374565b60008484015250505050565b60006143a682614355565b6143b08185614360565b93506143c0818560208601614371565b6143c981614113565b840191505092915050565b6143dd8161403a565b82525050565b6000610140830160008301516143fc6000860182614316565b50602083015161440f6020860182614325565b5060408301516144226040860182614325565b5060608301516144356060860182614346565b5060808301516144486080860182614346565b5060a083015161445b60a0860182614346565b5060c083015161446e60c0860182614325565b5060e083015184820360e0860152614486828261439b565b91505061010083015161449d6101008601826143d4565b506101208301516144b26101208601826143d4565b508091505092915050565b60006144c983836143e3565b905092915050565b6000602082019050919050565b60006144e9826142ea565b6144f381856142f5565b93508360208202850161450585614306565b8060005b85811015614541578484038952815161452285826144bd565b945061452d836144d1565b925060208a01995050600181019050614509565b50829750879550505050505092915050565b6000602082019050818103600083015261456d81846144de565b905092915050565b60008060006060848603121561458e5761458d613fcd565b5b600061459c86828701613ff8565b93505060206145ad868287016140b9565b92505060406145be86828701613ff8565b9150509250925092565b6000610140830160008301516145e16000860182614316565b5060208301516145f46020860182614325565b5060408301516146076040860182614325565b50606083015161461a6060860182614346565b50608083015161462d6080860182614346565b5060a083015161464060a0860182614346565b5060c083015161465360c0860182614325565b5060e083015184820360e086015261466b828261439b565b9150506101008301516146826101008601826143d4565b506101208301516146976101208601826143d4565b508091505092915050565b600060208201905081810360008301526146bc81846145c8565b905092915050565b6000602082840312156146da576146d9613fcd565b5b60006146e8848285016140b9565b91505092915050565b600080fd5b600067ffffffffffffffff82111561471157614710614124565b5b61471a82614113565b9050602081019050919050565b82818337600083830152505050565b6000614749614744846146f6565b614184565b905082815260208101848484011115614765576147646146f1565b5b614770848285614727565b509392505050565b600082601f83011261478d5761478c61410e565b5b813561479d848260208601614736565b91505092915050565b600080600080600060a086880312156147c2576147c1613fcd565b5b60006147d088828901613ff8565b95505060206147e1888289016140b9565b945050604086013567ffffffffffffffff81111561480257614801613fd2565b5b61480e88828901614778565b935050606061481f88828901613ff8565b925050608061483088828901613ff8565b9150509295509295909350565b600082825260208201905092915050565b7f506c6561736520706179207468652061736b696e672070726963650000000000600082015250565b6000614884601b8361483d565b915061488f8261484e565b602082019050919050565b600060208201905081810360008301526148b381614877565b9050919050565b7f4974656d20686173206265656e20616c726561647920736f6c64000000000000600082015250565b60006148f0601a8361483d565b91506148fb826148ba565b602082019050919050565b6000602082019050818103600083015261491f816148e3565b9050919050565b61492f81614090565b82525050565b61493e81613fd7565b82525050565b60006060820190506149596000830186614926565b6149666020830185614926565b6149736040830184614935565b949350505050565b60006040820190506149906000830185614926565b61499d6020830184614935565b9392505050565b60006020820190506149b96000830184614935565b92915050565b6000815190506149ce816140a2565b92915050565b6000602082840312156149ea576149e9613fcd565b5b60006149f8848285016149bf565b91505092915050565b7f4f6e6c79206576656e74206f776e65722063616e20706572666f726d2074686960008201527f7300000000000000000000000000000000000000000000000000000000000000602082015250565b6000614a5d60218361483d565b9150614a6882614a01565b604082019050919050565b60006020820190508181036000830152614a8c81614a50565b9050919050565b7f4e487b7100000000000000000000000000000000000000000000000000000000600052603260045260246000fd5b7f4e487b7100000000000000000000000000000000000000000000000000000000600052601160045260246000fd5b6000614afc82613fd7565b91507fffffffffffffffffffffffffffffffffffffffffffffffffffffffffffffffff8203614b2e57614b2d614ac2565b5b600182019050919050565b600081519050919050565b600082825260208201905092915050565b6000819050602082019050919050565b6000614b718383614325565b60208301905092915050565b6000602082019050919050565b6000614b9582614b39565b614b9f8185614b44565b9350614baa83614b55565b8060005b83811015614bdb578151614bc28882614b65565b9750614bcd83614b7d565b925050600181019050614bae565b5085935050505092915050565b60006060820190508181036000830152614c028186614b8a565b9050614c116020830185614926565b614c1e6040830184614935565b949350505050565b6000614c3182613fd7565b9150614c3c83613fd7565b9250828201905080821115614c5457614c53614ac2565b5b92915050565b7f4e487b7100000000000000000000000000000000000000000000000000000000600052602260045260246000fd5b60006002820490506001821680614ca157607f821691505b602082108103614cb457614cb3614c5a565b5b50919050565b7f4f6e6c79206576656e74206f776e6572206f722073656c6c65722063616e207060008201527f6572666f726d2074686973000000000000000000000000000000000000000000602082015250565b6000614d16602b8361483d565b9150614d2182614cba565b604082019050919050565b60006020820190508181036000830152614d4581614d09565b9050919050565b6000614d5782613fd7565b9150614d6283613fd7565b9250828203905081811115614d7a57614d79614ac2565b5b92915050565b7f546f6f206c6f7700000000000000000000000000000000000000000000000000600082015250565b6000614db660078361483d565b9150614dc182614d80565b602082019050919050565b60006020820190508181036000830152614de581614da9565b9050919050565b600081519050614dfb81613fe1565b92915050565b6000614e14614e0f8461419f565b614184565b90508083825260208201905060208402830185811115614e3757614e366141cb565b5b835b81811015614e605780614e4c8882614dec565b845260208401935050602081019050614e39565b5050509392505050565b600082601f830112614e7f57614e7e61410e565b5b8151614e8f848260208601614e01565b91505092915050565b600060208284031215614eae57614ead613fcd565b5b600082015167ffffffffffffffff811115614ecc57614ecb613fd2565b5b614ed884828501614e6a565b91505092915050565b60008190508160005260206000209050919050565b60006020601f8301049050919050565b600082821b905092915050565b600060088302614f437fffffffffffffffffffffffffffffffffffffffffffffffffffffffffffffffff82614f06565b614f4d8683614f06565b95508019841693508086168417925050509392505050565b6000819050919050565b6000614f8a614f85614f8084613fd7565b614f65565b613fd7565b9050919050565b6000819050919050565b614fa483614f6f565b614fb8614fb082614f91565b848454614f13565b825550505050565b600090565b614fcd614fc0565b614fd8818484614f9b565b505050565b5b81811015614ffc57614ff1600082614fc5565b600181019050614fde565b5050565b601f8211156150415761501281614ee1565b61501b84614ef6565b8101602085101561502a578190505b61503e61503685614ef6565b830182614fdd565b50505b505050565b600082821c905092915050565b600061506460001984600802615046565b1980831691505092915050565b600061507d8383615053565b9150826002028217905092915050565b61509682614355565b67ffffffffffffffff8111156150af576150ae614124565b5b6150b98254614c89565b6150c4828285615000565b600060209050601f8311600181146150f757600084156150e5578287015190505b6150ef8582615071565b865550615157565b601f19841661510586614ee1565b60005b8281101561512d57848901518255600182019150602085019450602081019050615108565b8683101561514a5784890151615146601f891682615053565b8355505b6001600288020188555050505b505050505050565b600061516a82614355565b615174818561483d565b9350615184818560208601614371565b61518d81614113565b840191505092915050565b600060a0820190506151ad6000830188614935565b6151ba6020830187614926565b6151c76040830186614935565b6151d46060830185614935565b81810360808301526151e6818461515f565b90509695505050505050565b7f4f6e6c79207469636b6574206f776e65722063616e20706572666f726d20746860008201527f6973206f7065726174696f6e0000000000000000000000000000000000000000602082015250565b600061524e602c8361483d565b9150615259826151f2565b604082019050919050565b6000602082019050818103600083015261527d81615241565b9050919050565b7f5265656e7472616e637947756172643a207265656e7472616e742063616c6c00600082015250565b60006152ba601f8361483d565b91506152c582615284565b602082019050919050565b600060208201905081810360008301526152e9816152ad565b9050919050565b7f436f756e7465723a2064656372656d656e74206f766572666c6f770000000000600082015250565b6000615326601b8361483d565b9150615331826152f0565b602082019050919050565b6000602082019050818103600083015261535581615319565b905091905056fea2646970667358221220d6b8a2bf5065b6ef3d99caaf6a61081154c001ce05d1566c7d36d0a7979da24664736f6c63430008110033",
  "linkReferences": {},
  "deployedLinkReferences": {}
}