{
  "_format": "hh-sol-artifact-1",
  "contractName": "TicketMarket",
  "sourceName": "contracts/TicketMarket.sol",
  "abi": [
    {
      "inputs": [],
      "stateMutability": "nonpayable",
      "type": "constructor"
    },
    {
      "anonymous": false,
      "inputs": [
        {
          "indexed": true,
          "internalType": "uint256",
          "name": "tokenID",
          "type": "uint256"
        },
        {
          "indexed": false,
          "internalType": "address",
          "name": "ticketOwner",
          "type": "address"
        },
        {
          "indexed": false,
          "internalType": "uint256",
          "name": "price",
          "type": "uint256"
        }
      ],
      "name": "MarketItemAfterSale",
      "type": "event"
    },
    {
      "anonymous": false,
      "inputs": [
        {
          "indexed": false,
          "internalType": "uint256",
          "name": "eventID",
          "type": "uint256"
        },
        {
          "indexed": false,
          "internalType": "address",
          "name": "seller",
          "type": "address"
        },
        {
          "indexed": false,
          "internalType": "uint128",
          "name": "price",
          "type": "uint128"
        },
        {
          "indexed": false,
          "internalType": "uint128",
          "name": "supply",
          "type": "uint128"
        },
        {
          "indexed": false,
          "internalType": "string",
          "name": "ticketType",
          "type": "string"
        }
      ],
      "name": "MarketItemCreation",
      "type": "event"
    },
    {
      "anonymous": false,
      "inputs": [
        {
          "indexed": false,
          "internalType": "uint256[]",
          "name": "tokenID",
          "type": "uint256[]"
        },
        {
          "indexed": false,
          "internalType": "address",
          "name": "ticketOwner",
          "type": "address"
        },
        {
          "indexed": false,
          "internalType": "address",
          "name": "seller",
          "type": "address"
        },
        {
          "indexed": false,
          "internalType": "uint256",
          "name": "price",
          "type": "uint256"
        }
      ],
      "name": "MarketItemResell",
      "type": "event"
    },
    {
      "anonymous": false,
      "inputs": [
        {
          "indexed": true,
          "internalType": "uint256",
          "name": "tokenID",
          "type": "uint256"
        },
        {
          "indexed": false,
          "internalType": "address",
          "name": "seller",
          "type": "address"
        },
        {
          "indexed": false,
          "internalType": "uint256",
          "name": "price",
          "type": "uint256"
        }
      ],
      "name": "MarketItemStopSale",
      "type": "event"
    },
    {
      "anonymous": false,
      "inputs": [
        {
          "indexed": false,
          "internalType": "uint256[]",
          "name": "tokenID",
          "type": "uint256[]"
        },
        {
          "indexed": false,
          "internalType": "address",
          "name": "seller",
          "type": "address"
        },
        {
          "indexed": false,
          "internalType": "uint256",
          "name": "price",
          "type": "uint256"
        }
      ],
      "name": "StopBatchTicketSale",
      "type": "event"
    },
    {
      "anonymous": false,
      "inputs": [
        {
          "indexed": false,
          "internalType": "uint256",
          "name": "tokenId",
          "type": "uint256"
        },
        {
          "indexed": false,
          "internalType": "address",
          "name": "toUser",
          "type": "address"
        }
      ],
      "name": "transferTicket",
      "type": "event"
    },
    {
      "inputs": [
        {
          "internalType": "uint256",
          "name": "eventId",
          "type": "uint256"
        }
      ],
      "name": "ListEventTicketAll",
      "outputs": [
        {
          "components": [
            {
              "internalType": "address",
              "name": "nftContract",
              "type": "address"
            },
            {
              "internalType": "uint256",
              "name": "tokenID",
              "type": "uint256"
            },
            {
              "internalType": "uint256",
              "name": "eventID",
              "type": "uint256"
            },
            {
              "internalType": "address payable",
              "name": "ticketOwner",
              "type": "address"
            },
            {
              "internalType": "address payable",
              "name": "eventOwner",
              "type": "address"
            },
            {
              "internalType": "address payable",
              "name": "seller",
              "type": "address"
            },
            {
              "internalType": "uint128",
              "name": "price",
              "type": "uint128"
            },
            {
              "internalType": "string",
              "name": "ticketType",
              "type": "string"
            },
            {
              "internalType": "bool",
              "name": "sold",
              "type": "bool"
            },
            {
              "internalType": "bool",
              "name": "soldBefore",
              "type": "bool"
            },
            {
              "internalType": "uint128",
              "name": "seat",
              "type": "uint128"
            },
            {
              "internalType": "uint128",
              "name": "transferRight",
              "type": "uint128"
            }
          ],
          "internalType": "struct TicketMarket.MarketItem[]",
          "name": "",
          "type": "tuple[]"
        }
      ],
      "stateMutability": "view",
      "type": "function"
    },
    {
      "inputs": [
        {
          "internalType": "address",
          "name": "user",
          "type": "address"
        }
      ],
      "name": "ListEventTicketByPublicAddress",
      "outputs": [
        {
          "components": [
            {
              "internalType": "address",
              "name": "nftContract",
              "type": "address"
            },
            {
              "internalType": "uint256",
              "name": "tokenID",
              "type": "uint256"
            },
            {
              "internalType": "uint256",
              "name": "eventID",
              "type": "uint256"
            },
            {
              "internalType": "address payable",
              "name": "ticketOwner",
              "type": "address"
            },
            {
              "internalType": "address payable",
              "name": "eventOwner",
              "type": "address"
            },
            {
              "internalType": "address payable",
              "name": "seller",
              "type": "address"
            },
            {
              "internalType": "uint128",
              "name": "price",
              "type": "uint128"
            },
            {
              "internalType": "string",
              "name": "ticketType",
              "type": "string"
            },
            {
              "internalType": "bool",
              "name": "sold",
              "type": "bool"
            },
            {
              "internalType": "bool",
              "name": "soldBefore",
              "type": "bool"
            },
            {
              "internalType": "uint128",
              "name": "seat",
              "type": "uint128"
            },
            {
              "internalType": "uint128",
              "name": "transferRight",
              "type": "uint128"
            }
          ],
          "internalType": "struct TicketMarket.MarketItem[]",
          "name": "",
          "type": "tuple[]"
        }
      ],
      "stateMutability": "view",
      "type": "function"
    },
    {
      "inputs": [
        {
          "internalType": "uint256",
          "name": "eventId",
          "type": "uint256"
        }
      ],
      "name": "ListEventTicketOnSale",
      "outputs": [
        {
          "components": [
            {
              "internalType": "address",
              "name": "nftContract",
              "type": "address"
            },
            {
              "internalType": "uint256",
              "name": "tokenID",
              "type": "uint256"
            },
            {
              "internalType": "uint256",
              "name": "eventID",
              "type": "uint256"
            },
            {
              "internalType": "address payable",
              "name": "ticketOwner",
              "type": "address"
            },
            {
              "internalType": "address payable",
              "name": "eventOwner",
              "type": "address"
            },
            {
              "internalType": "address payable",
              "name": "seller",
              "type": "address"
            },
            {
              "internalType": "uint128",
              "name": "price",
              "type": "uint128"
            },
            {
              "internalType": "string",
              "name": "ticketType",
              "type": "string"
            },
            {
              "internalType": "bool",
              "name": "sold",
              "type": "bool"
            },
            {
              "internalType": "bool",
              "name": "soldBefore",
              "type": "bool"
            },
            {
              "internalType": "uint128",
              "name": "seat",
              "type": "uint128"
            },
            {
              "internalType": "uint128",
              "name": "transferRight",
              "type": "uint128"
            }
          ],
          "internalType": "struct TicketMarket.MarketItem[]",
          "name": "",
          "type": "tuple[]"
        }
      ],
      "stateMutability": "view",
      "type": "function"
    },
    {
      "inputs": [
        {
          "internalType": "uint256",
          "name": "eventId",
          "type": "uint256"
        }
      ],
      "name": "ListEventTicketSold",
      "outputs": [
        {
          "components": [
            {
              "internalType": "address",
              "name": "nftContract",
              "type": "address"
            },
            {
              "internalType": "uint256",
              "name": "tokenID",
              "type": "uint256"
            },
            {
              "internalType": "uint256",
              "name": "eventID",
              "type": "uint256"
            },
            {
              "internalType": "address payable",
              "name": "ticketOwner",
              "type": "address"
            },
            {
              "internalType": "address payable",
              "name": "eventOwner",
              "type": "address"
            },
            {
              "internalType": "address payable",
              "name": "seller",
              "type": "address"
            },
            {
              "internalType": "uint128",
              "name": "price",
              "type": "uint128"
            },
            {
              "internalType": "string",
              "name": "ticketType",
              "type": "string"
            },
            {
              "internalType": "bool",
              "name": "sold",
              "type": "bool"
            },
            {
              "internalType": "bool",
              "name": "soldBefore",
              "type": "bool"
            },
            {
              "internalType": "uint128",
              "name": "seat",
              "type": "uint128"
            },
            {
              "internalType": "uint128",
              "name": "transferRight",
              "type": "uint128"
            }
          ],
          "internalType": "struct TicketMarket.MarketItem[]",
          "name": "",
          "type": "tuple[]"
        }
      ],
      "stateMutability": "view",
      "type": "function"
    },
    {
      "inputs": [],
      "name": "ListUserOwnItems",
      "outputs": [
        {
          "components": [
            {
              "internalType": "address",
              "name": "nftContract",
              "type": "address"
            },
            {
              "internalType": "uint256",
              "name": "tokenID",
              "type": "uint256"
            },
            {
              "internalType": "uint256",
              "name": "eventID",
              "type": "uint256"
            },
            {
              "internalType": "address payable",
              "name": "ticketOwner",
              "type": "address"
            },
            {
              "internalType": "address payable",
              "name": "eventOwner",
              "type": "address"
            },
            {
              "internalType": "address payable",
              "name": "seller",
              "type": "address"
            },
            {
              "internalType": "uint128",
              "name": "price",
              "type": "uint128"
            },
            {
              "internalType": "string",
              "name": "ticketType",
              "type": "string"
            },
            {
              "internalType": "bool",
              "name": "sold",
              "type": "bool"
            },
            {
              "internalType": "bool",
              "name": "soldBefore",
              "type": "bool"
            },
            {
              "internalType": "uint128",
              "name": "seat",
              "type": "uint128"
            },
            {
              "internalType": "uint128",
              "name": "transferRight",
              "type": "uint128"
            }
          ],
          "internalType": "struct TicketMarket.MarketItem[]",
          "name": "",
          "type": "tuple[]"
        }
      ],
      "stateMutability": "view",
      "type": "function"
    },
    {
      "inputs": [
        {
          "internalType": "uint256",
          "name": "tokenId",
          "type": "uint256"
        }
      ],
      "name": "NFTItem",
      "outputs": [
        {
          "components": [
            {
              "internalType": "address",
              "name": "nftContract",
              "type": "address"
            },
            {
              "internalType": "uint256",
              "name": "tokenID",
              "type": "uint256"
            },
            {
              "internalType": "uint256",
              "name": "eventID",
              "type": "uint256"
            },
            {
              "internalType": "address payable",
              "name": "ticketOwner",
              "type": "address"
            },
            {
              "internalType": "address payable",
              "name": "eventOwner",
              "type": "address"
            },
            {
              "internalType": "address payable",
              "name": "seller",
              "type": "address"
            },
            {
              "internalType": "uint128",
              "name": "price",
              "type": "uint128"
            },
            {
              "internalType": "string",
              "name": "ticketType",
              "type": "string"
            },
            {
              "internalType": "bool",
              "name": "sold",
              "type": "bool"
            },
            {
              "internalType": "bool",
              "name": "soldBefore",
              "type": "bool"
            },
            {
              "internalType": "uint128",
              "name": "seat",
              "type": "uint128"
            },
            {
              "internalType": "uint128",
              "name": "transferRight",
              "type": "uint128"
            }
          ],
          "internalType": "struct TicketMarket.MarketItem",
          "name": "",
          "type": "tuple"
        }
      ],
      "stateMutability": "view",
      "type": "function"
    },
    {
      "inputs": [
        {
          "internalType": "uint128",
          "name": "price",
          "type": "uint128"
        },
        {
          "internalType": "address",
          "name": "NftCont",
          "type": "address"
        },
        {
          "internalType": "uint256[]",
          "name": "tokenIds",
          "type": "uint256[]"
        }
      ],
      "name": "ResellTicket",
      "outputs": [],
      "stateMutability": "payable",
      "type": "function"
    },
    {
      "inputs": [
        {
          "internalType": "uint128",
          "name": "price",
          "type": "uint128"
        },
        {
          "internalType": "address",
          "name": "NftCont",
          "type": "address"
        },
        {
          "internalType": "uint256[]",
          "name": "tokenIds",
          "type": "uint256[]"
        },
        {
          "internalType": "uint256",
          "name": "eventid",
          "type": "uint256"
        }
      ],
      "name": "StopBatchSale",
      "outputs": [],
      "stateMutability": "payable",
      "type": "function"
    },
    {
      "inputs": [
        {
          "internalType": "uint128",
          "name": "price",
          "type": "uint128"
        },
        {
          "internalType": "address",
          "name": "NftCont",
          "type": "address"
        },
        {
          "internalType": "uint256",
          "name": "tokenId",
          "type": "uint256"
        }
      ],
      "name": "StopTicketSale",
      "outputs": [],
      "stateMutability": "payable",
      "type": "function"
    },
    {
      "inputs": [
        {
          "internalType": "address",
          "name": "NftCont",
          "type": "address"
        },
        {
          "internalType": "uint256",
          "name": "tokenId",
          "type": "uint256"
        },
        {
          "internalType": "address",
          "name": "toAddr",
          "type": "address"
        }
      ],
      "name": "TransferTicket",
      "outputs": [],
      "stateMutability": "payable",
      "type": "function"
    },
    {
      "inputs": [
        {
          "internalType": "uint256",
          "name": "eventId",
          "type": "uint256"
        },
        {
          "internalType": "address",
          "name": "user",
          "type": "address"
        }
      ],
      "name": "TransferableIds",
      "outputs": [
        {
          "internalType": "uint256[]",
          "name": "",
          "type": "uint256[]"
        }
      ],
      "stateMutability": "view",
      "type": "function"
    },
    {
      "inputs": [
        {
          "internalType": "uint128",
          "name": "price",
          "type": "uint128"
        },
        {
          "internalType": "address",
          "name": "NftCont",
          "type": "address"
        },
        {
          "internalType": "string",
          "name": "ticketType",
          "type": "string"
        },
        {
          "internalType": "uint256",
          "name": "eventID",
          "type": "uint256"
        },
        {
          "internalType": "uint128",
          "name": "supply",
          "type": "uint128"
        },
        {
          "internalType": "uint128",
          "name": "transNum",
          "type": "uint128"
        }
      ],
      "name": "createMarketItem",
      "outputs": [],
      "stateMutability": "payable",
      "type": "function"
    },
    {
      "inputs": [
        {
          "internalType": "uint256",
          "name": "tokenid",
          "type": "uint256"
        }
      ],
      "name": "isInMarket",
      "outputs": [
        {
          "internalType": "bool",
          "name": "",
          "type": "bool"
        }
      ],
      "stateMutability": "view",
      "type": "function"
    },
    {
      "inputs": [
        {
          "internalType": "uint256",
          "name": "tokenId",
          "type": "uint256"
        }
      ],
      "name": "isSoldBefore",
      "outputs": [
        {
          "internalType": "bool",
          "name": "",
          "type": "bool"
        }
      ],
      "stateMutability": "view",
      "type": "function"
    },
    {
      "inputs": [
        {
          "internalType": "address",
          "name": "NftCont",
          "type": "address"
        },
        {
          "internalType": "uint256",
          "name": "tokenId",
          "type": "uint256"
        }
      ],
      "name": "ticketSale",
      "outputs": [],
      "stateMutability": "payable",
      "type": "function"
    }
  ],
  "bytecode": "0x608060405234801561001057600080fd5b50600160008190555033600360006101000a81548173ffffffffffffffffffffffffffffffffffffffff021916908373ffffffffffffffffffffffffffffffffffffffff1602179055506155c6806200006a6000396000f3fe6080604052600436106100e85760003560e01c80636cbd493b1161008a578063b19d4e0811610059578063b19d4e08146102f6578063c2301b6914610333578063cf0db05b14610370578063e701679b1461038c576100e8565b80636cbd493b146102445780638113ee7114610260578063827884a81461029d57806385c15fed146102b9576100e8565b8063396f7d15116100c6578063396f7d151461017157806349cdcc98146101ae5780636aaf93d2146101ca5780636b282dd814610207576100e8565b806308aaac95146100ed5780630a29d9491461012a578063112b358414610146575b600080fd5b3480156100f957600080fd5b50610114600480360381019061010f9190613ddb565b6103a8565b6040516101219190613e23565b60405180910390f35b610144600480360381019061013f9190613e9c565b610405565b005b34801561015257600080fd5b5061015b61080f565b60405161016891906141ab565b60405180910390f35b34801561017d57600080fd5b5061019860048036038101906101939190613ddb565b610d33565b6040516101a59190613e23565b60405180910390f35b6101c860048036038101906101c39190614341565b610d63565b005b3480156101d657600080fd5b506101f160048036038101906101ec9190613ddb565b6110cf565b6040516101fe91906141ab565b60405180910390f35b34801561021357600080fd5b5061022e600480360381019061022991906143c4565b6115dd565b60405161023b91906144b3565b60405180910390f35b61025e600480360381019061025991906144d5565b6118ee565b005b34801561026c57600080fd5b5061028760048036038101906102829190613ddb565b611c35565b60405161029491906141ab565b60405180910390f35b6102b760048036038101906102b29190614528565b612143565b005b3480156102c557600080fd5b506102e060048036038101906102db9190613ddb565b6125a1565b6040516102ed91906141ab565b60405180910390f35b34801561030257600080fd5b5061031d60048036038101906103189190613ddb565b612a2f565b60405161032a919061469b565b60405180910390f35b34801561033f57600080fd5b5061035a600480360381019061035591906146bd565b612d88565b60405161036791906141ab565b60405180910390f35b61038a6004803603810190610385919061479f565b6133a0565b005b6103a660048036038101906103a19190614848565b613965565b005b60008060056000848152602001908152602001600020549050600115156004600083815260200190815260200160002060080160019054906101000a900460ff161515036103fa576001915050610400565b60009150505b919050565b61040d613bc5565b60006005600083815260200190815260200160002054905060006004600083815260200190815260200160002060060160009054906101000a90046fffffffffffffffffffffffffffffffff16905060006004600084815260200190815260200160002060010154905060006004600085815260200190815260200160002060050160009054906101000a900473ffffffffffffffffffffffffffffffffffffffff169050826fffffffffffffffffffffffffffffffff16341015610507576040517f08c379a00000000000000000000000000000000000000000000000000000000081526004016104fe906148f8565b60405180910390fd5b600015156004600086815260200190815260200160002060080160009054906101000a900460ff16151514610571576040517f08c379a000000000000000000000000000000000000000000000000000000000815260040161056890614964565b60405180910390fd5b336004600086815260200190815260200160002060030160006101000a81548173ffffffffffffffffffffffffffffffffffffffff021916908373ffffffffffffffffffffffffffffffffffffffff16021790555060016004600086815260200190815260200160002060080160006101000a81548160ff02191690831515021790555060006004600086815260200190815260200160002060050160006101000a81548173ffffffffffffffffffffffffffffffffffffffff021916908373ffffffffffffffffffffffffffffffffffffffff16021790555060016004600086815260200190815260200160002060080160016101000a81548160ff02191690831515021790555060016004600086815260200190815260200160002060090160009054906101000a90046fffffffffffffffffffffffffffffffff166106b991906149b3565b6004600086815260200190815260200160002060090160006101000a8154816fffffffffffffffffffffffffffffffff02191690836fffffffffffffffffffffffffffffffff16021790555061070f6002613c14565b8573ffffffffffffffffffffffffffffffffffffffff166323b872dd3033856040518463ffffffff1660e01b815260040161074c93929190614a15565b600060405180830381600087803b15801561076657600080fd5b505af115801561077a573d6000803e3d6000fd5b505050508073ffffffffffffffffffffffffffffffffffffffff166108fc349081150290604051600060405180830381858888f193505050501580156107c4573d6000803e3d6000fd5b50847f5352ac602b276106b740de31546b729325b98e18c87e86cde3dd97f9726a734b33856040516107f7929190614a87565b60405180910390a25050505061080b613c2a565b5050565b6060600061081d6001613c34565b905060008060005b838110156108c5573373ffffffffffffffffffffffffffffffffffffffff16600460006001846108559190614ab0565b815260200190815260200160002060030160009054906101000a900473ffffffffffffffffffffffffffffffffffffffff1673ffffffffffffffffffffffffffffffffffffffff16036108b2576001836108af9190614ab0565b92505b80806108bd90614ae4565b915050610825565b5060008267ffffffffffffffff8111156108e2576108e16141fe565b5b60405190808252806020026020018201604052801561091b57816020015b610908613c9e565b8152602001906001900390816109005790505b50905060005b84811015610d28573373ffffffffffffffffffffffffffffffffffffffff16600460006001846109519190614ab0565b815260200190815260200160002060030160009054906101000a900473ffffffffffffffffffffffffffffffffffffffff1673ffffffffffffffffffffffffffffffffffffffff1603610d155760006001826109ad9190614ab0565b9050600060046000838152602001908152602001600020905080604051806101800160405290816000820160009054906101000a900473ffffffffffffffffffffffffffffffffffffffff1673ffffffffffffffffffffffffffffffffffffffff1673ffffffffffffffffffffffffffffffffffffffff16815260200160018201548152602001600282015481526020016003820160009054906101000a900473ffffffffffffffffffffffffffffffffffffffff1673ffffffffffffffffffffffffffffffffffffffff1673ffffffffffffffffffffffffffffffffffffffff1681526020016004820160009054906101000a900473ffffffffffffffffffffffffffffffffffffffff1673ffffffffffffffffffffffffffffffffffffffff1673ffffffffffffffffffffffffffffffffffffffff1681526020016005820160009054906101000a900473ffffffffffffffffffffffffffffffffffffffff1673ffffffffffffffffffffffffffffffffffffffff1673ffffffffffffffffffffffffffffffffffffffff1681526020016006820160009054906101000a90046fffffffffffffffffffffffffffffffff166fffffffffffffffffffffffffffffffff166fffffffffffffffffffffffffffffffff168152602001600782018054610b9990614b5b565b80601f0160208091040260200160405190810160405280929190818152602001828054610bc590614b5b565b8015610c125780601f10610be757610100808354040283529160200191610c12565b820191906000526020600020905b815481529060010190602001808311610bf557829003601f168201915b505050505081526020016008820160009054906101000a900460ff161515151581526020016008820160019054906101000a900460ff161515151581526020016008820160029054906101000a90046fffffffffffffffffffffffffffffffff166fffffffffffffffffffffffffffffffff166fffffffffffffffffffffffffffffffff1681526020016009820160009054906101000a90046fffffffffffffffffffffffffffffffff166fffffffffffffffffffffffffffffffff166fffffffffffffffffffffffffffffffff1681525050848681518110610cf857610cf7614b8c565b5b6020026020010181905250600185610d109190614ab0565b945050505b8080610d2090614ae4565b915050610921565b508094505050505090565b60008060056000848152602001908152602001600020541115610d595760019050610d5e565b600090505b919050565b610d6b613bc5565b600083905060008173ffffffffffffffffffffffffffffffffffffffff16631e90b293846040518263ffffffff1660e01b8152600401610dab9190614bbb565b602060405180830381865afa158015610dc8573d6000803e3d6000fd5b505050506040513d601f19601f82011682018060405250810190610dec9190614beb565b90508073ffffffffffffffffffffffffffffffffffffffff163373ffffffffffffffffffffffffffffffffffffffff1614610e5c576040517f08c379a0000000000000000000000000000000000000000000000000000000008152600401610e5390614c8a565b60405180910390fd5b60005b8451811015611083576000858281518110610e7d57610e7c614b8c565b5b6020026020010151905060006005600083815260200190815260200160002054905060016004600083815260200190815260200160002060080160006101000a81548160ff021916908315150217905550886004600083815260200190815260200160002060060160006101000a8154816fffffffffffffffffffffffffffffffff02191690836fffffffffffffffffffffffffffffffff16021790555060006004600083815260200190815260200160002060050160006101000a81548173ffffffffffffffffffffffffffffffffffffffff021916908373ffffffffffffffffffffffffffffffffffffffff160217905550336004600083815260200190815260200160002060030160006101000a81548173ffffffffffffffffffffffffffffffffffffffff021916908373ffffffffffffffffffffffffffffffffffffffff16021790555060016004600083815260200190815260200160002060080160016101000a81548160ff021916908315150217905550610fff6002613c14565b8773ffffffffffffffffffffffffffffffffffffffff166323b872dd3033856040518463ffffffff1660e01b815260040161103c93929190614a15565b600060405180830381600087803b15801561105657600080fd5b505af115801561106a573d6000803e3d6000fd5b505050505050808061107b90614ae4565b915050610e5f565b507fdfafe2e7643356941ce9f45cd6df80c12d2513261b6d7ba4b1239e29de4363008433886040516110b793929190614caa565b60405180910390a150506110c9613c2a565b50505050565b606060006110dd6001613c34565b905060008060005b838110156111795785600460006001846110ff9190614ab0565b8152602001908152602001600020600201541480156111515750600015156004600060018461112e9190614ab0565b815260200190815260200160002060080160009054906101000a900460ff161515145b15611166576001836111639190614ab0565b92505b808061117190614ae4565b9150506110e5565b5060008267ffffffffffffffff811115611196576111956141fe565b5b6040519080825280602002602001820160405280156111cf57816020015b6111bc613c9e565b8152602001906001900390816111b45790505b50905060005b848110156115d05786600460006001846111ef9190614ab0565b8152602001908152602001600020600201541480156112415750600015156004600060018461121e9190614ab0565b815260200190815260200160002060080160009054906101000a900460ff161515145b156115bd5760006001826112559190614ab0565b9050600060046000838152602001908152602001600020905080604051806101800160405290816000820160009054906101000a900473ffffffffffffffffffffffffffffffffffffffff1673ffffffffffffffffffffffffffffffffffffffff1673ffffffffffffffffffffffffffffffffffffffff16815260200160018201548152602001600282015481526020016003820160009054906101000a900473ffffffffffffffffffffffffffffffffffffffff1673ffffffffffffffffffffffffffffffffffffffff1673ffffffffffffffffffffffffffffffffffffffff1681526020016004820160009054906101000a900473ffffffffffffffffffffffffffffffffffffffff1673ffffffffffffffffffffffffffffffffffffffff1673ffffffffffffffffffffffffffffffffffffffff1681526020016005820160009054906101000a900473ffffffffffffffffffffffffffffffffffffffff1673ffffffffffffffffffffffffffffffffffffffff1673ffffffffffffffffffffffffffffffffffffffff1681526020016006820160009054906101000a90046fffffffffffffffffffffffffffffffff166fffffffffffffffffffffffffffffffff166fffffffffffffffffffffffffffffffff16815260200160078201805461144190614b5b565b80601f016020809104026020016040519081016040528092919081815260200182805461146d90614b5b565b80156114ba5780601f1061148f576101008083540402835291602001916114ba565b820191906000526020600020905b81548152906001019060200180831161149d57829003601f168201915b505050505081526020016008820160009054906101000a900460ff161515151581526020016008820160019054906101000a900460ff161515151581526020016008820160029054906101000a90046fffffffffffffffffffffffffffffffff166fffffffffffffffffffffffffffffffff166fffffffffffffffffffffffffffffffff1681526020016009820160009054906101000a90046fffffffffffffffffffffffffffffffff166fffffffffffffffffffffffffffffffff166fffffffffffffffffffffffffffffffff16815250508486815181106115a05761159f614b8c565b5b60200260200101819052506001856115b89190614ab0565b945050505b80806115c890614ae4565b9150506111d5565b5080945050505050919050565b606060006115eb6001613c34565b905060008060005b8381101561171d578573ffffffffffffffffffffffffffffffffffffffff16600460006001846116239190614ab0565b815260200190815260200160002060030160009054906101000a900473ffffffffffffffffffffffffffffffffffffffff1673ffffffffffffffffffffffffffffffffffffffff161480156116c857506000600460006001846116869190614ab0565b815260200190815260200160002060090160009054906101000a90046fffffffffffffffffffffffffffffffff166fffffffffffffffffffffffffffffffff16115b80156116f5575086600460006001846116e19190614ab0565b815260200190815260200160002060020154145b1561170a576001836117079190614ab0565b92505b808061171590614ae4565b9150506115f3565b5060008267ffffffffffffffff81111561173a576117396141fe565b5b6040519080825280602002602001820160405280156117685781602001602082028036833780820191505090505b50905060005b848110156118e0578673ffffffffffffffffffffffffffffffffffffffff166004600060018461179e9190614ab0565b815260200190815260200160002060030160009054906101000a900473ffffffffffffffffffffffffffffffffffffffff1673ffffffffffffffffffffffffffffffffffffffff1614801561184357506000600460006001846118019190614ab0565b815260200190815260200160002060090160009054906101000a90046fffffffffffffffffffffffffffffffff166fffffffffffffffffffffffffffffffff16115b80156118705750876004600060018461185c9190614ab0565b815260200190815260200160002060020154145b156118cd576000600460006001846118889190614ab0565b8152602001908152602001600020600101549050808385815181106118b0576118af614b8c565b5b6020026020010181815250506001846118c99190614ab0565b9350505b80806118d890614ae4565b91505061176e565b508094505050505092915050565b6118f6613bc5565b6000600560008381526020019081526020016000205490506004600082815260200190815260200160002060050160009054906101000a900473ffffffffffffffffffffffffffffffffffffffff1673ffffffffffffffffffffffffffffffffffffffff163373ffffffffffffffffffffffffffffffffffffffff1614806119df57506004600082815260200190815260200160002060040160009054906101000a900473ffffffffffffffffffffffffffffffffffffffff1673ffffffffffffffffffffffffffffffffffffffff163373ffffffffffffffffffffffffffffffffffffffff16145b611a1e576040517f08c379a0000000000000000000000000000000000000000000000000000000008152600401611a1590614d5a565b60405180910390fd5b60016004600083815260200190815260200160002060080160006101000a81548160ff021916908315150217905550836004600083815260200190815260200160002060060160006101000a8154816fffffffffffffffffffffffffffffffff02191690836fffffffffffffffffffffffffffffffff16021790555060006004600083815260200190815260200160002060050160006101000a81548173ffffffffffffffffffffffffffffffffffffffff021916908373ffffffffffffffffffffffffffffffffffffffff160217905550336004600083815260200190815260200160002060030160006101000a81548173ffffffffffffffffffffffffffffffffffffffff021916908373ffffffffffffffffffffffffffffffffffffffff16021790555060016004600083815260200190815260200160002060080160016101000a81548160ff021916908315150217905550611b7e6002613c14565b8273ffffffffffffffffffffffffffffffffffffffff166323b872dd3033856040518463ffffffff1660e01b8152600401611bbb93929190614a15565b600060405180830381600087803b158015611bd557600080fd5b505af1158015611be9573d6000803e3d6000fd5b50505050817fdbe18d9dd8643fa7e3222cffee0423f082934c039103e454dd8791854b442e913386604051611c1f929190614a87565b60405180910390a250611c30613c2a565b505050565b60606000611c436001613c34565b905060008060005b83811015611cdf578560046000600184611c659190614ab0565b815260200190815260200160002060020154148015611cb757506001151560046000600184611c949190614ab0565b815260200190815260200160002060080160009054906101000a900460ff161515145b15611ccc57600183611cc99190614ab0565b92505b8080611cd790614ae4565b915050611c4b565b5060008267ffffffffffffffff811115611cfc57611cfb6141fe565b5b604051908082528060200260200182016040528015611d3557816020015b611d22613c9e565b815260200190600190039081611d1a5790505b50905060005b84811015612136578660046000600184611d559190614ab0565b815260200190815260200160002060020154148015611da757506001151560046000600184611d849190614ab0565b815260200190815260200160002060080160009054906101000a900460ff161515145b15612123576000600182611dbb9190614ab0565b9050600060046000838152602001908152602001600020905080604051806101800160405290816000820160009054906101000a900473ffffffffffffffffffffffffffffffffffffffff1673ffffffffffffffffffffffffffffffffffffffff1673ffffffffffffffffffffffffffffffffffffffff16815260200160018201548152602001600282015481526020016003820160009054906101000a900473ffffffffffffffffffffffffffffffffffffffff1673ffffffffffffffffffffffffffffffffffffffff1673ffffffffffffffffffffffffffffffffffffffff1681526020016004820160009054906101000a900473ffffffffffffffffffffffffffffffffffffffff1673ffffffffffffffffffffffffffffffffffffffff1673ffffffffffffffffffffffffffffffffffffffff1681526020016005820160009054906101000a900473ffffffffffffffffffffffffffffffffffffffff1673ffffffffffffffffffffffffffffffffffffffff1673ffffffffffffffffffffffffffffffffffffffff1681526020016006820160009054906101000a90046fffffffffffffffffffffffffffffffff166fffffffffffffffffffffffffffffffff166fffffffffffffffffffffffffffffffff168152602001600782018054611fa790614b5b565b80601f0160208091040260200160405190810160405280929190818152602001828054611fd390614b5b565b80156120205780601f10611ff557610100808354040283529160200191612020565b820191906000526020600020905b81548152906001019060200180831161200357829003601f168201915b505050505081526020016008820160009054906101000a900460ff161515151581526020016008820160019054906101000a900460ff161515151581526020016008820160029054906101000a90046fffffffffffffffffffffffffffffffff166fffffffffffffffffffffffffffffffff166fffffffffffffffffffffffffffffffff1681526020016009820160009054906101000a90046fffffffffffffffffffffffffffffffff166fffffffffffffffffffffffffffffffff166fffffffffffffffffffffffffffffffff168152505084868151811061210657612105614b8c565b5b602002602001018190525060018561211e9190614ab0565b945050505b808061212e90614ae4565b915050611d3b565b5080945050505050919050565b61214b613bc5565b6000836fffffffffffffffffffffffffffffffff16116121a0576040517f08c379a000000000000000000000000000000000000000000000000000000000815260040161219790614dc6565b60405180910390fd5b60005b8151816fffffffffffffffffffffffffffffffff16101561255657600082826fffffffffffffffffffffffffffffffff16815181106121e5576121e4614b8c565b5b602002602001015190506000600560008381526020019081526020016000205490503373ffffffffffffffffffffffffffffffffffffffff166004600083815260200190815260200160002060030160009054906101000a900473ffffffffffffffffffffffffffffffffffffffff1673ffffffffffffffffffffffffffffffffffffffff16146122ab576040517f08c379a00000000000000000000000000000000000000000000000000000000081526004016122a290614e58565b60405180910390fd5b600115156004600083815260200190815260200160002060080160009054906101000a900460ff16151514612315576040517f08c379a000000000000000000000000000000000000000000000000000000000815260040161230c90614ec4565b60405180910390fd5b60006004600083815260200190815260200160002060090160009054906101000a90046fffffffffffffffffffffffffffffffff166fffffffffffffffffffffffffffffffff161161239c576040517f08c379a000000000000000000000000000000000000000000000000000000000815260040161239390614f30565b60405180910390fd5b60008590508073ffffffffffffffffffffffffffffffffffffffff1663f5537ede3330866040518463ffffffff1660e01b81526004016123de93929190614a15565b600060405180830381600087803b1580156123f857600080fd5b505af115801561240c573d6000803e3d6000fd5b5050505060006004600084815260200190815260200160002060080160006101000a81548160ff021916908315150217905550866004600084815260200190815260200160002060060160006101000a8154816fffffffffffffffffffffffffffffffff02191690836fffffffffffffffffffffffffffffffff160217905550336004600084815260200190815260200160002060050160006101000a81548173ffffffffffffffffffffffffffffffffffffffff021916908373ffffffffffffffffffffffffffffffffffffffff160217905550306004600084815260200190815260200160002060030160006101000a81548173ffffffffffffffffffffffffffffffffffffffff021916908373ffffffffffffffffffffffffffffffffffffffff1602179055506125406002613c42565b505050808061254e90614f50565b9150506121a3565b507f59a4c9a93f26aad2a724b873f5ad10297dad1edb62ba7b042699f0dd821d9f2b8130338660405161258c9493929190614f88565b60405180910390a161259c613c2a565b505050565b606060006125af6001613c34565b905060008060005b8381101561260b5785600460006001846125d19190614ab0565b815260200190815260200160002060020154036125f8576001836125f59190614ab0565b92505b808061260390614ae4565b9150506125b7565b5060008267ffffffffffffffff811115612628576126276141fe565b5b60405190808252806020026020018201604052801561266157816020015b61264e613c9e565b8152602001906001900390816126465790505b50905060005b84811015612a225786600460006001846126819190614ab0565b81526020019081526020016000206002015403612a0f5760006001826126a79190614ab0565b9050600060046000838152602001908152602001600020905080604051806101800160405290816000820160009054906101000a900473ffffffffffffffffffffffffffffffffffffffff1673ffffffffffffffffffffffffffffffffffffffff1673ffffffffffffffffffffffffffffffffffffffff16815260200160018201548152602001600282015481526020016003820160009054906101000a900473ffffffffffffffffffffffffffffffffffffffff1673ffffffffffffffffffffffffffffffffffffffff1673ffffffffffffffffffffffffffffffffffffffff1681526020016004820160009054906101000a900473ffffffffffffffffffffffffffffffffffffffff1673ffffffffffffffffffffffffffffffffffffffff1673ffffffffffffffffffffffffffffffffffffffff1681526020016005820160009054906101000a900473ffffffffffffffffffffffffffffffffffffffff1673ffffffffffffffffffffffffffffffffffffffff1673ffffffffffffffffffffffffffffffffffffffff1681526020016006820160009054906101000a90046fffffffffffffffffffffffffffffffff166fffffffffffffffffffffffffffffffff166fffffffffffffffffffffffffffffffff16815260200160078201805461289390614b5b565b80601f01602080910402602001604051908101604052809291908181526020018280546128bf90614b5b565b801561290c5780601f106128e15761010080835404028352916020019161290c565b820191906000526020600020905b8154815290600101906020018083116128ef57829003601f168201915b505050505081526020016008820160009054906101000a900460ff161515151581526020016008820160019054906101000a900460ff161515151581526020016008820160029054906101000a90046fffffffffffffffffffffffffffffffff166fffffffffffffffffffffffffffffffff166fffffffffffffffffffffffffffffffff1681526020016009820160009054906101000a90046fffffffffffffffffffffffffffffffff166fffffffffffffffffffffffffffffffff166fffffffffffffffffffffffffffffffff16815250508486815181106129f2576129f1614b8c565b5b6020026020010181905250600185612a0a9190614ab0565b945050505b8080612a1a90614ae4565b915050612667565b5080945050505050919050565b612a37613c9e565b60006005600084815260200190815260200160002054905060046000828152602001908152602001600020604051806101800160405290816000820160009054906101000a900473ffffffffffffffffffffffffffffffffffffffff1673ffffffffffffffffffffffffffffffffffffffff1673ffffffffffffffffffffffffffffffffffffffff16815260200160018201548152602001600282015481526020016003820160009054906101000a900473ffffffffffffffffffffffffffffffffffffffff1673ffffffffffffffffffffffffffffffffffffffff1673ffffffffffffffffffffffffffffffffffffffff1681526020016004820160009054906101000a900473ffffffffffffffffffffffffffffffffffffffff1673ffffffffffffffffffffffffffffffffffffffff1673ffffffffffffffffffffffffffffffffffffffff1681526020016005820160009054906101000a900473ffffffffffffffffffffffffffffffffffffffff1673ffffffffffffffffffffffffffffffffffffffff1673ffffffffffffffffffffffffffffffffffffffff1681526020016006820160009054906101000a90046fffffffffffffffffffffffffffffffff166fffffffffffffffffffffffffffffffff166fffffffffffffffffffffffffffffffff168152602001600782018054612c3490614b5b565b80601f0160208091040260200160405190810160405280929190818152602001828054612c6090614b5b565b8015612cad5780601f10612c8257610100808354040283529160200191612cad565b820191906000526020600020905b815481529060010190602001808311612c9057829003601f168201915b505050505081526020016008820160009054906101000a900460ff161515151581526020016008820160019054906101000a900460ff161515151581526020016008820160029054906101000a90046fffffffffffffffffffffffffffffffff166fffffffffffffffffffffffffffffffff166fffffffffffffffffffffffffffffffff1681526020016009820160009054906101000a90046fffffffffffffffffffffffffffffffff166fffffffffffffffffffffffffffffffff166fffffffffffffffffffffffffffffffff1681525050915050919050565b60606000612d966001613c34565b905060008060005b83811015612eb7578573ffffffffffffffffffffffffffffffffffffffff1660046000600184612dce9190614ab0565b815260200190815260200160002060050160009054906101000a900473ffffffffffffffffffffffffffffffffffffffff1673ffffffffffffffffffffffffffffffffffffffff161480612e8f57508573ffffffffffffffffffffffffffffffffffffffff1660046000600184612e459190614ab0565b815260200190815260200160002060030160009054906101000a900473ffffffffffffffffffffffffffffffffffffffff1673ffffffffffffffffffffffffffffffffffffffff16145b15612ea457600183612ea19190614ab0565b92505b8080612eaf90614ae4565b915050612d9e565b5060008267ffffffffffffffff811115612ed457612ed36141fe565b5b604051908082528060200260200182016040528015612f0d57816020015b612efa613c9e565b815260200190600190039081612ef25790505b50905060005b84811015613393578673ffffffffffffffffffffffffffffffffffffffff1660046000600184612f439190614ab0565b815260200190815260200160002060050160009054906101000a900473ffffffffffffffffffffffffffffffffffffffff1673ffffffffffffffffffffffffffffffffffffffff16148061300457508673ffffffffffffffffffffffffffffffffffffffff1660046000600184612fba9190614ab0565b815260200190815260200160002060030160009054906101000a900473ffffffffffffffffffffffffffffffffffffffff1673ffffffffffffffffffffffffffffffffffffffff16145b156133805760006001826130189190614ab0565b9050600060046000838152602001908152602001600020905080604051806101800160405290816000820160009054906101000a900473ffffffffffffffffffffffffffffffffffffffff1673ffffffffffffffffffffffffffffffffffffffff1673ffffffffffffffffffffffffffffffffffffffff16815260200160018201548152602001600282015481526020016003820160009054906101000a900473ffffffffffffffffffffffffffffffffffffffff1673ffffffffffffffffffffffffffffffffffffffff1673ffffffffffffffffffffffffffffffffffffffff1681526020016004820160009054906101000a900473ffffffffffffffffffffffffffffffffffffffff1673ffffffffffffffffffffffffffffffffffffffff1673ffffffffffffffffffffffffffffffffffffffff1681526020016005820160009054906101000a900473ffffffffffffffffffffffffffffffffffffffff1673ffffffffffffffffffffffffffffffffffffffff1673ffffffffffffffffffffffffffffffffffffffff1681526020016006820160009054906101000a90046fffffffffffffffffffffffffffffffff166fffffffffffffffffffffffffffffffff166fffffffffffffffffffffffffffffffff16815260200160078201805461320490614b5b565b80601f016020809104026020016040519081016040528092919081815260200182805461323090614b5b565b801561327d5780601f106132525761010080835404028352916020019161327d565b820191906000526020600020905b81548152906001019060200180831161326057829003601f168201915b505050505081526020016008820160009054906101000a900460ff161515151581526020016008820160019054906101000a900460ff161515151581526020016008820160029054906101000a90046fffffffffffffffffffffffffffffffff166fffffffffffffffffffffffffffffffff166fffffffffffffffffffffffffffffffff1681526020016009820160009054906101000a90046fffffffffffffffffffffffffffffffff166fffffffffffffffffffffffffffffffff166fffffffffffffffffffffffffffffffff168152505084868151811061336357613362614b8c565b5b602002602001018190525060018561337b9190614ab0565b945050505b808061338b90614ae4565b915050612f13565b5080945050505050919050565b6133a8613bc5565b6000866fffffffffffffffffffffffffffffffff16116133fd576040517f08c379a00000000000000000000000000000000000000000000000000000000081526004016133f490614dc6565b60405180910390fd5b606060008690508073ffffffffffffffffffffffffffffffffffffffff16637c428edb866040518263ffffffff1660e01b815260040161343d9190614bbb565b600060405180830381865afa15801561345a573d6000803e3d6000fd5b505050506040513d6000823e3d601f19601f820116820180604052508101906134839190615080565b91506000805b8351816fffffffffffffffffffffffffffffffff161080156134bc5750856fffffffffffffffffffffffffffffffff1682105b15613912576134cb6001613c14565b60006134d76001613c34565b9050600085836fffffffffffffffffffffffffffffffff1681518110613500576134ff614b8c565b5b6020026020010151905061351381610d33565b6138fd576001846135249190614ab0565b93508160056000838152602001908152602001600020819055506040518061018001604052808c73ffffffffffffffffffffffffffffffffffffffff1681526020018281526020018a81526020013073ffffffffffffffffffffffffffffffffffffffff1681526020013373ffffffffffffffffffffffffffffffffffffffff1681526020013373ffffffffffffffffffffffffffffffffffffffff1681526020018d6fffffffffffffffffffffffffffffffff1681526020018b8152602001600015158152602001600015158152602001846fffffffffffffffffffffffffffffffff16815260200160018961361b91906150c9565b6fffffffffffffffffffffffffffffffff168152506004600084815260200190815260200160002060008201518160000160006101000a81548173ffffffffffffffffffffffffffffffffffffffff021916908373ffffffffffffffffffffffffffffffffffffffff160217905550602082015181600101556040820151816002015560608201518160030160006101000a81548173ffffffffffffffffffffffffffffffffffffffff021916908373ffffffffffffffffffffffffffffffffffffffff16021790555060808201518160040160006101000a81548173ffffffffffffffffffffffffffffffffffffffff021916908373ffffffffffffffffffffffffffffffffffffffff16021790555060a08201518160050160006101000a81548173ffffffffffffffffffffffffffffffffffffffff021916908373ffffffffffffffffffffffffffffffffffffffff16021790555060c08201518160060160006101000a8154816fffffffffffffffffffffffffffffffff02191690836fffffffffffffffffffffffffffffffff16021790555060e08201518160070190816137c791906152af565b506101008201518160080160006101000a81548160ff0219169083151502179055506101208201518160080160016101000a81548160ff0219169083151502179055506101408201518160080160026101000a8154816fffffffffffffffffffffffffffffffff02191690836fffffffffffffffffffffffffffffffff1602179055506101608201518160090160006101000a8154816fffffffffffffffffffffffffffffffff02191690836fffffffffffffffffffffffffffffffff1602179055509050508a73ffffffffffffffffffffffffffffffffffffffff166323b872dd3330846040518463ffffffff1660e01b81526004016138ca93929190614a15565b600060405180830381600087803b1580156138e457600080fd5b505af11580156138f8573d6000803e3d6000fd5b505050505b5050808061390a90614f50565b915050613489565b507f3f86671f43fc8df2398a80d3b5ac31fb810f93e2cfa1724aed76f7042d836b7e86338b888b60405161394a9594939291906153c9565b60405180910390a150505061395d613c2a565b505050505050565b61396d613bc5565b6000600560008481526020019081526020016000205490503373ffffffffffffffffffffffffffffffffffffffff166004600083815260200190815260200160002060030160009054906101000a900473ffffffffffffffffffffffffffffffffffffffff1673ffffffffffffffffffffffffffffffffffffffff1614613a29576040517f08c379a0000000000000000000000000000000000000000000000000000000008152600401613a209061546f565b60405180910390fd5b816004600083815260200190815260200160002060030160006101000a81548173ffffffffffffffffffffffffffffffffffffffff021916908373ffffffffffffffffffffffffffffffffffffffff16021790555060016004600083815260200190815260200160002060090160009054906101000a90046fffffffffffffffffffffffffffffffff16613abd91906149b3565b6004600083815260200190815260200160002060090160006101000a8154816fffffffffffffffffffffffffffffffff02191690836fffffffffffffffffffffffffffffffff16021790555060008490508073ffffffffffffffffffffffffffffffffffffffff1663f5537ede3385876040518463ffffffff1660e01b8152600401613b4b93929190614a15565b600060405180830381600087803b158015613b6557600080fd5b505af1158015613b79573d6000803e3d6000fd5b505050507f679ebf1af59403ccbbf38261fcf3ed9f7618934b037cd0baafb3441282332b628484604051613bae92919061548f565b60405180910390a15050613bc0613c2a565b505050565b600260005403613c0a576040517f08c379a0000000000000000000000000000000000000000000000000000000008152600401613c0190615504565b60405180910390fd5b6002600081905550565b6001816000016000828254019250508190555050565b6001600081905550565b600081600001549050919050565b60008160000154905060008111613c8e576040517f08c379a0000000000000000000000000000000000000000000000000000000008152600401613c8590615570565b60405180910390fd5b6001810382600001819055505050565b604051806101800160405280600073ffffffffffffffffffffffffffffffffffffffff1681526020016000815260200160008152602001600073ffffffffffffffffffffffffffffffffffffffff168152602001600073ffffffffffffffffffffffffffffffffffffffff168152602001600073ffffffffffffffffffffffffffffffffffffffff16815260200160006fffffffffffffffffffffffffffffffff1681526020016060815260200160001515815260200160001515815260200160006fffffffffffffffffffffffffffffffff16815260200160006fffffffffffffffffffffffffffffffff1681525090565b6000604051905090565b600080fd5b600080fd5b6000819050919050565b613db881613da5565b8114613dc357600080fd5b50565b600081359050613dd581613daf565b92915050565b600060208284031215613df157613df0613d9b565b5b6000613dff84828501613dc6565b91505092915050565b60008115159050919050565b613e1d81613e08565b82525050565b6000602082019050613e386000830184613e14565b92915050565b600073ffffffffffffffffffffffffffffffffffffffff82169050919050565b6000613e6982613e3e565b9050919050565b613e7981613e5e565b8114613e8457600080fd5b50565b600081359050613e9681613e70565b92915050565b60008060408385031215613eb357613eb2613d9b565b5b6000613ec185828601613e87565b9250506020613ed285828601613dc6565b9150509250929050565b600081519050919050565b600082825260208201905092915050565b6000819050602082019050919050565b613f1181613e5e565b82525050565b613f2081613da5565b82525050565b6000613f3182613e3e565b9050919050565b613f4181613f26565b82525050565b60006fffffffffffffffffffffffffffffffff82169050919050565b613f6c81613f47565b82525050565b600081519050919050565b600082825260208201905092915050565b60005b83811015613fac578082015181840152602081019050613f91565b60008484015250505050565b6000601f19601f8301169050919050565b6000613fd482613f72565b613fde8185613f7d565b9350613fee818560208601613f8e565b613ff781613fb8565b840191505092915050565b61400b81613e08565b82525050565b60006101808301600083015161402a6000860182613f08565b50602083015161403d6020860182613f17565b5060408301516140506040860182613f17565b5060608301516140636060860182613f38565b5060808301516140766080860182613f38565b5060a083015161408960a0860182613f38565b5060c083015161409c60c0860182613f63565b5060e083015184820360e08601526140b48282613fc9565b9150506101008301516140cb610100860182614002565b506101208301516140e0610120860182614002565b506101408301516140f5610140860182613f63565b5061016083015161410a610160860182613f63565b508091505092915050565b60006141218383614011565b905092915050565b6000602082019050919050565b600061414182613edc565b61414b8185613ee7565b93508360208202850161415d85613ef8565b8060005b85811015614199578484038952815161417a8582614115565b945061418583614129565b925060208a01995050600181019050614161565b50829750879550505050505092915050565b600060208201905081810360008301526141c58184614136565b905092915050565b6141d681613f47565b81146141e157600080fd5b50565b6000813590506141f3816141cd565b92915050565b600080fd5b7f4e487b7100000000000000000000000000000000000000000000000000000000600052604160045260246000fd5b61423682613fb8565b810181811067ffffffffffffffff82111715614255576142546141fe565b5b80604052505050565b6000614268613d91565b9050614274828261422d565b919050565b600067ffffffffffffffff821115614294576142936141fe565b5b602082029050602081019050919050565b600080fd5b60006142bd6142b884614279565b61425e565b905080838252602082019050602084028301858111156142e0576142df6142a5565b5b835b8181101561430957806142f58882613dc6565b8452602084019350506020810190506142e2565b5050509392505050565b600082601f830112614328576143276141f9565b5b81356143388482602086016142aa565b91505092915050565b6000806000806080858703121561435b5761435a613d9b565b5b6000614369878288016141e4565b945050602061437a87828801613e87565b935050604085013567ffffffffffffffff81111561439b5761439a613da0565b5b6143a787828801614313565b92505060606143b887828801613dc6565b91505092959194509250565b600080604083850312156143db576143da613d9b565b5b60006143e985828601613dc6565b92505060206143fa85828601613e87565b9150509250929050565b600081519050919050565b600082825260208201905092915050565b6000819050602082019050919050565b600061443c8383613f17565b60208301905092915050565b6000602082019050919050565b600061446082614404565b61446a818561440f565b935061447583614420565b8060005b838110156144a657815161448d8882614430565b975061449883614448565b925050600181019050614479565b5085935050505092915050565b600060208201905081810360008301526144cd8184614455565b905092915050565b6000806000606084860312156144ee576144ed613d9b565b5b60006144fc868287016141e4565b935050602061450d86828701613e87565b925050604061451e86828701613dc6565b9150509250925092565b60008060006060848603121561454157614540613d9b565b5b600061454f868287016141e4565b935050602061456086828701613e87565b925050604084013567ffffffffffffffff81111561458157614580613da0565b5b61458d86828701614313565b9150509250925092565b6000610180830160008301516145b06000860182613f08565b5060208301516145c36020860182613f17565b5060408301516145d66040860182613f17565b5060608301516145e96060860182613f38565b5060808301516145fc6080860182613f38565b5060a083015161460f60a0860182613f38565b5060c083015161462260c0860182613f63565b5060e083015184820360e086015261463a8282613fc9565b915050610100830151614651610100860182614002565b50610120830151614666610120860182614002565b5061014083015161467b610140860182613f63565b50610160830151614690610160860182613f63565b508091505092915050565b600060208201905081810360008301526146b58184614597565b905092915050565b6000602082840312156146d3576146d2613d9b565b5b60006146e184828501613e87565b91505092915050565b600080fd5b600067ffffffffffffffff82111561470a576147096141fe565b5b61471382613fb8565b9050602081019050919050565b82818337600083830152505050565b600061474261473d846146ef565b61425e565b90508281526020810184848401111561475e5761475d6146ea565b5b614769848285614720565b509392505050565b600082601f830112614786576147856141f9565b5b813561479684826020860161472f565b91505092915050565b60008060008060008060c087890312156147bc576147bb613d9b565b5b60006147ca89828a016141e4565b96505060206147db89828a01613e87565b955050604087013567ffffffffffffffff8111156147fc576147fb613da0565b5b61480889828a01614771565b945050606061481989828a01613dc6565b935050608061482a89828a016141e4565b92505060a061483b89828a016141e4565b9150509295509295509295565b60008060006060848603121561486157614860613d9b565b5b600061486f86828701613e87565b935050602061488086828701613dc6565b925050604061489186828701613e87565b9150509250925092565b600082825260208201905092915050565b7f506c6561736520706179207468652061736b696e672070726963650000000000600082015250565b60006148e2601b8361489b565b91506148ed826148ac565b602082019050919050565b60006020820190508181036000830152614911816148d5565b9050919050565b7f4974656d20686173206265656e20616c726561647920736f6c64000000000000600082015250565b600061494e601a8361489b565b915061495982614918565b602082019050919050565b6000602082019050818103600083015261497d81614941565b9050919050565b7f4e487b7100000000000000000000000000000000000000000000000000000000600052601160045260246000fd5b60006149be82613f47565b91506149c983613f47565b925082820390506fffffffffffffffffffffffffffffffff8111156149f1576149f0614984565b5b92915050565b614a0081613e5e565b82525050565b614a0f81613da5565b82525050565b6000606082019050614a2a60008301866149f7565b614a3760208301856149f7565b614a446040830184614a06565b949350505050565b6000819050919050565b6000614a71614a6c614a6784613f47565b614a4c565b613da5565b9050919050565b614a8181614a56565b82525050565b6000604082019050614a9c60008301856149f7565b614aa96020830184614a78565b9392505050565b6000614abb82613da5565b9150614ac683613da5565b9250828201905080821115614ade57614add614984565b5b92915050565b6000614aef82613da5565b91507fffffffffffffffffffffffffffffffffffffffffffffffffffffffffffffffff8203614b2157614b20614984565b5b600182019050919050565b7f4e487b7100000000000000000000000000000000000000000000000000000000600052602260045260246000fd5b60006002820490506001821680614b7357607f821691505b602082108103614b8657614b85614b2c565b5b50919050565b7f4e487b7100000000000000000000000000000000000000000000000000000000600052603260045260246000fd5b6000602082019050614bd06000830184614a06565b92915050565b600081519050614be581613e70565b92915050565b600060208284031215614c0157614c00613d9b565b5b6000614c0f84828501614bd6565b91505092915050565b7f4f6e6c79206576656e74206f776e65722063616e20706572666f726d2074686960008201527f7300000000000000000000000000000000000000000000000000000000000000602082015250565b6000614c7460218361489b565b9150614c7f82614c18565b604082019050919050565b60006020820190508181036000830152614ca381614c67565b9050919050565b60006060820190508181036000830152614cc48186614455565b9050614cd360208301856149f7565b614ce06040830184614a78565b949350505050565b7f4f6e6c79206576656e74206f776e6572206f722073656c6c65722063616e207060008201527f6572666f726d2074686973000000000000000000000000000000000000000000602082015250565b6000614d44602b8361489b565b9150614d4f82614ce8565b604082019050919050565b60006020820190508181036000830152614d7381614d37565b9050919050565b7f546f6f206c6f7700000000000000000000000000000000000000000000000000600082015250565b6000614db060078361489b565b9150614dbb82614d7a565b602082019050919050565b60006020820190508181036000830152614ddf81614da3565b9050919050565b7f4f6e6c79207469636b6574206f776e65722063616e20706572666f726d20746860008201527f6973206f7065726174696f6e0000000000000000000000000000000000000000602082015250565b6000614e42602c8361489b565b9150614e4d82614de6565b604082019050919050565b60006020820190508181036000830152614e7181614e35565b9050919050565b7f5469636b657420697320616c7265616479206c69737465642100000000000000600082015250565b6000614eae60198361489b565b9150614eb982614e78565b602082019050919050565b60006020820190508181036000830152614edd81614ea1565b9050919050565b7f4e756d626572206f66207472616e736665722072696768742069732030000000600082015250565b6000614f1a601d8361489b565b9150614f2582614ee4565b602082019050919050565b60006020820190508181036000830152614f4981614f0d565b9050919050565b6000614f5b82613f47565b91506fffffffffffffffffffffffffffffffff8203614f7d57614f7c614984565b5b600182019050919050565b60006080820190508181036000830152614fa28187614455565b9050614fb160208301866149f7565b614fbe60408301856149f7565b614fcb6060830184614a78565b95945050505050565b600081519050614fe381613daf565b92915050565b6000614ffc614ff784614279565b61425e565b9050808382526020820190506020840283018581111561501f5761501e6142a5565b5b835b8181101561504857806150348882614fd4565b845260208401935050602081019050615021565b5050509392505050565b600082601f830112615067576150666141f9565b5b8151615077848260208601614fe9565b91505092915050565b60006020828403121561509657615095613d9b565b5b600082015167ffffffffffffffff8111156150b4576150b3613da0565b5b6150c084828501615052565b91505092915050565b60006150d482613f47565b91506150df83613f47565b925082820190506fffffffffffffffffffffffffffffffff81111561510757615106614984565b5b92915050565b60008190508160005260206000209050919050565b60006020601f8301049050919050565b600082821b905092915050565b60006008830261516f7fffffffffffffffffffffffffffffffffffffffffffffffffffffffffffffffff82615132565b6151798683615132565b95508019841693508086168417925050509392505050565b60006151ac6151a76151a284613da5565b614a4c565b613da5565b9050919050565b6000819050919050565b6151c683615191565b6151da6151d2826151b3565b84845461513f565b825550505050565b600090565b6151ef6151e2565b6151fa8184846151bd565b505050565b5b8181101561521e576152136000826151e7565b600181019050615200565b5050565b601f821115615263576152348161510d565b61523d84615122565b8101602085101561524c578190505b61526061525885615122565b8301826151ff565b50505b505050565b600082821c905092915050565b600061528660001984600802615268565b1980831691505092915050565b600061529f8383615275565b9150826002028217905092915050565b6152b882613f72565b67ffffffffffffffff8111156152d1576152d06141fe565b5b6152db8254614b5b565b6152e6828285615222565b600060209050601f8311600181146153195760008415615307578287015190505b6153118582615293565b865550615379565b601f1984166153278661510d565b60005b8281101561534f5784890151825560018201915060208501945060208101905061532a565b8683101561536c5784890151615368601f891682615275565b8355505b6001600288020188555050505b505050505050565b61538a81613f47565b82525050565b600061539b82613f72565b6153a5818561489b565b93506153b5818560208601613f8e565b6153be81613fb8565b840191505092915050565b600060a0820190506153de6000830188614a06565b6153eb60208301876149f7565b6153f86040830186615381565b6154056060830185615381565b81810360808301526154178184615390565b90509695505050505050565b7f4f6e6c79207469636b6574206f776e6572000000000000000000000000000000600082015250565b600061545960118361489b565b915061546482615423565b602082019050919050565b600060208201905081810360008301526154888161544c565b9050919050565b60006040820190506154a46000830185614a06565b6154b160208301846149f7565b9392505050565b7f5265656e7472616e637947756172643a207265656e7472616e742063616c6c00600082015250565b60006154ee601f8361489b565b91506154f9826154b8565b602082019050919050565b6000602082019050818103600083015261551d816154e1565b9050919050565b7f436f756e7465723a2064656372656d656e74206f766572666c6f770000000000600082015250565b600061555a601b8361489b565b915061556582615524565b602082019050919050565b600060208201905081810360008301526155898161554d565b905091905056fea26469706673582212208a7a8d2ce30ceaab373d25fc605a2bd9269661597421a31aea50d9b59aac2c4364736f6c63430008110033",
  "linkReferences": {},
  "deployedLinkReferences": {}
}