{
  "_format": "hh-sol-artifact-1",
  "contractName": "TicketMint",
  "sourceName": "contracts/TicketMint.sol",
  "abi": [
    {
      "inputs": [
        {
          "internalType": "address",
          "name": "marketAddress",
          "type": "address"
        }
      ],
      "stateMutability": "nonpayable",
      "type": "constructor"
    },
    {
      "anonymous": false,
      "inputs": [
        {
          "indexed": true,
          "internalType": "address",
          "name": "owner",
          "type": "address"
        },
        {
          "indexed": true,
          "internalType": "address",
          "name": "approved",
          "type": "address"
        },
        {
          "indexed": true,
          "internalType": "uint256",
          "name": "tokenId",
          "type": "uint256"
        }
      ],
      "name": "Approval",
      "type": "event"
    },
    {
      "anonymous": false,
      "inputs": [
        {
          "indexed": true,
          "internalType": "address",
          "name": "owner",
          "type": "address"
        },
        {
          "indexed": true,
          "internalType": "address",
          "name": "operator",
          "type": "address"
        },
        {
          "indexed": false,
          "internalType": "bool",
          "name": "approved",
          "type": "bool"
        }
      ],
      "name": "ApprovalForAll",
      "type": "event"
    },
    {
      "anonymous": false,
      "inputs": [
        {
          "indexed": true,
          "internalType": "uint256",
          "name": "eventID",
          "type": "uint256"
        },
        {
          "indexed": false,
          "internalType": "uint256",
          "name": "supply",
          "type": "uint256"
        },
        {
          "indexed": false,
          "internalType": "address",
          "name": "ticketOwner",
          "type": "address"
        }
      ],
      "name": "Mint",
      "type": "event"
    },
    {
      "anonymous": false,
      "inputs": [
        {
          "indexed": true,
          "internalType": "address",
          "name": "from",
          "type": "address"
        },
        {
          "indexed": true,
          "internalType": "address",
          "name": "to",
          "type": "address"
        },
        {
          "indexed": true,
          "internalType": "uint256",
          "name": "tokenId",
          "type": "uint256"
        }
      ],
      "name": "Transfer",
      "type": "event"
    },
    {
      "inputs": [
        {
          "internalType": "address",
          "name": "_address",
          "type": "address"
        }
      ],
      "name": "addEventOwner",
      "outputs": [],
      "stateMutability": "nonpayable",
      "type": "function"
    },
    {
      "inputs": [
        {
          "internalType": "address",
          "name": "_addressToOwners",
          "type": "address"
        }
      ],
      "name": "addOwner",
      "outputs": [],
      "stateMutability": "nonpayable",
      "type": "function"
    },
    {
      "inputs": [
        {
          "internalType": "address",
          "name": "to",
          "type": "address"
        },
        {
          "internalType": "uint256",
          "name": "tokenId",
          "type": "uint256"
        }
      ],
      "name": "approve",
      "outputs": [],
      "stateMutability": "nonpayable",
      "type": "function"
    },
    {
      "inputs": [
        {
          "internalType": "address",
          "name": "owner",
          "type": "address"
        }
      ],
      "name": "balanceOf",
      "outputs": [
        {
          "internalType": "uint256",
          "name": "",
          "type": "uint256"
        }
      ],
      "stateMutability": "view",
      "type": "function"
    },
    {
      "inputs": [
        {
          "internalType": "uint256",
          "name": "tokenId",
          "type": "uint256"
        }
      ],
      "name": "burn",
      "outputs": [],
      "stateMutability": "nonpayable",
      "type": "function"
    },
    {
      "inputs": [
        {
          "internalType": "uint256",
          "name": "tokenId",
          "type": "uint256"
        }
      ],
      "name": "burnNFT",
      "outputs": [],
      "stateMutability": "nonpayable",
      "type": "function"
    },
    {
      "inputs": [
        {
          "internalType": "uint256",
          "name": "tokenId",
          "type": "uint256"
        }
      ],
      "name": "getApproved",
      "outputs": [
        {
          "internalType": "address",
          "name": "",
          "type": "address"
        }
      ],
      "stateMutability": "view",
      "type": "function"
    },
    {
      "inputs": [
        {
          "internalType": "uint256",
          "name": "tokenid",
          "type": "uint256"
        }
      ],
      "name": "getEventID",
      "outputs": [
        {
          "internalType": "uint256",
          "name": "",
          "type": "uint256"
        }
      ],
      "stateMutability": "view",
      "type": "function"
    },
    {
      "inputs": [
        {
          "internalType": "uint256",
          "name": "eventid",
          "type": "uint256"
        }
      ],
      "name": "getEventTicketList",
      "outputs": [
        {
          "internalType": "uint256[]",
          "name": "",
          "type": "uint256[]"
        }
      ],
      "stateMutability": "view",
      "type": "function"
    },
    {
      "inputs": [
        {
          "internalType": "address",
          "name": "owner",
          "type": "address"
        },
        {
          "internalType": "address",
          "name": "operator",
          "type": "address"
        }
      ],
      "name": "isApprovedForAll",
      "outputs": [
        {
          "internalType": "bool",
          "name": "",
          "type": "bool"
        }
      ],
      "stateMutability": "view",
      "type": "function"
    },
    {
      "inputs": [
        {
          "internalType": "string",
          "name": "tokenUri",
          "type": "string"
        },
        {
          "internalType": "uint256",
          "name": "supply",
          "type": "uint256"
        }
      ],
      "name": "mintNFT",
      "outputs": [
        {
          "internalType": "uint256",
          "name": "eventID",
          "type": "uint256"
        }
      ],
      "stateMutability": "nonpayable",
      "type": "function"
    },
    {
      "inputs": [],
      "name": "name",
      "outputs": [
        {
          "internalType": "string",
          "name": "",
          "type": "string"
        }
      ],
      "stateMutability": "view",
      "type": "function"
    },
    {
      "inputs": [
        {
          "internalType": "uint256",
          "name": "tokenId",
          "type": "uint256"
        }
      ],
      "name": "ownerOf",
      "outputs": [
        {
          "internalType": "address",
          "name": "",
          "type": "address"
        }
      ],
      "stateMutability": "view",
      "type": "function"
    },
    {
      "inputs": [
        {
          "internalType": "address",
          "name": "from",
          "type": "address"
        },
        {
          "internalType": "address",
          "name": "to",
          "type": "address"
        },
        {
          "internalType": "uint256",
          "name": "tokenId",
          "type": "uint256"
        }
      ],
      "name": "safeTransferFrom",
      "outputs": [],
      "stateMutability": "nonpayable",
      "type": "function"
    },
    {
      "inputs": [
        {
          "internalType": "address",
          "name": "from",
          "type": "address"
        },
        {
          "internalType": "address",
          "name": "to",
          "type": "address"
        },
        {
          "internalType": "uint256",
          "name": "tokenId",
          "type": "uint256"
        },
        {
          "internalType": "bytes",
          "name": "data",
          "type": "bytes"
        }
      ],
      "name": "safeTransferFrom",
      "outputs": [],
      "stateMutability": "nonpayable",
      "type": "function"
    },
    {
      "inputs": [
        {
          "internalType": "address",
          "name": "operator",
          "type": "address"
        },
        {
          "internalType": "bool",
          "name": "approved",
          "type": "bool"
        }
      ],
      "name": "setApprovalForAll",
      "outputs": [],
      "stateMutability": "nonpayable",
      "type": "function"
    },
    {
      "inputs": [
        {
          "internalType": "bytes4",
          "name": "interfaceId",
          "type": "bytes4"
        }
      ],
      "name": "supportsInterface",
      "outputs": [
        {
          "internalType": "bool",
          "name": "",
          "type": "bool"
        }
      ],
      "stateMutability": "view",
      "type": "function"
    },
    {
      "inputs": [],
      "name": "symbol",
      "outputs": [
        {
          "internalType": "string",
          "name": "",
          "type": "string"
        }
      ],
      "stateMutability": "view",
      "type": "function"
    },
    {
      "inputs": [],
      "name": "tokenID",
      "outputs": [
        {
          "internalType": "uint256",
          "name": "",
          "type": "uint256"
        }
      ],
      "stateMutability": "view",
      "type": "function"
    },
    {
      "inputs": [
        {
          "internalType": "uint256",
          "name": "tokenId",
          "type": "uint256"
        }
      ],
      "name": "tokenURI",
      "outputs": [
        {
          "internalType": "string",
          "name": "",
          "type": "string"
        }
      ],
      "stateMutability": "view",
      "type": "function"
    },
    {
      "inputs": [
        {
          "internalType": "address",
          "name": "from",
          "type": "address"
        },
        {
          "internalType": "address",
          "name": "to",
          "type": "address"
        },
        {
          "internalType": "uint256",
          "name": "tokenId",
          "type": "uint256"
        }
      ],
      "name": "transferFrom",
      "outputs": [],
      "stateMutability": "nonpayable",
      "type": "function"
    },
    {
      "inputs": [
        {
          "internalType": "address",
          "name": "from",
          "type": "address"
        },
        {
          "internalType": "address",
          "name": "to",
          "type": "address"
        },
        {
          "internalType": "uint256",
          "name": "tokenId",
          "type": "uint256"
        }
      ],
      "name": "transferToken",
      "outputs": [],
      "stateMutability": "nonpayable",
      "type": "function"
    },
    {
      "inputs": [
        {
          "internalType": "address",
          "name": "_address",
          "type": "address"
        }
      ],
      "name": "verifyEventOwner",
      "outputs": [
        {
          "internalType": "bool",
          "name": "",
          "type": "bool"
        }
      ],
      "stateMutability": "view",
      "type": "function"
    }
  ],
  "bytecode": "0x60806040523480156200001157600080fd5b5060405162003e5038038062003e508339818101604052810190620000379190620001d3565b6040518060400160405280600881526020017f5469636b726970740000000000000000000000000000000000000000000000008152506040518060400160405280600381526020017f54696300000000000000000000000000000000000000000000000000000000008152508160009081620000b491906200047f565b508060019081620000c691906200047f565b50505080600960006101000a81548173ffffffffffffffffffffffffffffffffffffffff021916908373ffffffffffffffffffffffffffffffffffffffff1602179055506001600a60003373ffffffffffffffffffffffffffffffffffffffff1673ffffffffffffffffffffffffffffffffffffffff16815260200190815260200160002060006101000a81548160ff0219169083151502179055505062000566565b600080fd5b600073ffffffffffffffffffffffffffffffffffffffff82169050919050565b60006200019b826200016e565b9050919050565b620001ad816200018e565b8114620001b957600080fd5b50565b600081519050620001cd81620001a2565b92915050565b600060208284031215620001ec57620001eb62000169565b5b6000620001fc84828501620001bc565b91505092915050565b600081519050919050565b7f4e487b7100000000000000000000000000000000000000000000000000000000600052604160045260246000fd5b7f4e487b7100000000000000000000000000000000000000000000000000000000600052602260045260246000fd5b600060028204905060018216806200028757607f821691505b6020821081036200029d576200029c6200023f565b5b50919050565b60008190508160005260206000209050919050565b60006020601f8301049050919050565b600082821b905092915050565b600060088302620003077fffffffffffffffffffffffffffffffffffffffffffffffffffffffffffffffff82620002c8565b620003138683620002c8565b95508019841693508086168417925050509392505050565b6000819050919050565b6000819050919050565b6000620003606200035a62000354846200032b565b62000335565b6200032b565b9050919050565b6000819050919050565b6200037c836200033f565b620003946200038b8262000367565b848454620002d5565b825550505050565b600090565b620003ab6200039c565b620003b881848462000371565b505050565b5b81811015620003e057620003d4600082620003a1565b600181019050620003be565b5050565b601f8211156200042f57620003f981620002a3565b6200040484620002b8565b8101602085101562000414578190505b6200042c6200042385620002b8565b830182620003bd565b50505b505050565b600082821c905092915050565b6000620004546000198460080262000434565b1980831691505092915050565b60006200046f838362000441565b9150826002028217905092915050565b6200048a8262000205565b67ffffffffffffffff811115620004a657620004a562000210565b5b620004b282546200026e565b620004bf828285620003e4565b600060209050601f831160018114620004f75760008415620004e2578287015190505b620004ee858262000461565b8655506200055e565b601f1984166200050786620002a3565b60005b8281101562000531578489015182556001820191506020850194506020810190506200050a565b868310156200055157848901516200054d601f89168262000441565b8355505b6001600288020188555050505b505050505050565b6138da80620005766000396000f3fe608060405234801561001057600080fd5b506004361061014d5760003560e01c80636352211e116100c3578063a22cb4651161007c578063a22cb465146103d2578063a5c42ef1146103ee578063b88d4fde1461040c578063c87b56dd14610428578063e985e9c514610458578063f5537ede146104885761014d565b80636352211e146102d85780637065cb481461030857806370a08231146103245780637c428edb146103545780638966d3a21461038457806395d89b41146103b45761014d565b806327848eae1161011557806327848eae146102085780632890e0d7146102245780632b43ecf61461024057806342842e0e1461027057806342966c681461028c5780635afa3a72146102a85761014d565b806301ffc9a71461015257806306fdde0314610182578063081812fc146101a0578063095ea7b3146101d057806323b872dd146101ec575b600080fd5b61016c6004803603810190610167919061240b565b6104a4565b6040516101799190612453565b60405180910390f35b61018a610586565b60405161019791906124fe565b60405180910390f35b6101ba60048036038101906101b59190612556565b610618565b6040516101c791906125c4565b60405180910390f35b6101ea60048036038101906101e5919061260b565b61065e565b005b6102066004803603810190610201919061264b565b610775565b005b610222600480360381019061021d919061269e565b6107d5565b005b61023e60048036038101906102399190612556565b6108bc565b005b61025a60048036038101906102559190612556565b610918565b60405161026791906126da565b60405180910390f35b61028a6004803603810190610285919061264b565b610935565b005b6102a660048036038101906102a19190612556565b610955565b005b6102c260048036038101906102bd919061282a565b6109b1565b6040516102cf91906126da565b60405180910390f35b6102f260048036038101906102ed9190612556565b610b6b565b6040516102ff91906125c4565b60405180910390f35b610322600480360381019061031d919061269e565b610bf1565b005b61033e6004803603810190610339919061269e565b610cd8565b60405161034b91906126da565b60405180910390f35b61036e60048036038101906103699190612556565b610d8f565b60405161037b9190612944565b60405180910390f35b61039e6004803603810190610399919061269e565b610dfa565b6040516103ab9190612453565b60405180910390f35b6103bc610e55565b6040516103c991906124fe565b60405180910390f35b6103ec60048036038101906103e79190612992565b610ee7565b005b6103f6610efd565b60405161040391906126da565b60405180910390f35b61042660048036038101906104219190612a73565b610f0e565b005b610442600480360381019061043d9190612556565b610f70565b60405161044f91906124fe565b60405180910390f35b610472600480360381019061046d9190612af6565b610f82565b60405161047f9190612453565b60405180910390f35b6104a2600480360381019061049d919061264b565b611016565b005b60007f80ac58cd000000000000000000000000000000000000000000000000000000007bffffffffffffffffffffffffffffffffffffffffffffffffffffffff1916827bffffffffffffffffffffffffffffffffffffffffffffffffffffffff1916148061056f57507f5b5e139f000000000000000000000000000000000000000000000000000000007bffffffffffffffffffffffffffffffffffffffffffffffffffffffff1916827bffffffffffffffffffffffffffffffffffffffffffffffffffffffff1916145b8061057f575061057e8261109c565b5b9050919050565b60606000805461059590612b65565b80601f01602080910402602001604051908101604052809291908181526020018280546105c190612b65565b801561060e5780601f106105e35761010080835404028352916020019161060e565b820191906000526020600020905b8154815290600101906020018083116105f157829003601f168201915b5050505050905090565b600061062382611106565b6004600083815260200190815260200160002060009054906101000a900473ffffffffffffffffffffffffffffffffffffffff169050919050565b600061066982610b6b565b90508073ffffffffffffffffffffffffffffffffffffffff168373ffffffffffffffffffffffffffffffffffffffff16036106d9576040517f08c379a00000000000000000000000000000000000000000000000000000000081526004016106d090612c08565b60405180910390fd5b8073ffffffffffffffffffffffffffffffffffffffff166106f8611151565b73ffffffffffffffffffffffffffffffffffffffff161480610727575061072681610721611151565b610f82565b5b610766576040517f08c379a000000000000000000000000000000000000000000000000000000000815260040161075d90612c9a565b60405180910390fd5b6107708383611159565b505050565b610786610780611151565b82611212565b6107c5576040517f08c379a00000000000000000000000000000000000000000000000000000000081526004016107bc90612d2c565b60405180910390fd5b6107d08383836112a7565b505050565b600a60003373ffffffffffffffffffffffffffffffffffffffff1673ffffffffffffffffffffffffffffffffffffffff16815260200190815260200160002060009054906101000a900460ff16610861576040517f08c379a000000000000000000000000000000000000000000000000000000000815260040161085890612d98565b60405180910390fd5b6001600b60008373ffffffffffffffffffffffffffffffffffffffff1673ffffffffffffffffffffffffffffffffffffffff16815260200190815260200160002060006101000a81548160ff02191690831515021790555050565b6108cd6108c7611151565b82611212565b61090c576040517f08c379a000000000000000000000000000000000000000000000000000000000815260040161090390612e2a565b60405180910390fd5b610915816115a0565b50565b6000600d6000838152602001908152602001600020549050919050565b61095083838360405180602001604052806000815250610f0e565b505050565b610966610960611151565b82611212565b6109a5576040517f08c379a000000000000000000000000000000000000000000000000000000000815260040161099c90612d2c565b60405180910390fd5b6109ae816115a0565b50565b600033600b60008273ffffffffffffffffffffffffffffffffffffffff1673ffffffffffffffffffffffffffffffffffffffff16815260200190815260200160002060009054906101000a900460ff16610a40576040517f08c379a0000000000000000000000000000000000000000000000000000000008152600401610a3790612e96565b60405180910390fd5b610a4a60086115ac565b6000610a5660086115c2565b9050600080600090505b85811015610b2457610a7260076115ac565b610a7c60076115c2565b9150610a8833836115d0565b610a9282886115ee565b610abf600960009054906101000a900473ffffffffffffffffffffffffffffffffffffffff166001610ee7565b600c600084815260200190815260200160002082908060018154018082558091505060019003906000526020600020016000909190919091505582600d6000848152602001908152602001600020819055508080610b1c90612ee5565b915050610a60565b50817f8334f87aeaf76e52b061d93ee968e51fdd3ad53ca04e80271249227997aab3a08633604051610b57929190612f2d565b60405180910390a281935050505092915050565b600080610b778361165b565b9050600073ffffffffffffffffffffffffffffffffffffffff168173ffffffffffffffffffffffffffffffffffffffff1603610be8576040517f08c379a0000000000000000000000000000000000000000000000000000000008152600401610bdf90612fa2565b60405180910390fd5b80915050919050565b600a60003373ffffffffffffffffffffffffffffffffffffffff1673ffffffffffffffffffffffffffffffffffffffff16815260200190815260200160002060009054906101000a900460ff16610c7d576040517f08c379a0000000000000000000000000000000000000000000000000000000008152600401610c7490612d98565b60405180910390fd5b6001600a60008373ffffffffffffffffffffffffffffffffffffffff1673ffffffffffffffffffffffffffffffffffffffff16815260200190815260200160002060006101000a81548160ff02191690831515021790555050565b60008073ffffffffffffffffffffffffffffffffffffffff168273ffffffffffffffffffffffffffffffffffffffff1603610d48576040517f08c379a0000000000000000000000000000000000000000000000000000000008152600401610d3f90613034565b60405180910390fd5b600360008373ffffffffffffffffffffffffffffffffffffffff1673ffffffffffffffffffffffffffffffffffffffff168152602001908152602001600020549050919050565b6060600c6000838152602001908152602001600020805480602002602001604051908101604052809291908181526020018280548015610dee57602002820191906000526020600020905b815481526020019060010190808311610dda575b50505050509050919050565b600080600b60008473ffffffffffffffffffffffffffffffffffffffff1673ffffffffffffffffffffffffffffffffffffffff16815260200190815260200160002060009054906101000a900460ff16905080915050919050565b606060018054610e6490612b65565b80601f0160208091040260200160405190810160405280929190818152602001828054610e9090612b65565b8015610edd5780601f10610eb257610100808354040283529160200191610edd565b820191906000526020600020905b815481529060010190602001808311610ec057829003601f168201915b5050505050905090565b610ef9610ef2611151565b8383611698565b5050565b6000610f0960076115c2565b905090565b610f1f610f19611151565b83611212565b610f5e576040517f08c379a0000000000000000000000000000000000000000000000000000000008152600401610f5590612d2c565b60405180910390fd5b610f6a84848484611804565b50505050565b6060610f7b82611860565b9050919050565b6000600560008473ffffffffffffffffffffffffffffffffffffffff1673ffffffffffffffffffffffffffffffffffffffff16815260200190815260200160002060008373ffffffffffffffffffffffffffffffffffffffff1673ffffffffffffffffffffffffffffffffffffffff16815260200190815260200160002060009054906101000a900460ff16905092915050565b8273ffffffffffffffffffffffffffffffffffffffff1661103682610b6b565b73ffffffffffffffffffffffffffffffffffffffff161461108c576040517f08c379a0000000000000000000000000000000000000000000000000000000008152600401611083906130a0565b60405180910390fd5b6110978383836112a7565b505050565b60007f01ffc9a7000000000000000000000000000000000000000000000000000000007bffffffffffffffffffffffffffffffffffffffffffffffffffffffff1916827bffffffffffffffffffffffffffffffffffffffffffffffffffffffff1916149050919050565b61110f81611972565b61114e576040517f08c379a000000000000000000000000000000000000000000000000000000000815260040161114590612fa2565b60405180910390fd5b50565b600033905090565b816004600083815260200190815260200160002060006101000a81548173ffffffffffffffffffffffffffffffffffffffff021916908373ffffffffffffffffffffffffffffffffffffffff160217905550808273ffffffffffffffffffffffffffffffffffffffff166111cc83610b6b565b73ffffffffffffffffffffffffffffffffffffffff167f8c5be1e5ebec7d5bd14f71427d1e84f3dd0314c0f7b2291e5b200ac8c7c3b92560405160405180910390a45050565b60008061121e83610b6b565b90508073ffffffffffffffffffffffffffffffffffffffff168473ffffffffffffffffffffffffffffffffffffffff161480611260575061125f8185610f82565b5b8061129e57508373ffffffffffffffffffffffffffffffffffffffff1661128684610618565b73ffffffffffffffffffffffffffffffffffffffff16145b91505092915050565b8273ffffffffffffffffffffffffffffffffffffffff166112c782610b6b565b73ffffffffffffffffffffffffffffffffffffffff161461131d576040517f08c379a000000000000000000000000000000000000000000000000000000000815260040161131490613132565b60405180910390fd5b600073ffffffffffffffffffffffffffffffffffffffff168273ffffffffffffffffffffffffffffffffffffffff160361138c576040517f08c379a0000000000000000000000000000000000000000000000000000000008152600401611383906131c4565b60405180910390fd5b61139983838360016119b3565b8273ffffffffffffffffffffffffffffffffffffffff166113b982610b6b565b73ffffffffffffffffffffffffffffffffffffffff161461140f576040517f08c379a000000000000000000000000000000000000000000000000000000000815260040161140690613132565b60405180910390fd5b6004600082815260200190815260200160002060006101000a81549073ffffffffffffffffffffffffffffffffffffffff02191690556001600360008573ffffffffffffffffffffffffffffffffffffffff1673ffffffffffffffffffffffffffffffffffffffff168152602001908152602001600020600082825403925050819055506001600360008473ffffffffffffffffffffffffffffffffffffffff1673ffffffffffffffffffffffffffffffffffffffff16815260200190815260200160002060008282540192505081905550816002600083815260200190815260200160002060006101000a81548173ffffffffffffffffffffffffffffffffffffffff021916908373ffffffffffffffffffffffffffffffffffffffff160217905550808273ffffffffffffffffffffffffffffffffffffffff168473ffffffffffffffffffffffffffffffffffffffff167fddf252ad1be2c89b69c2b068fc378daa952ba7f163c4a11628f55a4df523b3ef60405160405180910390a461159b8383836001611ad9565b505050565b6115a981611adf565b50565b6001816000016000828254019250508190555050565b600081600001549050919050565b6115ea828260405180602001604052806000815250611b32565b5050565b6115f782611972565b611636576040517f08c379a000000000000000000000000000000000000000000000000000000000815260040161162d90613256565b60405180910390fd5b806006600084815260200190815260200160002090816116569190613422565b505050565b60006002600083815260200190815260200160002060009054906101000a900473ffffffffffffffffffffffffffffffffffffffff169050919050565b8173ffffffffffffffffffffffffffffffffffffffff168373ffffffffffffffffffffffffffffffffffffffff1603611706576040517f08c379a00000000000000000000000000000000000000000000000000000000081526004016116fd90613540565b60405180910390fd5b80600560008573ffffffffffffffffffffffffffffffffffffffff1673ffffffffffffffffffffffffffffffffffffffff16815260200190815260200160002060008473ffffffffffffffffffffffffffffffffffffffff1673ffffffffffffffffffffffffffffffffffffffff16815260200190815260200160002060006101000a81548160ff0219169083151502179055508173ffffffffffffffffffffffffffffffffffffffff168373ffffffffffffffffffffffffffffffffffffffff167f17307eab39ab6107e8899845ad3d59bd9653f200f220920489ca2b5937696c31836040516117f79190612453565b60405180910390a3505050565b61180f8484846112a7565b61181b84848484611b8d565b61185a576040517f08c379a0000000000000000000000000000000000000000000000000000000008152600401611851906135d2565b60405180910390fd5b50505050565b606061186b82611106565b600060066000848152602001908152602001600020805461188b90612b65565b80601f01602080910402602001604051908101604052809291908181526020018280546118b790612b65565b80156119045780601f106118d957610100808354040283529160200191611904565b820191906000526020600020905b8154815290600101906020018083116118e757829003601f168201915b505050505090506000611915611d14565b9050600081510361192a57819250505061196d565b60008251111561195f57808260405160200161194792919061362e565b6040516020818303038152906040529250505061196d565b61196884611d2b565b925050505b919050565b60008073ffffffffffffffffffffffffffffffffffffffff166119948361165b565b73ffffffffffffffffffffffffffffffffffffffff1614159050919050565b6001811115611ad357600073ffffffffffffffffffffffffffffffffffffffff168473ffffffffffffffffffffffffffffffffffffffff1614611a475780600360008673ffffffffffffffffffffffffffffffffffffffff1673ffffffffffffffffffffffffffffffffffffffff1681526020019081526020016000206000828254611a3f9190613652565b925050819055505b600073ffffffffffffffffffffffffffffffffffffffff168373ffffffffffffffffffffffffffffffffffffffff1614611ad25780600360008573ffffffffffffffffffffffffffffffffffffffff1673ffffffffffffffffffffffffffffffffffffffff1681526020019081526020016000206000828254611aca9190613686565b925050819055505b5b50505050565b50505050565b611ae881611d93565b6000600660008381526020019081526020016000208054611b0890612b65565b905014611b2f57600660008281526020019081526020016000206000611b2e9190612342565b5b50565b611b3c8383611ee1565b611b496000848484611b8d565b611b88576040517f08c379a0000000000000000000000000000000000000000000000000000000008152600401611b7f906135d2565b60405180910390fd5b505050565b6000611bae8473ffffffffffffffffffffffffffffffffffffffff166120fe565b15611d07578373ffffffffffffffffffffffffffffffffffffffff1663150b7a02611bd7611151565b8786866040518563ffffffff1660e01b8152600401611bf9949392919061370f565b6020604051808303816000875af1925050508015611c3557506040513d601f19601f82011682018060405250810190611c329190613770565b60015b611cb7573d8060008114611c65576040519150601f19603f3d011682016040523d82523d6000602084013e611c6a565b606091505b506000815103611caf576040517f08c379a0000000000000000000000000000000000000000000000000000000008152600401611ca6906135d2565b60405180910390fd5b805181602001fd5b63150b7a0260e01b7bffffffffffffffffffffffffffffffffffffffffffffffffffffffff1916817bffffffffffffffffffffffffffffffffffffffffffffffffffffffff191614915050611d0c565b600190505b949350505050565b606060405180602001604052806000815250905090565b6060611d3682611106565b6000611d40611d14565b90506000815111611d605760405180602001604052806000815250611d8b565b80611d6a84612121565b604051602001611d7b92919061362e565b6040516020818303038152906040525b915050919050565b6000611d9e82610b6b565b9050611dae8160008460016119b3565b611db782610b6b565b90506004600083815260200190815260200160002060006101000a81549073ffffffffffffffffffffffffffffffffffffffff02191690556001600360008373ffffffffffffffffffffffffffffffffffffffff1673ffffffffffffffffffffffffffffffffffffffff168152602001908152602001600020600082825403925050819055506002600083815260200190815260200160002060006101000a81549073ffffffffffffffffffffffffffffffffffffffff021916905581600073ffffffffffffffffffffffffffffffffffffffff168273ffffffffffffffffffffffffffffffffffffffff167fddf252ad1be2c89b69c2b068fc378daa952ba7f163c4a11628f55a4df523b3ef60405160405180910390a4611edd816000846001611ad9565b5050565b600073ffffffffffffffffffffffffffffffffffffffff168273ffffffffffffffffffffffffffffffffffffffff1603611f50576040517f08c379a0000000000000000000000000000000000000000000000000000000008152600401611f47906137e9565b60405180910390fd5b611f5981611972565b15611f99576040517f08c379a0000000000000000000000000000000000000000000000000000000008152600401611f9090613855565b60405180910390fd5b611fa76000838360016119b3565b611fb081611972565b15611ff0576040517f08c379a0000000000000000000000000000000000000000000000000000000008152600401611fe790613855565b60405180910390fd5b6001600360008473ffffffffffffffffffffffffffffffffffffffff1673ffffffffffffffffffffffffffffffffffffffff16815260200190815260200160002060008282540192505081905550816002600083815260200190815260200160002060006101000a81548173ffffffffffffffffffffffffffffffffffffffff021916908373ffffffffffffffffffffffffffffffffffffffff160217905550808273ffffffffffffffffffffffffffffffffffffffff16600073ffffffffffffffffffffffffffffffffffffffff167fddf252ad1be2c89b69c2b068fc378daa952ba7f163c4a11628f55a4df523b3ef60405160405180910390a46120fa600083836001611ad9565b5050565b6000808273ffffffffffffffffffffffffffffffffffffffff163b119050919050565b606060006001612130846121ef565b01905060008167ffffffffffffffff81111561214f5761214e6126ff565b5b6040519080825280601f01601f1916602001820160405280156121815781602001600182028036833780820191505090505b509050600082602001820190505b6001156121e4578080600190039150507f3031323334353637383961626364656600000000000000000000000000000000600a86061a8153600a85816121d8576121d7613875565b5b0494506000850361218f575b819350505050919050565b600080600090507a184f03e93ff9f4daa797ed6e38ed64bf6a1f010000000000000000831061224d577a184f03e93ff9f4daa797ed6e38ed64bf6a1f010000000000000000838161224357612242613875565b5b0492506040810190505b6d04ee2d6d415b85acef8100000000831061228a576d04ee2d6d415b85acef810000000083816122805761227f613875565b5b0492506020810190505b662386f26fc1000083106122b957662386f26fc1000083816122af576122ae613875565b5b0492506010810190505b6305f5e10083106122e2576305f5e10083816122d8576122d7613875565b5b0492506008810190505b61271083106123075761271083816122fd576122fc613875565b5b0492506004810190505b6064831061232a57606483816123205761231f613875565b5b0492506002810190505b600a8310612339576001810190505b80915050919050565b50805461234e90612b65565b6000825580601f10612360575061237f565b601f01602090049060005260206000209081019061237e9190612382565b5b50565b5b8082111561239b576000816000905550600101612383565b5090565b6000604051905090565b600080fd5b600080fd5b60007fffffffff0000000000000000000000000000000000000000000000000000000082169050919050565b6123e8816123b3565b81146123f357600080fd5b50565b600081359050612405816123df565b92915050565b600060208284031215612421576124206123a9565b5b600061242f848285016123f6565b91505092915050565b60008115159050919050565b61244d81612438565b82525050565b60006020820190506124686000830184612444565b92915050565b600081519050919050565b600082825260208201905092915050565b60005b838110156124a857808201518184015260208101905061248d565b60008484015250505050565b6000601f19601f8301169050919050565b60006124d08261246e565b6124da8185612479565b93506124ea81856020860161248a565b6124f3816124b4565b840191505092915050565b6000602082019050818103600083015261251881846124c5565b905092915050565b6000819050919050565b61253381612520565b811461253e57600080fd5b50565b6000813590506125508161252a565b92915050565b60006020828403121561256c5761256b6123a9565b5b600061257a84828501612541565b91505092915050565b600073ffffffffffffffffffffffffffffffffffffffff82169050919050565b60006125ae82612583565b9050919050565b6125be816125a3565b82525050565b60006020820190506125d960008301846125b5565b92915050565b6125e8816125a3565b81146125f357600080fd5b50565b600081359050612605816125df565b92915050565b60008060408385031215612622576126216123a9565b5b6000612630858286016125f6565b925050602061264185828601612541565b9150509250929050565b600080600060608486031215612664576126636123a9565b5b6000612672868287016125f6565b9350506020612683868287016125f6565b925050604061269486828701612541565b9150509250925092565b6000602082840312156126b4576126b36123a9565b5b60006126c2848285016125f6565b91505092915050565b6126d481612520565b82525050565b60006020820190506126ef60008301846126cb565b92915050565b600080fd5b600080fd5b7f4e487b7100000000000000000000000000000000000000000000000000000000600052604160045260246000fd5b612737826124b4565b810181811067ffffffffffffffff82111715612756576127556126ff565b5b80604052505050565b600061276961239f565b9050612775828261272e565b919050565b600067ffffffffffffffff821115612795576127946126ff565b5b61279e826124b4565b9050602081019050919050565b82818337600083830152505050565b60006127cd6127c88461277a565b61275f565b9050828152602081018484840111156127e9576127e86126fa565b5b6127f48482856127ab565b509392505050565b600082601f830112612811576128106126f5565b5b81356128218482602086016127ba565b91505092915050565b60008060408385031215612841576128406123a9565b5b600083013567ffffffffffffffff81111561285f5761285e6123ae565b5b61286b858286016127fc565b925050602061287c85828601612541565b9150509250929050565b600081519050919050565b600082825260208201905092915050565b6000819050602082019050919050565b6128bb81612520565b82525050565b60006128cd83836128b2565b60208301905092915050565b6000602082019050919050565b60006128f182612886565b6128fb8185612891565b9350612906836128a2565b8060005b8381101561293757815161291e88826128c1565b9750612929836128d9565b92505060018101905061290a565b5085935050505092915050565b6000602082019050818103600083015261295e81846128e6565b905092915050565b61296f81612438565b811461297a57600080fd5b50565b60008135905061298c81612966565b92915050565b600080604083850312156129a9576129a86123a9565b5b60006129b7858286016125f6565b92505060206129c88582860161297d565b9150509250929050565b600067ffffffffffffffff8211156129ed576129ec6126ff565b5b6129f6826124b4565b9050602081019050919050565b6000612a16612a11846129d2565b61275f565b905082815260208101848484011115612a3257612a316126fa565b5b612a3d8482856127ab565b509392505050565b600082601f830112612a5a57612a596126f5565b5b8135612a6a848260208601612a03565b91505092915050565b60008060008060808587031215612a8d57612a8c6123a9565b5b6000612a9b878288016125f6565b9450506020612aac878288016125f6565b9350506040612abd87828801612541565b925050606085013567ffffffffffffffff811115612ade57612add6123ae565b5b612aea87828801612a45565b91505092959194509250565b60008060408385031215612b0d57612b0c6123a9565b5b6000612b1b858286016125f6565b9250506020612b2c858286016125f6565b9150509250929050565b7f4e487b7100000000000000000000000000000000000000000000000000000000600052602260045260246000fd5b60006002820490506001821680612b7d57607f821691505b602082108103612b9057612b8f612b36565b5b50919050565b7f4552433732313a20617070726f76616c20746f2063757272656e74206f776e6560008201527f7200000000000000000000000000000000000000000000000000000000000000602082015250565b6000612bf2602183612479565b9150612bfd82612b96565b604082019050919050565b60006020820190508181036000830152612c2181612be5565b9050919050565b7f4552433732313a20617070726f76652063616c6c6572206973206e6f7420746f60008201527f6b656e206f776e6572206f7220617070726f76656420666f7220616c6c000000602082015250565b6000612c84603d83612479565b9150612c8f82612c28565b604082019050919050565b60006020820190508181036000830152612cb381612c77565b9050919050565b7f4552433732313a2063616c6c6572206973206e6f7420746f6b656e206f776e6560008201527f72206f7220617070726f76656400000000000000000000000000000000000000602082015250565b6000612d16602d83612479565b9150612d2182612cba565b604082019050919050565b60006020820190508181036000830152612d4581612d09565b9050919050565b7f4f6e6c7920636f6e7472616374206f776e657273210000000000000000000000600082015250565b6000612d82601583612479565b9150612d8d82612d4c565b602082019050919050565b60006020820190508181036000830152612db181612d75565b9050919050565b7f4552433732314275726e61626c653a2063616c6c6572206973206e6f74206f7760008201527f6e6572206e6f7220617070726f76656400000000000000000000000000000000602082015250565b6000612e14603083612479565b9150612e1f82612db8565b604082019050919050565b60006020820190508181036000830152612e4381612e07565b9050919050565b7f596f75206e65656420746f2062652077686974656c6973746564000000000000600082015250565b6000612e80601a83612479565b9150612e8b82612e4a565b602082019050919050565b60006020820190508181036000830152612eaf81612e73565b9050919050565b7f4e487b7100000000000000000000000000000000000000000000000000000000600052601160045260246000fd5b6000612ef082612520565b91507fffffffffffffffffffffffffffffffffffffffffffffffffffffffffffffffff8203612f2257612f21612eb6565b5b600182019050919050565b6000604082019050612f4260008301856126cb565b612f4f60208301846125b5565b9392505050565b7f4552433732313a20696e76616c696420746f6b656e2049440000000000000000600082015250565b6000612f8c601883612479565b9150612f9782612f56565b602082019050919050565b60006020820190508181036000830152612fbb81612f7f565b9050919050565b7f4552433732313a2061646472657373207a65726f206973206e6f74206120766160008201527f6c6964206f776e65720000000000000000000000000000000000000000000000602082015250565b600061301e602983612479565b915061302982612fc2565b604082019050919050565b6000602082019050818103600083015261304d81613011565b9050919050565b7f46726f6d2061646472657373206d75737420626520746f6b656e206f776e6572600082015250565b600061308a602083612479565b915061309582613054565b602082019050919050565b600060208201905081810360008301526130b98161307d565b9050919050565b7f4552433732313a207472616e736665722066726f6d20696e636f72726563742060008201527f6f776e6572000000000000000000000000000000000000000000000000000000602082015250565b600061311c602583612479565b9150613127826130c0565b604082019050919050565b6000602082019050818103600083015261314b8161310f565b9050919050565b7f4552433732313a207472616e7366657220746f20746865207a65726f2061646460008201527f7265737300000000000000000000000000000000000000000000000000000000602082015250565b60006131ae602483612479565b91506131b982613152565b604082019050919050565b600060208201905081810360008301526131dd816131a1565b9050919050565b7f45524337323155524953746f726167653a2055524920736574206f66206e6f6e60008201527f6578697374656e7420746f6b656e000000000000000000000000000000000000602082015250565b6000613240602e83612479565b915061324b826131e4565b604082019050919050565b6000602082019050818103600083015261326f81613233565b9050919050565b60008190508160005260206000209050919050565b60006020601f8301049050919050565b600082821b905092915050565b6000600883026132d87fffffffffffffffffffffffffffffffffffffffffffffffffffffffffffffffff8261329b565b6132e2868361329b565b95508019841693508086168417925050509392505050565b6000819050919050565b600061331f61331a61331584612520565b6132fa565b612520565b9050919050565b6000819050919050565b61333983613304565b61334d61334582613326565b8484546132a8565b825550505050565b600090565b613362613355565b61336d818484613330565b505050565b5b818110156133915761338660008261335a565b600181019050613373565b5050565b601f8211156133d6576133a781613276565b6133b08461328b565b810160208510156133bf578190505b6133d36133cb8561328b565b830182613372565b50505b505050565b600082821c905092915050565b60006133f9600019846008026133db565b1980831691505092915050565b600061341283836133e8565b9150826002028217905092915050565b61342b8261246e565b67ffffffffffffffff811115613444576134436126ff565b5b61344e8254612b65565b613459828285613395565b600060209050601f83116001811461348c576000841561347a578287015190505b6134848582613406565b8655506134ec565b601f19841661349a86613276565b60005b828110156134c25784890151825560018201915060208501945060208101905061349d565b868310156134df57848901516134db601f8916826133e8565b8355505b6001600288020188555050505b505050505050565b7f4552433732313a20617070726f766520746f2063616c6c657200000000000000600082015250565b600061352a601983612479565b9150613535826134f4565b602082019050919050565b600060208201905081810360008301526135598161351d565b9050919050565b7f4552433732313a207472616e7366657220746f206e6f6e20455243373231526560008201527f63656976657220696d706c656d656e7465720000000000000000000000000000602082015250565b60006135bc603283612479565b91506135c782613560565b604082019050919050565b600060208201905081810360008301526135eb816135af565b9050919050565b600081905092915050565b60006136088261246e565b61361281856135f2565b935061362281856020860161248a565b80840191505092915050565b600061363a82856135fd565b915061364682846135fd565b91508190509392505050565b600061365d82612520565b915061366883612520565b92508282039050818111156136805761367f612eb6565b5b92915050565b600061369182612520565b915061369c83612520565b92508282019050808211156136b4576136b3612eb6565b5b92915050565b600081519050919050565b600082825260208201905092915050565b60006136e1826136ba565b6136eb81856136c5565b93506136fb81856020860161248a565b613704816124b4565b840191505092915050565b600060808201905061372460008301876125b5565b61373160208301866125b5565b61373e60408301856126cb565b818103606083015261375081846136d6565b905095945050505050565b60008151905061376a816123df565b92915050565b600060208284031215613786576137856123a9565b5b60006137948482850161375b565b91505092915050565b7f4552433732313a206d696e7420746f20746865207a65726f2061646472657373600082015250565b60006137d3602083612479565b91506137de8261379d565b602082019050919050565b60006020820190508181036000830152613802816137c6565b9050919050565b7f4552433732313a20746f6b656e20616c7265616479206d696e74656400000000600082015250565b600061383f601c83612479565b915061384a82613809565b602082019050919050565b6000602082019050818103600083015261386e81613832565b9050919050565b7f4e487b7100000000000000000000000000000000000000000000000000000000600052601260045260246000fdfea26469706673582212205507ca49c90c12030245df43d7c642c8de5ab1794386dd0267f547fc79037f7e64736f6c63430008110033",
  "linkReferences": {},
  "deployedLinkReferences": {}
}