{
  "_format": "hh-sol-artifact-1",
  "contractName": "TicketMarket",
  "sourceName": "contracts/TicketMarket.sol",
  "abi": [
    {
      "inputs": [],
      "stateMutability": "nonpayable",
      "type": "constructor"
    },
    {
      "anonymous": false,
      "inputs": [
        {
          "indexed": true,
          "internalType": "uint256",
          "name": "tokenID",
          "type": "uint256"
        },
        {
          "indexed": false,
          "internalType": "address",
          "name": "ticketOwner",
          "type": "address"
        },
        {
          "indexed": false,
          "internalType": "uint256",
          "name": "price",
          "type": "uint256"
        }
      ],
      "name": "MarketItemAfterSale",
      "type": "event"
    },
    {
      "anonymous": false,
      "inputs": [
        {
          "indexed": false,
          "internalType": "uint256",
          "name": "eventID",
          "type": "uint256"
        },
        {
          "indexed": false,
          "internalType": "address",
          "name": "seller",
          "type": "address"
        },
        {
          "indexed": false,
          "internalType": "uint256",
          "name": "price",
          "type": "uint256"
        },
        {
          "indexed": false,
          "internalType": "uint256",
          "name": "supply",
          "type": "uint256"
        },
        {
          "indexed": false,
          "internalType": "string",
          "name": "ticketType",
          "type": "string"
        }
      ],
      "name": "MarketItemCreation",
      "type": "event"
    },
    {
      "anonymous": false,
      "inputs": [
        {
          "indexed": true,
          "internalType": "uint256",
          "name": "tokenID",
          "type": "uint256"
        },
        {
          "indexed": false,
          "internalType": "address",
          "name": "ticketOwner",
          "type": "address"
        },
        {
          "indexed": false,
          "internalType": "address",
          "name": "seller",
          "type": "address"
        },
        {
          "indexed": false,
          "internalType": "uint256",
          "name": "price",
          "type": "uint256"
        }
      ],
      "name": "MarketItemResell",
      "type": "event"
    },
    {
      "anonymous": false,
      "inputs": [
        {
          "indexed": true,
          "internalType": "uint256",
          "name": "tokenID",
          "type": "uint256"
        },
        {
          "indexed": false,
          "internalType": "address",
          "name": "seller",
          "type": "address"
        },
        {
          "indexed": false,
          "internalType": "uint256",
          "name": "price",
          "type": "uint256"
        }
      ],
      "name": "MarketItemStopSale",
      "type": "event"
    },
    {
      "inputs": [],
      "name": "ListEventOwnerItems",
      "outputs": [
        {
          "components": [
            {
              "internalType": "address",
              "name": "nftContract",
              "type": "address"
            },
            {
              "internalType": "uint256",
              "name": "tokenID",
              "type": "uint256"
            },
            {
              "internalType": "uint256",
              "name": "eventID",
              "type": "uint256"
            },
            {
              "internalType": "address payable",
              "name": "ticketOwner",
              "type": "address"
            },
            {
              "internalType": "address payable",
              "name": "eventOwner",
              "type": "address"
            },
            {
              "internalType": "address payable",
              "name": "seller",
              "type": "address"
            },
            {
              "internalType": "uint256",
              "name": "price",
              "type": "uint256"
            },
            {
              "internalType": "string",
              "name": "ticketType",
              "type": "string"
            },
            {
              "internalType": "bool",
              "name": "sold",
              "type": "bool"
            },
            {
              "internalType": "bool",
              "name": "soldBefore",
              "type": "bool"
            }
          ],
          "internalType": "struct TicketMarket.MarketItem[]",
          "name": "",
          "type": "tuple[]"
        }
      ],
      "stateMutability": "view",
      "type": "function"
    },
    {
      "inputs": [],
      "name": "ListEventOwnerItemsOnSale",
      "outputs": [
        {
          "components": [
            {
              "internalType": "address",
              "name": "nftContract",
              "type": "address"
            },
            {
              "internalType": "uint256",
              "name": "tokenID",
              "type": "uint256"
            },
            {
              "internalType": "uint256",
              "name": "eventID",
              "type": "uint256"
            },
            {
              "internalType": "address payable",
              "name": "ticketOwner",
              "type": "address"
            },
            {
              "internalType": "address payable",
              "name": "eventOwner",
              "type": "address"
            },
            {
              "internalType": "address payable",
              "name": "seller",
              "type": "address"
            },
            {
              "internalType": "uint256",
              "name": "price",
              "type": "uint256"
            },
            {
              "internalType": "string",
              "name": "ticketType",
              "type": "string"
            },
            {
              "internalType": "bool",
              "name": "sold",
              "type": "bool"
            },
            {
              "internalType": "bool",
              "name": "soldBefore",
              "type": "bool"
            }
          ],
          "internalType": "struct TicketMarket.MarketItem[]",
          "name": "",
          "type": "tuple[]"
        }
      ],
      "stateMutability": "view",
      "type": "function"
    },
    {
      "inputs": [
        {
          "internalType": "uint256",
          "name": "eventId",
          "type": "uint256"
        }
      ],
      "name": "ListEventTicketAll",
      "outputs": [
        {
          "components": [
            {
              "internalType": "address",
              "name": "nftContract",
              "type": "address"
            },
            {
              "internalType": "uint256",
              "name": "tokenID",
              "type": "uint256"
            },
            {
              "internalType": "uint256",
              "name": "eventID",
              "type": "uint256"
            },
            {
              "internalType": "address payable",
              "name": "ticketOwner",
              "type": "address"
            },
            {
              "internalType": "address payable",
              "name": "eventOwner",
              "type": "address"
            },
            {
              "internalType": "address payable",
              "name": "seller",
              "type": "address"
            },
            {
              "internalType": "uint256",
              "name": "price",
              "type": "uint256"
            },
            {
              "internalType": "string",
              "name": "ticketType",
              "type": "string"
            },
            {
              "internalType": "bool",
              "name": "sold",
              "type": "bool"
            },
            {
              "internalType": "bool",
              "name": "soldBefore",
              "type": "bool"
            }
          ],
          "internalType": "struct TicketMarket.MarketItem[]",
          "name": "",
          "type": "tuple[]"
        }
      ],
      "stateMutability": "view",
      "type": "function"
    },
    {
      "inputs": [
        {
          "internalType": "address",
          "name": "user",
          "type": "address"
        }
      ],
      "name": "ListEventTicketByPublicAddress",
      "outputs": [
        {
          "components": [
            {
              "internalType": "address",
              "name": "nftContract",
              "type": "address"
            },
            {
              "internalType": "uint256",
              "name": "tokenID",
              "type": "uint256"
            },
            {
              "internalType": "uint256",
              "name": "eventID",
              "type": "uint256"
            },
            {
              "internalType": "address payable",
              "name": "ticketOwner",
              "type": "address"
            },
            {
              "internalType": "address payable",
              "name": "eventOwner",
              "type": "address"
            },
            {
              "internalType": "address payable",
              "name": "seller",
              "type": "address"
            },
            {
              "internalType": "uint256",
              "name": "price",
              "type": "uint256"
            },
            {
              "internalType": "string",
              "name": "ticketType",
              "type": "string"
            },
            {
              "internalType": "bool",
              "name": "sold",
              "type": "bool"
            },
            {
              "internalType": "bool",
              "name": "soldBefore",
              "type": "bool"
            }
          ],
          "internalType": "struct TicketMarket.MarketItem[]",
          "name": "",
          "type": "tuple[]"
        }
      ],
      "stateMutability": "view",
      "type": "function"
    },
    {
      "inputs": [
        {
          "internalType": "uint256",
          "name": "eventId",
          "type": "uint256"
        }
      ],
      "name": "ListEventTicketOnSale",
      "outputs": [
        {
          "components": [
            {
              "internalType": "address",
              "name": "nftContract",
              "type": "address"
            },
            {
              "internalType": "uint256",
              "name": "tokenID",
              "type": "uint256"
            },
            {
              "internalType": "uint256",
              "name": "eventID",
              "type": "uint256"
            },
            {
              "internalType": "address payable",
              "name": "ticketOwner",
              "type": "address"
            },
            {
              "internalType": "address payable",
              "name": "eventOwner",
              "type": "address"
            },
            {
              "internalType": "address payable",
              "name": "seller",
              "type": "address"
            },
            {
              "internalType": "uint256",
              "name": "price",
              "type": "uint256"
            },
            {
              "internalType": "string",
              "name": "ticketType",
              "type": "string"
            },
            {
              "internalType": "bool",
              "name": "sold",
              "type": "bool"
            },
            {
              "internalType": "bool",
              "name": "soldBefore",
              "type": "bool"
            }
          ],
          "internalType": "struct TicketMarket.MarketItem[]",
          "name": "",
          "type": "tuple[]"
        }
      ],
      "stateMutability": "view",
      "type": "function"
    },
    {
      "inputs": [
        {
          "internalType": "uint256",
          "name": "eventId",
          "type": "uint256"
        }
      ],
      "name": "ListEventTicketSold",
      "outputs": [
        {
          "components": [
            {
              "internalType": "address",
              "name": "nftContract",
              "type": "address"
            },
            {
              "internalType": "uint256",
              "name": "tokenID",
              "type": "uint256"
            },
            {
              "internalType": "uint256",
              "name": "eventID",
              "type": "uint256"
            },
            {
              "internalType": "address payable",
              "name": "ticketOwner",
              "type": "address"
            },
            {
              "internalType": "address payable",
              "name": "eventOwner",
              "type": "address"
            },
            {
              "internalType": "address payable",
              "name": "seller",
              "type": "address"
            },
            {
              "internalType": "uint256",
              "name": "price",
              "type": "uint256"
            },
            {
              "internalType": "string",
              "name": "ticketType",
              "type": "string"
            },
            {
              "internalType": "bool",
              "name": "sold",
              "type": "bool"
            },
            {
              "internalType": "bool",
              "name": "soldBefore",
              "type": "bool"
            }
          ],
          "internalType": "struct TicketMarket.MarketItem[]",
          "name": "",
          "type": "tuple[]"
        }
      ],
      "stateMutability": "view",
      "type": "function"
    },
    {
      "inputs": [],
      "name": "ListItemsOnSale",
      "outputs": [
        {
          "components": [
            {
              "internalType": "address",
              "name": "nftContract",
              "type": "address"
            },
            {
              "internalType": "uint256",
              "name": "tokenID",
              "type": "uint256"
            },
            {
              "internalType": "uint256",
              "name": "eventID",
              "type": "uint256"
            },
            {
              "internalType": "address payable",
              "name": "ticketOwner",
              "type": "address"
            },
            {
              "internalType": "address payable",
              "name": "eventOwner",
              "type": "address"
            },
            {
              "internalType": "address payable",
              "name": "seller",
              "type": "address"
            },
            {
              "internalType": "uint256",
              "name": "price",
              "type": "uint256"
            },
            {
              "internalType": "string",
              "name": "ticketType",
              "type": "string"
            },
            {
              "internalType": "bool",
              "name": "sold",
              "type": "bool"
            },
            {
              "internalType": "bool",
              "name": "soldBefore",
              "type": "bool"
            }
          ],
          "internalType": "struct TicketMarket.MarketItem[]",
          "name": "",
          "type": "tuple[]"
        }
      ],
      "stateMutability": "view",
      "type": "function"
    },
    {
      "inputs": [],
      "name": "ListUserOnSaleItems",
      "outputs": [
        {
          "components": [
            {
              "internalType": "address",
              "name": "nftContract",
              "type": "address"
            },
            {
              "internalType": "uint256",
              "name": "tokenID",
              "type": "uint256"
            },
            {
              "internalType": "uint256",
              "name": "eventID",
              "type": "uint256"
            },
            {
              "internalType": "address payable",
              "name": "ticketOwner",
              "type": "address"
            },
            {
              "internalType": "address payable",
              "name": "eventOwner",
              "type": "address"
            },
            {
              "internalType": "address payable",
              "name": "seller",
              "type": "address"
            },
            {
              "internalType": "uint256",
              "name": "price",
              "type": "uint256"
            },
            {
              "internalType": "string",
              "name": "ticketType",
              "type": "string"
            },
            {
              "internalType": "bool",
              "name": "sold",
              "type": "bool"
            },
            {
              "internalType": "bool",
              "name": "soldBefore",
              "type": "bool"
            }
          ],
          "internalType": "struct TicketMarket.MarketItem[]",
          "name": "",
          "type": "tuple[]"
        }
      ],
      "stateMutability": "view",
      "type": "function"
    },
    {
      "inputs": [],
      "name": "ListUserOwnItems",
      "outputs": [
        {
          "components": [
            {
              "internalType": "address",
              "name": "nftContract",
              "type": "address"
            },
            {
              "internalType": "uint256",
              "name": "tokenID",
              "type": "uint256"
            },
            {
              "internalType": "uint256",
              "name": "eventID",
              "type": "uint256"
            },
            {
              "internalType": "address payable",
              "name": "ticketOwner",
              "type": "address"
            },
            {
              "internalType": "address payable",
              "name": "eventOwner",
              "type": "address"
            },
            {
              "internalType": "address payable",
              "name": "seller",
              "type": "address"
            },
            {
              "internalType": "uint256",
              "name": "price",
              "type": "uint256"
            },
            {
              "internalType": "string",
              "name": "ticketType",
              "type": "string"
            },
            {
              "internalType": "bool",
              "name": "sold",
              "type": "bool"
            },
            {
              "internalType": "bool",
              "name": "soldBefore",
              "type": "bool"
            }
          ],
          "internalType": "struct TicketMarket.MarketItem[]",
          "name": "",
          "type": "tuple[]"
        }
      ],
      "stateMutability": "view",
      "type": "function"
    },
    {
      "inputs": [
        {
          "internalType": "uint256",
          "name": "tokenId",
          "type": "uint256"
        }
      ],
      "name": "NFTItem",
      "outputs": [
        {
          "components": [
            {
              "internalType": "address",
              "name": "nftContract",
              "type": "address"
            },
            {
              "internalType": "uint256",
              "name": "tokenID",
              "type": "uint256"
            },
            {
              "internalType": "uint256",
              "name": "eventID",
              "type": "uint256"
            },
            {
              "internalType": "address payable",
              "name": "ticketOwner",
              "type": "address"
            },
            {
              "internalType": "address payable",
              "name": "eventOwner",
              "type": "address"
            },
            {
              "internalType": "address payable",
              "name": "seller",
              "type": "address"
            },
            {
              "internalType": "uint256",
              "name": "price",
              "type": "uint256"
            },
            {
              "internalType": "string",
              "name": "ticketType",
              "type": "string"
            },
            {
              "internalType": "bool",
              "name": "sold",
              "type": "bool"
            },
            {
              "internalType": "bool",
              "name": "soldBefore",
              "type": "bool"
            }
          ],
          "internalType": "struct TicketMarket.MarketItem",
          "name": "",
          "type": "tuple"
        }
      ],
      "stateMutability": "view",
      "type": "function"
    },
    {
      "inputs": [
        {
          "internalType": "uint256",
          "name": "price",
          "type": "uint256"
        },
        {
          "internalType": "address",
          "name": "NftCont",
          "type": "address"
        },
        {
          "internalType": "uint256",
          "name": "tokenId",
          "type": "uint256"
        }
      ],
      "name": "ResellTicket",
      "outputs": [],
      "stateMutability": "payable",
      "type": "function"
    },
    {
      "inputs": [
        {
          "internalType": "uint256",
          "name": "price",
          "type": "uint256"
        },
        {
          "internalType": "address",
          "name": "NftCont",
          "type": "address"
        },
        {
          "internalType": "uint256",
          "name": "tokenId",
          "type": "uint256"
        }
      ],
      "name": "StopNFTSale",
      "outputs": [],
      "stateMutability": "payable",
      "type": "function"
    },
    {
      "inputs": [
        {
          "internalType": "uint256",
          "name": "price",
          "type": "uint256"
        },
        {
          "internalType": "address",
          "name": "NftCont",
          "type": "address"
        },
        {
          "internalType": "string",
          "name": "ticketType",
          "type": "string"
        },
        {
          "internalType": "uint256",
          "name": "eventID",
          "type": "uint256"
        },
        {
          "internalType": "uint256",
          "name": "supply",
          "type": "uint256"
        }
      ],
      "name": "createMarketItem",
      "outputs": [],
      "stateMutability": "payable",
      "type": "function"
    },
    {
      "inputs": [
        {
          "internalType": "uint256",
          "name": "tokenid",
          "type": "uint256"
        }
      ],
      "name": "isInMarket",
      "outputs": [
        {
          "internalType": "bool",
          "name": "",
          "type": "bool"
        }
      ],
      "stateMutability": "view",
      "type": "function"
    },
    {
      "inputs": [
        {
          "internalType": "uint256",
          "name": "tokenId",
          "type": "uint256"
        }
      ],
      "name": "isSoldBefore",
      "outputs": [
        {
          "internalType": "bool",
          "name": "",
          "type": "bool"
        }
      ],
      "stateMutability": "view",
      "type": "function"
    },
    {
      "inputs": [
        {
          "internalType": "address",
          "name": "NftCont",
          "type": "address"
        },
        {
          "internalType": "uint256",
          "name": "tokenId",
          "type": "uint256"
        }
      ],
      "name": "ticketSale",
      "outputs": [],
      "stateMutability": "payable",
      "type": "function"
    }
  ],
  "bytecode": "0x608060405234801561001057600080fd5b50600160008190555033600360006101000a81548173ffffffffffffffffffffffffffffffffffffffff021916908373ffffffffffffffffffffffffffffffffffffffff160217905550614d56806100696000396000f3fe6080604052600436106100f35760003560e01c80638471075d1161008a578063b666aa3111610059578063b666aa311461034a578063c2301b6914610375578063df75d46f146103b2578063eb312d37146103ce576100f3565b80638471075d1461028957806385c15fed146102a5578063986d88e0146102e2578063b19d4e081461030d576100f3565b80634b211569116100c65780634b211569146101b95780634cee5a33146101e45780636aaf93d21461020f5780638113ee711461024c576100f3565b806308aaac95146100f85780630a29d94914610135578063112b358414610151578063396f7d151461017c575b600080fd5b34801561010457600080fd5b5061011f600480360381019061011a9190613cac565b6103ea565b60405161012c9190613cf4565b60405180910390f35b61014f600480360381019061014a9190613d6d565b610447565b005b34801561015d57600080fd5b50610166610798565b6040516101739190614027565b60405180910390f35b34801561018857600080fd5b506101a3600480360381019061019e9190613cac565b610be8565b6040516101b09190613cf4565b60405180910390f35b3480156101c557600080fd5b506101ce610c18565b6040516101db9190614027565b60405180910390f35b3480156101f057600080fd5b506101f9611068565b6040516102069190614027565b60405180910390f35b34801561021b57600080fd5b5061023660048036038101906102319190613cac565b6114b8565b6040516102439190614027565b60405180910390f35b34801561025857600080fd5b50610273600480360381019061026e9190613cac565b6118f2565b6040516102809190614027565b60405180910390f35b6102a3600480360381019061029e9190614049565b611d2c565b005b3480156102b157600080fd5b506102cc60048036038101906102c79190613cac565b612041565b6040516102d99190614027565b60405180910390f35b3480156102ee57600080fd5b506102f76123fb565b6040516103049190614027565b60405180910390f35b34801561031957600080fd5b50610334600480360381019061032f9190613cac565b6127c7565b6040516103419190614176565b60405180910390f35b34801561035657600080fd5b5061035f612a4c565b60405161036c9190614027565b60405180910390f35b34801561038157600080fd5b5061039c60048036038101906103979190614198565b612e9c565b6040516103a99190614027565b60405180910390f35b6103cc60048036038101906103c791906142fa565b6133e0565b005b6103e860048036038101906103e39190614049565b613859565b005b60008060056000848152602001908152602001600020549050600115156004600083815260200190815260200160002060080160019054906101000a900460ff1615150361043c576001915050610442565b60009150505b919050565b61044f613ada565b60006005600083815260200190815260200160002054905060006004600083815260200190815260200160002060060154905060006004600084815260200190815260200160002060010154905060006004600085815260200190815260200160002060050160009054906101000a900473ffffffffffffffffffffffffffffffffffffffff1690508234101561051b576040517f08c379a0000000000000000000000000000000000000000000000000000000008152600401610512906143ee565b60405180910390fd5b600015156004600086815260200190815260200160002060080160009054906101000a900460ff16151514610585576040517f08c379a000000000000000000000000000000000000000000000000000000000815260040161057c9061445a565b60405180910390fd5b336004600086815260200190815260200160002060030160006101000a81548173ffffffffffffffffffffffffffffffffffffffff021916908373ffffffffffffffffffffffffffffffffffffffff16021790555060016004600086815260200190815260200160002060080160006101000a81548160ff02191690831515021790555060006004600086815260200190815260200160002060050160006101000a81548173ffffffffffffffffffffffffffffffffffffffff021916908373ffffffffffffffffffffffffffffffffffffffff16021790555060016004600086815260200190815260200160002060080160016101000a81548160ff0219169083151502179055506106986002613b29565b8573ffffffffffffffffffffffffffffffffffffffff166323b872dd3033856040518463ffffffff1660e01b81526004016106d593929190614498565b600060405180830381600087803b1580156106ef57600080fd5b505af1158015610703573d6000803e3d6000fd5b505050508073ffffffffffffffffffffffffffffffffffffffff166108fc349081150290604051600060405180830381858888f1935050505015801561074d573d6000803e3d6000fd5b50847f5352ac602b276106b740de31546b729325b98e18c87e86cde3dd97f9726a734b33856040516107809291906144cf565b60405180910390a250505050610794613b3f565b5050565b606060006107a66001613b49565b905060008060005b8381101561084e573373ffffffffffffffffffffffffffffffffffffffff16600460006001846107de9190614527565b815260200190815260200160002060030160009054906101000a900473ffffffffffffffffffffffffffffffffffffffff1673ffffffffffffffffffffffffffffffffffffffff160361083b576001836108389190614527565b92505b80806108469061455b565b9150506107ae565b5060008267ffffffffffffffff81111561086b5761086a6141cf565b5b6040519080825280602002602001820160405280156108a457816020015b610891613bb3565b8152602001906001900390816108895790505b50905060005b84811015610bdd573373ffffffffffffffffffffffffffffffffffffffff16600460006001846108da9190614527565b815260200190815260200160002060030160009054906101000a900473ffffffffffffffffffffffffffffffffffffffff1673ffffffffffffffffffffffffffffffffffffffff1603610bca5760006001826109369190614527565b9050600060046000838152602001908152602001600020905080604051806101400160405290816000820160009054906101000a900473ffffffffffffffffffffffffffffffffffffffff1673ffffffffffffffffffffffffffffffffffffffff1673ffffffffffffffffffffffffffffffffffffffff16815260200160018201548152602001600282015481526020016003820160009054906101000a900473ffffffffffffffffffffffffffffffffffffffff1673ffffffffffffffffffffffffffffffffffffffff1673ffffffffffffffffffffffffffffffffffffffff1681526020016004820160009054906101000a900473ffffffffffffffffffffffffffffffffffffffff1673ffffffffffffffffffffffffffffffffffffffff1673ffffffffffffffffffffffffffffffffffffffff1681526020016005820160009054906101000a900473ffffffffffffffffffffffffffffffffffffffff1673ffffffffffffffffffffffffffffffffffffffff1673ffffffffffffffffffffffffffffffffffffffff16815260200160068201548152602001600782018054610ae2906145d2565b80601f0160208091040260200160405190810160405280929190818152602001828054610b0e906145d2565b8015610b5b5780601f10610b3057610100808354040283529160200191610b5b565b820191906000526020600020905b815481529060010190602001808311610b3e57829003601f168201915b505050505081526020016008820160009054906101000a900460ff161515151581526020016008820160019054906101000a900460ff161515151581525050848681518110610bad57610bac614603565b5b6020026020010181905250600185610bc59190614527565b945050505b8080610bd59061455b565b9150506108aa565b508094505050505090565b60008060056000848152602001908152602001600020541115610c0e5760019050610c13565b600090505b919050565b60606000610c266001613b49565b905060008060005b83811015610cce573373ffffffffffffffffffffffffffffffffffffffff1660046000600184610c5e9190614527565b815260200190815260200160002060050160009054906101000a900473ffffffffffffffffffffffffffffffffffffffff1673ffffffffffffffffffffffffffffffffffffffff1603610cbb57600183610cb89190614527565b92505b8080610cc69061455b565b915050610c2e565b5060008267ffffffffffffffff811115610ceb57610cea6141cf565b5b604051908082528060200260200182016040528015610d2457816020015b610d11613bb3565b815260200190600190039081610d095790505b50905060005b8481101561105d573373ffffffffffffffffffffffffffffffffffffffff1660046000600184610d5a9190614527565b815260200190815260200160002060050160009054906101000a900473ffffffffffffffffffffffffffffffffffffffff1673ffffffffffffffffffffffffffffffffffffffff160361104a576000600182610db69190614527565b9050600060046000838152602001908152602001600020905080604051806101400160405290816000820160009054906101000a900473ffffffffffffffffffffffffffffffffffffffff1673ffffffffffffffffffffffffffffffffffffffff1673ffffffffffffffffffffffffffffffffffffffff16815260200160018201548152602001600282015481526020016003820160009054906101000a900473ffffffffffffffffffffffffffffffffffffffff1673ffffffffffffffffffffffffffffffffffffffff1673ffffffffffffffffffffffffffffffffffffffff1681526020016004820160009054906101000a900473ffffffffffffffffffffffffffffffffffffffff1673ffffffffffffffffffffffffffffffffffffffff1673ffffffffffffffffffffffffffffffffffffffff1681526020016005820160009054906101000a900473ffffffffffffffffffffffffffffffffffffffff1673ffffffffffffffffffffffffffffffffffffffff1673ffffffffffffffffffffffffffffffffffffffff16815260200160068201548152602001600782018054610f62906145d2565b80601f0160208091040260200160405190810160405280929190818152602001828054610f8e906145d2565b8015610fdb5780601f10610fb057610100808354040283529160200191610fdb565b820191906000526020600020905b815481529060010190602001808311610fbe57829003601f168201915b505050505081526020016008820160009054906101000a900460ff161515151581526020016008820160019054906101000a900460ff16151515158152505084868151811061102d5761102c614603565b5b60200260200101819052506001856110459190614527565b945050505b80806110559061455b565b915050610d2a565b508094505050505090565b606060006110766001613b49565b905060008060005b8381101561111e573373ffffffffffffffffffffffffffffffffffffffff16600460006001846110ae9190614527565b815260200190815260200160002060050160009054906101000a900473ffffffffffffffffffffffffffffffffffffffff1673ffffffffffffffffffffffffffffffffffffffff160361110b576001836111089190614527565b92505b80806111169061455b565b91505061107e565b5060008267ffffffffffffffff81111561113b5761113a6141cf565b5b60405190808252806020026020018201604052801561117457816020015b611161613bb3565b8152602001906001900390816111595790505b50905060005b848110156114ad573373ffffffffffffffffffffffffffffffffffffffff16600460006001846111aa9190614527565b815260200190815260200160002060050160009054906101000a900473ffffffffffffffffffffffffffffffffffffffff1673ffffffffffffffffffffffffffffffffffffffff160361149a5760006001826112069190614527565b9050600060046000838152602001908152602001600020905080604051806101400160405290816000820160009054906101000a900473ffffffffffffffffffffffffffffffffffffffff1673ffffffffffffffffffffffffffffffffffffffff1673ffffffffffffffffffffffffffffffffffffffff16815260200160018201548152602001600282015481526020016003820160009054906101000a900473ffffffffffffffffffffffffffffffffffffffff1673ffffffffffffffffffffffffffffffffffffffff1673ffffffffffffffffffffffffffffffffffffffff1681526020016004820160009054906101000a900473ffffffffffffffffffffffffffffffffffffffff1673ffffffffffffffffffffffffffffffffffffffff1673ffffffffffffffffffffffffffffffffffffffff1681526020016005820160009054906101000a900473ffffffffffffffffffffffffffffffffffffffff1673ffffffffffffffffffffffffffffffffffffffff1673ffffffffffffffffffffffffffffffffffffffff168152602001600682015481526020016007820180546113b2906145d2565b80601f01602080910402602001604051908101604052809291908181526020018280546113de906145d2565b801561142b5780601f106114005761010080835404028352916020019161142b565b820191906000526020600020905b81548152906001019060200180831161140e57829003601f168201915b505050505081526020016008820160009054906101000a900460ff161515151581526020016008820160019054906101000a900460ff16151515158152505084868151811061147d5761147c614603565b5b60200260200101819052506001856114959190614527565b945050505b80806114a59061455b565b91505061117a565b508094505050505090565b606060006114c66001613b49565b905060008060005b838110156115625785600460006001846114e89190614527565b81526020019081526020016000206002015414801561153a575060001515600460006001846115179190614527565b815260200190815260200160002060080160009054906101000a900460ff161515145b1561154f5760018361154c9190614527565b92505b808061155a9061455b565b9150506114ce565b5060008267ffffffffffffffff81111561157f5761157e6141cf565b5b6040519080825280602002602001820160405280156115b857816020015b6115a5613bb3565b81526020019060019003908161159d5790505b50905060005b848110156118e55786600460006001846115d89190614527565b81526020019081526020016000206002015414801561162a575060001515600460006001846116079190614527565b815260200190815260200160002060080160009054906101000a900460ff161515145b156118d257600060018261163e9190614527565b9050600060046000838152602001908152602001600020905080604051806101400160405290816000820160009054906101000a900473ffffffffffffffffffffffffffffffffffffffff1673ffffffffffffffffffffffffffffffffffffffff1673ffffffffffffffffffffffffffffffffffffffff16815260200160018201548152602001600282015481526020016003820160009054906101000a900473ffffffffffffffffffffffffffffffffffffffff1673ffffffffffffffffffffffffffffffffffffffff1673ffffffffffffffffffffffffffffffffffffffff1681526020016004820160009054906101000a900473ffffffffffffffffffffffffffffffffffffffff1673ffffffffffffffffffffffffffffffffffffffff1673ffffffffffffffffffffffffffffffffffffffff1681526020016005820160009054906101000a900473ffffffffffffffffffffffffffffffffffffffff1673ffffffffffffffffffffffffffffffffffffffff1673ffffffffffffffffffffffffffffffffffffffff168152602001600682015481526020016007820180546117ea906145d2565b80601f0160208091040260200160405190810160405280929190818152602001828054611816906145d2565b80156118635780601f1061183857610100808354040283529160200191611863565b820191906000526020600020905b81548152906001019060200180831161184657829003601f168201915b505050505081526020016008820160009054906101000a900460ff161515151581526020016008820160019054906101000a900460ff1615151515815250508486815181106118b5576118b4614603565b5b60200260200101819052506001856118cd9190614527565b945050505b80806118dd9061455b565b9150506115be565b5080945050505050919050565b606060006119006001613b49565b905060008060005b8381101561199c5785600460006001846119229190614527565b815260200190815260200160002060020154148015611974575060011515600460006001846119519190614527565b815260200190815260200160002060080160009054906101000a900460ff161515145b15611989576001836119869190614527565b92505b80806119949061455b565b915050611908565b5060008267ffffffffffffffff8111156119b9576119b86141cf565b5b6040519080825280602002602001820160405280156119f257816020015b6119df613bb3565b8152602001906001900390816119d75790505b50905060005b84811015611d1f578660046000600184611a129190614527565b815260200190815260200160002060020154148015611a6457506001151560046000600184611a419190614527565b815260200190815260200160002060080160009054906101000a900460ff161515145b15611d0c576000600182611a789190614527565b9050600060046000838152602001908152602001600020905080604051806101400160405290816000820160009054906101000a900473ffffffffffffffffffffffffffffffffffffffff1673ffffffffffffffffffffffffffffffffffffffff1673ffffffffffffffffffffffffffffffffffffffff16815260200160018201548152602001600282015481526020016003820160009054906101000a900473ffffffffffffffffffffffffffffffffffffffff1673ffffffffffffffffffffffffffffffffffffffff1673ffffffffffffffffffffffffffffffffffffffff1681526020016004820160009054906101000a900473ffffffffffffffffffffffffffffffffffffffff1673ffffffffffffffffffffffffffffffffffffffff1673ffffffffffffffffffffffffffffffffffffffff1681526020016005820160009054906101000a900473ffffffffffffffffffffffffffffffffffffffff1673ffffffffffffffffffffffffffffffffffffffff1673ffffffffffffffffffffffffffffffffffffffff16815260200160068201548152602001600782018054611c24906145d2565b80601f0160208091040260200160405190810160405280929190818152602001828054611c50906145d2565b8015611c9d5780601f10611c7257610100808354040283529160200191611c9d565b820191906000526020600020905b815481529060010190602001808311611c8057829003601f168201915b505050505081526020016008820160009054906101000a900460ff161515151581526020016008820160019054906101000a900460ff161515151581525050848681518110611cef57611cee614603565b5b6020026020010181905250600185611d079190614527565b945050505b8080611d179061455b565b9150506119f8565b5080945050505050919050565b611d34613ada565b6000600560008381526020019081526020016000205490506004600082815260200190815260200160002060050160009054906101000a900473ffffffffffffffffffffffffffffffffffffffff1673ffffffffffffffffffffffffffffffffffffffff163373ffffffffffffffffffffffffffffffffffffffff161480611e1d57506004600082815260200190815260200160002060040160009054906101000a900473ffffffffffffffffffffffffffffffffffffffff1673ffffffffffffffffffffffffffffffffffffffff163373ffffffffffffffffffffffffffffffffffffffff16145b611e5c576040517f08c379a0000000000000000000000000000000000000000000000000000000008152600401611e53906146a4565b60405180910390fd5b60016004600083815260200190815260200160002060080160006101000a81548160ff02191690831515021790555083600460008381526020019081526020016000206006018190555060006004600083815260200190815260200160002060050160006101000a81548173ffffffffffffffffffffffffffffffffffffffff021916908373ffffffffffffffffffffffffffffffffffffffff160217905550336004600083815260200190815260200160002060030160006101000a81548173ffffffffffffffffffffffffffffffffffffffff021916908373ffffffffffffffffffffffffffffffffffffffff16021790555060016004600083815260200190815260200160002060080160016101000a81548160ff021916908315150217905550611f8a6002613b29565b8273ffffffffffffffffffffffffffffffffffffffff166323b872dd3033856040518463ffffffff1660e01b8152600401611fc793929190614498565b600060405180830381600087803b158015611fe157600080fd5b505af1158015611ff5573d6000803e3d6000fd5b50505050817fdbe18d9dd8643fa7e3222cffee0423f082934c039103e454dd8791854b442e91338660405161202b9291906144cf565b60405180910390a25061203c613b3f565b505050565b6060600061204f6001613b49565b905060008060005b838110156120ab5785600460006001846120719190614527565b81526020019081526020016000206002015403612098576001836120959190614527565b92505b80806120a39061455b565b915050612057565b5060008267ffffffffffffffff8111156120c8576120c76141cf565b5b60405190808252806020026020018201604052801561210157816020015b6120ee613bb3565b8152602001906001900390816120e65790505b50905060005b848110156123ee5786600460006001846121219190614527565b815260200190815260200160002060020154036123db5760006001826121479190614527565b9050600060046000838152602001908152602001600020905080604051806101400160405290816000820160009054906101000a900473ffffffffffffffffffffffffffffffffffffffff1673ffffffffffffffffffffffffffffffffffffffff1673ffffffffffffffffffffffffffffffffffffffff16815260200160018201548152602001600282015481526020016003820160009054906101000a900473ffffffffffffffffffffffffffffffffffffffff1673ffffffffffffffffffffffffffffffffffffffff1673ffffffffffffffffffffffffffffffffffffffff1681526020016004820160009054906101000a900473ffffffffffffffffffffffffffffffffffffffff1673ffffffffffffffffffffffffffffffffffffffff1673ffffffffffffffffffffffffffffffffffffffff1681526020016005820160009054906101000a900473ffffffffffffffffffffffffffffffffffffffff1673ffffffffffffffffffffffffffffffffffffffff1673ffffffffffffffffffffffffffffffffffffffff168152602001600682015481526020016007820180546122f3906145d2565b80601f016020809104026020016040519081016040528092919081815260200182805461231f906145d2565b801561236c5780601f106123415761010080835404028352916020019161236c565b820191906000526020600020905b81548152906001019060200180831161234f57829003601f168201915b505050505081526020016008820160009054906101000a900460ff161515151581526020016008820160019054906101000a900460ff1615151515815250508486815181106123be576123bd614603565b5b60200260200101819052506001856123d69190614527565b945050505b80806123e69061455b565b915050612107565b5080945050505050919050565b606060006124096001613b49565b905060006124176002613b49565b6124216001613b49565b61242b91906146c4565b90506000808267ffffffffffffffff81111561244a576124496141cf565b5b60405190808252806020026020018201604052801561248357816020015b612470613bb3565b8152602001906001900390816124685790505b50905060005b848110156127bc573073ffffffffffffffffffffffffffffffffffffffff16600460006001846124b99190614527565b815260200190815260200160002060030160009054906101000a900473ffffffffffffffffffffffffffffffffffffffff1673ffffffffffffffffffffffffffffffffffffffff16036127a95760006001826125159190614527565b9050600060046000838152602001908152602001600020905080604051806101400160405290816000820160009054906101000a900473ffffffffffffffffffffffffffffffffffffffff1673ffffffffffffffffffffffffffffffffffffffff1673ffffffffffffffffffffffffffffffffffffffff16815260200160018201548152602001600282015481526020016003820160009054906101000a900473ffffffffffffffffffffffffffffffffffffffff1673ffffffffffffffffffffffffffffffffffffffff1673ffffffffffffffffffffffffffffffffffffffff1681526020016004820160009054906101000a900473ffffffffffffffffffffffffffffffffffffffff1673ffffffffffffffffffffffffffffffffffffffff1673ffffffffffffffffffffffffffffffffffffffff1681526020016005820160009054906101000a900473ffffffffffffffffffffffffffffffffffffffff1673ffffffffffffffffffffffffffffffffffffffff1673ffffffffffffffffffffffffffffffffffffffff168152602001600682015481526020016007820180546126c1906145d2565b80601f01602080910402602001604051908101604052809291908181526020018280546126ed906145d2565b801561273a5780601f1061270f5761010080835404028352916020019161273a565b820191906000526020600020905b81548152906001019060200180831161271d57829003601f168201915b505050505081526020016008820160009054906101000a900460ff161515151581526020016008820160019054906101000a900460ff16151515158152505084868151811061278c5761278b614603565b5b60200260200101819052506001856127a49190614527565b945050505b80806127b49061455b565b915050612489565b508094505050505090565b6127cf613bb3565b60006005600084815260200190815260200160002054905060046000828152602001908152602001600020604051806101400160405290816000820160009054906101000a900473ffffffffffffffffffffffffffffffffffffffff1673ffffffffffffffffffffffffffffffffffffffff1673ffffffffffffffffffffffffffffffffffffffff16815260200160018201548152602001600282015481526020016003820160009054906101000a900473ffffffffffffffffffffffffffffffffffffffff1673ffffffffffffffffffffffffffffffffffffffff1673ffffffffffffffffffffffffffffffffffffffff1681526020016004820160009054906101000a900473ffffffffffffffffffffffffffffffffffffffff1673ffffffffffffffffffffffffffffffffffffffff1673ffffffffffffffffffffffffffffffffffffffff1681526020016005820160009054906101000a900473ffffffffffffffffffffffffffffffffffffffff1673ffffffffffffffffffffffffffffffffffffffff1673ffffffffffffffffffffffffffffffffffffffff1681526020016006820154815260200160078201805461298c906145d2565b80601f01602080910402602001604051908101604052809291908181526020018280546129b8906145d2565b8015612a055780601f106129da57610100808354040283529160200191612a05565b820191906000526020600020905b8154815290600101906020018083116129e857829003601f168201915b505050505081526020016008820160009054906101000a900460ff161515151581526020016008820160019054906101000a900460ff161515151581525050915050919050565b60606000612a5a6001613b49565b905060008060005b83811015612b02573373ffffffffffffffffffffffffffffffffffffffff1660046000600184612a929190614527565b815260200190815260200160002060040160009054906101000a900473ffffffffffffffffffffffffffffffffffffffff1673ffffffffffffffffffffffffffffffffffffffff1603612aef57600183612aec9190614527565b92505b8080612afa9061455b565b915050612a62565b5060008267ffffffffffffffff811115612b1f57612b1e6141cf565b5b604051908082528060200260200182016040528015612b5857816020015b612b45613bb3565b815260200190600190039081612b3d5790505b50905060005b84811015612e91573373ffffffffffffffffffffffffffffffffffffffff1660046000600184612b8e9190614527565b815260200190815260200160002060040160009054906101000a900473ffffffffffffffffffffffffffffffffffffffff1673ffffffffffffffffffffffffffffffffffffffff1603612e7e576000600182612bea9190614527565b9050600060046000838152602001908152602001600020905080604051806101400160405290816000820160009054906101000a900473ffffffffffffffffffffffffffffffffffffffff1673ffffffffffffffffffffffffffffffffffffffff1673ffffffffffffffffffffffffffffffffffffffff16815260200160018201548152602001600282015481526020016003820160009054906101000a900473ffffffffffffffffffffffffffffffffffffffff1673ffffffffffffffffffffffffffffffffffffffff1673ffffffffffffffffffffffffffffffffffffffff1681526020016004820160009054906101000a900473ffffffffffffffffffffffffffffffffffffffff1673ffffffffffffffffffffffffffffffffffffffff1673ffffffffffffffffffffffffffffffffffffffff1681526020016005820160009054906101000a900473ffffffffffffffffffffffffffffffffffffffff1673ffffffffffffffffffffffffffffffffffffffff1673ffffffffffffffffffffffffffffffffffffffff16815260200160068201548152602001600782018054612d96906145d2565b80601f0160208091040260200160405190810160405280929190818152602001828054612dc2906145d2565b8015612e0f5780601f10612de457610100808354040283529160200191612e0f565b820191906000526020600020905b815481529060010190602001808311612df257829003601f168201915b505050505081526020016008820160009054906101000a900460ff161515151581526020016008820160019054906101000a900460ff161515151581525050848681518110612e6157612e60614603565b5b6020026020010181905250600185612e799190614527565b945050505b8080612e899061455b565b915050612b5e565b508094505050505090565b60606000612eaa6001613b49565b905060008060005b83811015612fcb578573ffffffffffffffffffffffffffffffffffffffff1660046000600184612ee29190614527565b815260200190815260200160002060050160009054906101000a900473ffffffffffffffffffffffffffffffffffffffff1673ffffffffffffffffffffffffffffffffffffffff161480612fa357508573ffffffffffffffffffffffffffffffffffffffff1660046000600184612f599190614527565b815260200190815260200160002060030160009054906101000a900473ffffffffffffffffffffffffffffffffffffffff1673ffffffffffffffffffffffffffffffffffffffff16145b15612fb857600183612fb59190614527565b92505b8080612fc39061455b565b915050612eb2565b5060008267ffffffffffffffff811115612fe857612fe76141cf565b5b60405190808252806020026020018201604052801561302157816020015b61300e613bb3565b8152602001906001900390816130065790505b50905060005b848110156133d3578673ffffffffffffffffffffffffffffffffffffffff16600460006001846130579190614527565b815260200190815260200160002060050160009054906101000a900473ffffffffffffffffffffffffffffffffffffffff1673ffffffffffffffffffffffffffffffffffffffff16148061311857508673ffffffffffffffffffffffffffffffffffffffff16600460006001846130ce9190614527565b815260200190815260200160002060030160009054906101000a900473ffffffffffffffffffffffffffffffffffffffff1673ffffffffffffffffffffffffffffffffffffffff16145b156133c057600060018261312c9190614527565b9050600060046000838152602001908152602001600020905080604051806101400160405290816000820160009054906101000a900473ffffffffffffffffffffffffffffffffffffffff1673ffffffffffffffffffffffffffffffffffffffff1673ffffffffffffffffffffffffffffffffffffffff16815260200160018201548152602001600282015481526020016003820160009054906101000a900473ffffffffffffffffffffffffffffffffffffffff1673ffffffffffffffffffffffffffffffffffffffff1673ffffffffffffffffffffffffffffffffffffffff1681526020016004820160009054906101000a900473ffffffffffffffffffffffffffffffffffffffff1673ffffffffffffffffffffffffffffffffffffffff1673ffffffffffffffffffffffffffffffffffffffff1681526020016005820160009054906101000a900473ffffffffffffffffffffffffffffffffffffffff1673ffffffffffffffffffffffffffffffffffffffff1673ffffffffffffffffffffffffffffffffffffffff168152602001600682015481526020016007820180546132d8906145d2565b80601f0160208091040260200160405190810160405280929190818152602001828054613304906145d2565b80156133515780601f1061332657610100808354040283529160200191613351565b820191906000526020600020905b81548152906001019060200180831161333457829003601f168201915b505050505081526020016008820160009054906101000a900460ff161515151581526020016008820160019054906101000a900460ff1615151515815250508486815181106133a3576133a2614603565b5b60200260200101819052506001856133bb9190614527565b945050505b80806133cb9061455b565b915050613027565b5080945050505050919050565b6133e8613ada565b6000851161342b576040517f08c379a000000000000000000000000000000000000000000000000000000000815260040161342290614744565b60405180910390fd5b606060008590508073ffffffffffffffffffffffffffffffffffffffff16637c428edb856040518263ffffffff1660e01b815260040161346b9190614764565b600060405180830381865afa158015613488573d6000803e3d6000fd5b505050506040513d6000823e3d601f19601f820116820180604052508101906134b1919061485c565b91506000805b8351811080156134c657508482105b15613807576134d56001613b29565b60006134e16001613b49565b905060008583815181106134f8576134f7614603565b5b6020026020010151905061350b81610be8565b6137f25760018461351c9190614527565b93508160056000838152602001908152602001600020819055506040518061014001604052808b73ffffffffffffffffffffffffffffffffffffffff1681526020018281526020018981526020013073ffffffffffffffffffffffffffffffffffffffff1681526020013373ffffffffffffffffffffffffffffffffffffffff1681526020013373ffffffffffffffffffffffffffffffffffffffff1681526020018c81526020018a8152602001600015158152602001600015158152506004600084815260200190815260200160002060008201518160000160006101000a81548173ffffffffffffffffffffffffffffffffffffffff021916908373ffffffffffffffffffffffffffffffffffffffff160217905550602082015181600101556040820151816002015560608201518160030160006101000a81548173ffffffffffffffffffffffffffffffffffffffff021916908373ffffffffffffffffffffffffffffffffffffffff16021790555060808201518160040160006101000a81548173ffffffffffffffffffffffffffffffffffffffff021916908373ffffffffffffffffffffffffffffffffffffffff16021790555060a08201518160050160006101000a81548173ffffffffffffffffffffffffffffffffffffffff021916908373ffffffffffffffffffffffffffffffffffffffff16021790555060c0820151816006015560e082015181600701908161373c9190614a51565b506101008201518160080160006101000a81548160ff0219169083151502179055506101208201518160080160016101000a81548160ff0219169083151502179055509050508973ffffffffffffffffffffffffffffffffffffffff166323b872dd3330846040518463ffffffff1660e01b81526004016137bf93929190614498565b600060405180830381600087803b1580156137d957600080fd5b505af11580156137ed573d6000803e3d6000fd5b505050505b505080806137ff9061455b565b9150506134b7565b507fe06ca02c843f7ef01202c602909f144135007be635a2fb8b80005ae64a943cfa85338a878a60405161383f959493929190614b5c565b60405180910390a1505050613852613b3f565b5050505050565b613861613ada565b6000600560008381526020019081526020016000205490503373ffffffffffffffffffffffffffffffffffffffff166004600083815260200190815260200160002060030160009054906101000a900473ffffffffffffffffffffffffffffffffffffffff1673ffffffffffffffffffffffffffffffffffffffff161461391d576040517f08c379a000000000000000000000000000000000000000000000000000000000815260040161391490614c28565b60405180910390fd5b60008390508073ffffffffffffffffffffffffffffffffffffffff1663f5537ede3330866040518463ffffffff1660e01b815260040161395f93929190614498565b600060405180830381600087803b15801561397957600080fd5b505af115801561398d573d6000803e3d6000fd5b5050505060006004600084815260200190815260200160002060080160006101000a81548160ff021916908315150217905550846004600084815260200190815260200160002060060181905550336004600084815260200190815260200160002060050160006101000a81548173ffffffffffffffffffffffffffffffffffffffff021916908373ffffffffffffffffffffffffffffffffffffffff160217905550306004600084815260200190815260200160002060030160006101000a81548173ffffffffffffffffffffffffffffffffffffffff021916908373ffffffffffffffffffffffffffffffffffffffff160217905550613a8f6002613b57565b827f43fd502c2b3ccce9ab96e3398308b712eb7ff697a75a2afe87316bdf94af0efe303388604051613ac393929190614498565b60405180910390a25050613ad5613b3f565b505050565b600260005403613b1f576040517f08c379a0000000000000000000000000000000000000000000000000000000008152600401613b1690614c94565b60405180910390fd5b6002600081905550565b6001816000016000828254019250508190555050565b6001600081905550565b600081600001549050919050565b60008160000154905060008111613ba3576040517f08c379a0000000000000000000000000000000000000000000000000000000008152600401613b9a90614d00565b60405180910390fd5b6001810382600001819055505050565b604051806101400160405280600073ffffffffffffffffffffffffffffffffffffffff1681526020016000815260200160008152602001600073ffffffffffffffffffffffffffffffffffffffff168152602001600073ffffffffffffffffffffffffffffffffffffffff168152602001600073ffffffffffffffffffffffffffffffffffffffff16815260200160008152602001606081526020016000151581526020016000151581525090565b6000604051905090565b600080fd5b600080fd5b6000819050919050565b613c8981613c76565b8114613c9457600080fd5b50565b600081359050613ca681613c80565b92915050565b600060208284031215613cc257613cc1613c6c565b5b6000613cd084828501613c97565b91505092915050565b60008115159050919050565b613cee81613cd9565b82525050565b6000602082019050613d096000830184613ce5565b92915050565b600073ffffffffffffffffffffffffffffffffffffffff82169050919050565b6000613d3a82613d0f565b9050919050565b613d4a81613d2f565b8114613d5557600080fd5b50565b600081359050613d6781613d41565b92915050565b60008060408385031215613d8457613d83613c6c565b5b6000613d9285828601613d58565b9250506020613da385828601613c97565b9150509250929050565b600081519050919050565b600082825260208201905092915050565b6000819050602082019050919050565b613de281613d2f565b82525050565b613df181613c76565b82525050565b6000613e0282613d0f565b9050919050565b613e1281613df7565b82525050565b600081519050919050565b600082825260208201905092915050565b60005b83811015613e52578082015181840152602081019050613e37565b60008484015250505050565b6000601f19601f8301169050919050565b6000613e7a82613e18565b613e848185613e23565b9350613e94818560208601613e34565b613e9d81613e5e565b840191505092915050565b613eb181613cd9565b82525050565b600061014083016000830151613ed06000860182613dd9565b506020830151613ee36020860182613de8565b506040830151613ef66040860182613de8565b506060830151613f096060860182613e09565b506080830151613f1c6080860182613e09565b5060a0830151613f2f60a0860182613e09565b5060c0830151613f4260c0860182613de8565b5060e083015184820360e0860152613f5a8282613e6f565b915050610100830151613f71610100860182613ea8565b50610120830151613f86610120860182613ea8565b508091505092915050565b6000613f9d8383613eb7565b905092915050565b6000602082019050919050565b6000613fbd82613dad565b613fc78185613db8565b935083602082028501613fd985613dc9565b8060005b858110156140155784840389528151613ff68582613f91565b945061400183613fa5565b925060208a01995050600181019050613fdd565b50829750879550505050505092915050565b600060208201905081810360008301526140418184613fb2565b905092915050565b60008060006060848603121561406257614061613c6c565b5b600061407086828701613c97565b935050602061408186828701613d58565b925050604061409286828701613c97565b9150509250925092565b6000610140830160008301516140b56000860182613dd9565b5060208301516140c86020860182613de8565b5060408301516140db6040860182613de8565b5060608301516140ee6060860182613e09565b5060808301516141016080860182613e09565b5060a083015161411460a0860182613e09565b5060c083015161412760c0860182613de8565b5060e083015184820360e086015261413f8282613e6f565b915050610100830151614156610100860182613ea8565b5061012083015161416b610120860182613ea8565b508091505092915050565b60006020820190508181036000830152614190818461409c565b905092915050565b6000602082840312156141ae576141ad613c6c565b5b60006141bc84828501613d58565b91505092915050565b600080fd5b600080fd5b7f4e487b7100000000000000000000000000000000000000000000000000000000600052604160045260246000fd5b61420782613e5e565b810181811067ffffffffffffffff82111715614226576142256141cf565b5b80604052505050565b6000614239613c62565b905061424582826141fe565b919050565b600067ffffffffffffffff821115614265576142646141cf565b5b61426e82613e5e565b9050602081019050919050565b82818337600083830152505050565b600061429d6142988461424a565b61422f565b9050828152602081018484840111156142b9576142b86141ca565b5b6142c484828561427b565b509392505050565b600082601f8301126142e1576142e06141c5565b5b81356142f184826020860161428a565b91505092915050565b600080600080600060a0868803121561431657614315613c6c565b5b600061432488828901613c97565b955050602061433588828901613d58565b945050604086013567ffffffffffffffff81111561435657614355613c71565b5b614362888289016142cc565b935050606061437388828901613c97565b925050608061438488828901613c97565b9150509295509295909350565b600082825260208201905092915050565b7f506c6561736520706179207468652061736b696e672070726963650000000000600082015250565b60006143d8601b83614391565b91506143e3826143a2565b602082019050919050565b60006020820190508181036000830152614407816143cb565b9050919050565b7f4974656d20686173206265656e20616c726561647920736f6c64000000000000600082015250565b6000614444601a83614391565b915061444f8261440e565b602082019050919050565b6000602082019050818103600083015261447381614437565b9050919050565b61448381613d2f565b82525050565b61449281613c76565b82525050565b60006060820190506144ad600083018661447a565b6144ba602083018561447a565b6144c76040830184614489565b949350505050565b60006040820190506144e4600083018561447a565b6144f16020830184614489565b9392505050565b7f4e487b7100000000000000000000000000000000000000000000000000000000600052601160045260246000fd5b600061453282613c76565b915061453d83613c76565b9250828201905080821115614555576145546144f8565b5b92915050565b600061456682613c76565b91507fffffffffffffffffffffffffffffffffffffffffffffffffffffffffffffffff8203614598576145976144f8565b5b600182019050919050565b7f4e487b7100000000000000000000000000000000000000000000000000000000600052602260045260246000fd5b600060028204905060018216806145ea57607f821691505b6020821081036145fd576145fc6145a3565b5b50919050565b7f4e487b7100000000000000000000000000000000000000000000000000000000600052603260045260246000fd5b7f4f6e6c79206576656e74206f776e6572206f722073656c6c65722063616e207060008201527f6572666f726d2074686973000000000000000000000000000000000000000000602082015250565b600061468e602b83614391565b915061469982614632565b604082019050919050565b600060208201905081810360008301526146bd81614681565b9050919050565b60006146cf82613c76565b91506146da83613c76565b92508282039050818111156146f2576146f16144f8565b5b92915050565b7f546f6f206c6f7700000000000000000000000000000000000000000000000000600082015250565b600061472e600783614391565b9150614739826146f8565b602082019050919050565b6000602082019050818103600083015261475d81614721565b9050919050565b60006020820190506147796000830184614489565b92915050565b600067ffffffffffffffff82111561479a576147996141cf565b5b602082029050602081019050919050565b600080fd5b6000815190506147bf81613c80565b92915050565b60006147d86147d38461477f565b61422f565b905080838252602082019050602084028301858111156147fb576147fa6147ab565b5b835b81811015614824578061481088826147b0565b8452602084019350506020810190506147fd565b5050509392505050565b600082601f830112614843576148426141c5565b5b81516148538482602086016147c5565b91505092915050565b60006020828403121561487257614871613c6c565b5b600082015167ffffffffffffffff8111156148905761488f613c71565b5b61489c8482850161482e565b91505092915050565b60008190508160005260206000209050919050565b60006020601f8301049050919050565b600082821b905092915050565b6000600883026149077fffffffffffffffffffffffffffffffffffffffffffffffffffffffffffffffff826148ca565b61491186836148ca565b95508019841693508086168417925050509392505050565b6000819050919050565b600061494e61494961494484613c76565b614929565b613c76565b9050919050565b6000819050919050565b61496883614933565b61497c61497482614955565b8484546148d7565b825550505050565b600090565b614991614984565b61499c81848461495f565b505050565b5b818110156149c0576149b5600082614989565b6001810190506149a2565b5050565b601f821115614a05576149d6816148a5565b6149df846148ba565b810160208510156149ee578190505b614a026149fa856148ba565b8301826149a1565b50505b505050565b600082821c905092915050565b6000614a2860001984600802614a0a565b1980831691505092915050565b6000614a418383614a17565b9150826002028217905092915050565b614a5a82613e18565b67ffffffffffffffff811115614a7357614a726141cf565b5b614a7d82546145d2565b614a888282856149c4565b600060209050601f831160018114614abb5760008415614aa9578287015190505b614ab38582614a35565b865550614b1b565b601f198416614ac9866148a5565b60005b82811015614af157848901518255600182019150602085019450602081019050614acc565b86831015614b0e5784890151614b0a601f891682614a17565b8355505b6001600288020188555050505b505050505050565b6000614b2e82613e18565b614b388185614391565b9350614b48818560208601613e34565b614b5181613e5e565b840191505092915050565b600060a082019050614b716000830188614489565b614b7e602083018761447a565b614b8b6040830186614489565b614b986060830185614489565b8181036080830152614baa8184614b23565b90509695505050505050565b7f4f6e6c79207469636b6574206f776e65722063616e20706572666f726d20746860008201527f6973206f7065726174696f6e0000000000000000000000000000000000000000602082015250565b6000614c12602c83614391565b9150614c1d82614bb6565b604082019050919050565b60006020820190508181036000830152614c4181614c05565b9050919050565b7f5265656e7472616e637947756172643a207265656e7472616e742063616c6c00600082015250565b6000614c7e601f83614391565b9150614c8982614c48565b602082019050919050565b60006020820190508181036000830152614cad81614c71565b9050919050565b7f436f756e7465723a2064656372656d656e74206f766572666c6f770000000000600082015250565b6000614cea601b83614391565b9150614cf582614cb4565b602082019050919050565b60006020820190508181036000830152614d1981614cdd565b905091905056fea264697066735822122004742af2e1ee4219ebf848a8c089dfdb706cce28dbd3b03c9be8b7f1ad8427f164736f6c63430008110033",
  "linkReferences": {},
  "deployedLinkReferences": {}
}