{
  "_format": "hh-sol-artifact-1",
  "contractName": "TicketMint",
  "sourceName": "contracts/TicketMint.sol",
  "abi": [
    {
      "inputs": [
        {
          "internalType": "address",
          "name": "marketAddress",
          "type": "address"
        }
      ],
      "stateMutability": "nonpayable",
      "type": "constructor"
    },
    {
      "anonymous": false,
      "inputs": [
        {
          "indexed": true,
          "internalType": "address",
          "name": "owner",
          "type": "address"
        },
        {
          "indexed": true,
          "internalType": "address",
          "name": "approved",
          "type": "address"
        },
        {
          "indexed": true,
          "internalType": "uint256",
          "name": "tokenId",
          "type": "uint256"
        }
      ],
      "name": "Approval",
      "type": "event"
    },
    {
      "anonymous": false,
      "inputs": [
        {
          "indexed": true,
          "internalType": "address",
          "name": "owner",
          "type": "address"
        },
        {
          "indexed": true,
          "internalType": "address",
          "name": "operator",
          "type": "address"
        },
        {
          "indexed": false,
          "internalType": "bool",
          "name": "approved",
          "type": "bool"
        }
      ],
      "name": "ApprovalForAll",
      "type": "event"
    },
    {
      "anonymous": false,
      "inputs": [
        {
          "indexed": true,
          "internalType": "uint256",
          "name": "eventID",
          "type": "uint256"
        },
        {
          "indexed": false,
          "internalType": "uint256",
          "name": "supply",
          "type": "uint256"
        },
        {
          "indexed": false,
          "internalType": "address",
          "name": "ticketOwner",
          "type": "address"
        }
      ],
      "name": "Mint",
      "type": "event"
    },
    {
      "anonymous": false,
      "inputs": [
        {
          "indexed": true,
          "internalType": "address",
          "name": "from",
          "type": "address"
        },
        {
          "indexed": true,
          "internalType": "address",
          "name": "to",
          "type": "address"
        },
        {
          "indexed": true,
          "internalType": "uint256",
          "name": "tokenId",
          "type": "uint256"
        }
      ],
      "name": "Transfer",
      "type": "event"
    },
    {
      "inputs": [
        {
          "internalType": "address",
          "name": "_address",
          "type": "address"
        }
      ],
      "name": "addEventOwner",
      "outputs": [],
      "stateMutability": "nonpayable",
      "type": "function"
    },
    {
      "inputs": [
        {
          "internalType": "address",
          "name": "_addressToOwners",
          "type": "address"
        }
      ],
      "name": "addOwner",
      "outputs": [],
      "stateMutability": "nonpayable",
      "type": "function"
    },
    {
      "inputs": [
        {
          "internalType": "address",
          "name": "to",
          "type": "address"
        },
        {
          "internalType": "uint256",
          "name": "tokenId",
          "type": "uint256"
        }
      ],
      "name": "approve",
      "outputs": [],
      "stateMutability": "nonpayable",
      "type": "function"
    },
    {
      "inputs": [
        {
          "internalType": "address",
          "name": "owner",
          "type": "address"
        }
      ],
      "name": "balanceOf",
      "outputs": [
        {
          "internalType": "uint256",
          "name": "",
          "type": "uint256"
        }
      ],
      "stateMutability": "view",
      "type": "function"
    },
    {
      "inputs": [
        {
          "internalType": "uint256",
          "name": "tokenId",
          "type": "uint256"
        }
      ],
      "name": "burn",
      "outputs": [],
      "stateMutability": "nonpayable",
      "type": "function"
    },
    {
      "inputs": [
        {
          "internalType": "uint256",
          "name": "tokenId",
          "type": "uint256"
        }
      ],
      "name": "burnNFT",
      "outputs": [],
      "stateMutability": "nonpayable",
      "type": "function"
    },
    {
      "inputs": [
        {
          "internalType": "uint256",
          "name": "eventid",
          "type": "uint256"
        }
      ],
      "name": "eventOwnerOfEventID",
      "outputs": [
        {
          "internalType": "address",
          "name": "",
          "type": "address"
        }
      ],
      "stateMutability": "view",
      "type": "function"
    },
    {
      "inputs": [
        {
          "internalType": "uint256",
          "name": "tokenId",
          "type": "uint256"
        }
      ],
      "name": "getApproved",
      "outputs": [
        {
          "internalType": "address",
          "name": "",
          "type": "address"
        }
      ],
      "stateMutability": "view",
      "type": "function"
    },
    {
      "inputs": [
        {
          "internalType": "uint256",
          "name": "tokenid",
          "type": "uint256"
        }
      ],
      "name": "getEventID",
      "outputs": [
        {
          "internalType": "uint256",
          "name": "",
          "type": "uint256"
        }
      ],
      "stateMutability": "view",
      "type": "function"
    },
    {
      "inputs": [
        {
          "internalType": "uint256",
          "name": "eventid",
          "type": "uint256"
        }
      ],
      "name": "getEventTicketList",
      "outputs": [
        {
          "internalType": "uint256[]",
          "name": "",
          "type": "uint256[]"
        }
      ],
      "stateMutability": "view",
      "type": "function"
    },
    {
      "inputs": [
        {
          "internalType": "address",
          "name": "owner",
          "type": "address"
        },
        {
          "internalType": "address",
          "name": "operator",
          "type": "address"
        }
      ],
      "name": "isApprovedForAll",
      "outputs": [
        {
          "internalType": "bool",
          "name": "",
          "type": "bool"
        }
      ],
      "stateMutability": "view",
      "type": "function"
    },
    {
      "inputs": [
        {
          "internalType": "string",
          "name": "tokenUri",
          "type": "string"
        },
        {
          "internalType": "uint256",
          "name": "eventId",
          "type": "uint256"
        },
        {
          "internalType": "uint256",
          "name": "supply",
          "type": "uint256"
        }
      ],
      "name": "mintNFT",
      "outputs": [],
      "stateMutability": "nonpayable",
      "type": "function"
    },
    {
      "inputs": [],
      "name": "name",
      "outputs": [
        {
          "internalType": "string",
          "name": "",
          "type": "string"
        }
      ],
      "stateMutability": "view",
      "type": "function"
    },
    {
      "inputs": [
        {
          "internalType": "uint256",
          "name": "tokenId",
          "type": "uint256"
        }
      ],
      "name": "ownerOf",
      "outputs": [
        {
          "internalType": "address",
          "name": "",
          "type": "address"
        }
      ],
      "stateMutability": "view",
      "type": "function"
    },
    {
      "inputs": [
        {
          "internalType": "address",
          "name": "from",
          "type": "address"
        },
        {
          "internalType": "address",
          "name": "to",
          "type": "address"
        },
        {
          "internalType": "uint256",
          "name": "tokenId",
          "type": "uint256"
        }
      ],
      "name": "safeTransferFrom",
      "outputs": [],
      "stateMutability": "nonpayable",
      "type": "function"
    },
    {
      "inputs": [
        {
          "internalType": "address",
          "name": "from",
          "type": "address"
        },
        {
          "internalType": "address",
          "name": "to",
          "type": "address"
        },
        {
          "internalType": "uint256",
          "name": "tokenId",
          "type": "uint256"
        },
        {
          "internalType": "bytes",
          "name": "data",
          "type": "bytes"
        }
      ],
      "name": "safeTransferFrom",
      "outputs": [],
      "stateMutability": "nonpayable",
      "type": "function"
    },
    {
      "inputs": [
        {
          "internalType": "address",
          "name": "operator",
          "type": "address"
        },
        {
          "internalType": "bool",
          "name": "approved",
          "type": "bool"
        }
      ],
      "name": "setApprovalForAll",
      "outputs": [],
      "stateMutability": "nonpayable",
      "type": "function"
    },
    {
      "inputs": [
        {
          "internalType": "bytes4",
          "name": "interfaceId",
          "type": "bytes4"
        }
      ],
      "name": "supportsInterface",
      "outputs": [
        {
          "internalType": "bool",
          "name": "",
          "type": "bool"
        }
      ],
      "stateMutability": "view",
      "type": "function"
    },
    {
      "inputs": [],
      "name": "symbol",
      "outputs": [
        {
          "internalType": "string",
          "name": "",
          "type": "string"
        }
      ],
      "stateMutability": "view",
      "type": "function"
    },
    {
      "inputs": [],
      "name": "tokenID",
      "outputs": [
        {
          "internalType": "uint256",
          "name": "",
          "type": "uint256"
        }
      ],
      "stateMutability": "view",
      "type": "function"
    },
    {
      "inputs": [
        {
          "internalType": "uint256",
          "name": "tokenId",
          "type": "uint256"
        }
      ],
      "name": "tokenURI",
      "outputs": [
        {
          "internalType": "string",
          "name": "",
          "type": "string"
        }
      ],
      "stateMutability": "view",
      "type": "function"
    },
    {
      "inputs": [
        {
          "internalType": "address",
          "name": "from",
          "type": "address"
        },
        {
          "internalType": "address",
          "name": "to",
          "type": "address"
        },
        {
          "internalType": "uint256",
          "name": "tokenId",
          "type": "uint256"
        }
      ],
      "name": "transferFrom",
      "outputs": [],
      "stateMutability": "nonpayable",
      "type": "function"
    },
    {
      "inputs": [
        {
          "internalType": "address",
          "name": "from",
          "type": "address"
        },
        {
          "internalType": "address",
          "name": "to",
          "type": "address"
        },
        {
          "internalType": "uint256",
          "name": "tokenId",
          "type": "uint256"
        }
      ],
      "name": "transferToken",
      "outputs": [],
      "stateMutability": "nonpayable",
      "type": "function"
    },
    {
      "inputs": [
        {
          "internalType": "address",
          "name": "_address",
          "type": "address"
        }
      ],
      "name": "verifyEventOwner",
      "outputs": [
        {
          "internalType": "bool",
          "name": "",
          "type": "bool"
        }
      ],
      "stateMutability": "view",
      "type": "function"
    }
  ],
  "bytecode": "0x60806040523480156200001157600080fd5b5060405162003efa38038062003efa8339818101604052810190620000379190620001d3565b6040518060400160405280600881526020017f5469636b726970740000000000000000000000000000000000000000000000008152506040518060400160405280600381526020017f54696300000000000000000000000000000000000000000000000000000000008152508160009081620000b491906200047f565b508060019081620000c691906200047f565b50505080600860006101000a81548173ffffffffffffffffffffffffffffffffffffffff021916908373ffffffffffffffffffffffffffffffffffffffff1602179055506001600960003373ffffffffffffffffffffffffffffffffffffffff1673ffffffffffffffffffffffffffffffffffffffff16815260200190815260200160002060006101000a81548160ff0219169083151502179055505062000566565b600080fd5b600073ffffffffffffffffffffffffffffffffffffffff82169050919050565b60006200019b826200016e565b9050919050565b620001ad816200018e565b8114620001b957600080fd5b50565b600081519050620001cd81620001a2565b92915050565b600060208284031215620001ec57620001eb62000169565b5b6000620001fc84828501620001bc565b91505092915050565b600081519050919050565b7f4e487b7100000000000000000000000000000000000000000000000000000000600052604160045260246000fd5b7f4e487b7100000000000000000000000000000000000000000000000000000000600052602260045260246000fd5b600060028204905060018216806200028757607f821691505b6020821081036200029d576200029c6200023f565b5b50919050565b60008190508160005260206000209050919050565b60006020601f8301049050919050565b600082821b905092915050565b600060088302620003077fffffffffffffffffffffffffffffffffffffffffffffffffffffffffffffffff82620002c8565b620003138683620002c8565b95508019841693508086168417925050509392505050565b6000819050919050565b6000819050919050565b6000620003606200035a62000354846200032b565b62000335565b6200032b565b9050919050565b6000819050919050565b6200037c836200033f565b620003946200038b8262000367565b848454620002d5565b825550505050565b600090565b620003ab6200039c565b620003b881848462000371565b505050565b5b81811015620003e057620003d4600082620003a1565b600181019050620003be565b5050565b601f8211156200042f57620003f981620002a3565b6200040484620002b8565b8101602085101562000414578190505b6200042c6200042385620002b8565b830182620003bd565b50505b505050565b600082821c905092915050565b6000620004546000198460080262000434565b1980831691505092915050565b60006200046f838362000441565b9150826002028217905092915050565b6200048a8262000205565b67ffffffffffffffff811115620004a657620004a562000210565b5b620004b282546200026e565b620004bf828285620003e4565b600060209050601f831160018114620004f75760008415620004e2578287015190505b620004ee858262000461565b8655506200055e565b601f1984166200050786620002a3565b60005b8281101562000531578489015182556001820191506020850194506020810190506200050a565b868310156200055157848901516200054d601f89168262000441565b8355505b6001600288020188555050505b505050505050565b61398480620005766000396000f3fe608060405234801561001057600080fd5b50600436106101585760003560e01c80637065cb48116100c3578063a22cb4651161007c578063a22cb465146103f9578063a5c42ef114610415578063b88d4fde14610433578063c87b56dd1461044f578063e985e9c51461047f578063f5537ede146104af57610158565b80637065cb481461031357806370a082311461032f5780637c428edb1461035f5780638966d3a21461038f57806395d89b41146103bf578063977922d2146103dd57610158565b806327848eae1161011557806327848eae146102435780632890e0d71461025f5780632b43ecf61461027b57806342842e0e146102ab57806342966c68146102c75780636352211e146102e357610158565b806301ffc9a71461015d57806306fdde031461018d578063081812fc146101ab578063095ea7b3146101db5780631e90b293146101f757806323b872dd14610227575b600080fd5b610177600480360381019061017291906124a2565b6104cb565b60405161018491906124ea565b60405180910390f35b6101956105ad565b6040516101a29190612595565b60405180910390f35b6101c560048036038101906101c091906125ed565b61063f565b6040516101d2919061265b565b60405180910390f35b6101f560048036038101906101f091906126a2565b610685565b005b610211600480360381019061020c91906125ed565b61079c565b60405161021e919061265b565b60405180910390f35b610241600480360381019061023c91906126e2565b6107d9565b005b61025d60048036038101906102589190612735565b610839565b005b610279600480360381019061027491906125ed565b610920565b005b610295600480360381019061029091906125ed565b61097c565b6040516102a29190612771565b60405180910390f35b6102c560048036038101906102c091906126e2565b610999565b005b6102e160048036038101906102dc91906125ed565b6109b9565b005b6102fd60048036038101906102f891906125ed565b610a15565b60405161030a919061265b565b60405180910390f35b61032d60048036038101906103289190612735565b610a9b565b005b61034960048036038101906103449190612735565b610b82565b6040516103569190612771565b60405180910390f35b610379600480360381019061037491906125ed565b610c39565b604051610386919061284a565b60405180910390f35b6103a960048036038101906103a49190612735565b610ca4565b6040516103b691906124ea565b60405180910390f35b6103c7610cff565b6040516103d49190612595565b60405180910390f35b6103f760048036038101906103f291906129a1565b610d91565b005b610413600480360381019061040e9190612a3c565b610f7e565b005b61041d610f94565b60405161042a9190612771565b60405180910390f35b61044d60048036038101906104489190612b1d565b610fa5565b005b610469600480360381019061046491906125ed565b611007565b6040516104769190612595565b60405180910390f35b61049960048036038101906104949190612ba0565b611019565b6040516104a691906124ea565b60405180910390f35b6104c960048036038101906104c491906126e2565b6110ad565b005b60007f80ac58cd000000000000000000000000000000000000000000000000000000007bffffffffffffffffffffffffffffffffffffffffffffffffffffffff1916827bffffffffffffffffffffffffffffffffffffffffffffffffffffffff1916148061059657507f5b5e139f000000000000000000000000000000000000000000000000000000007bffffffffffffffffffffffffffffffffffffffffffffffffffffffff1916827bffffffffffffffffffffffffffffffffffffffffffffffffffffffff1916145b806105a657506105a582611133565b5b9050919050565b6060600080546105bc90612c0f565b80601f01602080910402602001604051908101604052809291908181526020018280546105e890612c0f565b80156106355780601f1061060a57610100808354040283529160200191610635565b820191906000526020600020905b81548152906001019060200180831161061857829003601f168201915b5050505050905090565b600061064a8261119d565b6004600083815260200190815260200160002060009054906101000a900473ffffffffffffffffffffffffffffffffffffffff169050919050565b600061069082610a15565b90508073ffffffffffffffffffffffffffffffffffffffff168373ffffffffffffffffffffffffffffffffffffffff1603610700576040517f08c379a00000000000000000000000000000000000000000000000000000000081526004016106f790612cb2565b60405180910390fd5b8073ffffffffffffffffffffffffffffffffffffffff1661071f6111e8565b73ffffffffffffffffffffffffffffffffffffffff16148061074e575061074d816107486111e8565b611019565b5b61078d576040517f08c379a000000000000000000000000000000000000000000000000000000000815260040161078490612d44565b60405180910390fd5b61079783836111f0565b505050565b6000600d600083815260200190815260200160002060009054906101000a900473ffffffffffffffffffffffffffffffffffffffff169050919050565b6107ea6107e46111e8565b826112a9565b610829576040517f08c379a000000000000000000000000000000000000000000000000000000000815260040161082090612dd6565b60405180910390fd5b61083483838361133e565b505050565b600960003373ffffffffffffffffffffffffffffffffffffffff1673ffffffffffffffffffffffffffffffffffffffff16815260200190815260200160002060009054906101000a900460ff166108c5576040517f08c379a00000000000000000000000000000000000000000000000000000000081526004016108bc90612e42565b60405180910390fd5b6001600a60008373ffffffffffffffffffffffffffffffffffffffff1673ffffffffffffffffffffffffffffffffffffffff16815260200190815260200160002060006101000a81548160ff02191690831515021790555050565b61093161092b6111e8565b826112a9565b610970576040517f08c379a000000000000000000000000000000000000000000000000000000000815260040161096790612ed4565b60405180910390fd5b61097981611637565b50565b6000600c6000838152602001908152602001600020549050919050565b6109b483838360405180602001604052806000815250610fa5565b505050565b6109ca6109c46111e8565b826112a9565b610a09576040517f08c379a0000000000000000000000000000000000000000000000000000000008152600401610a0090612dd6565b60405180910390fd5b610a1281611637565b50565b600080610a2183611643565b9050600073ffffffffffffffffffffffffffffffffffffffff168173ffffffffffffffffffffffffffffffffffffffff1603610a92576040517f08c379a0000000000000000000000000000000000000000000000000000000008152600401610a8990612f40565b60405180910390fd5b80915050919050565b600960003373ffffffffffffffffffffffffffffffffffffffff1673ffffffffffffffffffffffffffffffffffffffff16815260200190815260200160002060009054906101000a900460ff16610b27576040517f08c379a0000000000000000000000000000000000000000000000000000000008152600401610b1e90612e42565b60405180910390fd5b6001600960008373ffffffffffffffffffffffffffffffffffffffff1673ffffffffffffffffffffffffffffffffffffffff16815260200190815260200160002060006101000a81548160ff02191690831515021790555050565b60008073ffffffffffffffffffffffffffffffffffffffff168273ffffffffffffffffffffffffffffffffffffffff1603610bf2576040517f08c379a0000000000000000000000000000000000000000000000000000000008152600401610be990612fd2565b60405180910390fd5b600360008373ffffffffffffffffffffffffffffffffffffffff1673ffffffffffffffffffffffffffffffffffffffff168152602001908152602001600020549050919050565b6060600b6000838152602001908152602001600020805480602002602001604051908101604052809291908181526020018280548015610c9857602002820191906000526020600020905b815481526020019060010190808311610c84575b50505050509050919050565b600080600a60008473ffffffffffffffffffffffffffffffffffffffff1673ffffffffffffffffffffffffffffffffffffffff16815260200190815260200160002060009054906101000a900460ff16905080915050919050565b606060018054610d0e90612c0f565b80601f0160208091040260200160405190810160405280929190818152602001828054610d3a90612c0f565b8015610d875780601f10610d5c57610100808354040283529160200191610d87565b820191906000526020600020905b815481529060010190602001808311610d6a57829003601f168201915b5050505050905090565b33600a60008273ffffffffffffffffffffffffffffffffffffffff1673ffffffffffffffffffffffffffffffffffffffff16815260200190815260200160002060009054906101000a900460ff16610e1e576040517f08c379a0000000000000000000000000000000000000000000000000000000008152600401610e159061303e565b60405180910390fd5b600080600090505b83811015610eea57610e386007611680565b610e426007611696565b9150610e4e33836116a4565b610e5882876116c2565b610e85600860009054906101000a900473ffffffffffffffffffffffffffffffffffffffff166001610f7e565b600b600086815260200190815260200160002082908060018154018082558091505060019003906000526020600020016000909190919091505584600c6000848152602001908152602001600020819055508080610ee29061308d565b915050610e26565b5033600d600086815260200190815260200160002060006101000a81548173ffffffffffffffffffffffffffffffffffffffff021916908373ffffffffffffffffffffffffffffffffffffffff160217905550837f8334f87aeaf76e52b061d93ee968e51fdd3ad53ca04e80271249227997aab3a08433604051610f6f9291906130d5565b60405180910390a25050505050565b610f90610f896111e8565b838361172f565b5050565b6000610fa06007611696565b905090565b610fb6610fb06111e8565b836112a9565b610ff5576040517f08c379a0000000000000000000000000000000000000000000000000000000008152600401610fec90612dd6565b60405180910390fd5b6110018484848461189b565b50505050565b6060611012826118f7565b9050919050565b6000600560008473ffffffffffffffffffffffffffffffffffffffff1673ffffffffffffffffffffffffffffffffffffffff16815260200190815260200160002060008373ffffffffffffffffffffffffffffffffffffffff1673ffffffffffffffffffffffffffffffffffffffff16815260200190815260200160002060009054906101000a900460ff16905092915050565b8273ffffffffffffffffffffffffffffffffffffffff166110cd82610a15565b73ffffffffffffffffffffffffffffffffffffffff1614611123576040517f08c379a000000000000000000000000000000000000000000000000000000000815260040161111a9061314a565b60405180910390fd5b61112e83838361133e565b505050565b60007f01ffc9a7000000000000000000000000000000000000000000000000000000007bffffffffffffffffffffffffffffffffffffffffffffffffffffffff1916827bffffffffffffffffffffffffffffffffffffffffffffffffffffffff1916149050919050565b6111a681611a09565b6111e5576040517f08c379a00000000000000000000000000000000000000000000000000000000081526004016111dc90612f40565b60405180910390fd5b50565b600033905090565b816004600083815260200190815260200160002060006101000a81548173ffffffffffffffffffffffffffffffffffffffff021916908373ffffffffffffffffffffffffffffffffffffffff160217905550808273ffffffffffffffffffffffffffffffffffffffff1661126383610a15565b73ffffffffffffffffffffffffffffffffffffffff167f8c5be1e5ebec7d5bd14f71427d1e84f3dd0314c0f7b2291e5b200ac8c7c3b92560405160405180910390a45050565b6000806112b583610a15565b90508073ffffffffffffffffffffffffffffffffffffffff168473ffffffffffffffffffffffffffffffffffffffff1614806112f757506112f68185611019565b5b8061133557508373ffffffffffffffffffffffffffffffffffffffff1661131d8461063f565b73ffffffffffffffffffffffffffffffffffffffff16145b91505092915050565b8273ffffffffffffffffffffffffffffffffffffffff1661135e82610a15565b73ffffffffffffffffffffffffffffffffffffffff16146113b4576040517f08c379a00000000000000000000000000000000000000000000000000000000081526004016113ab906131dc565b60405180910390fd5b600073ffffffffffffffffffffffffffffffffffffffff168273ffffffffffffffffffffffffffffffffffffffff1603611423576040517f08c379a000000000000000000000000000000000000000000000000000000000815260040161141a9061326e565b60405180910390fd5b6114308383836001611a4a565b8273ffffffffffffffffffffffffffffffffffffffff1661145082610a15565b73ffffffffffffffffffffffffffffffffffffffff16146114a6576040517f08c379a000000000000000000000000000000000000000000000000000000000815260040161149d906131dc565b60405180910390fd5b6004600082815260200190815260200160002060006101000a81549073ffffffffffffffffffffffffffffffffffffffff02191690556001600360008573ffffffffffffffffffffffffffffffffffffffff1673ffffffffffffffffffffffffffffffffffffffff168152602001908152602001600020600082825403925050819055506001600360008473ffffffffffffffffffffffffffffffffffffffff1673ffffffffffffffffffffffffffffffffffffffff16815260200190815260200160002060008282540192505081905550816002600083815260200190815260200160002060006101000a81548173ffffffffffffffffffffffffffffffffffffffff021916908373ffffffffffffffffffffffffffffffffffffffff160217905550808273ffffffffffffffffffffffffffffffffffffffff168473ffffffffffffffffffffffffffffffffffffffff167fddf252ad1be2c89b69c2b068fc378daa952ba7f163c4a11628f55a4df523b3ef60405160405180910390a46116328383836001611b70565b505050565b61164081611b76565b50565b60006002600083815260200190815260200160002060009054906101000a900473ffffffffffffffffffffffffffffffffffffffff169050919050565b6001816000016000828254019250508190555050565b600081600001549050919050565b6116be828260405180602001604052806000815250611bc9565b5050565b6116cb82611a09565b61170a576040517f08c379a000000000000000000000000000000000000000000000000000000000815260040161170190613300565b60405180910390fd5b8060066000848152602001908152602001600020908161172a91906134cc565b505050565b8173ffffffffffffffffffffffffffffffffffffffff168373ffffffffffffffffffffffffffffffffffffffff160361179d576040517f08c379a0000000000000000000000000000000000000000000000000000000008152600401611794906135ea565b60405180910390fd5b80600560008573ffffffffffffffffffffffffffffffffffffffff1673ffffffffffffffffffffffffffffffffffffffff16815260200190815260200160002060008473ffffffffffffffffffffffffffffffffffffffff1673ffffffffffffffffffffffffffffffffffffffff16815260200190815260200160002060006101000a81548160ff0219169083151502179055508173ffffffffffffffffffffffffffffffffffffffff168373ffffffffffffffffffffffffffffffffffffffff167f17307eab39ab6107e8899845ad3d59bd9653f200f220920489ca2b5937696c318360405161188e91906124ea565b60405180910390a3505050565b6118a684848461133e565b6118b284848484611c24565b6118f1576040517f08c379a00000000000000000000000000000000000000000000000000000000081526004016118e89061367c565b60405180910390fd5b50505050565b60606119028261119d565b600060066000848152602001908152602001600020805461192290612c0f565b80601f016020809104026020016040519081016040528092919081815260200182805461194e90612c0f565b801561199b5780601f106119705761010080835404028352916020019161199b565b820191906000526020600020905b81548152906001019060200180831161197e57829003601f168201915b5050505050905060006119ac611dab565b905060008151036119c1578192505050611a04565b6000825111156119f65780826040516020016119de9291906136d8565b60405160208183030381529060405292505050611a04565b6119ff84611dc2565b925050505b919050565b60008073ffffffffffffffffffffffffffffffffffffffff16611a2b83611643565b73ffffffffffffffffffffffffffffffffffffffff1614159050919050565b6001811115611b6a57600073ffffffffffffffffffffffffffffffffffffffff168473ffffffffffffffffffffffffffffffffffffffff1614611ade5780600360008673ffffffffffffffffffffffffffffffffffffffff1673ffffffffffffffffffffffffffffffffffffffff1681526020019081526020016000206000828254611ad691906136fc565b925050819055505b600073ffffffffffffffffffffffffffffffffffffffff168373ffffffffffffffffffffffffffffffffffffffff1614611b695780600360008573ffffffffffffffffffffffffffffffffffffffff1673ffffffffffffffffffffffffffffffffffffffff1681526020019081526020016000206000828254611b619190613730565b925050819055505b5b50505050565b50505050565b611b7f81611e2a565b6000600660008381526020019081526020016000208054611b9f90612c0f565b905014611bc657600660008281526020019081526020016000206000611bc591906123d9565b5b50565b611bd38383611f78565b611be06000848484611c24565b611c1f576040517f08c379a0000000000000000000000000000000000000000000000000000000008152600401611c169061367c565b60405180910390fd5b505050565b6000611c458473ffffffffffffffffffffffffffffffffffffffff16612195565b15611d9e578373ffffffffffffffffffffffffffffffffffffffff1663150b7a02611c6e6111e8565b8786866040518563ffffffff1660e01b8152600401611c9094939291906137b9565b6020604051808303816000875af1925050508015611ccc57506040513d601f19601f82011682018060405250810190611cc9919061381a565b60015b611d4e573d8060008114611cfc576040519150601f19603f3d011682016040523d82523d6000602084013e611d01565b606091505b506000815103611d46576040517f08c379a0000000000000000000000000000000000000000000000000000000008152600401611d3d9061367c565b60405180910390fd5b805181602001fd5b63150b7a0260e01b7bffffffffffffffffffffffffffffffffffffffffffffffffffffffff1916817bffffffffffffffffffffffffffffffffffffffffffffffffffffffff191614915050611da3565b600190505b949350505050565b606060405180602001604052806000815250905090565b6060611dcd8261119d565b6000611dd7611dab565b90506000815111611df75760405180602001604052806000815250611e22565b80611e01846121b8565b604051602001611e129291906136d8565b6040516020818303038152906040525b915050919050565b6000611e3582610a15565b9050611e45816000846001611a4a565b611e4e82610a15565b90506004600083815260200190815260200160002060006101000a81549073ffffffffffffffffffffffffffffffffffffffff02191690556001600360008373ffffffffffffffffffffffffffffffffffffffff1673ffffffffffffffffffffffffffffffffffffffff168152602001908152602001600020600082825403925050819055506002600083815260200190815260200160002060006101000a81549073ffffffffffffffffffffffffffffffffffffffff021916905581600073ffffffffffffffffffffffffffffffffffffffff168273ffffffffffffffffffffffffffffffffffffffff167fddf252ad1be2c89b69c2b068fc378daa952ba7f163c4a11628f55a4df523b3ef60405160405180910390a4611f74816000846001611b70565b5050565b600073ffffffffffffffffffffffffffffffffffffffff168273ffffffffffffffffffffffffffffffffffffffff1603611fe7576040517f08c379a0000000000000000000000000000000000000000000000000000000008152600401611fde90613893565b60405180910390fd5b611ff081611a09565b15612030576040517f08c379a0000000000000000000000000000000000000000000000000000000008152600401612027906138ff565b60405180910390fd5b61203e600083836001611a4a565b61204781611a09565b15612087576040517f08c379a000000000000000000000000000000000000000000000000000000000815260040161207e906138ff565b60405180910390fd5b6001600360008473ffffffffffffffffffffffffffffffffffffffff1673ffffffffffffffffffffffffffffffffffffffff16815260200190815260200160002060008282540192505081905550816002600083815260200190815260200160002060006101000a81548173ffffffffffffffffffffffffffffffffffffffff021916908373ffffffffffffffffffffffffffffffffffffffff160217905550808273ffffffffffffffffffffffffffffffffffffffff16600073ffffffffffffffffffffffffffffffffffffffff167fddf252ad1be2c89b69c2b068fc378daa952ba7f163c4a11628f55a4df523b3ef60405160405180910390a4612191600083836001611b70565b5050565b6000808273ffffffffffffffffffffffffffffffffffffffff163b119050919050565b6060600060016121c784612286565b01905060008167ffffffffffffffff8111156121e6576121e5612876565b5b6040519080825280601f01601f1916602001820160405280156122185781602001600182028036833780820191505090505b509050600082602001820190505b60011561227b578080600190039150507f3031323334353637383961626364656600000000000000000000000000000000600a86061a8153600a858161226f5761226e61391f565b5b04945060008503612226575b819350505050919050565b600080600090507a184f03e93ff9f4daa797ed6e38ed64bf6a1f01000000000000000083106122e4577a184f03e93ff9f4daa797ed6e38ed64bf6a1f01000000000000000083816122da576122d961391f565b5b0492506040810190505b6d04ee2d6d415b85acef81000000008310612321576d04ee2d6d415b85acef810000000083816123175761231661391f565b5b0492506020810190505b662386f26fc10000831061235057662386f26fc1000083816123465761234561391f565b5b0492506010810190505b6305f5e1008310612379576305f5e100838161236f5761236e61391f565b5b0492506008810190505b612710831061239e5761271083816123945761239361391f565b5b0492506004810190505b606483106123c157606483816123b7576123b661391f565b5b0492506002810190505b600a83106123d0576001810190505b80915050919050565b5080546123e590612c0f565b6000825580601f106123f75750612416565b601f0160209004906000526020600020908101906124159190612419565b5b50565b5b8082111561243257600081600090555060010161241a565b5090565b6000604051905090565b600080fd5b600080fd5b60007fffffffff0000000000000000000000000000000000000000000000000000000082169050919050565b61247f8161244a565b811461248a57600080fd5b50565b60008135905061249c81612476565b92915050565b6000602082840312156124b8576124b7612440565b5b60006124c68482850161248d565b91505092915050565b60008115159050919050565b6124e4816124cf565b82525050565b60006020820190506124ff60008301846124db565b92915050565b600081519050919050565b600082825260208201905092915050565b60005b8381101561253f578082015181840152602081019050612524565b60008484015250505050565b6000601f19601f8301169050919050565b600061256782612505565b6125718185612510565b9350612581818560208601612521565b61258a8161254b565b840191505092915050565b600060208201905081810360008301526125af818461255c565b905092915050565b6000819050919050565b6125ca816125b7565b81146125d557600080fd5b50565b6000813590506125e7816125c1565b92915050565b60006020828403121561260357612602612440565b5b6000612611848285016125d8565b91505092915050565b600073ffffffffffffffffffffffffffffffffffffffff82169050919050565b60006126458261261a565b9050919050565b6126558161263a565b82525050565b6000602082019050612670600083018461264c565b92915050565b61267f8161263a565b811461268a57600080fd5b50565b60008135905061269c81612676565b92915050565b600080604083850312156126b9576126b8612440565b5b60006126c78582860161268d565b92505060206126d8858286016125d8565b9150509250929050565b6000806000606084860312156126fb576126fa612440565b5b60006127098682870161268d565b935050602061271a8682870161268d565b925050604061272b868287016125d8565b9150509250925092565b60006020828403121561274b5761274a612440565b5b60006127598482850161268d565b91505092915050565b61276b816125b7565b82525050565b60006020820190506127866000830184612762565b92915050565b600081519050919050565b600082825260208201905092915050565b6000819050602082019050919050565b6127c1816125b7565b82525050565b60006127d383836127b8565b60208301905092915050565b6000602082019050919050565b60006127f78261278c565b6128018185612797565b935061280c836127a8565b8060005b8381101561283d57815161282488826127c7565b975061282f836127df565b925050600181019050612810565b5085935050505092915050565b6000602082019050818103600083015261286481846127ec565b905092915050565b600080fd5b600080fd5b7f4e487b7100000000000000000000000000000000000000000000000000000000600052604160045260246000fd5b6128ae8261254b565b810181811067ffffffffffffffff821117156128cd576128cc612876565b5b80604052505050565b60006128e0612436565b90506128ec82826128a5565b919050565b600067ffffffffffffffff82111561290c5761290b612876565b5b6129158261254b565b9050602081019050919050565b82818337600083830152505050565b600061294461293f846128f1565b6128d6565b9050828152602081018484840111156129605761295f612871565b5b61296b848285612922565b509392505050565b600082601f8301126129885761298761286c565b5b8135612998848260208601612931565b91505092915050565b6000806000606084860312156129ba576129b9612440565b5b600084013567ffffffffffffffff8111156129d8576129d7612445565b5b6129e486828701612973565b93505060206129f5868287016125d8565b9250506040612a06868287016125d8565b9150509250925092565b612a19816124cf565b8114612a2457600080fd5b50565b600081359050612a3681612a10565b92915050565b60008060408385031215612a5357612a52612440565b5b6000612a618582860161268d565b9250506020612a7285828601612a27565b9150509250929050565b600067ffffffffffffffff821115612a9757612a96612876565b5b612aa08261254b565b9050602081019050919050565b6000612ac0612abb84612a7c565b6128d6565b905082815260208101848484011115612adc57612adb612871565b5b612ae7848285612922565b509392505050565b600082601f830112612b0457612b0361286c565b5b8135612b14848260208601612aad565b91505092915050565b60008060008060808587031215612b3757612b36612440565b5b6000612b458782880161268d565b9450506020612b568782880161268d565b9350506040612b67878288016125d8565b925050606085013567ffffffffffffffff811115612b8857612b87612445565b5b612b9487828801612aef565b91505092959194509250565b60008060408385031215612bb757612bb6612440565b5b6000612bc58582860161268d565b9250506020612bd68582860161268d565b9150509250929050565b7f4e487b7100000000000000000000000000000000000000000000000000000000600052602260045260246000fd5b60006002820490506001821680612c2757607f821691505b602082108103612c3a57612c39612be0565b5b50919050565b7f4552433732313a20617070726f76616c20746f2063757272656e74206f776e6560008201527f7200000000000000000000000000000000000000000000000000000000000000602082015250565b6000612c9c602183612510565b9150612ca782612c40565b604082019050919050565b60006020820190508181036000830152612ccb81612c8f565b9050919050565b7f4552433732313a20617070726f76652063616c6c6572206973206e6f7420746f60008201527f6b656e206f776e6572206f7220617070726f76656420666f7220616c6c000000602082015250565b6000612d2e603d83612510565b9150612d3982612cd2565b604082019050919050565b60006020820190508181036000830152612d5d81612d21565b9050919050565b7f4552433732313a2063616c6c6572206973206e6f7420746f6b656e206f776e6560008201527f72206f7220617070726f76656400000000000000000000000000000000000000602082015250565b6000612dc0602d83612510565b9150612dcb82612d64565b604082019050919050565b60006020820190508181036000830152612def81612db3565b9050919050565b7f4f6e6c7920636f6e7472616374206f776e657273210000000000000000000000600082015250565b6000612e2c601583612510565b9150612e3782612df6565b602082019050919050565b60006020820190508181036000830152612e5b81612e1f565b9050919050565b7f4552433732314275726e61626c653a2063616c6c6572206973206e6f74206f7760008201527f6e6572206e6f7220617070726f76656400000000000000000000000000000000602082015250565b6000612ebe603083612510565b9150612ec982612e62565b604082019050919050565b60006020820190508181036000830152612eed81612eb1565b9050919050565b7f4552433732313a20696e76616c696420746f6b656e2049440000000000000000600082015250565b6000612f2a601883612510565b9150612f3582612ef4565b602082019050919050565b60006020820190508181036000830152612f5981612f1d565b9050919050565b7f4552433732313a2061646472657373207a65726f206973206e6f74206120766160008201527f6c6964206f776e65720000000000000000000000000000000000000000000000602082015250565b6000612fbc602983612510565b9150612fc782612f60565b604082019050919050565b60006020820190508181036000830152612feb81612faf565b9050919050565b7f596f75206e65656420746f2062652077686974656c6973746564000000000000600082015250565b6000613028601a83612510565b915061303382612ff2565b602082019050919050565b600060208201905081810360008301526130578161301b565b9050919050565b7f4e487b7100000000000000000000000000000000000000000000000000000000600052601160045260246000fd5b6000613098826125b7565b91507fffffffffffffffffffffffffffffffffffffffffffffffffffffffffffffffff82036130ca576130c961305e565b5b600182019050919050565b60006040820190506130ea6000830185612762565b6130f7602083018461264c565b9392505050565b7f46726f6d2061646472657373206d75737420626520746f6b656e206f776e6572600082015250565b6000613134602083612510565b915061313f826130fe565b602082019050919050565b6000602082019050818103600083015261316381613127565b9050919050565b7f4552433732313a207472616e736665722066726f6d20696e636f72726563742060008201527f6f776e6572000000000000000000000000000000000000000000000000000000602082015250565b60006131c6602583612510565b91506131d18261316a565b604082019050919050565b600060208201905081810360008301526131f5816131b9565b9050919050565b7f4552433732313a207472616e7366657220746f20746865207a65726f2061646460008201527f7265737300000000000000000000000000000000000000000000000000000000602082015250565b6000613258602483612510565b9150613263826131fc565b604082019050919050565b600060208201905081810360008301526132878161324b565b9050919050565b7f45524337323155524953746f726167653a2055524920736574206f66206e6f6e60008201527f6578697374656e7420746f6b656e000000000000000000000000000000000000602082015250565b60006132ea602e83612510565b91506132f58261328e565b604082019050919050565b60006020820190508181036000830152613319816132dd565b9050919050565b60008190508160005260206000209050919050565b60006020601f8301049050919050565b600082821b905092915050565b6000600883026133827fffffffffffffffffffffffffffffffffffffffffffffffffffffffffffffffff82613345565b61338c8683613345565b95508019841693508086168417925050509392505050565b6000819050919050565b60006133c96133c46133bf846125b7565b6133a4565b6125b7565b9050919050565b6000819050919050565b6133e3836133ae565b6133f76133ef826133d0565b848454613352565b825550505050565b600090565b61340c6133ff565b6134178184846133da565b505050565b5b8181101561343b57613430600082613404565b60018101905061341d565b5050565b601f8211156134805761345181613320565b61345a84613335565b81016020851015613469578190505b61347d61347585613335565b83018261341c565b50505b505050565b600082821c905092915050565b60006134a360001984600802613485565b1980831691505092915050565b60006134bc8383613492565b9150826002028217905092915050565b6134d582612505565b67ffffffffffffffff8111156134ee576134ed612876565b5b6134f88254612c0f565b61350382828561343f565b600060209050601f8311600181146135365760008415613524578287015190505b61352e85826134b0565b865550613596565b601f19841661354486613320565b60005b8281101561356c57848901518255600182019150602085019450602081019050613547565b868310156135895784890151613585601f891682613492565b8355505b6001600288020188555050505b505050505050565b7f4552433732313a20617070726f766520746f2063616c6c657200000000000000600082015250565b60006135d4601983612510565b91506135df8261359e565b602082019050919050565b60006020820190508181036000830152613603816135c7565b9050919050565b7f4552433732313a207472616e7366657220746f206e6f6e20455243373231526560008201527f63656976657220696d706c656d656e7465720000000000000000000000000000602082015250565b6000613666603283612510565b91506136718261360a565b604082019050919050565b6000602082019050818103600083015261369581613659565b9050919050565b600081905092915050565b60006136b282612505565b6136bc818561369c565b93506136cc818560208601612521565b80840191505092915050565b60006136e482856136a7565b91506136f082846136a7565b91508190509392505050565b6000613707826125b7565b9150613712836125b7565b925082820390508181111561372a5761372961305e565b5b92915050565b600061373b826125b7565b9150613746836125b7565b925082820190508082111561375e5761375d61305e565b5b92915050565b600081519050919050565b600082825260208201905092915050565b600061378b82613764565b613795818561376f565b93506137a5818560208601612521565b6137ae8161254b565b840191505092915050565b60006080820190506137ce600083018761264c565b6137db602083018661264c565b6137e86040830185612762565b81810360608301526137fa8184613780565b905095945050505050565b60008151905061381481612476565b92915050565b6000602082840312156138305761382f612440565b5b600061383e84828501613805565b91505092915050565b7f4552433732313a206d696e7420746f20746865207a65726f2061646472657373600082015250565b600061387d602083612510565b915061388882613847565b602082019050919050565b600060208201905081810360008301526138ac81613870565b9050919050565b7f4552433732313a20746f6b656e20616c7265616479206d696e74656400000000600082015250565b60006138e9601c83612510565b91506138f4826138b3565b602082019050919050565b60006020820190508181036000830152613918816138dc565b9050919050565b7f4e487b7100000000000000000000000000000000000000000000000000000000600052601260045260246000fdfea2646970667358221220d1957c856e64cc2de06d685b9eeb532ea982921e24bf696420140fa80bcfd77064736f6c63430008110033",
  "linkReferences": {},
  "deployedLinkReferences": {}
}