{
  "_format": "hh-sol-artifact-1",
  "contractName": "TicketMarket",
  "sourceName": "contracts/TicketMarket.sol",
  "abi": [
    {
      "inputs": [],
      "stateMutability": "nonpayable",
      "type": "constructor"
    },
    {
      "anonymous": false,
      "inputs": [
        {
          "indexed": true,
          "internalType": "uint256",
          "name": "tokenID",
          "type": "uint256"
        },
        {
          "indexed": false,
          "internalType": "address",
          "name": "ticketOwner",
          "type": "address"
        },
        {
          "indexed": false,
          "internalType": "uint256",
          "name": "price",
          "type": "uint256"
        }
      ],
      "name": "MarketItemAfterSale",
      "type": "event"
    },
    {
      "anonymous": false,
      "inputs": [
        {
          "indexed": true,
          "internalType": "uint256",
          "name": "tokenID",
          "type": "uint256"
        },
        {
          "indexed": false,
          "internalType": "uint256",
          "name": "eventID",
          "type": "uint256"
        },
        {
          "indexed": false,
          "internalType": "address",
          "name": "eventOwner",
          "type": "address"
        },
        {
          "indexed": false,
          "internalType": "address",
          "name": "seller",
          "type": "address"
        },
        {
          "indexed": false,
          "internalType": "uint256",
          "name": "price",
          "type": "uint256"
        },
        {
          "indexed": false,
          "internalType": "string",
          "name": "ticketType",
          "type": "string"
        }
      ],
      "name": "MarketItemCreation",
      "type": "event"
    },
    {
      "anonymous": false,
      "inputs": [
        {
          "indexed": true,
          "internalType": "uint256",
          "name": "tokenID",
          "type": "uint256"
        },
        {
          "indexed": false,
          "internalType": "address",
          "name": "ticketOwner",
          "type": "address"
        },
        {
          "indexed": false,
          "internalType": "address",
          "name": "seller",
          "type": "address"
        },
        {
          "indexed": false,
          "internalType": "uint256",
          "name": "price",
          "type": "uint256"
        }
      ],
      "name": "MarketItemResell",
      "type": "event"
    },
    {
      "anonymous": false,
      "inputs": [
        {
          "indexed": true,
          "internalType": "uint256",
          "name": "tokenID",
          "type": "uint256"
        },
        {
          "indexed": false,
          "internalType": "address",
          "name": "seller",
          "type": "address"
        },
        {
          "indexed": false,
          "internalType": "uint256",
          "name": "price",
          "type": "uint256"
        }
      ],
      "name": "MarketItemStopSale",
      "type": "event"
    },
    {
      "inputs": [],
      "name": "ListEventOwnerItems",
      "outputs": [
        {
          "components": [
            {
              "internalType": "address",
              "name": "nftContract",
              "type": "address"
            },
            {
              "internalType": "uint256",
              "name": "tokenID",
              "type": "uint256"
            },
            {
              "internalType": "uint256",
              "name": "eventID",
              "type": "uint256"
            },
            {
              "internalType": "address payable",
              "name": "ticketOwner",
              "type": "address"
            },
            {
              "internalType": "address payable",
              "name": "eventOwner",
              "type": "address"
            },
            {
              "internalType": "address payable",
              "name": "seller",
              "type": "address"
            },
            {
              "internalType": "uint256",
              "name": "price",
              "type": "uint256"
            },
            {
              "internalType": "string",
              "name": "ticketType",
              "type": "string"
            },
            {
              "internalType": "bool",
              "name": "sold",
              "type": "bool"
            },
            {
              "internalType": "bool",
              "name": "soldBefore",
              "type": "bool"
            }
          ],
          "internalType": "struct TicketMarket.MarketItem[]",
          "name": "",
          "type": "tuple[]"
        }
      ],
      "stateMutability": "view",
      "type": "function"
    },
    {
      "inputs": [],
      "name": "ListEventOwnerItemsOnSale",
      "outputs": [
        {
          "components": [
            {
              "internalType": "address",
              "name": "nftContract",
              "type": "address"
            },
            {
              "internalType": "uint256",
              "name": "tokenID",
              "type": "uint256"
            },
            {
              "internalType": "uint256",
              "name": "eventID",
              "type": "uint256"
            },
            {
              "internalType": "address payable",
              "name": "ticketOwner",
              "type": "address"
            },
            {
              "internalType": "address payable",
              "name": "eventOwner",
              "type": "address"
            },
            {
              "internalType": "address payable",
              "name": "seller",
              "type": "address"
            },
            {
              "internalType": "uint256",
              "name": "price",
              "type": "uint256"
            },
            {
              "internalType": "string",
              "name": "ticketType",
              "type": "string"
            },
            {
              "internalType": "bool",
              "name": "sold",
              "type": "bool"
            },
            {
              "internalType": "bool",
              "name": "soldBefore",
              "type": "bool"
            }
          ],
          "internalType": "struct TicketMarket.MarketItem[]",
          "name": "",
          "type": "tuple[]"
        }
      ],
      "stateMutability": "view",
      "type": "function"
    },
    {
      "inputs": [],
      "name": "ListItemsOnSale",
      "outputs": [
        {
          "components": [
            {
              "internalType": "address",
              "name": "nftContract",
              "type": "address"
            },
            {
              "internalType": "uint256",
              "name": "tokenID",
              "type": "uint256"
            },
            {
              "internalType": "uint256",
              "name": "eventID",
              "type": "uint256"
            },
            {
              "internalType": "address payable",
              "name": "ticketOwner",
              "type": "address"
            },
            {
              "internalType": "address payable",
              "name": "eventOwner",
              "type": "address"
            },
            {
              "internalType": "address payable",
              "name": "seller",
              "type": "address"
            },
            {
              "internalType": "uint256",
              "name": "price",
              "type": "uint256"
            },
            {
              "internalType": "string",
              "name": "ticketType",
              "type": "string"
            },
            {
              "internalType": "bool",
              "name": "sold",
              "type": "bool"
            },
            {
              "internalType": "bool",
              "name": "soldBefore",
              "type": "bool"
            }
          ],
          "internalType": "struct TicketMarket.MarketItem[]",
          "name": "",
          "type": "tuple[]"
        }
      ],
      "stateMutability": "view",
      "type": "function"
    },
    {
      "inputs": [],
      "name": "ListMusicItemsOnSale",
      "outputs": [
        {
          "components": [
            {
              "internalType": "address",
              "name": "nftContract",
              "type": "address"
            },
            {
              "internalType": "uint256",
              "name": "tokenID",
              "type": "uint256"
            },
            {
              "internalType": "uint256",
              "name": "eventID",
              "type": "uint256"
            },
            {
              "internalType": "address payable",
              "name": "ticketOwner",
              "type": "address"
            },
            {
              "internalType": "address payable",
              "name": "eventOwner",
              "type": "address"
            },
            {
              "internalType": "address payable",
              "name": "seller",
              "type": "address"
            },
            {
              "internalType": "uint256",
              "name": "price",
              "type": "uint256"
            },
            {
              "internalType": "string",
              "name": "ticketType",
              "type": "string"
            },
            {
              "internalType": "bool",
              "name": "sold",
              "type": "bool"
            },
            {
              "internalType": "bool",
              "name": "soldBefore",
              "type": "bool"
            }
          ],
          "internalType": "struct TicketMarket.MarketItem[]",
          "name": "",
          "type": "tuple[]"
        }
      ],
      "stateMutability": "view",
      "type": "function"
    },
    {
      "inputs": [],
      "name": "ListOrganizationItemsOnSale",
      "outputs": [
        {
          "components": [
            {
              "internalType": "address",
              "name": "nftContract",
              "type": "address"
            },
            {
              "internalType": "uint256",
              "name": "tokenID",
              "type": "uint256"
            },
            {
              "internalType": "uint256",
              "name": "eventID",
              "type": "uint256"
            },
            {
              "internalType": "address payable",
              "name": "ticketOwner",
              "type": "address"
            },
            {
              "internalType": "address payable",
              "name": "eventOwner",
              "type": "address"
            },
            {
              "internalType": "address payable",
              "name": "seller",
              "type": "address"
            },
            {
              "internalType": "uint256",
              "name": "price",
              "type": "uint256"
            },
            {
              "internalType": "string",
              "name": "ticketType",
              "type": "string"
            },
            {
              "internalType": "bool",
              "name": "sold",
              "type": "bool"
            },
            {
              "internalType": "bool",
              "name": "soldBefore",
              "type": "bool"
            }
          ],
          "internalType": "struct TicketMarket.MarketItem[]",
          "name": "",
          "type": "tuple[]"
        }
      ],
      "stateMutability": "view",
      "type": "function"
    },
    {
      "inputs": [],
      "name": "ListOtherItemsOnSale",
      "outputs": [
        {
          "components": [
            {
              "internalType": "address",
              "name": "nftContract",
              "type": "address"
            },
            {
              "internalType": "uint256",
              "name": "tokenID",
              "type": "uint256"
            },
            {
              "internalType": "uint256",
              "name": "eventID",
              "type": "uint256"
            },
            {
              "internalType": "address payable",
              "name": "ticketOwner",
              "type": "address"
            },
            {
              "internalType": "address payable",
              "name": "eventOwner",
              "type": "address"
            },
            {
              "internalType": "address payable",
              "name": "seller",
              "type": "address"
            },
            {
              "internalType": "uint256",
              "name": "price",
              "type": "uint256"
            },
            {
              "internalType": "string",
              "name": "ticketType",
              "type": "string"
            },
            {
              "internalType": "bool",
              "name": "sold",
              "type": "bool"
            },
            {
              "internalType": "bool",
              "name": "soldBefore",
              "type": "bool"
            }
          ],
          "internalType": "struct TicketMarket.MarketItem[]",
          "name": "",
          "type": "tuple[]"
        }
      ],
      "stateMutability": "view",
      "type": "function"
    },
    {
      "inputs": [],
      "name": "ListPartyItemsOnSale",
      "outputs": [
        {
          "components": [
            {
              "internalType": "address",
              "name": "nftContract",
              "type": "address"
            },
            {
              "internalType": "uint256",
              "name": "tokenID",
              "type": "uint256"
            },
            {
              "internalType": "uint256",
              "name": "eventID",
              "type": "uint256"
            },
            {
              "internalType": "address payable",
              "name": "ticketOwner",
              "type": "address"
            },
            {
              "internalType": "address payable",
              "name": "eventOwner",
              "type": "address"
            },
            {
              "internalType": "address payable",
              "name": "seller",
              "type": "address"
            },
            {
              "internalType": "uint256",
              "name": "price",
              "type": "uint256"
            },
            {
              "internalType": "string",
              "name": "ticketType",
              "type": "string"
            },
            {
              "internalType": "bool",
              "name": "sold",
              "type": "bool"
            },
            {
              "internalType": "bool",
              "name": "soldBefore",
              "type": "bool"
            }
          ],
          "internalType": "struct TicketMarket.MarketItem[]",
          "name": "",
          "type": "tuple[]"
        }
      ],
      "stateMutability": "view",
      "type": "function"
    },
    {
      "inputs": [],
      "name": "ListSportItemsOnSale",
      "outputs": [
        {
          "components": [
            {
              "internalType": "address",
              "name": "nftContract",
              "type": "address"
            },
            {
              "internalType": "uint256",
              "name": "tokenID",
              "type": "uint256"
            },
            {
              "internalType": "uint256",
              "name": "eventID",
              "type": "uint256"
            },
            {
              "internalType": "address payable",
              "name": "ticketOwner",
              "type": "address"
            },
            {
              "internalType": "address payable",
              "name": "eventOwner",
              "type": "address"
            },
            {
              "internalType": "address payable",
              "name": "seller",
              "type": "address"
            },
            {
              "internalType": "uint256",
              "name": "price",
              "type": "uint256"
            },
            {
              "internalType": "string",
              "name": "ticketType",
              "type": "string"
            },
            {
              "internalType": "bool",
              "name": "sold",
              "type": "bool"
            },
            {
              "internalType": "bool",
              "name": "soldBefore",
              "type": "bool"
            }
          ],
          "internalType": "struct TicketMarket.MarketItem[]",
          "name": "",
          "type": "tuple[]"
        }
      ],
      "stateMutability": "view",
      "type": "function"
    },
    {
      "inputs": [],
      "name": "ListStageItemsOnSale",
      "outputs": [
        {
          "components": [
            {
              "internalType": "address",
              "name": "nftContract",
              "type": "address"
            },
            {
              "internalType": "uint256",
              "name": "tokenID",
              "type": "uint256"
            },
            {
              "internalType": "uint256",
              "name": "eventID",
              "type": "uint256"
            },
            {
              "internalType": "address payable",
              "name": "ticketOwner",
              "type": "address"
            },
            {
              "internalType": "address payable",
              "name": "eventOwner",
              "type": "address"
            },
            {
              "internalType": "address payable",
              "name": "seller",
              "type": "address"
            },
            {
              "internalType": "uint256",
              "name": "price",
              "type": "uint256"
            },
            {
              "internalType": "string",
              "name": "ticketType",
              "type": "string"
            },
            {
              "internalType": "bool",
              "name": "sold",
              "type": "bool"
            },
            {
              "internalType": "bool",
              "name": "soldBefore",
              "type": "bool"
            }
          ],
          "internalType": "struct TicketMarket.MarketItem[]",
          "name": "",
          "type": "tuple[]"
        }
      ],
      "stateMutability": "view",
      "type": "function"
    },
    {
      "inputs": [],
      "name": "ListUserOwnItems",
      "outputs": [
        {
          "components": [
            {
              "internalType": "address",
              "name": "nftContract",
              "type": "address"
            },
            {
              "internalType": "uint256",
              "name": "tokenID",
              "type": "uint256"
            },
            {
              "internalType": "uint256",
              "name": "eventID",
              "type": "uint256"
            },
            {
              "internalType": "address payable",
              "name": "ticketOwner",
              "type": "address"
            },
            {
              "internalType": "address payable",
              "name": "eventOwner",
              "type": "address"
            },
            {
              "internalType": "address payable",
              "name": "seller",
              "type": "address"
            },
            {
              "internalType": "uint256",
              "name": "price",
              "type": "uint256"
            },
            {
              "internalType": "string",
              "name": "ticketType",
              "type": "string"
            },
            {
              "internalType": "bool",
              "name": "sold",
              "type": "bool"
            },
            {
              "internalType": "bool",
              "name": "soldBefore",
              "type": "bool"
            }
          ],
          "internalType": "struct TicketMarket.MarketItem[]",
          "name": "",
          "type": "tuple[]"
        }
      ],
      "stateMutability": "view",
      "type": "function"
    },
    {
      "inputs": [],
      "name": "ListUserSaleItems",
      "outputs": [
        {
          "components": [
            {
              "internalType": "address",
              "name": "nftContract",
              "type": "address"
            },
            {
              "internalType": "uint256",
              "name": "tokenID",
              "type": "uint256"
            },
            {
              "internalType": "uint256",
              "name": "eventID",
              "type": "uint256"
            },
            {
              "internalType": "address payable",
              "name": "ticketOwner",
              "type": "address"
            },
            {
              "internalType": "address payable",
              "name": "eventOwner",
              "type": "address"
            },
            {
              "internalType": "address payable",
              "name": "seller",
              "type": "address"
            },
            {
              "internalType": "uint256",
              "name": "price",
              "type": "uint256"
            },
            {
              "internalType": "string",
              "name": "ticketType",
              "type": "string"
            },
            {
              "internalType": "bool",
              "name": "sold",
              "type": "bool"
            },
            {
              "internalType": "bool",
              "name": "soldBefore",
              "type": "bool"
            }
          ],
          "internalType": "struct TicketMarket.MarketItem[]",
          "name": "",
          "type": "tuple[]"
        }
      ],
      "stateMutability": "view",
      "type": "function"
    },
    {
      "inputs": [
        {
          "internalType": "address",
          "name": "user",
          "type": "address"
        }
      ],
      "name": "ListUsersAllItems",
      "outputs": [
        {
          "components": [
            {
              "internalType": "address",
              "name": "nftContract",
              "type": "address"
            },
            {
              "internalType": "uint256",
              "name": "tokenID",
              "type": "uint256"
            },
            {
              "internalType": "uint256",
              "name": "eventID",
              "type": "uint256"
            },
            {
              "internalType": "address payable",
              "name": "ticketOwner",
              "type": "address"
            },
            {
              "internalType": "address payable",
              "name": "eventOwner",
              "type": "address"
            },
            {
              "internalType": "address payable",
              "name": "seller",
              "type": "address"
            },
            {
              "internalType": "uint256",
              "name": "price",
              "type": "uint256"
            },
            {
              "internalType": "string",
              "name": "ticketType",
              "type": "string"
            },
            {
              "internalType": "bool",
              "name": "sold",
              "type": "bool"
            },
            {
              "internalType": "bool",
              "name": "soldBefore",
              "type": "bool"
            }
          ],
          "internalType": "struct TicketMarket.MarketItem[]",
          "name": "",
          "type": "tuple[]"
        }
      ],
      "stateMutability": "view",
      "type": "function"
    },
    {
      "inputs": [
        {
          "internalType": "uint256",
          "name": "tokenId",
          "type": "uint256"
        }
      ],
      "name": "NFTItem",
      "outputs": [
        {
          "components": [
            {
              "internalType": "address",
              "name": "nftContract",
              "type": "address"
            },
            {
              "internalType": "uint256",
              "name": "tokenID",
              "type": "uint256"
            },
            {
              "internalType": "uint256",
              "name": "eventID",
              "type": "uint256"
            },
            {
              "internalType": "address payable",
              "name": "ticketOwner",
              "type": "address"
            },
            {
              "internalType": "address payable",
              "name": "eventOwner",
              "type": "address"
            },
            {
              "internalType": "address payable",
              "name": "seller",
              "type": "address"
            },
            {
              "internalType": "uint256",
              "name": "price",
              "type": "uint256"
            },
            {
              "internalType": "string",
              "name": "ticketType",
              "type": "string"
            },
            {
              "internalType": "bool",
              "name": "sold",
              "type": "bool"
            },
            {
              "internalType": "bool",
              "name": "soldBefore",
              "type": "bool"
            }
          ],
          "internalType": "struct TicketMarket.MarketItem",
          "name": "",
          "type": "tuple"
        }
      ],
      "stateMutability": "view",
      "type": "function"
    },
    {
      "inputs": [
        {
          "internalType": "uint256",
          "name": "price",
          "type": "uint256"
        },
        {
          "internalType": "address",
          "name": "NftCont",
          "type": "address"
        },
        {
          "internalType": "uint256",
          "name": "tokenId",
          "type": "uint256"
        }
      ],
      "name": "ResellNFT",
      "outputs": [],
      "stateMutability": "payable",
      "type": "function"
    },
    {
      "inputs": [
        {
          "internalType": "uint256",
          "name": "price",
          "type": "uint256"
        },
        {
          "internalType": "address",
          "name": "NftCont",
          "type": "address"
        },
        {
          "internalType": "uint256",
          "name": "tokenId",
          "type": "uint256"
        }
      ],
      "name": "StopNFTSale",
      "outputs": [],
      "stateMutability": "payable",
      "type": "function"
    },
    {
      "inputs": [
        {
          "internalType": "uint256",
          "name": "price",
          "type": "uint256"
        },
        {
          "internalType": "address",
          "name": "NftCont",
          "type": "address"
        },
        {
          "internalType": "string",
          "name": "ticketType",
          "type": "string"
        },
        {
          "internalType": "uint256",
          "name": "eventID",
          "type": "uint256"
        },
        {
          "internalType": "uint256",
          "name": "supply",
          "type": "uint256"
        }
      ],
      "name": "createMarketItem",
      "outputs": [],
      "stateMutability": "payable",
      "type": "function"
    },
    {
      "inputs": [
        {
          "internalType": "uint256",
          "name": "tokenid",
          "type": "uint256"
        }
      ],
      "name": "isInMarket",
      "outputs": [
        {
          "internalType": "bool",
          "name": "",
          "type": "bool"
        }
      ],
      "stateMutability": "view",
      "type": "function"
    },
    {
      "inputs": [
        {
          "internalType": "uint256",
          "name": "tokenId",
          "type": "uint256"
        }
      ],
      "name": "isSoldBefore",
      "outputs": [
        {
          "internalType": "bool",
          "name": "",
          "type": "bool"
        }
      ],
      "stateMutability": "view",
      "type": "function"
    },
    {
      "inputs": [
        {
          "internalType": "address",
          "name": "NftCont",
          "type": "address"
        },
        {
          "internalType": "uint256",
          "name": "tokenId",
          "type": "uint256"
        }
      ],
      "name": "ticketSale",
      "outputs": [],
      "stateMutability": "payable",
      "type": "function"
    }
  ],
  "bytecode": "0x608060405234801561001057600080fd5b50600160008190555033600360006101000a81548173ffffffffffffffffffffffffffffffffffffffff021916908373ffffffffffffffffffffffffffffffffffffffff160217905550615ca7806200006a6000396000f3fe6080604052600436106101145760003560e01c80635b9e4328116100a0578063b19d4e0811610064578063b19d4e081461037c578063b666aa31146103b9578063c4f228c1146103e4578063df75d46f1461040f578063f945e8b51461042b57610114565b80635b9e4328146102a257806366f74e20146102df5780638471075d1461030a578063986d88e014610326578063a9a440c91461035157610114565b80632e560c4d116100e75780632e560c4d146101c85780632ffb12bb146101f3578063396f7d151461020f578063416108591461024c5780634b2115691461027757610114565b806308aaac95146101195780630a29d949146101565780630bb8766d14610172578063112b35841461019d575b600080fd5b34801561012557600080fd5b50610140600480360381019061013b9190614912565b610456565b60405161014d919061495a565b60405180910390f35b610170600480360381019061016b91906149d3565b6104b3565b005b34801561017e57600080fd5b50610187610804565b6040516101949190614c8d565b60405180910390f35b3480156101a957600080fd5b506101b2610c0d565b6040516101bf9190614c8d565b60405180910390f35b3480156101d457600080fd5b506101dd61105d565b6040516101ea9190614c8d565b60405180910390f35b61020d60048036038101906102089190614caf565b611466565b005b34801561021b57600080fd5b5061023660048036038101906102319190614912565b6116e7565b604051610243919061495a565b60405180910390f35b34801561025857600080fd5b50610261611717565b60405161026e9190614c8d565b60405180910390f35b34801561028357600080fd5b5061028c611b20565b6040516102999190614c8d565b60405180910390f35b3480156102ae57600080fd5b506102c960048036038101906102c49190614d02565b611f70565b6040516102d69190614c8d565b60405180910390f35b3480156102eb57600080fd5b506102f46124b4565b6040516103019190614c8d565b60405180910390f35b610324600480360381019061031f9190614caf565b6128bd565b005b34801561033257600080fd5b5061033b612bd2565b6040516103489190614c8d565b60405180910390f35b34801561035d57600080fd5b50610366612f9e565b6040516103739190614c8d565b60405180910390f35b34801561038857600080fd5b506103a3600480360381019061039e9190614912565b6133ee565b6040516103b09190614e09565b60405180910390f35b3480156103c557600080fd5b506103ce613673565b6040516103db9190614c8d565b60405180910390f35b3480156103f057600080fd5b506103f9613ac3565b6040516104069190614c8d565b60405180910390f35b61042960048036038101906104249190614f60565b613ecc565b005b34801561043757600080fd5b50610440614337565b60405161044d9190614c8d565b60405180910390f35b60008060056000848152602001908152602001600020549050600115156004600083815260200190815260200160002060080160019054906101000a900460ff161515036104a85760019150506104ae565b60009150505b919050565b6104bb614740565b60006005600083815260200190815260200160002054905060006004600083815260200190815260200160002060060154905060006004600084815260200190815260200160002060010154905060006004600085815260200190815260200160002060050160009054906101000a900473ffffffffffffffffffffffffffffffffffffffff16905082341015610587576040517f08c379a000000000000000000000000000000000000000000000000000000000815260040161057e90615054565b60405180910390fd5b600015156004600086815260200190815260200160002060080160009054906101000a900460ff161515146105f1576040517f08c379a00000000000000000000000000000000000000000000000000000000081526004016105e8906150c0565b60405180910390fd5b336004600086815260200190815260200160002060030160006101000a81548173ffffffffffffffffffffffffffffffffffffffff021916908373ffffffffffffffffffffffffffffffffffffffff16021790555060016004600086815260200190815260200160002060080160006101000a81548160ff02191690831515021790555060006004600086815260200190815260200160002060050160006101000a81548173ffffffffffffffffffffffffffffffffffffffff021916908373ffffffffffffffffffffffffffffffffffffffff16021790555060016004600086815260200190815260200160002060080160016101000a81548160ff021916908315150217905550610704600261478f565b8573ffffffffffffffffffffffffffffffffffffffff166323b872dd3033856040518463ffffffff1660e01b8152600401610741939291906150fe565b600060405180830381600087803b15801561075b57600080fd5b505af115801561076f573d6000803e3d6000fd5b505050508073ffffffffffffffffffffffffffffffffffffffff166108fc349081150290604051600060405180830381858888f193505050501580156107b9573d6000803e3d6000fd5b50847f5352ac602b276106b740de31546b729325b98e18c87e86cde3dd97f9726a734b33856040516107ec929190615135565b60405180910390a2505050506108006147a5565b5050565b6060600061081260016147af565b9050600061082060026147af565b61082a60016147af565b610834919061518d565b90506000808267ffffffffffffffff81111561085357610852614e35565b5b60405190808252806020026020018201604052801561088c57816020015b610879614819565b8152602001906001900390816108715790505b50905060005b84811015610c02576040516020016108a990615218565b60405160208183030381529060405280519060200120600460006001846108d0919061522d565b81526020019081526020016000206007016040516020016108f19190615359565b6040516020818303038152906040528051906020012014801561094757506000151560046000600184610924919061522d565b815260200190815260200160002060080160009054906101000a900460ff161515145b15610bef57600060018261095b919061522d565b9050600060046000838152602001908152602001600020905080604051806101400160405290816000820160009054906101000a900473ffffffffffffffffffffffffffffffffffffffff1673ffffffffffffffffffffffffffffffffffffffff1673ffffffffffffffffffffffffffffffffffffffff16815260200160018201548152602001600282015481526020016003820160009054906101000a900473ffffffffffffffffffffffffffffffffffffffff1673ffffffffffffffffffffffffffffffffffffffff1673ffffffffffffffffffffffffffffffffffffffff1681526020016004820160009054906101000a900473ffffffffffffffffffffffffffffffffffffffff1673ffffffffffffffffffffffffffffffffffffffff1673ffffffffffffffffffffffffffffffffffffffff1681526020016005820160009054906101000a900473ffffffffffffffffffffffffffffffffffffffff1673ffffffffffffffffffffffffffffffffffffffff1673ffffffffffffffffffffffffffffffffffffffff16815260200160068201548152602001600782018054610b0790615290565b80601f0160208091040260200160405190810160405280929190818152602001828054610b3390615290565b8015610b805780601f10610b5557610100808354040283529160200191610b80565b820191906000526020600020905b815481529060010190602001808311610b6357829003601f168201915b505050505081526020016008820160009054906101000a900460ff161515151581526020016008820160019054906101000a900460ff161515151581525050848681518110610bd257610bd1615370565b5b6020026020010181905250600185610bea919061522d565b945050505b8080610bfa9061539f565b915050610892565b508094505050505090565b60606000610c1b60016147af565b905060008060005b83811015610cc3573373ffffffffffffffffffffffffffffffffffffffff1660046000600184610c53919061522d565b815260200190815260200160002060030160009054906101000a900473ffffffffffffffffffffffffffffffffffffffff1673ffffffffffffffffffffffffffffffffffffffff1603610cb057600183610cad919061522d565b92505b8080610cbb9061539f565b915050610c23565b5060008267ffffffffffffffff811115610ce057610cdf614e35565b5b604051908082528060200260200182016040528015610d1957816020015b610d06614819565b815260200190600190039081610cfe5790505b50905060005b84811015611052573373ffffffffffffffffffffffffffffffffffffffff1660046000600184610d4f919061522d565b815260200190815260200160002060030160009054906101000a900473ffffffffffffffffffffffffffffffffffffffff1673ffffffffffffffffffffffffffffffffffffffff160361103f576000600182610dab919061522d565b9050600060046000838152602001908152602001600020905080604051806101400160405290816000820160009054906101000a900473ffffffffffffffffffffffffffffffffffffffff1673ffffffffffffffffffffffffffffffffffffffff1673ffffffffffffffffffffffffffffffffffffffff16815260200160018201548152602001600282015481526020016003820160009054906101000a900473ffffffffffffffffffffffffffffffffffffffff1673ffffffffffffffffffffffffffffffffffffffff1673ffffffffffffffffffffffffffffffffffffffff1681526020016004820160009054906101000a900473ffffffffffffffffffffffffffffffffffffffff1673ffffffffffffffffffffffffffffffffffffffff1673ffffffffffffffffffffffffffffffffffffffff1681526020016005820160009054906101000a900473ffffffffffffffffffffffffffffffffffffffff1673ffffffffffffffffffffffffffffffffffffffff1673ffffffffffffffffffffffffffffffffffffffff16815260200160068201548152602001600782018054610f5790615290565b80601f0160208091040260200160405190810160405280929190818152602001828054610f8390615290565b8015610fd05780601f10610fa557610100808354040283529160200191610fd0565b820191906000526020600020905b815481529060010190602001808311610fb357829003601f168201915b505050505081526020016008820160009054906101000a900460ff161515151581526020016008820160019054906101000a900460ff16151515158152505084868151811061102257611021615370565b5b602002602001018190525060018561103a919061522d565b945050505b808061104a9061539f565b915050610d1f565b508094505050505090565b6060600061106b60016147af565b9050600061107960026147af565b61108360016147af565b61108d919061518d565b90506000808267ffffffffffffffff8111156110ac576110ab614e35565b5b6040519080825280602002602001820160405280156110e557816020015b6110d2614819565b8152602001906001900390816110ca5790505b50905060005b8481101561145b5760405160200161110290615433565b6040516020818303038152906040528051906020012060046000600184611129919061522d565b815260200190815260200160002060070160405160200161114a9190615359565b604051602081830303815290604052805190602001201480156111a05750600015156004600060018461117d919061522d565b815260200190815260200160002060080160009054906101000a900460ff161515145b156114485760006001826111b4919061522d565b9050600060046000838152602001908152602001600020905080604051806101400160405290816000820160009054906101000a900473ffffffffffffffffffffffffffffffffffffffff1673ffffffffffffffffffffffffffffffffffffffff1673ffffffffffffffffffffffffffffffffffffffff16815260200160018201548152602001600282015481526020016003820160009054906101000a900473ffffffffffffffffffffffffffffffffffffffff1673ffffffffffffffffffffffffffffffffffffffff1673ffffffffffffffffffffffffffffffffffffffff1681526020016004820160009054906101000a900473ffffffffffffffffffffffffffffffffffffffff1673ffffffffffffffffffffffffffffffffffffffff1673ffffffffffffffffffffffffffffffffffffffff1681526020016005820160009054906101000a900473ffffffffffffffffffffffffffffffffffffffff1673ffffffffffffffffffffffffffffffffffffffff1673ffffffffffffffffffffffffffffffffffffffff1681526020016006820154815260200160078201805461136090615290565b80601f016020809104026020016040519081016040528092919081815260200182805461138c90615290565b80156113d95780601f106113ae576101008083540402835291602001916113d9565b820191906000526020600020905b8154815290600101906020018083116113bc57829003601f168201915b505050505081526020016008820160009054906101000a900460ff161515151581526020016008820160019054906101000a900460ff16151515158152505084868151811061142b5761142a615370565b5b6020026020010181905250600185611443919061522d565b945050505b80806114539061539f565b9150506110eb565b508094505050505090565b61146e614740565b6000600560008381526020019081526020016000205490503373ffffffffffffffffffffffffffffffffffffffff166004600083815260200190815260200160002060030160009054906101000a900473ffffffffffffffffffffffffffffffffffffffff1673ffffffffffffffffffffffffffffffffffffffff161461152a576040517f08c379a0000000000000000000000000000000000000000000000000000000008152600401611521906154ba565b60405180910390fd5b60008390508073ffffffffffffffffffffffffffffffffffffffff1663f5537ede3330866040518463ffffffff1660e01b815260040161156c939291906150fe565b600060405180830381600087803b15801561158657600080fd5b505af115801561159a573d6000803e3d6000fd5b5050505060006004600084815260200190815260200160002060080160006101000a81548160ff021916908315150217905550846004600084815260200190815260200160002060060181905550336004600084815260200190815260200160002060050160006101000a81548173ffffffffffffffffffffffffffffffffffffffff021916908373ffffffffffffffffffffffffffffffffffffffff160217905550306004600084815260200190815260200160002060030160006101000a81548173ffffffffffffffffffffffffffffffffffffffff021916908373ffffffffffffffffffffffffffffffffffffffff16021790555061169c60026147bd565b827f43fd502c2b3ccce9ab96e3398308b712eb7ff697a75a2afe87316bdf94af0efe3033886040516116d0939291906150fe565b60405180910390a250506116e26147a5565b505050565b6000806005600084815260200190815260200160002054111561170d5760019050611712565b600090505b919050565b6060600061172560016147af565b9050600061173360026147af565b61173d60016147af565b611747919061518d565b90506000808267ffffffffffffffff81111561176657611765614e35565b5b60405190808252806020026020018201604052801561179f57816020015b61178c614819565b8152602001906001900390816117845790505b50905060005b84811015611b15576040516020016117bc90615526565b60405160208183030381529060405280519060200120600460006001846117e3919061522d565b81526020019081526020016000206007016040516020016118049190615359565b6040516020818303038152906040528051906020012014801561185a57506000151560046000600184611837919061522d565b815260200190815260200160002060080160009054906101000a900460ff161515145b15611b0257600060018261186e919061522d565b9050600060046000838152602001908152602001600020905080604051806101400160405290816000820160009054906101000a900473ffffffffffffffffffffffffffffffffffffffff1673ffffffffffffffffffffffffffffffffffffffff1673ffffffffffffffffffffffffffffffffffffffff16815260200160018201548152602001600282015481526020016003820160009054906101000a900473ffffffffffffffffffffffffffffffffffffffff1673ffffffffffffffffffffffffffffffffffffffff1673ffffffffffffffffffffffffffffffffffffffff1681526020016004820160009054906101000a900473ffffffffffffffffffffffffffffffffffffffff1673ffffffffffffffffffffffffffffffffffffffff1673ffffffffffffffffffffffffffffffffffffffff1681526020016005820160009054906101000a900473ffffffffffffffffffffffffffffffffffffffff1673ffffffffffffffffffffffffffffffffffffffff1673ffffffffffffffffffffffffffffffffffffffff16815260200160068201548152602001600782018054611a1a90615290565b80601f0160208091040260200160405190810160405280929190818152602001828054611a4690615290565b8015611a935780601f10611a6857610100808354040283529160200191611a93565b820191906000526020600020905b815481529060010190602001808311611a7657829003601f168201915b505050505081526020016008820160009054906101000a900460ff161515151581526020016008820160019054906101000a900460ff161515151581525050848681518110611ae557611ae4615370565b5b6020026020010181905250600185611afd919061522d565b945050505b8080611b0d9061539f565b9150506117a5565b508094505050505090565b60606000611b2e60016147af565b905060008060005b83811015611bd6573373ffffffffffffffffffffffffffffffffffffffff1660046000600184611b66919061522d565b815260200190815260200160002060050160009054906101000a900473ffffffffffffffffffffffffffffffffffffffff1673ffffffffffffffffffffffffffffffffffffffff1603611bc357600183611bc0919061522d565b92505b8080611bce9061539f565b915050611b36565b5060008267ffffffffffffffff811115611bf357611bf2614e35565b5b604051908082528060200260200182016040528015611c2c57816020015b611c19614819565b815260200190600190039081611c115790505b50905060005b84811015611f65573373ffffffffffffffffffffffffffffffffffffffff1660046000600184611c62919061522d565b815260200190815260200160002060050160009054906101000a900473ffffffffffffffffffffffffffffffffffffffff1673ffffffffffffffffffffffffffffffffffffffff1603611f52576000600182611cbe919061522d565b9050600060046000838152602001908152602001600020905080604051806101400160405290816000820160009054906101000a900473ffffffffffffffffffffffffffffffffffffffff1673ffffffffffffffffffffffffffffffffffffffff1673ffffffffffffffffffffffffffffffffffffffff16815260200160018201548152602001600282015481526020016003820160009054906101000a900473ffffffffffffffffffffffffffffffffffffffff1673ffffffffffffffffffffffffffffffffffffffff1673ffffffffffffffffffffffffffffffffffffffff1681526020016004820160009054906101000a900473ffffffffffffffffffffffffffffffffffffffff1673ffffffffffffffffffffffffffffffffffffffff1673ffffffffffffffffffffffffffffffffffffffff1681526020016005820160009054906101000a900473ffffffffffffffffffffffffffffffffffffffff1673ffffffffffffffffffffffffffffffffffffffff1673ffffffffffffffffffffffffffffffffffffffff16815260200160068201548152602001600782018054611e6a90615290565b80601f0160208091040260200160405190810160405280929190818152602001828054611e9690615290565b8015611ee35780601f10611eb857610100808354040283529160200191611ee3565b820191906000526020600020905b815481529060010190602001808311611ec657829003601f168201915b505050505081526020016008820160009054906101000a900460ff161515151581526020016008820160019054906101000a900460ff161515151581525050848681518110611f3557611f34615370565b5b6020026020010181905250600185611f4d919061522d565b945050505b8080611f5d9061539f565b915050611c32565b508094505050505090565b60606000611f7e60016147af565b905060008060005b8381101561209f578573ffffffffffffffffffffffffffffffffffffffff1660046000600184611fb6919061522d565b815260200190815260200160002060050160009054906101000a900473ffffffffffffffffffffffffffffffffffffffff1673ffffffffffffffffffffffffffffffffffffffff16148061207757508573ffffffffffffffffffffffffffffffffffffffff166004600060018461202d919061522d565b815260200190815260200160002060030160009054906101000a900473ffffffffffffffffffffffffffffffffffffffff1673ffffffffffffffffffffffffffffffffffffffff16145b1561208c57600183612089919061522d565b92505b80806120979061539f565b915050611f86565b5060008267ffffffffffffffff8111156120bc576120bb614e35565b5b6040519080825280602002602001820160405280156120f557816020015b6120e2614819565b8152602001906001900390816120da5790505b50905060005b848110156124a7578673ffffffffffffffffffffffffffffffffffffffff166004600060018461212b919061522d565b815260200190815260200160002060050160009054906101000a900473ffffffffffffffffffffffffffffffffffffffff1673ffffffffffffffffffffffffffffffffffffffff1614806121ec57508673ffffffffffffffffffffffffffffffffffffffff16600460006001846121a2919061522d565b815260200190815260200160002060030160009054906101000a900473ffffffffffffffffffffffffffffffffffffffff1673ffffffffffffffffffffffffffffffffffffffff16145b15612494576000600182612200919061522d565b9050600060046000838152602001908152602001600020905080604051806101400160405290816000820160009054906101000a900473ffffffffffffffffffffffffffffffffffffffff1673ffffffffffffffffffffffffffffffffffffffff1673ffffffffffffffffffffffffffffffffffffffff16815260200160018201548152602001600282015481526020016003820160009054906101000a900473ffffffffffffffffffffffffffffffffffffffff1673ffffffffffffffffffffffffffffffffffffffff1673ffffffffffffffffffffffffffffffffffffffff1681526020016004820160009054906101000a900473ffffffffffffffffffffffffffffffffffffffff1673ffffffffffffffffffffffffffffffffffffffff1673ffffffffffffffffffffffffffffffffffffffff1681526020016005820160009054906101000a900473ffffffffffffffffffffffffffffffffffffffff1673ffffffffffffffffffffffffffffffffffffffff1673ffffffffffffffffffffffffffffffffffffffff168152602001600682015481526020016007820180546123ac90615290565b80601f01602080910402602001604051908101604052809291908181526020018280546123d890615290565b80156124255780601f106123fa57610100808354040283529160200191612425565b820191906000526020600020905b81548152906001019060200180831161240857829003601f168201915b505050505081526020016008820160009054906101000a900460ff161515151581526020016008820160019054906101000a900460ff16151515158152505084868151811061247757612476615370565b5b602002602001018190525060018561248f919061522d565b945050505b808061249f9061539f565b9150506120fb565b5080945050505050919050565b606060006124c260016147af565b905060006124d060026147af565b6124da60016147af565b6124e4919061518d565b90506000808267ffffffffffffffff81111561250357612502614e35565b5b60405190808252806020026020018201604052801561253c57816020015b612529614819565b8152602001906001900390816125215790505b50905060005b848110156128b25760405160200161255990615587565b6040516020818303038152906040528051906020012060046000600184612580919061522d565b81526020019081526020016000206007016040516020016125a19190615359565b604051602081830303815290604052805190602001201480156125f7575060001515600460006001846125d4919061522d565b815260200190815260200160002060080160009054906101000a900460ff161515145b1561289f57600060018261260b919061522d565b9050600060046000838152602001908152602001600020905080604051806101400160405290816000820160009054906101000a900473ffffffffffffffffffffffffffffffffffffffff1673ffffffffffffffffffffffffffffffffffffffff1673ffffffffffffffffffffffffffffffffffffffff16815260200160018201548152602001600282015481526020016003820160009054906101000a900473ffffffffffffffffffffffffffffffffffffffff1673ffffffffffffffffffffffffffffffffffffffff1673ffffffffffffffffffffffffffffffffffffffff1681526020016004820160009054906101000a900473ffffffffffffffffffffffffffffffffffffffff1673ffffffffffffffffffffffffffffffffffffffff1673ffffffffffffffffffffffffffffffffffffffff1681526020016005820160009054906101000a900473ffffffffffffffffffffffffffffffffffffffff1673ffffffffffffffffffffffffffffffffffffffff1673ffffffffffffffffffffffffffffffffffffffff168152602001600682015481526020016007820180546127b790615290565b80601f01602080910402602001604051908101604052809291908181526020018280546127e390615290565b80156128305780601f1061280557610100808354040283529160200191612830565b820191906000526020600020905b81548152906001019060200180831161281357829003601f168201915b505050505081526020016008820160009054906101000a900460ff161515151581526020016008820160019054906101000a900460ff16151515158152505084868151811061288257612881615370565b5b602002602001018190525060018561289a919061522d565b945050505b80806128aa9061539f565b915050612542565b508094505050505090565b6128c5614740565b6000600560008381526020019081526020016000205490506004600082815260200190815260200160002060050160009054906101000a900473ffffffffffffffffffffffffffffffffffffffff1673ffffffffffffffffffffffffffffffffffffffff163373ffffffffffffffffffffffffffffffffffffffff1614806129ae57506004600082815260200190815260200160002060040160009054906101000a900473ffffffffffffffffffffffffffffffffffffffff1673ffffffffffffffffffffffffffffffffffffffff163373ffffffffffffffffffffffffffffffffffffffff16145b6129ed576040517f08c379a00000000000000000000000000000000000000000000000000000000081526004016129e49061560e565b60405180910390fd5b60016004600083815260200190815260200160002060080160006101000a81548160ff02191690831515021790555083600460008381526020019081526020016000206006018190555060006004600083815260200190815260200160002060050160006101000a81548173ffffffffffffffffffffffffffffffffffffffff021916908373ffffffffffffffffffffffffffffffffffffffff160217905550336004600083815260200190815260200160002060030160006101000a81548173ffffffffffffffffffffffffffffffffffffffff021916908373ffffffffffffffffffffffffffffffffffffffff16021790555060016004600083815260200190815260200160002060080160016101000a81548160ff021916908315150217905550612b1b600261478f565b8273ffffffffffffffffffffffffffffffffffffffff166323b872dd3033856040518463ffffffff1660e01b8152600401612b58939291906150fe565b600060405180830381600087803b158015612b7257600080fd5b505af1158015612b86573d6000803e3d6000fd5b50505050817fdbe18d9dd8643fa7e3222cffee0423f082934c039103e454dd8791854b442e913386604051612bbc929190615135565b60405180910390a250612bcd6147a5565b505050565b60606000612be060016147af565b90506000612bee60026147af565b612bf860016147af565b612c02919061518d565b90506000808267ffffffffffffffff811115612c2157612c20614e35565b5b604051908082528060200260200182016040528015612c5a57816020015b612c47614819565b815260200190600190039081612c3f5790505b50905060005b84811015612f93573073ffffffffffffffffffffffffffffffffffffffff1660046000600184612c90919061522d565b815260200190815260200160002060030160009054906101000a900473ffffffffffffffffffffffffffffffffffffffff1673ffffffffffffffffffffffffffffffffffffffff1603612f80576000600182612cec919061522d565b9050600060046000838152602001908152602001600020905080604051806101400160405290816000820160009054906101000a900473ffffffffffffffffffffffffffffffffffffffff1673ffffffffffffffffffffffffffffffffffffffff1673ffffffffffffffffffffffffffffffffffffffff16815260200160018201548152602001600282015481526020016003820160009054906101000a900473ffffffffffffffffffffffffffffffffffffffff1673ffffffffffffffffffffffffffffffffffffffff1673ffffffffffffffffffffffffffffffffffffffff1681526020016004820160009054906101000a900473ffffffffffffffffffffffffffffffffffffffff1673ffffffffffffffffffffffffffffffffffffffff1673ffffffffffffffffffffffffffffffffffffffff1681526020016005820160009054906101000a900473ffffffffffffffffffffffffffffffffffffffff1673ffffffffffffffffffffffffffffffffffffffff1673ffffffffffffffffffffffffffffffffffffffff16815260200160068201548152602001600782018054612e9890615290565b80601f0160208091040260200160405190810160405280929190818152602001828054612ec490615290565b8015612f115780601f10612ee657610100808354040283529160200191612f11565b820191906000526020600020905b815481529060010190602001808311612ef457829003601f168201915b505050505081526020016008820160009054906101000a900460ff161515151581526020016008820160019054906101000a900460ff161515151581525050848681518110612f6357612f62615370565b5b6020026020010181905250600185612f7b919061522d565b945050505b8080612f8b9061539f565b915050612c60565b508094505050505090565b60606000612fac60016147af565b905060008060005b83811015613054573373ffffffffffffffffffffffffffffffffffffffff1660046000600184612fe4919061522d565b815260200190815260200160002060050160009054906101000a900473ffffffffffffffffffffffffffffffffffffffff1673ffffffffffffffffffffffffffffffffffffffff16036130415760018361303e919061522d565b92505b808061304c9061539f565b915050612fb4565b5060008267ffffffffffffffff81111561307157613070614e35565b5b6040519080825280602002602001820160405280156130aa57816020015b613097614819565b81526020019060019003908161308f5790505b50905060005b848110156133e3573373ffffffffffffffffffffffffffffffffffffffff16600460006001846130e0919061522d565b815260200190815260200160002060050160009054906101000a900473ffffffffffffffffffffffffffffffffffffffff1673ffffffffffffffffffffffffffffffffffffffff16036133d057600060018261313c919061522d565b9050600060046000838152602001908152602001600020905080604051806101400160405290816000820160009054906101000a900473ffffffffffffffffffffffffffffffffffffffff1673ffffffffffffffffffffffffffffffffffffffff1673ffffffffffffffffffffffffffffffffffffffff16815260200160018201548152602001600282015481526020016003820160009054906101000a900473ffffffffffffffffffffffffffffffffffffffff1673ffffffffffffffffffffffffffffffffffffffff1673ffffffffffffffffffffffffffffffffffffffff1681526020016004820160009054906101000a900473ffffffffffffffffffffffffffffffffffffffff1673ffffffffffffffffffffffffffffffffffffffff1673ffffffffffffffffffffffffffffffffffffffff1681526020016005820160009054906101000a900473ffffffffffffffffffffffffffffffffffffffff1673ffffffffffffffffffffffffffffffffffffffff1673ffffffffffffffffffffffffffffffffffffffff168152602001600682015481526020016007820180546132e890615290565b80601f016020809104026020016040519081016040528092919081815260200182805461331490615290565b80156133615780601f1061333657610100808354040283529160200191613361565b820191906000526020600020905b81548152906001019060200180831161334457829003601f168201915b505050505081526020016008820160009054906101000a900460ff161515151581526020016008820160019054906101000a900460ff1615151515815250508486815181106133b3576133b2615370565b5b60200260200101819052506001856133cb919061522d565b945050505b80806133db9061539f565b9150506130b0565b508094505050505090565b6133f6614819565b60006005600084815260200190815260200160002054905060046000828152602001908152602001600020604051806101400160405290816000820160009054906101000a900473ffffffffffffffffffffffffffffffffffffffff1673ffffffffffffffffffffffffffffffffffffffff1673ffffffffffffffffffffffffffffffffffffffff16815260200160018201548152602001600282015481526020016003820160009054906101000a900473ffffffffffffffffffffffffffffffffffffffff1673ffffffffffffffffffffffffffffffffffffffff1673ffffffffffffffffffffffffffffffffffffffff1681526020016004820160009054906101000a900473ffffffffffffffffffffffffffffffffffffffff1673ffffffffffffffffffffffffffffffffffffffff1673ffffffffffffffffffffffffffffffffffffffff1681526020016005820160009054906101000a900473ffffffffffffffffffffffffffffffffffffffff1673ffffffffffffffffffffffffffffffffffffffff1673ffffffffffffffffffffffffffffffffffffffff168152602001600682015481526020016007820180546135b390615290565b80601f01602080910402602001604051908101604052809291908181526020018280546135df90615290565b801561362c5780601f106136015761010080835404028352916020019161362c565b820191906000526020600020905b81548152906001019060200180831161360f57829003601f168201915b505050505081526020016008820160009054906101000a900460ff161515151581526020016008820160019054906101000a900460ff161515151581525050915050919050565b6060600061368160016147af565b905060008060005b83811015613729573373ffffffffffffffffffffffffffffffffffffffff16600460006001846136b9919061522d565b815260200190815260200160002060040160009054906101000a900473ffffffffffffffffffffffffffffffffffffffff1673ffffffffffffffffffffffffffffffffffffffff160361371657600183613713919061522d565b92505b80806137219061539f565b915050613689565b5060008267ffffffffffffffff81111561374657613745614e35565b5b60405190808252806020026020018201604052801561377f57816020015b61376c614819565b8152602001906001900390816137645790505b50905060005b84811015613ab8573373ffffffffffffffffffffffffffffffffffffffff16600460006001846137b5919061522d565b815260200190815260200160002060040160009054906101000a900473ffffffffffffffffffffffffffffffffffffffff1673ffffffffffffffffffffffffffffffffffffffff1603613aa5576000600182613811919061522d565b9050600060046000838152602001908152602001600020905080604051806101400160405290816000820160009054906101000a900473ffffffffffffffffffffffffffffffffffffffff1673ffffffffffffffffffffffffffffffffffffffff1673ffffffffffffffffffffffffffffffffffffffff16815260200160018201548152602001600282015481526020016003820160009054906101000a900473ffffffffffffffffffffffffffffffffffffffff1673ffffffffffffffffffffffffffffffffffffffff1673ffffffffffffffffffffffffffffffffffffffff1681526020016004820160009054906101000a900473ffffffffffffffffffffffffffffffffffffffff1673ffffffffffffffffffffffffffffffffffffffff1673ffffffffffffffffffffffffffffffffffffffff1681526020016005820160009054906101000a900473ffffffffffffffffffffffffffffffffffffffff1673ffffffffffffffffffffffffffffffffffffffff1673ffffffffffffffffffffffffffffffffffffffff168152602001600682015481526020016007820180546139bd90615290565b80601f01602080910402602001604051908101604052809291908181526020018280546139e990615290565b8015613a365780601f10613a0b57610100808354040283529160200191613a36565b820191906000526020600020905b815481529060010190602001808311613a1957829003601f168201915b505050505081526020016008820160009054906101000a900460ff161515151581526020016008820160019054906101000a900460ff161515151581525050848681518110613a8857613a87615370565b5b6020026020010181905250600185613aa0919061522d565b945050505b8080613ab09061539f565b915050613785565b508094505050505090565b60606000613ad160016147af565b90506000613adf60026147af565b613ae960016147af565b613af3919061518d565b90506000808267ffffffffffffffff811115613b1257613b11614e35565b5b604051908082528060200260200182016040528015613b4b57816020015b613b38614819565b815260200190600190039081613b305790505b50905060005b84811015613ec157604051602001613b689061567a565b6040516020818303038152906040528051906020012060046000600184613b8f919061522d565b8152602001908152602001600020600701604051602001613bb09190615359565b60405160208183030381529060405280519060200120148015613c0657506000151560046000600184613be3919061522d565b815260200190815260200160002060080160009054906101000a900460ff161515145b15613eae576000600182613c1a919061522d565b9050600060046000838152602001908152602001600020905080604051806101400160405290816000820160009054906101000a900473ffffffffffffffffffffffffffffffffffffffff1673ffffffffffffffffffffffffffffffffffffffff1673ffffffffffffffffffffffffffffffffffffffff16815260200160018201548152602001600282015481526020016003820160009054906101000a900473ffffffffffffffffffffffffffffffffffffffff1673ffffffffffffffffffffffffffffffffffffffff1673ffffffffffffffffffffffffffffffffffffffff1681526020016004820160009054906101000a900473ffffffffffffffffffffffffffffffffffffffff1673ffffffffffffffffffffffffffffffffffffffff1673ffffffffffffffffffffffffffffffffffffffff1681526020016005820160009054906101000a900473ffffffffffffffffffffffffffffffffffffffff1673ffffffffffffffffffffffffffffffffffffffff1673ffffffffffffffffffffffffffffffffffffffff16815260200160068201548152602001600782018054613dc690615290565b80601f0160208091040260200160405190810160405280929190818152602001828054613df290615290565b8015613e3f5780601f10613e1457610100808354040283529160200191613e3f565b820191906000526020600020905b815481529060010190602001808311613e2257829003601f168201915b505050505081526020016008820160009054906101000a900460ff161515151581526020016008820160019054906101000a900460ff161515151581525050848681518110613e9157613e90615370565b5b6020026020010181905250600185613ea9919061522d565b945050505b8080613eb99061539f565b915050613b51565b508094505050505090565b613ed4614740565b60008511613f17576040517f08c379a0000000000000000000000000000000000000000000000000000000008152600401613f0e906156db565b60405180910390fd5b606060008590508073ffffffffffffffffffffffffffffffffffffffff16637c428edb856040518263ffffffff1660e01b8152600401613f5791906156fb565b600060405180830381865afa158015613f74573d6000803e3d6000fd5b505050506040513d6000823e3d601f19601f82011682018060405250810190613f9d91906157f3565b91506000805b835181108015613fb257508482105b1561432457613fc1600161478f565b6000613fcd60016147af565b90506000858381518110613fe457613fe3615370565b5b60200260200101519050613ff7816116e7565b61430f578160056000838152602001908152602001600020819055506040518061014001604052808b73ffffffffffffffffffffffffffffffffffffffff1681526020018281526020018981526020013073ffffffffffffffffffffffffffffffffffffffff1681526020013373ffffffffffffffffffffffffffffffffffffffff1681526020013373ffffffffffffffffffffffffffffffffffffffff1681526020018c81526020018a8152602001600015158152602001600015158152506004600084815260200190815260200160002060008201518160000160006101000a81548173ffffffffffffffffffffffffffffffffffffffff021916908373ffffffffffffffffffffffffffffffffffffffff160217905550602082015181600101556040820151816002015560608201518160030160006101000a81548173ffffffffffffffffffffffffffffffffffffffff021916908373ffffffffffffffffffffffffffffffffffffffff16021790555060808201518160040160006101000a81548173ffffffffffffffffffffffffffffffffffffffff021916908373ffffffffffffffffffffffffffffffffffffffff16021790555060a08201518160050160006101000a81548173ffffffffffffffffffffffffffffffffffffffff021916908373ffffffffffffffffffffffffffffffffffffffff16021790555060c0820151816006015560e082015181600701908161421991906159d3565b506101008201518160080160006101000a81548160ff0219169083151502179055506101208201518160080160016101000a81548160ff0219169083151502179055509050508973ffffffffffffffffffffffffffffffffffffffff166323b872dd3330846040518463ffffffff1660e01b815260040161429c939291906150fe565b600060405180830381600087803b1580156142b657600080fd5b505af11580156142ca573d6000803e3d6000fd5b50505050807f689c57670c8e40f44221a2315f641f7d8716ff0cdf318453185ff7e65686c8b98933338f8e604051614306959493929190615ade565b60405180910390a25b5050808061431c9061539f565b915050613fa3565b505050506143306147a5565b5050505050565b6060600061434560016147af565b9050600061435360026147af565b61435d60016147af565b614367919061518d565b90506000808267ffffffffffffffff81111561438657614385614e35565b5b6040519080825280602002602001820160405280156143bf57816020015b6143ac614819565b8152602001906001900390816143a45790505b50905060005b84811015614735576040516020016143dc90615b84565b6040516020818303038152906040528051906020012060046000600184614403919061522d565b81526020019081526020016000206007016040516020016144249190615359565b6040516020818303038152906040528051906020012014801561447a57506000151560046000600184614457919061522d565b815260200190815260200160002060080160009054906101000a900460ff161515145b1561472257600060018261448e919061522d565b9050600060046000838152602001908152602001600020905080604051806101400160405290816000820160009054906101000a900473ffffffffffffffffffffffffffffffffffffffff1673ffffffffffffffffffffffffffffffffffffffff1673ffffffffffffffffffffffffffffffffffffffff16815260200160018201548152602001600282015481526020016003820160009054906101000a900473ffffffffffffffffffffffffffffffffffffffff1673ffffffffffffffffffffffffffffffffffffffff1673ffffffffffffffffffffffffffffffffffffffff1681526020016004820160009054906101000a900473ffffffffffffffffffffffffffffffffffffffff1673ffffffffffffffffffffffffffffffffffffffff1673ffffffffffffffffffffffffffffffffffffffff1681526020016005820160009054906101000a900473ffffffffffffffffffffffffffffffffffffffff1673ffffffffffffffffffffffffffffffffffffffff1673ffffffffffffffffffffffffffffffffffffffff1681526020016006820154815260200160078201805461463a90615290565b80601f016020809104026020016040519081016040528092919081815260200182805461466690615290565b80156146b35780601f10614688576101008083540402835291602001916146b3565b820191906000526020600020905b81548152906001019060200180831161469657829003601f168201915b505050505081526020016008820160009054906101000a900460ff161515151581526020016008820160019054906101000a900460ff16151515158152505084868151811061470557614704615370565b5b602002602001018190525060018561471d919061522d565b945050505b808061472d9061539f565b9150506143c5565b508094505050505090565b600260005403614785576040517f08c379a000000000000000000000000000000000000000000000000000000000815260040161477c90615be5565b60405180910390fd5b6002600081905550565b6001816000016000828254019250508190555050565b6001600081905550565b600081600001549050919050565b60008160000154905060008111614809576040517f08c379a000000000000000000000000000000000000000000000000000000000815260040161480090615c51565b60405180910390fd5b6001810382600001819055505050565b604051806101400160405280600073ffffffffffffffffffffffffffffffffffffffff1681526020016000815260200160008152602001600073ffffffffffffffffffffffffffffffffffffffff168152602001600073ffffffffffffffffffffffffffffffffffffffff168152602001600073ffffffffffffffffffffffffffffffffffffffff16815260200160008152602001606081526020016000151581526020016000151581525090565b6000604051905090565b600080fd5b600080fd5b6000819050919050565b6148ef816148dc565b81146148fa57600080fd5b50565b60008135905061490c816148e6565b92915050565b600060208284031215614928576149276148d2565b5b6000614936848285016148fd565b91505092915050565b60008115159050919050565b6149548161493f565b82525050565b600060208201905061496f600083018461494b565b92915050565b600073ffffffffffffffffffffffffffffffffffffffff82169050919050565b60006149a082614975565b9050919050565b6149b081614995565b81146149bb57600080fd5b50565b6000813590506149cd816149a7565b92915050565b600080604083850312156149ea576149e96148d2565b5b60006149f8858286016149be565b9250506020614a09858286016148fd565b9150509250929050565b600081519050919050565b600082825260208201905092915050565b6000819050602082019050919050565b614a4881614995565b82525050565b614a57816148dc565b82525050565b6000614a6882614975565b9050919050565b614a7881614a5d565b82525050565b600081519050919050565b600082825260208201905092915050565b60005b83811015614ab8578082015181840152602081019050614a9d565b60008484015250505050565b6000601f19601f8301169050919050565b6000614ae082614a7e565b614aea8185614a89565b9350614afa818560208601614a9a565b614b0381614ac4565b840191505092915050565b614b178161493f565b82525050565b600061014083016000830151614b366000860182614a3f565b506020830151614b496020860182614a4e565b506040830151614b5c6040860182614a4e565b506060830151614b6f6060860182614a6f565b506080830151614b826080860182614a6f565b5060a0830151614b9560a0860182614a6f565b5060c0830151614ba860c0860182614a4e565b5060e083015184820360e0860152614bc08282614ad5565b915050610100830151614bd7610100860182614b0e565b50610120830151614bec610120860182614b0e565b508091505092915050565b6000614c038383614b1d565b905092915050565b6000602082019050919050565b6000614c2382614a13565b614c2d8185614a1e565b935083602082028501614c3f85614a2f565b8060005b85811015614c7b5784840389528151614c5c8582614bf7565b9450614c6783614c0b565b925060208a01995050600181019050614c43565b50829750879550505050505092915050565b60006020820190508181036000830152614ca78184614c18565b905092915050565b600080600060608486031215614cc857614cc76148d2565b5b6000614cd6868287016148fd565b9350506020614ce7868287016149be565b9250506040614cf8868287016148fd565b9150509250925092565b600060208284031215614d1857614d176148d2565b5b6000614d26848285016149be565b91505092915050565b600061014083016000830151614d486000860182614a3f565b506020830151614d5b6020860182614a4e565b506040830151614d6e6040860182614a4e565b506060830151614d816060860182614a6f565b506080830151614d946080860182614a6f565b5060a0830151614da760a0860182614a6f565b5060c0830151614dba60c0860182614a4e565b5060e083015184820360e0860152614dd28282614ad5565b915050610100830151614de9610100860182614b0e565b50610120830151614dfe610120860182614b0e565b508091505092915050565b60006020820190508181036000830152614e238184614d2f565b905092915050565b600080fd5b600080fd5b7f4e487b7100000000000000000000000000000000000000000000000000000000600052604160045260246000fd5b614e6d82614ac4565b810181811067ffffffffffffffff82111715614e8c57614e8b614e35565b5b80604052505050565b6000614e9f6148c8565b9050614eab8282614e64565b919050565b600067ffffffffffffffff821115614ecb57614eca614e35565b5b614ed482614ac4565b9050602081019050919050565b82818337600083830152505050565b6000614f03614efe84614eb0565b614e95565b905082815260208101848484011115614f1f57614f1e614e30565b5b614f2a848285614ee1565b509392505050565b600082601f830112614f4757614f46614e2b565b5b8135614f57848260208601614ef0565b91505092915050565b600080600080600060a08688031215614f7c57614f7b6148d2565b5b6000614f8a888289016148fd565b9550506020614f9b888289016149be565b945050604086013567ffffffffffffffff811115614fbc57614fbb6148d7565b5b614fc888828901614f32565b9350506060614fd9888289016148fd565b9250506080614fea888289016148fd565b9150509295509295909350565b600082825260208201905092915050565b7f506c6561736520706179207468652061736b696e672070726963650000000000600082015250565b600061503e601b83614ff7565b915061504982615008565b602082019050919050565b6000602082019050818103600083015261506d81615031565b9050919050565b7f4974656d20686173206265656e20616c726561647920736f6c64000000000000600082015250565b60006150aa601a83614ff7565b91506150b582615074565b602082019050919050565b600060208201905081810360008301526150d98161509d565b9050919050565b6150e981614995565b82525050565b6150f8816148dc565b82525050565b600060608201905061511360008301866150e0565b61512060208301856150e0565b61512d60408301846150ef565b949350505050565b600060408201905061514a60008301856150e0565b61515760208301846150ef565b9392505050565b7f4e487b7100000000000000000000000000000000000000000000000000000000600052601160045260246000fd5b6000615198826148dc565b91506151a3836148dc565b92508282039050818111156151bb576151ba61515e565b5b92915050565b600081905092915050565b7f4d55534943000000000000000000000000000000000000000000000000000000600082015250565b60006152026005836151c1565b915061520d826151cc565b600582019050919050565b6000615223826151f5565b9150819050919050565b6000615238826148dc565b9150615243836148dc565b925082820190508082111561525b5761525a61515e565b5b92915050565b7f4e487b7100000000000000000000000000000000000000000000000000000000600052602260045260246000fd5b600060028204905060018216806152a857607f821691505b6020821081036152bb576152ba615261565b5b50919050565b60008190508160005260206000209050919050565b600081546152e381615290565b6152ed81866151c1565b94506001821660008114615308576001811461531d57615350565b60ff1983168652811515820286019350615350565b615326856152c1565b60005b8381101561534857815481890152600182019150602081019050615329565b838801955050505b50505092915050565b600061536582846152d6565b915081905092915050565b7f4e487b7100000000000000000000000000000000000000000000000000000000600052603260045260246000fd5b60006153aa826148dc565b91507fffffffffffffffffffffffffffffffffffffffffffffffffffffffffffffffff82036153dc576153db61515e565b5b600182019050919050565b7f4f54484552000000000000000000000000000000000000000000000000000000600082015250565b600061541d6005836151c1565b9150615428826153e7565b600582019050919050565b600061543e82615410565b9150819050919050565b7f4f6e6c79207469636b6574206f776e65722063616e20706572666f726d20746860008201527f6973206f7065726174696f6e0000000000000000000000000000000000000000602082015250565b60006154a4602c83614ff7565b91506154af82615448565b604082019050919050565b600060208201905081810360008301526154d381615497565b9050919050565b7f53504f5254000000000000000000000000000000000000000000000000000000600082015250565b60006155106005836151c1565b915061551b826154da565b600582019050919050565b600061553182615503565b9150819050919050565b7f5354414745000000000000000000000000000000000000000000000000000000600082015250565b60006155716005836151c1565b915061557c8261553b565b600582019050919050565b600061559282615564565b9150819050919050565b7f4f6e6c79206576656e74206f776e6572206f722073656c6c65722063616e207060008201527f6572666f726d2074686973000000000000000000000000000000000000000000602082015250565b60006155f8602b83614ff7565b91506156038261559c565b604082019050919050565b60006020820190508181036000830152615627816155eb565b9050919050565b7f4f5247414e495a4154494f4e0000000000000000000000000000000000000000600082015250565b6000615664600c836151c1565b915061566f8261562e565b600c82019050919050565b600061568582615657565b9150819050919050565b7f546f6f206c6f7700000000000000000000000000000000000000000000000000600082015250565b60006156c5600783614ff7565b91506156d08261568f565b602082019050919050565b600060208201905081810360008301526156f4816156b8565b9050919050565b600060208201905061571060008301846150ef565b92915050565b600067ffffffffffffffff82111561573157615730614e35565b5b602082029050602081019050919050565b600080fd5b600081519050615756816148e6565b92915050565b600061576f61576a84615716565b614e95565b9050808382526020820190506020840283018581111561579257615791615742565b5b835b818110156157bb57806157a78882615747565b845260208401935050602081019050615794565b5050509392505050565b600082601f8301126157da576157d9614e2b565b5b81516157ea84826020860161575c565b91505092915050565b600060208284031215615809576158086148d2565b5b600082015167ffffffffffffffff811115615827576158266148d7565b5b615833848285016157c5565b91505092915050565b60006020601f8301049050919050565b600082821b905092915050565b6000600883026158897fffffffffffffffffffffffffffffffffffffffffffffffffffffffffffffffff8261584c565b615893868361584c565b95508019841693508086168417925050509392505050565b6000819050919050565b60006158d06158cb6158c6846148dc565b6158ab565b6148dc565b9050919050565b6000819050919050565b6158ea836158b5565b6158fe6158f6826158d7565b848454615859565b825550505050565b600090565b615913615906565b61591e8184846158e1565b505050565b5b818110156159425761593760008261590b565b600181019050615924565b5050565b601f82111561598757615958816152c1565b6159618461583c565b81016020851015615970578190505b61598461597c8561583c565b830182615923565b50505b505050565b600082821c905092915050565b60006159aa6000198460080261598c565b1980831691505092915050565b60006159c38383615999565b9150826002028217905092915050565b6159dc82614a7e565b67ffffffffffffffff8111156159f5576159f4614e35565b5b6159ff8254615290565b615a0a828285615946565b600060209050601f831160018114615a3d5760008415615a2b578287015190505b615a3585826159b7565b865550615a9d565b601f198416615a4b866152c1565b60005b82811015615a7357848901518255600182019150602085019450602081019050615a4e565b86831015615a905784890151615a8c601f891682615999565b8355505b6001600288020188555050505b505050505050565b6000615ab082614a7e565b615aba8185614ff7565b9350615aca818560208601614a9a565b615ad381614ac4565b840191505092915050565b600060a082019050615af360008301886150ef565b615b0060208301876150e0565b615b0d60408301866150e0565b615b1a60608301856150ef565b8181036080830152615b2c8184615aa5565b90509695505050505050565b7f5041525459000000000000000000000000000000000000000000000000000000600082015250565b6000615b6e6005836151c1565b9150615b7982615b38565b600582019050919050565b6000615b8f82615b61565b9150819050919050565b7f5265656e7472616e637947756172643a207265656e7472616e742063616c6c00600082015250565b6000615bcf601f83614ff7565b9150615bda82615b99565b602082019050919050565b60006020820190508181036000830152615bfe81615bc2565b9050919050565b7f436f756e7465723a2064656372656d656e74206f766572666c6f770000000000600082015250565b6000615c3b601b83614ff7565b9150615c4682615c05565b602082019050919050565b60006020820190508181036000830152615c6a81615c2e565b905091905056fea264697066735822122047e4c2d1c082183d9bdc151b3209b67e88e7edeb791abab4e6881e718ac5848364736f6c63430008110033",
  "linkReferences": {},
  "deployedLinkReferences": {}
}