{
  "_format": "hh-sol-artifact-1",
  "contractName": "TicketMarket",
  "sourceName": "contracts/TicketMarket.sol",
  "abi": [
    {
      "inputs": [],
      "stateMutability": "nonpayable",
      "type": "constructor"
    },
    {
      "anonymous": false,
      "inputs": [
        {
          "indexed": true,
          "internalType": "uint256",
          "name": "tokenID",
          "type": "uint256"
        },
        {
          "indexed": false,
          "internalType": "address",
          "name": "ticketOwner",
          "type": "address"
        },
        {
          "indexed": false,
          "internalType": "uint256",
          "name": "price",
          "type": "uint256"
        }
      ],
      "name": "MarketItemAfterSale",
      "type": "event"
    },
    {
      "anonymous": false,
      "inputs": [
        {
          "indexed": false,
          "internalType": "uint256",
          "name": "eventID",
          "type": "uint256"
        },
        {
          "indexed": false,
          "internalType": "address",
          "name": "seller",
          "type": "address"
        },
        {
          "indexed": false,
          "internalType": "uint128",
          "name": "price",
          "type": "uint128"
        },
        {
          "indexed": false,
          "internalType": "uint128",
          "name": "supply",
          "type": "uint128"
        },
        {
          "indexed": false,
          "internalType": "string",
          "name": "ticketType",
          "type": "string"
        }
      ],
      "name": "MarketItemCreation",
      "type": "event"
    },
    {
      "anonymous": false,
      "inputs": [
        {
          "indexed": false,
          "internalType": "uint256[]",
          "name": "tokenID",
          "type": "uint256[]"
        },
        {
          "indexed": false,
          "internalType": "address",
          "name": "ticketOwner",
          "type": "address"
        },
        {
          "indexed": false,
          "internalType": "address",
          "name": "seller",
          "type": "address"
        },
        {
          "indexed": false,
          "internalType": "uint256",
          "name": "price",
          "type": "uint256"
        }
      ],
      "name": "MarketItemResell",
      "type": "event"
    },
    {
      "anonymous": false,
      "inputs": [
        {
          "indexed": true,
          "internalType": "uint256",
          "name": "tokenID",
          "type": "uint256"
        },
        {
          "indexed": false,
          "internalType": "address",
          "name": "seller",
          "type": "address"
        },
        {
          "indexed": false,
          "internalType": "uint256",
          "name": "price",
          "type": "uint256"
        }
      ],
      "name": "MarketItemStopSale",
      "type": "event"
    },
    {
      "anonymous": false,
      "inputs": [
        {
          "indexed": false,
          "internalType": "uint256[]",
          "name": "tokenID",
          "type": "uint256[]"
        },
        {
          "indexed": false,
          "internalType": "address",
          "name": "seller",
          "type": "address"
        },
        {
          "indexed": false,
          "internalType": "uint256",
          "name": "price",
          "type": "uint256"
        }
      ],
      "name": "StopBatchTicketSale",
      "type": "event"
    },
    {
      "anonymous": false,
      "inputs": [
        {
          "indexed": false,
          "internalType": "uint256",
          "name": "tokenId",
          "type": "uint256"
        },
        {
          "indexed": false,
          "internalType": "address",
          "name": "toUser",
          "type": "address"
        }
      ],
      "name": "transferTicket",
      "type": "event"
    },
    {
      "inputs": [
        {
          "internalType": "uint256",
          "name": "eventId",
          "type": "uint256"
        }
      ],
      "name": "ListEventTicketAll",
      "outputs": [
        {
          "components": [
            {
              "internalType": "address",
              "name": "nftContract",
              "type": "address"
            },
            {
              "internalType": "uint256",
              "name": "tokenID",
              "type": "uint256"
            },
            {
              "internalType": "uint256",
              "name": "eventID",
              "type": "uint256"
            },
            {
              "internalType": "address payable",
              "name": "ticketOwner",
              "type": "address"
            },
            {
              "internalType": "address payable",
              "name": "eventOwner",
              "type": "address"
            },
            {
              "internalType": "address payable",
              "name": "seller",
              "type": "address"
            },
            {
              "internalType": "uint128",
              "name": "price",
              "type": "uint128"
            },
            {
              "internalType": "string",
              "name": "ticketType",
              "type": "string"
            },
            {
              "internalType": "bool",
              "name": "sold",
              "type": "bool"
            },
            {
              "internalType": "bool",
              "name": "soldBefore",
              "type": "bool"
            },
            {
              "internalType": "bool",
              "name": "used",
              "type": "bool"
            },
            {
              "internalType": "uint128",
              "name": "seat",
              "type": "uint128"
            },
            {
              "internalType": "uint128",
              "name": "transferRight",
              "type": "uint128"
            }
          ],
          "internalType": "struct TicketMarket.MarketItem[]",
          "name": "",
          "type": "tuple[]"
        }
      ],
      "stateMutability": "view",
      "type": "function"
    },
    {
      "inputs": [
        {
          "internalType": "address",
          "name": "user",
          "type": "address"
        }
      ],
      "name": "ListEventTicketByPublicAddress",
      "outputs": [
        {
          "components": [
            {
              "internalType": "address",
              "name": "nftContract",
              "type": "address"
            },
            {
              "internalType": "uint256",
              "name": "tokenID",
              "type": "uint256"
            },
            {
              "internalType": "uint256",
              "name": "eventID",
              "type": "uint256"
            },
            {
              "internalType": "address payable",
              "name": "ticketOwner",
              "type": "address"
            },
            {
              "internalType": "address payable",
              "name": "eventOwner",
              "type": "address"
            },
            {
              "internalType": "address payable",
              "name": "seller",
              "type": "address"
            },
            {
              "internalType": "uint128",
              "name": "price",
              "type": "uint128"
            },
            {
              "internalType": "string",
              "name": "ticketType",
              "type": "string"
            },
            {
              "internalType": "bool",
              "name": "sold",
              "type": "bool"
            },
            {
              "internalType": "bool",
              "name": "soldBefore",
              "type": "bool"
            },
            {
              "internalType": "bool",
              "name": "used",
              "type": "bool"
            },
            {
              "internalType": "uint128",
              "name": "seat",
              "type": "uint128"
            },
            {
              "internalType": "uint128",
              "name": "transferRight",
              "type": "uint128"
            }
          ],
          "internalType": "struct TicketMarket.MarketItem[]",
          "name": "",
          "type": "tuple[]"
        }
      ],
      "stateMutability": "view",
      "type": "function"
    },
    {
      "inputs": [
        {
          "internalType": "uint256",
          "name": "eventId",
          "type": "uint256"
        }
      ],
      "name": "ListEventTicketOnSale",
      "outputs": [
        {
          "components": [
            {
              "internalType": "address",
              "name": "nftContract",
              "type": "address"
            },
            {
              "internalType": "uint256",
              "name": "tokenID",
              "type": "uint256"
            },
            {
              "internalType": "uint256",
              "name": "eventID",
              "type": "uint256"
            },
            {
              "internalType": "address payable",
              "name": "ticketOwner",
              "type": "address"
            },
            {
              "internalType": "address payable",
              "name": "eventOwner",
              "type": "address"
            },
            {
              "internalType": "address payable",
              "name": "seller",
              "type": "address"
            },
            {
              "internalType": "uint128",
              "name": "price",
              "type": "uint128"
            },
            {
              "internalType": "string",
              "name": "ticketType",
              "type": "string"
            },
            {
              "internalType": "bool",
              "name": "sold",
              "type": "bool"
            },
            {
              "internalType": "bool",
              "name": "soldBefore",
              "type": "bool"
            },
            {
              "internalType": "bool",
              "name": "used",
              "type": "bool"
            },
            {
              "internalType": "uint128",
              "name": "seat",
              "type": "uint128"
            },
            {
              "internalType": "uint128",
              "name": "transferRight",
              "type": "uint128"
            }
          ],
          "internalType": "struct TicketMarket.MarketItem[]",
          "name": "",
          "type": "tuple[]"
        }
      ],
      "stateMutability": "view",
      "type": "function"
    },
    {
      "inputs": [],
      "name": "ListUserOwnItems",
      "outputs": [
        {
          "components": [
            {
              "internalType": "address",
              "name": "nftContract",
              "type": "address"
            },
            {
              "internalType": "uint256",
              "name": "tokenID",
              "type": "uint256"
            },
            {
              "internalType": "uint256",
              "name": "eventID",
              "type": "uint256"
            },
            {
              "internalType": "address payable",
              "name": "ticketOwner",
              "type": "address"
            },
            {
              "internalType": "address payable",
              "name": "eventOwner",
              "type": "address"
            },
            {
              "internalType": "address payable",
              "name": "seller",
              "type": "address"
            },
            {
              "internalType": "uint128",
              "name": "price",
              "type": "uint128"
            },
            {
              "internalType": "string",
              "name": "ticketType",
              "type": "string"
            },
            {
              "internalType": "bool",
              "name": "sold",
              "type": "bool"
            },
            {
              "internalType": "bool",
              "name": "soldBefore",
              "type": "bool"
            },
            {
              "internalType": "bool",
              "name": "used",
              "type": "bool"
            },
            {
              "internalType": "uint128",
              "name": "seat",
              "type": "uint128"
            },
            {
              "internalType": "uint128",
              "name": "transferRight",
              "type": "uint128"
            }
          ],
          "internalType": "struct TicketMarket.MarketItem[]",
          "name": "",
          "type": "tuple[]"
        }
      ],
      "stateMutability": "view",
      "type": "function"
    },
    {
      "inputs": [
        {
          "internalType": "uint256",
          "name": "tokenId",
          "type": "uint256"
        }
      ],
      "name": "NFTItem",
      "outputs": [
        {
          "components": [
            {
              "internalType": "address",
              "name": "nftContract",
              "type": "address"
            },
            {
              "internalType": "uint256",
              "name": "tokenID",
              "type": "uint256"
            },
            {
              "internalType": "uint256",
              "name": "eventID",
              "type": "uint256"
            },
            {
              "internalType": "address payable",
              "name": "ticketOwner",
              "type": "address"
            },
            {
              "internalType": "address payable",
              "name": "eventOwner",
              "type": "address"
            },
            {
              "internalType": "address payable",
              "name": "seller",
              "type": "address"
            },
            {
              "internalType": "uint128",
              "name": "price",
              "type": "uint128"
            },
            {
              "internalType": "string",
              "name": "ticketType",
              "type": "string"
            },
            {
              "internalType": "bool",
              "name": "sold",
              "type": "bool"
            },
            {
              "internalType": "bool",
              "name": "soldBefore",
              "type": "bool"
            },
            {
              "internalType": "bool",
              "name": "used",
              "type": "bool"
            },
            {
              "internalType": "uint128",
              "name": "seat",
              "type": "uint128"
            },
            {
              "internalType": "uint128",
              "name": "transferRight",
              "type": "uint128"
            }
          ],
          "internalType": "struct TicketMarket.MarketItem",
          "name": "",
          "type": "tuple"
        }
      ],
      "stateMutability": "view",
      "type": "function"
    },
    {
      "inputs": [
        {
          "internalType": "uint128",
          "name": "price",
          "type": "uint128"
        },
        {
          "internalType": "address",
          "name": "NftCont",
          "type": "address"
        },
        {
          "internalType": "uint256[]",
          "name": "tokenIds",
          "type": "uint256[]"
        }
      ],
      "name": "ResellTicket",
      "outputs": [],
      "stateMutability": "payable",
      "type": "function"
    },
    {
      "inputs": [
        {
          "internalType": "uint128",
          "name": "price",
          "type": "uint128"
        },
        {
          "internalType": "address",
          "name": "NftCont",
          "type": "address"
        },
        {
          "internalType": "uint256[]",
          "name": "tokenIds",
          "type": "uint256[]"
        },
        {
          "internalType": "uint256",
          "name": "eventid",
          "type": "uint256"
        }
      ],
      "name": "StopBatchSale",
      "outputs": [],
      "stateMutability": "payable",
      "type": "function"
    },
    {
      "inputs": [
        {
          "internalType": "uint128",
          "name": "price",
          "type": "uint128"
        },
        {
          "internalType": "address",
          "name": "NftCont",
          "type": "address"
        },
        {
          "internalType": "uint256",
          "name": "tokenId",
          "type": "uint256"
        }
      ],
      "name": "StopTicketSale",
      "outputs": [],
      "stateMutability": "payable",
      "type": "function"
    },
    {
      "inputs": [
        {
          "internalType": "address",
          "name": "NftCont",
          "type": "address"
        },
        {
          "internalType": "uint256",
          "name": "tokenId",
          "type": "uint256"
        },
        {
          "internalType": "address",
          "name": "toAddr",
          "type": "address"
        }
      ],
      "name": "TransferTicket",
      "outputs": [],
      "stateMutability": "payable",
      "type": "function"
    },
    {
      "inputs": [
        {
          "internalType": "uint256",
          "name": "eventId",
          "type": "uint256"
        },
        {
          "internalType": "address",
          "name": "user",
          "type": "address"
        }
      ],
      "name": "TransferableIds",
      "outputs": [
        {
          "internalType": "uint256[]",
          "name": "",
          "type": "uint256[]"
        }
      ],
      "stateMutability": "view",
      "type": "function"
    },
    {
      "inputs": [
        {
          "internalType": "uint128",
          "name": "price",
          "type": "uint128"
        },
        {
          "internalType": "address",
          "name": "NftCont",
          "type": "address"
        },
        {
          "internalType": "string",
          "name": "ticketType",
          "type": "string"
        },
        {
          "internalType": "uint256",
          "name": "eventID",
          "type": "uint256"
        },
        {
          "internalType": "uint128",
          "name": "supply",
          "type": "uint128"
        },
        {
          "internalType": "uint128",
          "name": "transNum",
          "type": "uint128"
        }
      ],
      "name": "createMarketItem",
      "outputs": [],
      "stateMutability": "payable",
      "type": "function"
    },
    {
      "inputs": [
        {
          "internalType": "uint256",
          "name": "tokenid",
          "type": "uint256"
        }
      ],
      "name": "isInMarket",
      "outputs": [
        {
          "internalType": "bool",
          "name": "",
          "type": "bool"
        }
      ],
      "stateMutability": "view",
      "type": "function"
    },
    {
      "inputs": [
        {
          "internalType": "uint256",
          "name": "tokenId",
          "type": "uint256"
        }
      ],
      "name": "isSoldBefore",
      "outputs": [
        {
          "internalType": "bool",
          "name": "",
          "type": "bool"
        }
      ],
      "stateMutability": "view",
      "type": "function"
    },
    {
      "inputs": [
        {
          "internalType": "uint256",
          "name": "ticketId",
          "type": "uint256"
        }
      ],
      "name": "isTransferable",
      "outputs": [
        {
          "internalType": "bool",
          "name": "",
          "type": "bool"
        }
      ],
      "stateMutability": "view",
      "type": "function"
    },
    {
      "inputs": [
        {
          "internalType": "address",
          "name": "NftCont",
          "type": "address"
        },
        {
          "internalType": "uint256",
          "name": "tokenId",
          "type": "uint256"
        }
      ],
      "name": "ticketSale",
      "outputs": [],
      "stateMutability": "payable",
      "type": "function"
    },
    {
      "inputs": [
        {
          "internalType": "uint256[]",
          "name": "tokenIds",
          "type": "uint256[]"
        },
        {
          "internalType": "uint256",
          "name": "eventId",
          "type": "uint256"
        },
        {
          "internalType": "address",
          "name": "NftCont",
          "type": "address"
        }
      ],
      "name": "useTickets",
      "outputs": [],
      "stateMutability": "nonpayable",
      "type": "function"
    }
  ],
  "bytecode": "0x608060405234801561001057600080fd5b50600160008190555033600360006101000a81548173ffffffffffffffffffffffffffffffffffffffff021916908373ffffffffffffffffffffffffffffffffffffffff1602179055506154f8806100696000396000f3fe6080604052600436106100f35760003560e01c8063827884a81161008a578063bd3114b611610059578063bd3114b61461033e578063c2301b6914610367578063cf0db05b146103a4578063e701679b146103c0576100f3565b8063827884a81461026b57806385c15fed14610287578063b19d4e08146102c4578063b256456914610301576100f3565b806349cdcc98116100c657806349cdcc98146101b95780636aaf93d2146101d55780636b282dd8146102125780636cbd493b1461024f576100f3565b806308aaac95146100f85780630a29d94914610135578063112b358414610151578063396f7d151461017c575b600080fd5b34801561010457600080fd5b5061011f600480360381019061011a9190613baf565b6103dc565b60405161012c9190613bf7565b60405180910390f35b61014f600480360381019061014a9190613c70565b610439565b005b34801561015d57600080fd5b50610166610843565b6040516101739190613f94565b60405180910390f35b34801561018857600080fd5b506101a3600480360381019061019e9190613baf565b610d82565b6040516101b09190613bf7565b60405180910390f35b6101d360048036038101906101ce919061412a565b610db2565b005b3480156101e157600080fd5b506101fc60048036038101906101f79190613baf565b61111e565b6040516102099190613f94565b60405180910390f35b34801561021e57600080fd5b50610239600480360381019061023491906141ad565b611647565b604051610246919061429c565b60405180910390f35b610269600480360381019061026491906142be565b611958565b005b61028560048036038101906102809190614311565b611c9f565b005b34801561029357600080fd5b506102ae60048036038101906102a99190613baf565b6120fd565b6040516102bb9190613f94565b60405180910390f35b3480156102d057600080fd5b506102eb60048036038101906102e69190613baf565b6125a6565b6040516102f89190614499565b60405180910390f35b34801561030d57600080fd5b5061032860048036038101906103239190613baf565b61291a565b6040516103359190613bf7565b60405180910390f35b34801561034a57600080fd5b50610365600480360381019061036091906144bb565b612995565b005b34801561037357600080fd5b5061038e6004803603810190610389919061452a565b612b0e565b60405161039b9190613f94565b60405180910390f35b6103be60048036038101906103b9919061460c565b613141565b005b6103da60048036038101906103d591906146b5565b613730565b005b60008060056000848152602001908152602001600020549050600115156004600083815260200190815260200160002060080160019054906101000a900460ff1615150361042e576001915050610434565b60009150505b919050565b610441613990565b60006005600083815260200190815260200160002054905060006004600083815260200190815260200160002060060160009054906101000a90046fffffffffffffffffffffffffffffffff16905060006004600084815260200190815260200160002060010154905060006004600085815260200190815260200160002060050160009054906101000a900473ffffffffffffffffffffffffffffffffffffffff169050826fffffffffffffffffffffffffffffffff1634101561053b576040517f08c379a000000000000000000000000000000000000000000000000000000000815260040161053290614765565b60405180910390fd5b600015156004600086815260200190815260200160002060080160009054906101000a900460ff161515146105a5576040517f08c379a000000000000000000000000000000000000000000000000000000000815260040161059c906147d1565b60405180910390fd5b336004600086815260200190815260200160002060030160006101000a81548173ffffffffffffffffffffffffffffffffffffffff021916908373ffffffffffffffffffffffffffffffffffffffff16021790555060016004600086815260200190815260200160002060080160006101000a81548160ff02191690831515021790555060006004600086815260200190815260200160002060050160006101000a81548173ffffffffffffffffffffffffffffffffffffffff021916908373ffffffffffffffffffffffffffffffffffffffff16021790555060016004600086815260200190815260200160002060080160016101000a81548160ff02191690831515021790555060016004600086815260200190815260200160002060090160009054906101000a90046fffffffffffffffffffffffffffffffff166106ed9190614820565b6004600086815260200190815260200160002060090160006101000a8154816fffffffffffffffffffffffffffffffff02191690836fffffffffffffffffffffffffffffffff16021790555061074360026139df565b8573ffffffffffffffffffffffffffffffffffffffff166323b872dd3033856040518463ffffffff1660e01b815260040161078093929190614882565b600060405180830381600087803b15801561079a57600080fd5b505af11580156107ae573d6000803e3d6000fd5b505050508073ffffffffffffffffffffffffffffffffffffffff166108fc349081150290604051600060405180830381858888f193505050501580156107f8573d6000803e3d6000fd5b50847f5352ac602b276106b740de31546b729325b98e18c87e86cde3dd97f9726a734b338560405161082b9291906148f4565b60405180910390a25050505061083f6139f5565b5050565b6060600061085160016139ff565b905060008060005b838110156108f9573373ffffffffffffffffffffffffffffffffffffffff1660046000600184610889919061491d565b815260200190815260200160002060030160009054906101000a900473ffffffffffffffffffffffffffffffffffffffff1673ffffffffffffffffffffffffffffffffffffffff16036108e6576001836108e3919061491d565b92505b80806108f190614951565b915050610859565b5060008267ffffffffffffffff81111561091657610915613fe7565b5b60405190808252806020026020018201604052801561094f57816020015b61093c613a69565b8152602001906001900390816109345790505b50905060005b84811015610d77573373ffffffffffffffffffffffffffffffffffffffff1660046000600184610985919061491d565b815260200190815260200160002060030160009054906101000a900473ffffffffffffffffffffffffffffffffffffffff1673ffffffffffffffffffffffffffffffffffffffff1603610d645760006001826109e1919061491d565b9050600060046000838152602001908152602001600020905080604051806101a00160405290816000820160009054906101000a900473ffffffffffffffffffffffffffffffffffffffff1673ffffffffffffffffffffffffffffffffffffffff1673ffffffffffffffffffffffffffffffffffffffff16815260200160018201548152602001600282015481526020016003820160009054906101000a900473ffffffffffffffffffffffffffffffffffffffff1673ffffffffffffffffffffffffffffffffffffffff1673ffffffffffffffffffffffffffffffffffffffff1681526020016004820160009054906101000a900473ffffffffffffffffffffffffffffffffffffffff1673ffffffffffffffffffffffffffffffffffffffff1673ffffffffffffffffffffffffffffffffffffffff1681526020016005820160009054906101000a900473ffffffffffffffffffffffffffffffffffffffff1673ffffffffffffffffffffffffffffffffffffffff1673ffffffffffffffffffffffffffffffffffffffff1681526020016006820160009054906101000a90046fffffffffffffffffffffffffffffffff166fffffffffffffffffffffffffffffffff166fffffffffffffffffffffffffffffffff168152602001600782018054610bcd906149c8565b80601f0160208091040260200160405190810160405280929190818152602001828054610bf9906149c8565b8015610c465780601f10610c1b57610100808354040283529160200191610c46565b820191906000526020600020905b815481529060010190602001808311610c2957829003601f168201915b505050505081526020016008820160009054906101000a900460ff161515151581526020016008820160019054906101000a900460ff161515151581526020016008820160029054906101000a900460ff161515151581526020016008820160039054906101000a90046fffffffffffffffffffffffffffffffff166fffffffffffffffffffffffffffffffff166fffffffffffffffffffffffffffffffff1681526020016009820160009054906101000a90046fffffffffffffffffffffffffffffffff166fffffffffffffffffffffffffffffffff166fffffffffffffffffffffffffffffffff1681525050848681518110610d4757610d466149f9565b5b6020026020010181905250600185610d5f919061491d565b945050505b8080610d6f90614951565b915050610955565b508094505050505090565b60008060056000848152602001908152602001600020541115610da85760019050610dad565b600090505b919050565b610dba613990565b600083905060008173ffffffffffffffffffffffffffffffffffffffff16631e90b293846040518263ffffffff1660e01b8152600401610dfa9190614a28565b602060405180830381865afa158015610e17573d6000803e3d6000fd5b505050506040513d601f19601f82011682018060405250810190610e3b9190614a58565b90508073ffffffffffffffffffffffffffffffffffffffff163373ffffffffffffffffffffffffffffffffffffffff1614610eab576040517f08c379a0000000000000000000000000000000000000000000000000000000008152600401610ea290614af7565b60405180910390fd5b60005b84518110156110d2576000858281518110610ecc57610ecb6149f9565b5b6020026020010151905060006005600083815260200190815260200160002054905060016004600083815260200190815260200160002060080160006101000a81548160ff021916908315150217905550886004600083815260200190815260200160002060060160006101000a8154816fffffffffffffffffffffffffffffffff02191690836fffffffffffffffffffffffffffffffff16021790555060006004600083815260200190815260200160002060050160006101000a81548173ffffffffffffffffffffffffffffffffffffffff021916908373ffffffffffffffffffffffffffffffffffffffff160217905550336004600083815260200190815260200160002060030160006101000a81548173ffffffffffffffffffffffffffffffffffffffff021916908373ffffffffffffffffffffffffffffffffffffffff16021790555060016004600083815260200190815260200160002060080160016101000a81548160ff02191690831515021790555061104e60026139df565b8773ffffffffffffffffffffffffffffffffffffffff166323b872dd3033856040518463ffffffff1660e01b815260040161108b93929190614882565b600060405180830381600087803b1580156110a557600080fd5b505af11580156110b9573d6000803e3d6000fd5b50505050505080806110ca90614951565b915050610eae565b507fdfafe2e7643356941ce9f45cd6df80c12d2513261b6d7ba4b1239e29de43630084338860405161110693929190614b17565b60405180910390a150506111186139f5565b50505050565b6060600061112c60016139ff565b905060008060005b838110156111c857856004600060018461114e919061491d565b8152602001908152602001600020600201541480156111a05750600015156004600060018461117d919061491d565b815260200190815260200160002060080160009054906101000a900460ff161515145b156111b5576001836111b2919061491d565b92505b80806111c090614951565b915050611134565b5060008267ffffffffffffffff8111156111e5576111e4613fe7565b5b60405190808252806020026020018201604052801561121e57816020015b61120b613a69565b8152602001906001900390816112035790505b50905060005b8481101561163a57866004600060018461123e919061491d565b8152602001908152602001600020600201541480156112905750600015156004600060018461126d919061491d565b815260200190815260200160002060080160009054906101000a900460ff161515145b156116275760006001826112a4919061491d565b9050600060046000838152602001908152602001600020905080604051806101a00160405290816000820160009054906101000a900473ffffffffffffffffffffffffffffffffffffffff1673ffffffffffffffffffffffffffffffffffffffff1673ffffffffffffffffffffffffffffffffffffffff16815260200160018201548152602001600282015481526020016003820160009054906101000a900473ffffffffffffffffffffffffffffffffffffffff1673ffffffffffffffffffffffffffffffffffffffff1673ffffffffffffffffffffffffffffffffffffffff1681526020016004820160009054906101000a900473ffffffffffffffffffffffffffffffffffffffff1673ffffffffffffffffffffffffffffffffffffffff1673ffffffffffffffffffffffffffffffffffffffff1681526020016005820160009054906101000a900473ffffffffffffffffffffffffffffffffffffffff1673ffffffffffffffffffffffffffffffffffffffff1673ffffffffffffffffffffffffffffffffffffffff1681526020016006820160009054906101000a90046fffffffffffffffffffffffffffffffff166fffffffffffffffffffffffffffffffff166fffffffffffffffffffffffffffffffff168152602001600782018054611490906149c8565b80601f01602080910402602001604051908101604052809291908181526020018280546114bc906149c8565b80156115095780601f106114de57610100808354040283529160200191611509565b820191906000526020600020905b8154815290600101906020018083116114ec57829003601f168201915b505050505081526020016008820160009054906101000a900460ff161515151581526020016008820160019054906101000a900460ff161515151581526020016008820160029054906101000a900460ff161515151581526020016008820160039054906101000a90046fffffffffffffffffffffffffffffffff166fffffffffffffffffffffffffffffffff166fffffffffffffffffffffffffffffffff1681526020016009820160009054906101000a90046fffffffffffffffffffffffffffffffff166fffffffffffffffffffffffffffffffff166fffffffffffffffffffffffffffffffff168152505084868151811061160a576116096149f9565b5b6020026020010181905250600185611622919061491d565b945050505b808061163290614951565b915050611224565b5080945050505050919050565b6060600061165560016139ff565b905060008060005b83811015611787578573ffffffffffffffffffffffffffffffffffffffff166004600060018461168d919061491d565b815260200190815260200160002060030160009054906101000a900473ffffffffffffffffffffffffffffffffffffffff1673ffffffffffffffffffffffffffffffffffffffff1614801561173257506000600460006001846116f0919061491d565b815260200190815260200160002060090160009054906101000a90046fffffffffffffffffffffffffffffffff166fffffffffffffffffffffffffffffffff16115b801561175f5750866004600060018461174b919061491d565b815260200190815260200160002060020154145b1561177457600183611771919061491d565b92505b808061177f90614951565b91505061165d565b5060008267ffffffffffffffff8111156117a4576117a3613fe7565b5b6040519080825280602002602001820160405280156117d25781602001602082028036833780820191505090505b50905060005b8481101561194a578673ffffffffffffffffffffffffffffffffffffffff1660046000600184611808919061491d565b815260200190815260200160002060030160009054906101000a900473ffffffffffffffffffffffffffffffffffffffff1673ffffffffffffffffffffffffffffffffffffffff161480156118ad575060006004600060018461186b919061491d565b815260200190815260200160002060090160009054906101000a90046fffffffffffffffffffffffffffffffff166fffffffffffffffffffffffffffffffff16115b80156118da575087600460006001846118c6919061491d565b815260200190815260200160002060020154145b15611937576000600460006001846118f2919061491d565b81526020019081526020016000206001015490508083858151811061191a576119196149f9565b5b602002602001018181525050600184611933919061491d565b9350505b808061194290614951565b9150506117d8565b508094505050505092915050565b611960613990565b6000600560008381526020019081526020016000205490506004600082815260200190815260200160002060050160009054906101000a900473ffffffffffffffffffffffffffffffffffffffff1673ffffffffffffffffffffffffffffffffffffffff163373ffffffffffffffffffffffffffffffffffffffff161480611a4957506004600082815260200190815260200160002060040160009054906101000a900473ffffffffffffffffffffffffffffffffffffffff1673ffffffffffffffffffffffffffffffffffffffff163373ffffffffffffffffffffffffffffffffffffffff16145b611a88576040517f08c379a0000000000000000000000000000000000000000000000000000000008152600401611a7f90614bc7565b60405180910390fd5b60016004600083815260200190815260200160002060080160006101000a81548160ff021916908315150217905550836004600083815260200190815260200160002060060160006101000a8154816fffffffffffffffffffffffffffffffff02191690836fffffffffffffffffffffffffffffffff16021790555060006004600083815260200190815260200160002060050160006101000a81548173ffffffffffffffffffffffffffffffffffffffff021916908373ffffffffffffffffffffffffffffffffffffffff160217905550336004600083815260200190815260200160002060030160006101000a81548173ffffffffffffffffffffffffffffffffffffffff021916908373ffffffffffffffffffffffffffffffffffffffff16021790555060016004600083815260200190815260200160002060080160016101000a81548160ff021916908315150217905550611be860026139df565b8273ffffffffffffffffffffffffffffffffffffffff166323b872dd3033856040518463ffffffff1660e01b8152600401611c2593929190614882565b600060405180830381600087803b158015611c3f57600080fd5b505af1158015611c53573d6000803e3d6000fd5b50505050817fdbe18d9dd8643fa7e3222cffee0423f082934c039103e454dd8791854b442e913386604051611c899291906148f4565b60405180910390a250611c9a6139f5565b505050565b611ca7613990565b6000836fffffffffffffffffffffffffffffffff1611611cfc576040517f08c379a0000000000000000000000000000000000000000000000000000000008152600401611cf390614c33565b60405180910390fd5b60005b8151816fffffffffffffffffffffffffffffffff1610156120b257600082826fffffffffffffffffffffffffffffffff1681518110611d4157611d406149f9565b5b602002602001015190506000600560008381526020019081526020016000205490503373ffffffffffffffffffffffffffffffffffffffff166004600083815260200190815260200160002060030160009054906101000a900473ffffffffffffffffffffffffffffffffffffffff1673ffffffffffffffffffffffffffffffffffffffff1614611e07576040517f08c379a0000000000000000000000000000000000000000000000000000000008152600401611dfe90614cc5565b60405180910390fd5b600115156004600083815260200190815260200160002060080160009054906101000a900460ff16151514611e71576040517f08c379a0000000000000000000000000000000000000000000000000000000008152600401611e6890614d31565b60405180910390fd5b60006004600083815260200190815260200160002060090160009054906101000a90046fffffffffffffffffffffffffffffffff166fffffffffffffffffffffffffffffffff1611611ef8576040517f08c379a0000000000000000000000000000000000000000000000000000000008152600401611eef90614d9d565b60405180910390fd5b60008590508073ffffffffffffffffffffffffffffffffffffffff1663f5537ede3330866040518463ffffffff1660e01b8152600401611f3a93929190614882565b600060405180830381600087803b158015611f5457600080fd5b505af1158015611f68573d6000803e3d6000fd5b5050505060006004600084815260200190815260200160002060080160006101000a81548160ff021916908315150217905550866004600084815260200190815260200160002060060160006101000a8154816fffffffffffffffffffffffffffffffff02191690836fffffffffffffffffffffffffffffffff160217905550336004600084815260200190815260200160002060050160006101000a81548173ffffffffffffffffffffffffffffffffffffffff021916908373ffffffffffffffffffffffffffffffffffffffff160217905550306004600084815260200190815260200160002060030160006101000a81548173ffffffffffffffffffffffffffffffffffffffff021916908373ffffffffffffffffffffffffffffffffffffffff16021790555061209c6002613a0d565b50505080806120aa90614dbd565b915050611cff565b507f59a4c9a93f26aad2a724b873f5ad10297dad1edb62ba7b042699f0dd821d9f2b813033866040516120e89493929190614df5565b60405180910390a16120f86139f5565b505050565b6060600061210b60016139ff565b905060008060005b8381101561216757856004600060018461212d919061491d565b8152602001908152602001600020600201540361215457600183612151919061491d565b92505b808061215f90614951565b915050612113565b5060008267ffffffffffffffff81111561218457612183613fe7565b5b6040519080825280602002602001820160405280156121bd57816020015b6121aa613a69565b8152602001906001900390816121a25790505b50905060005b848110156125995786600460006001846121dd919061491d565b81526020019081526020016000206002015403612586576000600182612203919061491d565b9050600060046000838152602001908152602001600020905080604051806101a00160405290816000820160009054906101000a900473ffffffffffffffffffffffffffffffffffffffff1673ffffffffffffffffffffffffffffffffffffffff1673ffffffffffffffffffffffffffffffffffffffff16815260200160018201548152602001600282015481526020016003820160009054906101000a900473ffffffffffffffffffffffffffffffffffffffff1673ffffffffffffffffffffffffffffffffffffffff1673ffffffffffffffffffffffffffffffffffffffff1681526020016004820160009054906101000a900473ffffffffffffffffffffffffffffffffffffffff1673ffffffffffffffffffffffffffffffffffffffff1673ffffffffffffffffffffffffffffffffffffffff1681526020016005820160009054906101000a900473ffffffffffffffffffffffffffffffffffffffff1673ffffffffffffffffffffffffffffffffffffffff1673ffffffffffffffffffffffffffffffffffffffff1681526020016006820160009054906101000a90046fffffffffffffffffffffffffffffffff166fffffffffffffffffffffffffffffffff166fffffffffffffffffffffffffffffffff1681526020016007820180546123ef906149c8565b80601f016020809104026020016040519081016040528092919081815260200182805461241b906149c8565b80156124685780601f1061243d57610100808354040283529160200191612468565b820191906000526020600020905b81548152906001019060200180831161244b57829003601f168201915b505050505081526020016008820160009054906101000a900460ff161515151581526020016008820160019054906101000a900460ff161515151581526020016008820160029054906101000a900460ff161515151581526020016008820160039054906101000a90046fffffffffffffffffffffffffffffffff166fffffffffffffffffffffffffffffffff166fffffffffffffffffffffffffffffffff1681526020016009820160009054906101000a90046fffffffffffffffffffffffffffffffff166fffffffffffffffffffffffffffffffff166fffffffffffffffffffffffffffffffff1681525050848681518110612569576125686149f9565b5b6020026020010181905250600185612581919061491d565b945050505b808061259190614951565b9150506121c3565b5080945050505050919050565b6125ae613a69565b60006005600084815260200190815260200160002054905060046000828152602001908152602001600020604051806101a00160405290816000820160009054906101000a900473ffffffffffffffffffffffffffffffffffffffff1673ffffffffffffffffffffffffffffffffffffffff1673ffffffffffffffffffffffffffffffffffffffff16815260200160018201548152602001600282015481526020016003820160009054906101000a900473ffffffffffffffffffffffffffffffffffffffff1673ffffffffffffffffffffffffffffffffffffffff1673ffffffffffffffffffffffffffffffffffffffff1681526020016004820160009054906101000a900473ffffffffffffffffffffffffffffffffffffffff1673ffffffffffffffffffffffffffffffffffffffff1673ffffffffffffffffffffffffffffffffffffffff1681526020016005820160009054906101000a900473ffffffffffffffffffffffffffffffffffffffff1673ffffffffffffffffffffffffffffffffffffffff1673ffffffffffffffffffffffffffffffffffffffff1681526020016006820160009054906101000a90046fffffffffffffffffffffffffffffffff166fffffffffffffffffffffffffffffffff166fffffffffffffffffffffffffffffffff1681526020016007820180546127ab906149c8565b80601f01602080910402602001604051908101604052809291908181526020018280546127d7906149c8565b80156128245780601f106127f957610100808354040283529160200191612824565b820191906000526020600020905b81548152906001019060200180831161280757829003601f168201915b505050505081526020016008820160009054906101000a900460ff161515151581526020016008820160019054906101000a900460ff161515151581526020016008820160029054906101000a900460ff161515151581526020016008820160039054906101000a90046fffffffffffffffffffffffffffffffff166fffffffffffffffffffffffffffffffff166fffffffffffffffffffffffffffffffff1681526020016009820160009054906101000a90046fffffffffffffffffffffffffffffffff166fffffffffffffffffffffffffffffffff166fffffffffffffffffffffffffffffffff1681525050915050919050565b6000806005600084815260200190815260200160002054905060006004600083815260200190815260200160002060090160009054906101000a90046fffffffffffffffffffffffffffffffff166fffffffffffffffffffffffffffffffff16111561298a576001915050612990565b60009150505b919050565b6000819050600115158173ffffffffffffffffffffffffffffffffffffffff16633bd65a6085336040518363ffffffff1660e01b81526004016129d9929190614e41565b602060405180830381865afa1580156129f6573d6000803e3d6000fd5b505050506040513d601f19601f82011682018060405250810190612a1a9190614e96565b151514612a5c576040517f08c379a0000000000000000000000000000000000000000000000000000000008152600401612a5390614f0f565b60405180910390fd5b60005b8451816fffffffffffffffffffffffffffffffff161015612b0757600085826fffffffffffffffffffffffffffffffff1681518110612aa157612aa06149f9565b5b6020026020010151905060006005600083815260200190815260200160002054905060016004600083815260200190815260200160002060080160026101000a81548160ff02191690831515021790555050508080612aff90614dbd565b915050612a5f565b5050505050565b60606000612b1c60016139ff565b905060008060005b83811015612c3d578573ffffffffffffffffffffffffffffffffffffffff1660046000600184612b54919061491d565b815260200190815260200160002060050160009054906101000a900473ffffffffffffffffffffffffffffffffffffffff1673ffffffffffffffffffffffffffffffffffffffff161480612c1557508573ffffffffffffffffffffffffffffffffffffffff1660046000600184612bcb919061491d565b815260200190815260200160002060030160009054906101000a900473ffffffffffffffffffffffffffffffffffffffff1673ffffffffffffffffffffffffffffffffffffffff16145b15612c2a57600183612c27919061491d565b92505b8080612c3590614951565b915050612b24565b5060008267ffffffffffffffff811115612c5a57612c59613fe7565b5b604051908082528060200260200182016040528015612c9357816020015b612c80613a69565b815260200190600190039081612c785790505b50905060005b84811015613134578673ffffffffffffffffffffffffffffffffffffffff1660046000600184612cc9919061491d565b815260200190815260200160002060050160009054906101000a900473ffffffffffffffffffffffffffffffffffffffff1673ffffffffffffffffffffffffffffffffffffffff161480612d8a57508673ffffffffffffffffffffffffffffffffffffffff1660046000600184612d40919061491d565b815260200190815260200160002060030160009054906101000a900473ffffffffffffffffffffffffffffffffffffffff1673ffffffffffffffffffffffffffffffffffffffff16145b15613121576000600182612d9e919061491d565b9050600060046000838152602001908152602001600020905080604051806101a00160405290816000820160009054906101000a900473ffffffffffffffffffffffffffffffffffffffff1673ffffffffffffffffffffffffffffffffffffffff1673ffffffffffffffffffffffffffffffffffffffff16815260200160018201548152602001600282015481526020016003820160009054906101000a900473ffffffffffffffffffffffffffffffffffffffff1673ffffffffffffffffffffffffffffffffffffffff1673ffffffffffffffffffffffffffffffffffffffff1681526020016004820160009054906101000a900473ffffffffffffffffffffffffffffffffffffffff1673ffffffffffffffffffffffffffffffffffffffff1673ffffffffffffffffffffffffffffffffffffffff1681526020016005820160009054906101000a900473ffffffffffffffffffffffffffffffffffffffff1673ffffffffffffffffffffffffffffffffffffffff1673ffffffffffffffffffffffffffffffffffffffff1681526020016006820160009054906101000a90046fffffffffffffffffffffffffffffffff166fffffffffffffffffffffffffffffffff166fffffffffffffffffffffffffffffffff168152602001600782018054612f8a906149c8565b80601f0160208091040260200160405190810160405280929190818152602001828054612fb6906149c8565b80156130035780601f10612fd857610100808354040283529160200191613003565b820191906000526020600020905b815481529060010190602001808311612fe657829003601f168201915b505050505081526020016008820160009054906101000a900460ff161515151581526020016008820160019054906101000a900460ff161515151581526020016008820160029054906101000a900460ff161515151581526020016008820160039054906101000a90046fffffffffffffffffffffffffffffffff166fffffffffffffffffffffffffffffffff166fffffffffffffffffffffffffffffffff1681526020016009820160009054906101000a90046fffffffffffffffffffffffffffffffff166fffffffffffffffffffffffffffffffff166fffffffffffffffffffffffffffffffff1681525050848681518110613104576131036149f9565b5b602002602001018190525060018561311c919061491d565b945050505b808061312c90614951565b915050612c99565b5080945050505050919050565b613149613990565b6000866fffffffffffffffffffffffffffffffff161161319e576040517f08c379a000000000000000000000000000000000000000000000000000000000815260040161319590614c33565b60405180910390fd5b606060008690508073ffffffffffffffffffffffffffffffffffffffff16637c428edb866040518263ffffffff1660e01b81526004016131de9190614a28565b600060405180830381865afa1580156131fb573d6000803e3d6000fd5b505050506040513d6000823e3d601f19601f820116820180604052508101906132249190614fdb565b91506000805b8351816fffffffffffffffffffffffffffffffff1610801561325d5750856fffffffffffffffffffffffffffffffff1682105b156136dd5761326c60016139df565b600061327860016139ff565b9050600085836fffffffffffffffffffffffffffffffff16815181106132a1576132a06149f9565b5b602002602001015190506132b481610d82565b6136c8576001846132c5919061491d565b9350816005600083815260200190815260200160002081905550604051806101a001604052808c73ffffffffffffffffffffffffffffffffffffffff1681526020018281526020018a81526020013073ffffffffffffffffffffffffffffffffffffffff1681526020013373ffffffffffffffffffffffffffffffffffffffff1681526020013373ffffffffffffffffffffffffffffffffffffffff1681526020018d6fffffffffffffffffffffffffffffffff1681526020018b8152602001600015158152602001600015158152602001600015158152602001846fffffffffffffffffffffffffffffffff1681526020016001896133c59190615024565b6fffffffffffffffffffffffffffffffff168152506004600084815260200190815260200160002060008201518160000160006101000a81548173ffffffffffffffffffffffffffffffffffffffff021916908373ffffffffffffffffffffffffffffffffffffffff160217905550602082015181600101556040820151816002015560608201518160030160006101000a81548173ffffffffffffffffffffffffffffffffffffffff021916908373ffffffffffffffffffffffffffffffffffffffff16021790555060808201518160040160006101000a81548173ffffffffffffffffffffffffffffffffffffffff021916908373ffffffffffffffffffffffffffffffffffffffff16021790555060a08201518160050160006101000a81548173ffffffffffffffffffffffffffffffffffffffff021916908373ffffffffffffffffffffffffffffffffffffffff16021790555060c08201518160060160006101000a8154816fffffffffffffffffffffffffffffffff02191690836fffffffffffffffffffffffffffffffff16021790555060e0820151816007019081613571919061520a565b506101008201518160080160006101000a81548160ff0219169083151502179055506101208201518160080160016101000a81548160ff0219169083151502179055506101408201518160080160026101000a81548160ff0219169083151502179055506101608201518160080160036101000a8154816fffffffffffffffffffffffffffffffff02191690836fffffffffffffffffffffffffffffffff1602179055506101808201518160090160006101000a8154816fffffffffffffffffffffffffffffffff02191690836fffffffffffffffffffffffffffffffff1602179055509050508a73ffffffffffffffffffffffffffffffffffffffff166323b872dd3330846040518463ffffffff1660e01b815260040161369593929190614882565b600060405180830381600087803b1580156136af57600080fd5b505af11580156136c3573d6000803e3d6000fd5b505050505b505080806136d590614dbd565b91505061322a565b507f3f86671f43fc8df2398a80d3b5ac31fb810f93e2cfa1724aed76f7042d836b7e86338b888b604051613715959493929190615324565b60405180910390a15050506137286139f5565b505050505050565b613738613990565b6000600560008481526020019081526020016000205490503373ffffffffffffffffffffffffffffffffffffffff166004600083815260200190815260200160002060030160009054906101000a900473ffffffffffffffffffffffffffffffffffffffff1673ffffffffffffffffffffffffffffffffffffffff16146137f4576040517f08c379a00000000000000000000000000000000000000000000000000000000081526004016137eb906153ca565b60405180910390fd5b816004600083815260200190815260200160002060030160006101000a81548173ffffffffffffffffffffffffffffffffffffffff021916908373ffffffffffffffffffffffffffffffffffffffff16021790555060016004600083815260200190815260200160002060090160009054906101000a90046fffffffffffffffffffffffffffffffff166138889190614820565b6004600083815260200190815260200160002060090160006101000a8154816fffffffffffffffffffffffffffffffff02191690836fffffffffffffffffffffffffffffffff16021790555060008490508073ffffffffffffffffffffffffffffffffffffffff1663f5537ede3385876040518463ffffffff1660e01b815260040161391693929190614882565b600060405180830381600087803b15801561393057600080fd5b505af1158015613944573d6000803e3d6000fd5b505050507f679ebf1af59403ccbbf38261fcf3ed9f7618934b037cd0baafb3441282332b628484604051613979929190614e41565b60405180910390a1505061398b6139f5565b505050565b6002600054036139d5576040517f08c379a00000000000000000000000000000000000000000000000000000000081526004016139cc90615436565b60405180910390fd5b6002600081905550565b6001816000016000828254019250508190555050565b6001600081905550565b600081600001549050919050565b60008160000154905060008111613a59576040517f08c379a0000000000000000000000000000000000000000000000000000000008152600401613a50906154a2565b60405180910390fd5b6001810382600001819055505050565b604051806101a00160405280600073ffffffffffffffffffffffffffffffffffffffff1681526020016000815260200160008152602001600073ffffffffffffffffffffffffffffffffffffffff168152602001600073ffffffffffffffffffffffffffffffffffffffff168152602001600073ffffffffffffffffffffffffffffffffffffffff16815260200160006fffffffffffffffffffffffffffffffff1681526020016060815260200160001515815260200160001515815260200160001515815260200160006fffffffffffffffffffffffffffffffff16815260200160006fffffffffffffffffffffffffffffffff1681525090565b6000604051905090565b600080fd5b600080fd5b6000819050919050565b613b8c81613b79565b8114613b9757600080fd5b50565b600081359050613ba981613b83565b92915050565b600060208284031215613bc557613bc4613b6f565b5b6000613bd384828501613b9a565b91505092915050565b60008115159050919050565b613bf181613bdc565b82525050565b6000602082019050613c0c6000830184613be8565b92915050565b600073ffffffffffffffffffffffffffffffffffffffff82169050919050565b6000613c3d82613c12565b9050919050565b613c4d81613c32565b8114613c5857600080fd5b50565b600081359050613c6a81613c44565b92915050565b60008060408385031215613c8757613c86613b6f565b5b6000613c9585828601613c5b565b9250506020613ca685828601613b9a565b9150509250929050565b600081519050919050565b600082825260208201905092915050565b6000819050602082019050919050565b613ce581613c32565b82525050565b613cf481613b79565b82525050565b6000613d0582613c12565b9050919050565b613d1581613cfa565b82525050565b60006fffffffffffffffffffffffffffffffff82169050919050565b613d4081613d1b565b82525050565b600081519050919050565b600082825260208201905092915050565b60005b83811015613d80578082015181840152602081019050613d65565b60008484015250505050565b6000601f19601f8301169050919050565b6000613da882613d46565b613db28185613d51565b9350613dc2818560208601613d62565b613dcb81613d8c565b840191505092915050565b613ddf81613bdc565b82525050565b60006101a083016000830151613dfe6000860182613cdc565b506020830151613e116020860182613ceb565b506040830151613e246040860182613ceb565b506060830151613e376060860182613d0c565b506080830151613e4a6080860182613d0c565b5060a0830151613e5d60a0860182613d0c565b5060c0830151613e7060c0860182613d37565b5060e083015184820360e0860152613e888282613d9d565b915050610100830151613e9f610100860182613dd6565b50610120830151613eb4610120860182613dd6565b50610140830151613ec9610140860182613dd6565b50610160830151613ede610160860182613d37565b50610180830151613ef3610180860182613d37565b508091505092915050565b6000613f0a8383613de5565b905092915050565b6000602082019050919050565b6000613f2a82613cb0565b613f348185613cbb565b935083602082028501613f4685613ccc565b8060005b85811015613f825784840389528151613f638582613efe565b9450613f6e83613f12565b925060208a01995050600181019050613f4a565b50829750879550505050505092915050565b60006020820190508181036000830152613fae8184613f1f565b905092915050565b613fbf81613d1b565b8114613fca57600080fd5b50565b600081359050613fdc81613fb6565b92915050565b600080fd5b7f4e487b7100000000000000000000000000000000000000000000000000000000600052604160045260246000fd5b61401f82613d8c565b810181811067ffffffffffffffff8211171561403e5761403d613fe7565b5b80604052505050565b6000614051613b65565b905061405d8282614016565b919050565b600067ffffffffffffffff82111561407d5761407c613fe7565b5b602082029050602081019050919050565b600080fd5b60006140a66140a184614062565b614047565b905080838252602082019050602084028301858111156140c9576140c861408e565b5b835b818110156140f257806140de8882613b9a565b8452602084019350506020810190506140cb565b5050509392505050565b600082601f83011261411157614110613fe2565b5b8135614121848260208601614093565b91505092915050565b6000806000806080858703121561414457614143613b6f565b5b600061415287828801613fcd565b945050602061416387828801613c5b565b935050604085013567ffffffffffffffff81111561418457614183613b74565b5b614190878288016140fc565b92505060606141a187828801613b9a565b91505092959194509250565b600080604083850312156141c4576141c3613b6f565b5b60006141d285828601613b9a565b92505060206141e385828601613c5b565b9150509250929050565b600081519050919050565b600082825260208201905092915050565b6000819050602082019050919050565b60006142258383613ceb565b60208301905092915050565b6000602082019050919050565b6000614249826141ed565b61425381856141f8565b935061425e83614209565b8060005b8381101561428f5781516142768882614219565b975061428183614231565b925050600181019050614262565b5085935050505092915050565b600060208201905081810360008301526142b6818461423e565b905092915050565b6000806000606084860312156142d7576142d6613b6f565b5b60006142e586828701613fcd565b93505060206142f686828701613c5b565b925050604061430786828701613b9a565b9150509250925092565b60008060006060848603121561432a57614329613b6f565b5b600061433886828701613fcd565b935050602061434986828701613c5b565b925050604084013567ffffffffffffffff81111561436a57614369613b74565b5b614376868287016140fc565b9150509250925092565b60006101a0830160008301516143996000860182613cdc565b5060208301516143ac6020860182613ceb565b5060408301516143bf6040860182613ceb565b5060608301516143d26060860182613d0c565b5060808301516143e56080860182613d0c565b5060a08301516143f860a0860182613d0c565b5060c083015161440b60c0860182613d37565b5060e083015184820360e08601526144238282613d9d565b91505061010083015161443a610100860182613dd6565b5061012083015161444f610120860182613dd6565b50610140830151614464610140860182613dd6565b50610160830151614479610160860182613d37565b5061018083015161448e610180860182613d37565b508091505092915050565b600060208201905081810360008301526144b38184614380565b905092915050565b6000806000606084860312156144d4576144d3613b6f565b5b600084013567ffffffffffffffff8111156144f2576144f1613b74565b5b6144fe868287016140fc565b935050602061450f86828701613b9a565b925050604061452086828701613c5b565b9150509250925092565b6000602082840312156145405761453f613b6f565b5b600061454e84828501613c5b565b91505092915050565b600080fd5b600067ffffffffffffffff82111561457757614576613fe7565b5b61458082613d8c565b9050602081019050919050565b82818337600083830152505050565b60006145af6145aa8461455c565b614047565b9050828152602081018484840111156145cb576145ca614557565b5b6145d684828561458d565b509392505050565b600082601f8301126145f3576145f2613fe2565b5b813561460384826020860161459c565b91505092915050565b60008060008060008060c0878903121561462957614628613b6f565b5b600061463789828a01613fcd565b965050602061464889828a01613c5b565b955050604087013567ffffffffffffffff81111561466957614668613b74565b5b61467589828a016145de565b945050606061468689828a01613b9a565b935050608061469789828a01613fcd565b92505060a06146a889828a01613fcd565b9150509295509295509295565b6000806000606084860312156146ce576146cd613b6f565b5b60006146dc86828701613c5b565b93505060206146ed86828701613b9a565b92505060406146fe86828701613c5b565b9150509250925092565b600082825260208201905092915050565b7f506c6561736520706179207468652061736b696e672070726963650000000000600082015250565b600061474f601b83614708565b915061475a82614719565b602082019050919050565b6000602082019050818103600083015261477e81614742565b9050919050565b7f4974656d20686173206265656e20616c726561647920736f6c64000000000000600082015250565b60006147bb601a83614708565b91506147c682614785565b602082019050919050565b600060208201905081810360008301526147ea816147ae565b9050919050565b7f4e487b7100000000000000000000000000000000000000000000000000000000600052601160045260246000fd5b600061482b82613d1b565b915061483683613d1b565b925082820390506fffffffffffffffffffffffffffffffff81111561485e5761485d6147f1565b5b92915050565b61486d81613c32565b82525050565b61487c81613b79565b82525050565b60006060820190506148976000830186614864565b6148a46020830185614864565b6148b16040830184614873565b949350505050565b6000819050919050565b60006148de6148d96148d484613d1b565b6148b9565b613b79565b9050919050565b6148ee816148c3565b82525050565b60006040820190506149096000830185614864565b61491660208301846148e5565b9392505050565b600061492882613b79565b915061493383613b79565b925082820190508082111561494b5761494a6147f1565b5b92915050565b600061495c82613b79565b91507fffffffffffffffffffffffffffffffffffffffffffffffffffffffffffffffff820361498e5761498d6147f1565b5b600182019050919050565b7f4e487b7100000000000000000000000000000000000000000000000000000000600052602260045260246000fd5b600060028204905060018216806149e057607f821691505b6020821081036149f3576149f2614999565b5b50919050565b7f4e487b7100000000000000000000000000000000000000000000000000000000600052603260045260246000fd5b6000602082019050614a3d6000830184614873565b92915050565b600081519050614a5281613c44565b92915050565b600060208284031215614a6e57614a6d613b6f565b5b6000614a7c84828501614a43565b91505092915050565b7f4f6e6c79206576656e74206f776e65722063616e20706572666f726d2074686960008201527f7300000000000000000000000000000000000000000000000000000000000000602082015250565b6000614ae1602183614708565b9150614aec82614a85565b604082019050919050565b60006020820190508181036000830152614b1081614ad4565b9050919050565b60006060820190508181036000830152614b31818661423e565b9050614b406020830185614864565b614b4d60408301846148e5565b949350505050565b7f4f6e6c79206576656e74206f776e6572206f722073656c6c65722063616e207060008201527f6572666f726d2074686973000000000000000000000000000000000000000000602082015250565b6000614bb1602b83614708565b9150614bbc82614b55565b604082019050919050565b60006020820190508181036000830152614be081614ba4565b9050919050565b7f546f6f206c6f7700000000000000000000000000000000000000000000000000600082015250565b6000614c1d600783614708565b9150614c2882614be7565b602082019050919050565b60006020820190508181036000830152614c4c81614c10565b9050919050565b7f4f6e6c79207469636b6574206f776e65722063616e20706572666f726d20746860008201527f6973206f7065726174696f6e0000000000000000000000000000000000000000602082015250565b6000614caf602c83614708565b9150614cba82614c53565b604082019050919050565b60006020820190508181036000830152614cde81614ca2565b9050919050565b7f5469636b657420697320616c7265616479206c69737465642100000000000000600082015250565b6000614d1b601983614708565b9150614d2682614ce5565b602082019050919050565b60006020820190508181036000830152614d4a81614d0e565b9050919050565b7f4e756d626572206f66207472616e736665722072696768742069732030000000600082015250565b6000614d87601d83614708565b9150614d9282614d51565b602082019050919050565b60006020820190508181036000830152614db681614d7a565b9050919050565b6000614dc882613d1b565b91506fffffffffffffffffffffffffffffffff8203614dea57614de96147f1565b5b600182019050919050565b60006080820190508181036000830152614e0f818761423e565b9050614e1e6020830186614864565b614e2b6040830185614864565b614e3860608301846148e5565b95945050505050565b6000604082019050614e566000830185614873565b614e636020830184614864565b9392505050565b614e7381613bdc565b8114614e7e57600080fd5b50565b600081519050614e9081614e6a565b92915050565b600060208284031215614eac57614eab613b6f565b5b6000614eba84828501614e81565b91505092915050565b7f4f6e6c79207469636b657420636f6e74726f6c6c657200000000000000000000600082015250565b6000614ef9601683614708565b9150614f0482614ec3565b602082019050919050565b60006020820190508181036000830152614f2881614eec565b9050919050565b600081519050614f3e81613b83565b92915050565b6000614f57614f5284614062565b614047565b90508083825260208201905060208402830185811115614f7a57614f7961408e565b5b835b81811015614fa35780614f8f8882614f2f565b845260208401935050602081019050614f7c565b5050509392505050565b600082601f830112614fc257614fc1613fe2565b5b8151614fd2848260208601614f44565b91505092915050565b600060208284031215614ff157614ff0613b6f565b5b600082015167ffffffffffffffff81111561500f5761500e613b74565b5b61501b84828501614fad565b91505092915050565b600061502f82613d1b565b915061503a83613d1b565b925082820190506fffffffffffffffffffffffffffffffff811115615062576150616147f1565b5b92915050565b60008190508160005260206000209050919050565b60006020601f8301049050919050565b600082821b905092915050565b6000600883026150ca7fffffffffffffffffffffffffffffffffffffffffffffffffffffffffffffffff8261508d565b6150d4868361508d565b95508019841693508086168417925050509392505050565b60006151076151026150fd84613b79565b6148b9565b613b79565b9050919050565b6000819050919050565b615121836150ec565b61513561512d8261510e565b84845461509a565b825550505050565b600090565b61514a61513d565b615155818484615118565b505050565b5b818110156151795761516e600082615142565b60018101905061515b565b5050565b601f8211156151be5761518f81615068565b6151988461507d565b810160208510156151a7578190505b6151bb6151b38561507d565b83018261515a565b50505b505050565b600082821c905092915050565b60006151e1600019846008026151c3565b1980831691505092915050565b60006151fa83836151d0565b9150826002028217905092915050565b61521382613d46565b67ffffffffffffffff81111561522c5761522b613fe7565b5b61523682546149c8565b61524182828561517d565b600060209050601f8311600181146152745760008415615262578287015190505b61526c85826151ee565b8655506152d4565b601f19841661528286615068565b60005b828110156152aa57848901518255600182019150602085019450602081019050615285565b868310156152c757848901516152c3601f8916826151d0565b8355505b6001600288020188555050505b505050505050565b6152e581613d1b565b82525050565b60006152f682613d46565b6153008185614708565b9350615310818560208601613d62565b61531981613d8c565b840191505092915050565b600060a0820190506153396000830188614873565b6153466020830187614864565b61535360408301866152dc565b61536060608301856152dc565b818103608083015261537281846152eb565b90509695505050505050565b7f4f6e6c79207469636b6574206f776e6572000000000000000000000000000000600082015250565b60006153b4601183614708565b91506153bf8261537e565b602082019050919050565b600060208201905081810360008301526153e3816153a7565b9050919050565b7f5265656e7472616e637947756172643a207265656e7472616e742063616c6c00600082015250565b6000615420601f83614708565b915061542b826153ea565b602082019050919050565b6000602082019050818103600083015261544f81615413565b9050919050565b7f436f756e7465723a2064656372656d656e74206f766572666c6f770000000000600082015250565b600061548c601b83614708565b915061549782615456565b602082019050919050565b600060208201905081810360008301526154bb8161547f565b905091905056fea264697066735822122028040c4502762b7d9a9f70e7fa6cd2c7f71e75e12e14333f12c2de897955fa0964736f6c63430008110033",
  "linkReferences": {},
  "deployedLinkReferences": {}
}