{
  "_format": "hh-sol-artifact-1",
  "contractName": "TicketAuction",
  "sourceName": "contracts/TicketAuction.sol",
  "abi": [
    {
      "inputs": [
        {
          "internalType": "address",
          "name": "ticketMarket",
          "type": "address"
        },
        {
          "internalType": "address",
          "name": "ticketMint",
          "type": "address"
        }
      ],
      "stateMutability": "nonpayable",
      "type": "constructor"
    },
    {
      "anonymous": false,
      "inputs": [
        {
          "indexed": false,
          "internalType": "address",
          "name": "sender",
          "type": "address"
        },
        {
          "indexed": false,
          "internalType": "uint256",
          "name": "amount",
          "type": "uint256"
        }
      ],
      "name": "Bid",
      "type": "event"
    },
    {
      "anonymous": false,
      "inputs": [
        {
          "indexed": false,
          "internalType": "address",
          "name": "winner",
          "type": "address"
        },
        {
          "indexed": false,
          "internalType": "uint256",
          "name": "amount",
          "type": "uint256"
        }
      ],
      "name": "End",
      "type": "event"
    },
    {
      "anonymous": false,
      "inputs": [
        {
          "indexed": false,
          "internalType": "uint256",
          "name": "ticketId",
          "type": "uint256"
        },
        {
          "indexed": false,
          "internalType": "address",
          "name": "starter",
          "type": "address"
        },
        {
          "indexed": false,
          "internalType": "uint256",
          "name": "auctionId",
          "type": "uint256"
        }
      ],
      "name": "Start",
      "type": "event"
    },
    {
      "anonymous": false,
      "inputs": [
        {
          "indexed": false,
          "internalType": "address",
          "name": "bidder",
          "type": "address"
        },
        {
          "indexed": false,
          "internalType": "uint256",
          "name": "amount",
          "type": "uint256"
        }
      ],
      "name": "Withdraw",
      "type": "event"
    },
    {
      "inputs": [
        {
          "internalType": "uint256",
          "name": "auctionId",
          "type": "uint256"
        }
      ],
      "name": "GetAuctionInfo",
      "outputs": [
        {
          "components": [
            {
              "internalType": "uint256",
              "name": "ticketID",
              "type": "uint256"
            },
            {
              "internalType": "uint256",
              "name": "eventID",
              "type": "uint256"
            },
            {
              "internalType": "uint256",
              "name": "auctionID",
              "type": "uint256"
            },
            {
              "internalType": "address payable",
              "name": "seller",
              "type": "address"
            },
            {
              "internalType": "uint256",
              "name": "endAt",
              "type": "uint256"
            },
            {
              "internalType": "bool",
              "name": "started",
              "type": "bool"
            },
            {
              "internalType": "bool",
              "name": "ended",
              "type": "bool"
            },
            {
              "internalType": "address",
              "name": "highestBidder",
              "type": "address"
            },
            {
              "internalType": "uint256",
              "name": "highestBid",
              "type": "uint256"
            },
            {
              "internalType": "uint256",
              "name": "startingPrice",
              "type": "uint256"
            }
          ],
          "internalType": "struct TicketAuction.AuctionInfo",
          "name": "",
          "type": "tuple"
        }
      ],
      "stateMutability": "view",
      "type": "function"
    },
    {
      "inputs": [
        {
          "internalType": "uint256",
          "name": "auctionId",
          "type": "uint256"
        }
      ],
      "name": "StopAuction",
      "outputs": [],
      "stateMutability": "payable",
      "type": "function"
    },
    {
      "inputs": [
        {
          "internalType": "uint256",
          "name": "",
          "type": "uint256"
        }
      ],
      "name": "auctions",
      "outputs": [
        {
          "internalType": "uint256",
          "name": "ticketID",
          "type": "uint256"
        },
        {
          "internalType": "uint256",
          "name": "eventID",
          "type": "uint256"
        },
        {
          "internalType": "uint256",
          "name": "auctionID",
          "type": "uint256"
        },
        {
          "internalType": "address payable",
          "name": "seller",
          "type": "address"
        },
        {
          "internalType": "uint256",
          "name": "endAt",
          "type": "uint256"
        },
        {
          "internalType": "bool",
          "name": "started",
          "type": "bool"
        },
        {
          "internalType": "bool",
          "name": "ended",
          "type": "bool"
        },
        {
          "internalType": "address",
          "name": "highestBidder",
          "type": "address"
        },
        {
          "internalType": "uint256",
          "name": "highestBid",
          "type": "uint256"
        },
        {
          "internalType": "uint256",
          "name": "startingPrice",
          "type": "uint256"
        }
      ],
      "stateMutability": "view",
      "type": "function"
    },
    {
      "inputs": [
        {
          "internalType": "uint256",
          "name": "",
          "type": "uint256"
        },
        {
          "internalType": "uint256",
          "name": "",
          "type": "uint256"
        }
      ],
      "name": "bids",
      "outputs": [
        {
          "internalType": "address",
          "name": "bidder",
          "type": "address"
        },
        {
          "internalType": "uint256",
          "name": "bid",
          "type": "uint256"
        },
        {
          "internalType": "bool",
          "name": "isBack",
          "type": "bool"
        }
      ],
      "stateMutability": "view",
      "type": "function"
    },
    {
      "inputs": [
        {
          "internalType": "uint256",
          "name": "ticketId",
          "type": "uint256"
        },
        {
          "internalType": "uint256",
          "name": "eventId",
          "type": "uint256"
        },
        {
          "internalType": "uint256",
          "name": "auctionId",
          "type": "uint256"
        },
        {
          "internalType": "uint256",
          "name": "startPrice",
          "type": "uint256"
        },
        {
          "internalType": "uint256",
          "name": "time",
          "type": "uint256"
        }
      ],
      "name": "createBidItem",
      "outputs": [],
      "stateMutability": "payable",
      "type": "function"
    },
    {
      "inputs": [
        {
          "internalType": "uint256",
          "name": "auctionId",
          "type": "uint256"
        }
      ],
      "name": "finishBid",
      "outputs": [],
      "stateMutability": "nonpayable",
      "type": "function"
    },
    {
      "inputs": [
        {
          "internalType": "uint256",
          "name": "auctionId",
          "type": "uint256"
        }
      ],
      "name": "listPrevBids",
      "outputs": [
        {
          "components": [
            {
              "internalType": "address",
              "name": "bidder",
              "type": "address"
            },
            {
              "internalType": "uint256",
              "name": "bid",
              "type": "uint256"
            },
            {
              "internalType": "bool",
              "name": "isBack",
              "type": "bool"
            }
          ],
          "internalType": "struct TicketAuction.prevBids[]",
          "name": "",
          "type": "tuple[]"
        }
      ],
      "stateMutability": "view",
      "type": "function"
    },
    {
      "inputs": [
        {
          "internalType": "uint256",
          "name": "auctionId",
          "type": "uint256"
        }
      ],
      "name": "payBackPrevBids",
      "outputs": [],
      "stateMutability": "payable",
      "type": "function"
    },
    {
      "inputs": [
        {
          "internalType": "uint256",
          "name": "auctionId",
          "type": "uint256"
        }
      ],
      "name": "placeBid",
      "outputs": [],
      "stateMutability": "payable",
      "type": "function"
    }
  ],
  "bytecode": "0x60806040523480156200001157600080fd5b5060405162002712380380620027128339818101604052810190620000379190620001f6565b600160008190555033600160006101000a81548173ffffffffffffffffffffffffffffffffffffffff021916908373ffffffffffffffffffffffffffffffffffffffff16021790555081600260006101000a81548173ffffffffffffffffffffffffffffffffffffffff021916908373ffffffffffffffffffffffffffffffffffffffff16021790555081600460006101000a81548173ffffffffffffffffffffffffffffffffffffffff021916908373ffffffffffffffffffffffffffffffffffffffff16021790555080600360006101000a81548173ffffffffffffffffffffffffffffffffffffffff021916908373ffffffffffffffffffffffffffffffffffffffff16021790555080600560006101000a81548173ffffffffffffffffffffffffffffffffffffffff021916908373ffffffffffffffffffffffffffffffffffffffff16021790555050506200023d565b600080fd5b600073ffffffffffffffffffffffffffffffffffffffff82169050919050565b6000620001be8262000191565b9050919050565b620001d081620001b1565b8114620001dc57600080fd5b50565b600081519050620001f081620001c5565b92915050565b6000806040838503121562000210576200020f6200018c565b5b60006200022085828601620001df565b92505060206200023385828601620001df565b9150509250929050565b6124c5806200024d6000396000f3fe6080604052600436106100865760003560e01c80637b3c4baa116100595780637b3c4baa146101465780638e3a79d2146101855780639979ef45146101a157806399ec8202146101bd578063cedb8860146101fa57610086565b806301ea0a9a1461008b57806335dd1796146100a7578063571a26a0146100c357806372306fec14610109575b600080fd5b6100a560048036038101906100a09190611916565b610223565b005b6100c160048036038101906100bc9190611916565b610486565b005b3480156100cf57600080fd5b506100ea60048036038101906100e59190611916565b61081e565b6040516101009a999897969594939291906119cf565b60405180910390f35b34801561011557600080fd5b50610130600480360381019061012b9190611916565b6108cc565b60405161013d9190611b89565b60405180910390f35b34801561015257600080fd5b5061016d60048036038101906101689190611bab565b6109b9565b60405161017c93929190611beb565b60405180910390f35b61019f600480360381019061019a9190611c22565b610a2d565b005b6101bb60048036038101906101b69190611916565b610e1d565b005b3480156101c957600080fd5b506101e460048036038101906101df9190611916565b6111b4565b6040516101f19190611d78565b60405180910390f35b34801561020657600080fd5b50610221600480360381019061021c9190611916565b611300565b005b60006007600083815260200190815260200160002080549050905060005b81811015610481576000151560076000858152602001908152602001600020828154811061027257610271611d94565b5b906000526020600020906003020160020160009054906101000a900460ff16151514801561032157503373ffffffffffffffffffffffffffffffffffffffff166007600085815260200190815260200160002082815481106102d7576102d6611d94565b5b906000526020600020906003020160000160009054906101000a900473ffffffffffffffffffffffffffffffffffffffff1673ffffffffffffffffffffffffffffffffffffffff16145b1561046e57600160076000858152602001908152602001600020828154811061034d5761034c611d94565b5b906000526020600020906003020160020160006101000a81548160ff021916908315150217905550600060076000858152602001908152602001600020828154811061039c5761039b611d94565b5b90600052602060002090600302016001015490503373ffffffffffffffffffffffffffffffffffffffff166108fc829081150290604051600060405180830381858888f193505050501580156103f6573d6000803e3d6000fd5b507f884edad9ce6fa2440d8a54cc123490eb96d2768479d49ff9c7366125a94243643382604051610428929190611dc3565b60405180910390a1600060076000868152602001908152602001600020838154811061045757610456611d94565b5b906000526020600020906003020160010181905550505b808061047990611e1b565b915050610241565b505050565b61048e6117c6565b3373ffffffffffffffffffffffffffffffffffffffff166006600083815260200190815260200160002060030160009054906101000a900473ffffffffffffffffffffffffffffffffffffffff1673ffffffffffffffffffffffffffffffffffffffff1614610532576040517f08c379a000000000000000000000000000000000000000000000000000000000815260040161052990611ec0565b60405180910390fd5b60006006600083815260200190815260200160002060050160029054906101000a900473ffffffffffffffffffffffffffffffffffffffff16905060006006600084815260200190815260200160002060060154905061059061181f565b82816000019073ffffffffffffffffffffffffffffffffffffffff16908173ffffffffffffffffffffffffffffffffffffffff16815250508181602001818152505060008160400190151590811515815250506007600085815260200190815260200160002081908060018154018082558091505060019003906000526020600020906003020160009091909190915060008201518160000160006101000a81548173ffffffffffffffffffffffffffffffffffffffff021916908373ffffffffffffffffffffffffffffffffffffffff1602179055506020820151816001015560408201518160020160006101000a81548160ff0219169083151502179055505050336006600086815260200190815260200160002060050160026101000a81548173ffffffffffffffffffffffffffffffffffffffff021916908373ffffffffffffffffffffffffffffffffffffffff1602179055506000600660008681526020019081526020016000206006018190555060016006600086815260200190815260200160002060050160016101000a81548160ff021916908315150217905550600360009054906101000a900473ffffffffffffffffffffffffffffffffffffffff1673ffffffffffffffffffffffffffffffffffffffff1663f5537ede306006600088815260200190815260200160002060030160009054906101000a900473ffffffffffffffffffffffffffffffffffffffff1660066000898152602001908152602001600020600001546040518463ffffffff1660e01b81526004016107de93929190611f3f565b600060405180830381600087803b1580156107f857600080fd5b505af115801561080c573d6000803e3d6000fd5b5050505050505061081b611815565b50565b60066020528060005260406000206000915090508060000154908060010154908060020154908060030160009054906101000a900473ffffffffffffffffffffffffffffffffffffffff16908060040154908060050160009054906101000a900460ff16908060050160019054906101000a900460ff16908060050160029054906101000a900473ffffffffffffffffffffffffffffffffffffffff1690806006015490806007015490508a565b606060076000838152602001908152602001600020805480602002602001604051908101604052809291908181526020016000905b828210156109ae57838290600052602060002090600302016040518060600160405290816000820160009054906101000a900473ffffffffffffffffffffffffffffffffffffffff1673ffffffffffffffffffffffffffffffffffffffff1673ffffffffffffffffffffffffffffffffffffffff168152602001600182015481526020016002820160009054906101000a900460ff16151515158152505081526020019060010190610901565b505050509050919050565b600760205281600052604060002081815481106109d557600080fd5b9060005260206000209060030201600091509150508060000160009054906101000a900473ffffffffffffffffffffffffffffffffffffffff16908060010154908060020160009054906101000a900460ff16905083565b610a356117c6565b600260009054906101000a900473ffffffffffffffffffffffffffffffffffffffff1673ffffffffffffffffffffffffffffffffffffffff1663b2564569866040518263ffffffff1660e01b8152600401610a909190611f76565b602060405180830381865afa158015610aad573d6000803e3d6000fd5b505050506040513d601f19601f82011682018060405250810190610ad19190611fbd565b610b10576040517f08c379a0000000000000000000000000000000000000000000000000000000008152600401610b0790612036565b60405180910390fd5b60008211610b53576040517f08c379a0000000000000000000000000000000000000000000000000000000008152600401610b4a906120a2565b60405180910390fd5b603c811015610b97576040517f08c379a0000000000000000000000000000000000000000000000000000000008152600401610b8e9061210e565b60405180910390fd5b60008142610ba5919061212e565b90506040518061014001604052808781526020018681526020018581526020013373ffffffffffffffffffffffffffffffffffffffff1681526020018281526020016001151581526020016000151581526020013373ffffffffffffffffffffffffffffffffffffffff168152602001848152602001848152506006600086815260200190815260200160002060008201518160000155602082015181600101556040820151816002015560608201518160030160006101000a81548173ffffffffffffffffffffffffffffffffffffffff021916908373ffffffffffffffffffffffffffffffffffffffff1602179055506080820151816004015560a08201518160050160006101000a81548160ff02191690831515021790555060c08201518160050160016101000a81548160ff02191690831515021790555060e08201518160050160026101000a81548173ffffffffffffffffffffffffffffffffffffffff021916908373ffffffffffffffffffffffffffffffffffffffff16021790555061010082015181600601556101208201518160070155905050600360009054906101000a900473ffffffffffffffffffffffffffffffffffffffff1673ffffffffffffffffffffffffffffffffffffffff1663f5537ede3330896040518463ffffffff1660e01b8152600401610da093929190612162565b600060405180830381600087803b158015610dba57600080fd5b505af1158015610dce573d6000803e3d6000fd5b505050507fde4164eea942dd001cdc898565cb8b2d25861c322c3c1e695630687d11036f15863386604051610e0593929190612199565b60405180910390a150610e16611815565b5050505050565b610e256117c6565b6006600082815260200190815260200160002060050160009054906101000a900460ff16610e88576040517f08c379a0000000000000000000000000000000000000000000000000000000008152600401610e7f9061221c565b60405180910390fd5b6006600082815260200190815260200160002060050160019054906101000a900460ff1615610eec576040517f08c379a0000000000000000000000000000000000000000000000000000000008152600401610ee390612288565b60405180910390fd5b60066000828152602001908152602001600020600401544210610f44576040517f08c379a0000000000000000000000000000000000000000000000000000000008152600401610f3b906122f4565b60405180910390fd5b60066000828152602001908152602001600020600601543411610f9c576040517f08c379a0000000000000000000000000000000000000000000000000000000008152600401610f9390612360565b60405180910390fd5b60006006600083815260200190815260200160002060050160029054906101000a900473ffffffffffffffffffffffffffffffffffffffff169050600060066000848152602001908152602001600020600601549050610ffa61181f565b82816000019073ffffffffffffffffffffffffffffffffffffffff16908173ffffffffffffffffffffffffffffffffffffffff16815250508181602001818152505060008160400190151590811515815250506007600085815260200190815260200160002081908060018154018082558091505060019003906000526020600020906003020160009091909190915060008201518160000160006101000a81548173ffffffffffffffffffffffffffffffffffffffff021916908373ffffffffffffffffffffffffffffffffffffffff1602179055506020820151816001015560408201518160020160006101000a81548160ff0219169083151502179055505050336006600086815260200190815260200160002060050160026101000a81548173ffffffffffffffffffffffffffffffffffffffff021916908373ffffffffffffffffffffffffffffffffffffffff1602179055503460066000868152602001908152602001600020600601819055507fe684a55f31b79eca403df938249029212a5925ec6be8012e099b45bc1019e5d2333460405161119e929190611dc3565b60405180910390a15050506111b1611815565b50565b6111bc611858565b60066000838152602001908152602001600020604051806101400160405290816000820154815260200160018201548152602001600282015481526020016003820160009054906101000a900473ffffffffffffffffffffffffffffffffffffffff1673ffffffffffffffffffffffffffffffffffffffff1673ffffffffffffffffffffffffffffffffffffffff168152602001600482015481526020016005820160009054906101000a900460ff161515151581526020016005820160019054906101000a900460ff161515151581526020016005820160029054906101000a900473ffffffffffffffffffffffffffffffffffffffff1673ffffffffffffffffffffffffffffffffffffffff1673ffffffffffffffffffffffffffffffffffffffff168152602001600682015481526020016007820154815250509050919050565b6113086117c6565b6006600082815260200190815260200160002060050160009054906101000a900460ff1661136b576040517f08c379a00000000000000000000000000000000000000000000000000000000081526004016113629061221c565b60405180910390fd5b60066000828152602001908152602001600020600401544210156113c4576040517f08c379a00000000000000000000000000000000000000000000000000000000081526004016113bb906123cc565b60405180910390fd5b6006600082815260200190815260200160002060050160019054906101000a900460ff1615611428576040517f08c379a000000000000000000000000000000000000000000000000000000000815260040161141f906122f4565b60405180910390fd5b60016006600083815260200190815260200160002060050160016101000a81548160ff021916908315150217905550600073ffffffffffffffffffffffffffffffffffffffff166006600083815260200190815260200160002060050160029054906101000a900473ffffffffffffffffffffffffffffffffffffffff1673ffffffffffffffffffffffffffffffffffffffff161461165857600260009054906101000a900473ffffffffffffffffffffffffffffffffffffffff1673ffffffffffffffffffffffffffffffffffffffff1663e701679b600560009054906101000a900473ffffffffffffffffffffffffffffffffffffffff1660066000858152602001908152602001600020600001546006600086815260200190815260200160002060050160029054906101000a900473ffffffffffffffffffffffffffffffffffffffff166040518463ffffffff1660e01b815260040161158e939291906123ec565b600060405180830381600087803b1580156115a857600080fd5b505af11580156115bc573d6000803e3d6000fd5b505050506006600082815260200190815260200160002060030160009054906101000a900473ffffffffffffffffffffffffffffffffffffffff1673ffffffffffffffffffffffffffffffffffffffff166108fc60066000848152602001908152602001600020600601549081150290604051600060405180830381858888f19350505050158015611652573d6000803e3d6000fd5b50611736565b600360009054906101000a900473ffffffffffffffffffffffffffffffffffffffff1673ffffffffffffffffffffffffffffffffffffffff1663f5537ede306006600085815260200190815260200160002060030160009054906101000a900473ffffffffffffffffffffffffffffffffffffffff1660066000868152602001908152602001600020600001546040518463ffffffff1660e01b815260040161170393929190611f3f565b600060405180830381600087803b15801561171d57600080fd5b505af1158015611731573d6000803e3d6000fd5b505050505b7f7d7570b046e5ead3a4f3fbc9fa2445113625a1e79823776146316bafed6b8cc56006600083815260200190815260200160002060050160029054906101000a900473ffffffffffffffffffffffffffffffffffffffff1660066000848152602001908152602001600020600601546040516117b3929190611dc3565b60405180910390a16117c3611815565b50565b60026000540361180b576040517f08c379a00000000000000000000000000000000000000000000000000000000081526004016118029061246f565b60405180910390fd5b6002600081905550565b6001600081905550565b6040518060600160405280600073ffffffffffffffffffffffffffffffffffffffff168152602001600081526020016000151581525090565b604051806101400160405280600081526020016000815260200160008152602001600073ffffffffffffffffffffffffffffffffffffffff16815260200160008152602001600015158152602001600015158152602001600073ffffffffffffffffffffffffffffffffffffffff16815260200160008152602001600081525090565b600080fd5b6000819050919050565b6118f3816118e0565b81146118fe57600080fd5b50565b600081359050611910816118ea565b92915050565b60006020828403121561192c5761192b6118db565b5b600061193a84828501611901565b91505092915050565b61194c816118e0565b82525050565b600073ffffffffffffffffffffffffffffffffffffffff82169050919050565b600061197d82611952565b9050919050565b61198d81611972565b82525050565b60008115159050919050565b6119a881611993565b82525050565b60006119b982611952565b9050919050565b6119c9816119ae565b82525050565b6000610140820190506119e5600083018d611943565b6119f2602083018c611943565b6119ff604083018b611943565b611a0c606083018a611984565b611a196080830189611943565b611a2660a083018861199f565b611a3360c083018761199f565b611a4060e08301866119c0565b611a4e610100830185611943565b611a5c610120830184611943565b9b9a5050505050505050505050565b600081519050919050565b600082825260208201905092915050565b6000819050602082019050919050565b611aa0816119ae565b82525050565b611aaf816118e0565b82525050565b611abe81611993565b82525050565b606082016000820151611ada6000850182611a97565b506020820151611aed6020850182611aa6565b506040820151611b006040850182611ab5565b50505050565b6000611b128383611ac4565b60608301905092915050565b6000602082019050919050565b6000611b3682611a6b565b611b408185611a76565b9350611b4b83611a87565b8060005b83811015611b7c578151611b638882611b06565b9750611b6e83611b1e565b925050600181019050611b4f565b5085935050505092915050565b60006020820190508181036000830152611ba38184611b2b565b905092915050565b60008060408385031215611bc257611bc16118db565b5b6000611bd085828601611901565b9250506020611be185828601611901565b9150509250929050565b6000606082019050611c0060008301866119c0565b611c0d6020830185611943565b611c1a604083018461199f565b949350505050565b600080600080600060a08688031215611c3e57611c3d6118db565b5b6000611c4c88828901611901565b9550506020611c5d88828901611901565b9450506040611c6e88828901611901565b9350506060611c7f88828901611901565b9250506080611c9088828901611901565b9150509295509295909350565b611ca681611972565b82525050565b61014082016000820151611cc36000850182611aa6565b506020820151611cd66020850182611aa6565b506040820151611ce96040850182611aa6565b506060820151611cfc6060850182611c9d565b506080820151611d0f6080850182611aa6565b5060a0820151611d2260a0850182611ab5565b5060c0820151611d3560c0850182611ab5565b5060e0820151611d4860e0850182611a97565b50610100820151611d5d610100850182611aa6565b50610120820151611d72610120850182611aa6565b50505050565b600061014082019050611d8e6000830184611cac565b92915050565b7f4e487b7100000000000000000000000000000000000000000000000000000000600052603260045260246000fd5b6000604082019050611dd860008301856119c0565b611de56020830184611943565b9392505050565b7f4e487b7100000000000000000000000000000000000000000000000000000000600052601160045260246000fd5b6000611e26826118e0565b91507fffffffffffffffffffffffffffffffffffffffffffffffffffffffffffffffff8203611e5857611e57611dec565b5b600182019050919050565b600082825260208201905092915050565b7f6f6e6c79207469636b65742073656c6c65720000000000000000000000000000600082015250565b6000611eaa601283611e63565b9150611eb582611e74565b602082019050919050565b60006020820190508181036000830152611ed981611e9d565b9050919050565b6000819050919050565b6000611f05611f00611efb84611952565b611ee0565b611952565b9050919050565b6000611f1782611eea565b9050919050565b6000611f2982611f0c565b9050919050565b611f3981611f1e565b82525050565b6000606082019050611f5460008301866119c0565b611f616020830185611f30565b611f6e6040830184611943565b949350505050565b6000602082019050611f8b6000830184611943565b92915050565b611f9a81611993565b8114611fa557600080fd5b50565b600081519050611fb781611f91565b92915050565b600060208284031215611fd357611fd26118db565b5b6000611fe184828501611fa8565b91505092915050565b7f4e756d626572206f66207472616e736665722072696768742069732030000000600082015250565b6000612020601d83611e63565b915061202b82611fea565b602082019050919050565b6000602082019050818103600083015261204f81612013565b9050919050565b7f546f6f206c6f7700000000000000000000000000000000000000000000000000600082015250565b600061208c600783611e63565b915061209782612056565b602082019050919050565b600060208201905081810360008301526120bb8161207f565b9050919050565b7f6174206c65617374203630207365630000000000000000000000000000000000600082015250565b60006120f8600f83611e63565b9150612103826120c2565b602082019050919050565b60006020820190508181036000830152612127816120eb565b9050919050565b6000612139826118e0565b9150612144836118e0565b925082820190508082111561215c5761215b611dec565b5b92915050565b600060608201905061217760008301866119c0565b61218460208301856119c0565b6121916040830184611943565b949350505050565b60006060820190506121ae6000830186611943565b6121bb60208301856119c0565b6121c86040830184611943565b949350505050565b7f6e6f742073746172746564000000000000000000000000000000000000000000600082015250565b6000612206600b83611e63565b9150612211826121d0565b602082019050919050565b60006020820190508181036000830152612235816121f9565b9050919050565b7f616c726561647920656e64000000000000000000000000000000000000000000600082015250565b6000612272600b83611e63565b915061227d8261223c565b602082019050919050565b600060208201905081810360008301526122a181612265565b9050919050565b7f656e646564000000000000000000000000000000000000000000000000000000600082015250565b60006122de600583611e63565b91506122e9826122a8565b602082019050919050565b6000602082019050818103600083015261230d816122d1565b9050919050565b7f76616c7565203c20686967686573742062696400000000000000000000000000600082015250565b600061234a601383611e63565b915061235582612314565b602082019050919050565b600060208201905081810360008301526123798161233d565b9050919050565b7f6e6f7420656e6465640000000000000000000000000000000000000000000000600082015250565b60006123b6600983611e63565b91506123c182612380565b602082019050919050565b600060208201905081810360008301526123e5816123a9565b9050919050565b600060608201905061240160008301866119c0565b61240e6020830185611943565b61241b60408301846119c0565b949350505050565b7f5265656e7472616e637947756172643a207265656e7472616e742063616c6c00600082015250565b6000612459601f83611e63565b915061246482612423565b602082019050919050565b600060208201905081810360008301526124888161244c565b905091905056fea2646970667358221220794689c76126fabb477223c0ba3843401b520999c58d1b8d77a173cbaf82f7eb64736f6c63430008110033",
  "linkReferences": {},
  "deployedLinkReferences": {}
}